{
  "_format": "hh-sol-artifact-1",
  "contractName": "ChallengeManager",
  "sourceName": "src/ChallengeManager.sol",
  "abi": [
    {
      "inputs": [
        {
          "internalType": "address",
          "name": "_paymentProcessor",
          "type": "address"
        }
      ],
      "stateMutability": "nonpayable",
      "type": "constructor"
    },
    {
      "anonymous": false,
      "inputs": [
        {
          "indexed": true,
          "internalType": "uint256",
          "name": "challengeId",
          "type": "uint256"
        },
        {
          "indexed": true,
          "internalType": "address",
          "name": "challenger",
          "type": "address"
        }
      ],
      "name": "ChallengeAccepted",
      "type": "event"
    },
    {
      "anonymous": false,
      "inputs": [
        {
          "indexed": true,
          "internalType": "uint256",
          "name": "challengeId",
          "type": "uint256"
        },
        {
          "indexed": true,
          "internalType": "address",
          "name": "winner",
          "type": "address"
        },
        {
          "indexed": false,
          "internalType": "uint256",
          "name": "winnerScore",
          "type": "uint256"
        },
        {
          "indexed": false,
          "internalType": "uint256",
          "name": "prizeAmount",
          "type": "uint256"
        }
      ],
      "name": "ChallengeCompleted",
      "type": "event"
    },
    {
      "anonymous": false,
      "inputs": [
        {
          "indexed": true,
          "internalType": "uint256",
          "name": "challengeId",
          "type": "uint256"
        },
        {
          "indexed": true,
          "internalType": "address",
          "name": "creator",
          "type": "address"
        },
        {
          "indexed": false,
          "internalType": "enum ChallengeManager.ChallengeType",
          "name": "challengeType",
          "type": "uint8"
        },
        {
          "indexed": false,
          "internalType": "uint256",
          "name": "entryFee",
          "type": "uint256"
        },
        {
          "indexed": false,
          "internalType": "string",
          "name": "gamePattern",
          "type": "string"
        },
        {
          "indexed": false,
          "internalType": "string",
          "name": "message",
          "type": "string"
        }
      ],
      "name": "ChallengeCreated",
      "type": "event"
    },
    {
      "anonymous": false,
      "inputs": [
        {
          "indexed": true,
          "internalType": "uint256",
          "name": "challengeId",
          "type": "uint256"
        }
      ],
      "name": "ChallengeExpired",
      "type": "event"
    },
    {
      "anonymous": false,
      "inputs": [
        {
          "indexed": true,
          "internalType": "address",
          "name": "previousOwner",
          "type": "address"
        },
        {
          "indexed": true,
          "internalType": "address",
          "name": "newOwner",
          "type": "address"
        }
      ],
      "name": "OwnershipTransferred",
      "type": "event"
    },
    {
      "anonymous": false,
      "inputs": [
        {
          "indexed": false,
          "internalType": "address",
          "name": "account",
          "type": "address"
        }
      ],
      "name": "Paused",
      "type": "event"
    },
    {
      "anonymous": false,
      "inputs": [
        {
          "indexed": false,
          "internalType": "address",
          "name": "account",
          "type": "address"
        }
      ],
      "name": "Unpaused",
      "type": "event"
    },
    {
      "inputs": [],
      "name": "CHALLENGE_EXPIRY_TIME",
      "outputs": [
        {
          "internalType": "uint256",
          "name": "",
          "type": "uint256"
        }
      ],
      "stateMutability": "view",
      "type": "function"
    },
    {
      "inputs": [],
      "name": "HIGH_ROLLER_CHALLENGE_AMOUNT",
      "outputs": [
        {
          "internalType": "uint256",
          "name": "",
          "type": "uint256"
        }
      ],
      "stateMutability": "view",
      "type": "function"
    },
    {
      "inputs": [],
      "name": "PLATFORM_FEE_PERCENT",
      "outputs": [
        {
          "internalType": "uint256",
          "name": "",
          "type": "uint256"
        }
      ],
      "stateMutability": "view",
      "type": "function"
    },
    {
      "inputs": [],
      "name": "QUICK_CHALLENGE_AMOUNT",
      "outputs": [
        {
          "internalType": "uint256",
          "name": "",
          "type": "uint256"
        }
      ],
      "stateMutability": "view",
      "type": "function"
    },
    {
      "inputs": [
        {
          "internalType": "uint256",
          "name": "challengeId",
          "type": "uint256"
        }
      ],
      "name": "acceptChallenge",
      "outputs": [],
      "stateMutability": "nonpayable",
      "type": "function"
    },
    {
      "inputs": [
        {
          "internalType": "uint256",
          "name": "challengeId",
          "type": "uint256"
        }
      ],
      "name": "cancelExpiredChallenge",
      "outputs": [],
      "stateMutability": "nonpayable",
      "type": "function"
    },
    {
      "inputs": [
        {
          "internalType": "uint256",
          "name": "",
          "type": "uint256"
        }
      ],
      "name": "challenges",
      "outputs": [
        {
          "internalType": "uint256",
          "name": "id",
          "type": "uint256"
        },
        {
          "internalType": "address",
          "name": "creator",
          "type": "address"
        },
        {
          "internalType": "address",
          "name": "challenger",
          "type": "address"
        },
        {
          "internalType": "enum ChallengeManager.ChallengeType",
          "name": "challengeType",
          "type": "uint8"
        },
        {
          "internalType": "uint256",
          "name": "entryFee",
          "type": "uint256"
        },
        {
          "internalType": "uint256",
          "name": "creatorScore",
          "type": "uint256"
        },
        {
          "internalType": "uint256",
          "name": "challengerScore",
          "type": "uint256"
        },
        {
          "internalType": "uint256",
          "name": "creatorScoreTarget",
          "type": "uint256"
        },
        {
          "internalType": "string",
          "name": "gamePattern",
          "type": "string"
        },
        {
          "internalType": "string",
          "name": "message",
          "type": "string"
        },
        {
          "internalType": "enum ChallengeManager.ChallengeStatus",
          "name": "status",
          "type": "uint8"
        },
        {
          "internalType": "uint256",
          "name": "createdAt",
          "type": "uint256"
        },
        {
          "internalType": "uint256",
          "name": "expiresAt",
          "type": "uint256"
        },
        {
          "internalType": "uint256",
          "name": "completedAt",
          "type": "uint256"
        },
        {
          "internalType": "address",
          "name": "winner",
          "type": "address"
        }
      ],
      "stateMutability": "view",
      "type": "function"
    },
    {
      "inputs": [
        {
          "internalType": "uint256",
          "name": "challengeId",
          "type": "uint256"
        },
        {
          "internalType": "uint256",
          "name": "challengerScore",
          "type": "uint256"
        }
      ],
      "name": "completeChallenge",
      "outputs": [],
      "stateMutability": "nonpayable",
      "type": "function"
    },
    {
      "inputs": [
        {
          "internalType": "enum ChallengeManager.ChallengeType",
          "name": "challengeType",
          "type": "uint8"
        },
        {
          "internalType": "uint256",
          "name": "creatorScore",
          "type": "uint256"
        },
        {
          "internalType": "string",
          "name": "gamePattern",
          "type": "string"
        },
        {
          "internalType": "string",
          "name": "message",
          "type": "string"
        }
      ],
      "name": "createChallenge",
      "outputs": [
        {
          "internalType": "uint256",
          "name": "",
          "type": "uint256"
        }
      ],
      "stateMutability": "nonpayable",
      "type": "function"
    },
    {
      "inputs": [],
      "name": "getActiveChallenges",
      "outputs": [
        {
          "internalType": "uint256[]",
          "name": "",
          "type": "uint256[]"
        }
      ],
      "stateMutability": "view",
      "type": "function"
    },
    {
      "inputs": [
        {
          "internalType": "uint256",
          "name": "challengeId",
          "type": "uint256"
        }
      ],
      "name": "getChallenge",
      "outputs": [
        {
          "components": [
            {
              "internalType": "uint256",
              "name": "id",
              "type": "uint256"
            },
            {
              "internalType": "address",
              "name": "creator",
              "type": "address"
            },
            {
              "internalType": "address",
              "name": "challenger",
              "type": "address"
            },
            {
              "internalType": "enum ChallengeManager.ChallengeType",
              "name": "challengeType",
              "type": "uint8"
            },
            {
              "internalType": "uint256",
              "name": "entryFee",
              "type": "uint256"
            },
            {
              "internalType": "uint256",
              "name": "creatorScore",
              "type": "uint256"
            },
            {
              "internalType": "uint256",
              "name": "challengerScore",
              "type": "uint256"
            },
            {
              "internalType": "uint256",
              "name": "creatorScoreTarget",
              "type": "uint256"
            },
            {
              "internalType": "string",
              "name": "gamePattern",
              "type": "string"
            },
            {
              "internalType": "string",
              "name": "message",
              "type": "string"
            },
            {
              "internalType": "enum ChallengeManager.ChallengeStatus",
              "name": "status",
              "type": "uint8"
            },
            {
              "internalType": "uint256",
              "name": "createdAt",
              "type": "uint256"
            },
            {
              "internalType": "uint256",
              "name": "expiresAt",
              "type": "uint256"
            },
            {
              "internalType": "uint256",
              "name": "completedAt",
              "type": "uint256"
            },
            {
              "internalType": "address",
              "name": "winner",
              "type": "address"
            }
          ],
          "internalType": "struct ChallengeManager.Challenge",
          "name": "",
          "type": "tuple"
        }
      ],
      "stateMutability": "view",
      "type": "function"
    },
    {
      "inputs": [
        {
          "internalType": "uint256",
          "name": "challengeId",
          "type": "uint256"
        }
      ],
      "name": "getChallengePrize",
      "outputs": [
        {
          "internalType": "uint256",
          "name": "",
          "type": "uint256"
        }
      ],
      "stateMutability": "view",
      "type": "function"
    },
    {
      "inputs": [
        {
          "internalType": "address",
          "name": "user",
          "type": "address"
        }
      ],
      "name": "getUserChallenges",
      "outputs": [
        {
          "internalType": "uint256[]",
          "name": "",
          "type": "uint256[]"
        }
      ],
      "stateMutability": "view",
      "type": "function"
    },
    {
      "inputs": [
        {
          "internalType": "uint256",
          "name": "challengeId",
          "type": "uint256"
        }
      ],
      "name": "isChallengeExpired",
      "outputs": [
        {
          "internalType": "bool",
          "name": "",
          "type": "bool"
        }
      ],
      "stateMutability": "view",
      "type": "function"
    },
    {
      "inputs": [],
      "name": "nextChallengeId",
      "outputs": [
        {
          "internalType": "uint256",
          "name": "",
          "type": "uint256"
        }
      ],
      "stateMutability": "view",
      "type": "function"
    },
    {
      "inputs": [],
      "name": "owner",
      "outputs": [
        {
          "internalType": "address",
          "name": "",
          "type": "address"
        }
      ],
      "stateMutability": "view",
      "type": "function"
    },
    {
      "inputs": [],
      "name": "pause",
      "outputs": [],
      "stateMutability": "nonpayable",
      "type": "function"
    },
    {
      "inputs": [],
      "name": "paused",
      "outputs": [
        {
          "internalType": "bool",
          "name": "",
          "type": "bool"
        }
      ],
      "stateMutability": "view",
      "type": "function"
    },
    {
      "inputs": [],
      "name": "paymentProcessor",
      "outputs": [
        {
          "internalType": "contract PaymentProcessor",
          "name": "",
          "type": "address"
        }
      ],
      "stateMutability": "view",
      "type": "function"
    },
    {
      "inputs": [],
      "name": "renounceOwnership",
      "outputs": [],
      "stateMutability": "nonpayable",
      "type": "function"
    },
    {
      "inputs": [
        {
          "internalType": "address",
          "name": "_newProcessor",
          "type": "address"
        }
      ],
      "name": "setPaymentProcessor",
      "outputs": [],
      "stateMutability": "nonpayable",
      "type": "function"
    },
    {
      "inputs": [
        {
          "internalType": "address",
          "name": "newOwner",
          "type": "address"
        }
      ],
      "name": "transferOwnership",
      "outputs": [],
      "stateMutability": "nonpayable",
      "type": "function"
    },
    {
      "inputs": [],
      "name": "unpause",
      "outputs": [],
      "stateMutability": "nonpayable",
      "type": "function"
    },
    {
      "inputs": [
        {
          "internalType": "address",
          "name": "",
          "type": "address"
        },
        {
          "internalType": "uint256",
          "name": "",
          "type": "uint256"
        }
      ],
      "name": "userChallenges",
      "outputs": [
        {
          "internalType": "uint256",
          "name": "",
          "type": "uint256"
        }
      ],
      "stateMutability": "view",
      "type": "function"
    }
  ],
  "bytecode": "0x6080346100bd57601f611b8e38819003918201601f19168301916001600160401b038311848410176100c2578084926020946040528339810103126100bd57516001600160a01b0390818116908190036100bd5760005460405192339082167f8be0079c531659141344cd1fd0a4f28419497f9722a3daafe3b4186f6b6457e0600080a36001600160a81b0319163360ff60a01b19161760005560018055600280546001600160a01b031916919091179055611ab590816100d98239f35b600080fd5b634e487b7160e01b600052604160045260246000fdfe6080604052600436101561001257600080fd5b6000803560e01c806304e03164146114f2578063088b0d75146114b257806311da8e541461143357806313b7a45a146111e957806317e3c05114610be55780631b0fc1061461099d5780631bdd4b74146107305780631f47991e1461065f5780633f4ba83a146105c4578063560d52d4146105a85780635c975abb14610583578063715018a61461052957806378e72ef5146104c75780638456cb59146104665780638da5cb5b1461043f5780638f1d37761461031357806396b2a315146102f5578063a4a3c4ee146102c6578063a5ff0a1314610270578063d421562f14610252578063dbb5300d14610234578063f1c6bdf81461020b578063f2fde38b146101455763fc67aa501461012557600080fd5b346101425780600319360112610142576020600554604051908152f35b80fd5b50346101425760203660031901126101425761015f6115aa565b610167611828565b6001600160a01b039081169081156101b757600054826001600160601b0360a01b821617600055167f8be0079c531659141344cd1fd0a4f28419497f9722a3daafe3b4186f6b6457e0600080a380f35b60405162461bcd60e51b815260206004820152602660248201527f4f776e61626c653a206e6577206f776e657220697320746865207a65726f206160448201526564647265737360d01b6064820152608490fd5b50346101425780600319360112610142576002546040516001600160a01b039091168152602090f35b5034610142578060031936011261014257602060405162093a808152f35b50346101425780600319360112610142576020604051620f42408152f35b50346101425760403660031901126101425761028a6115aa565b6001600160a01b03168152600460205260408120805460243592908310156101425760206102b884846117fa565b90546040519160031b1c8152f35b503461014257602036600319011261014257600b60406020926004358152600384522001546040519042118152f35b50346101425780600319360112610142576020604051624c4b408152f35b50346101425760203660031901126101425760043581526003602052604090208054600160a01b6001900360018301541691600281015460038201549160048101549260058201549360068301546007840161036e90611754565b61037a60088601611754565b91600986015460ff1697600a87015494600b88015496600c89015498600160a01b6001900390600d015416996040519d8e809e8152602001528c600160a01b600190038216906040015260608d019060a01c60ff16906103d9916116c0565b60808c015260a08b015260c08a015260e08901526101e0806101008a01528801610402916116cd565b878103610120890152610414916116cd565b9461014087016104239161170d565b6101608601526101808501526101a08401526101c08301520390f35b5034610142578060031936011261014257546040516001600160a01b039091168152602090f35b503461014257806003193601126101425761047f611828565b6104876118eb565b805460ff60a01b1916600160a01b1781556040513381527f62e78cea01bee320cd4e420270b5ea74000d11b0c9f74754ebdbfc544b05a25890602090a180f35b503461014257602036600319011261014257600435815260036020526003604082200154908160011b9180830460021490151715610515576020606461050c84611a0b565b04604051908152f35b634e487b7160e01b81526011600452602490fd5b5034610142578060031936011261014257610542611828565b600080546001600160a01b0319811682556001600160a01b03167f8be0079c531659141344cd1fd0a4f28419497f9722a3daafe3b4186f6b6457e08280a380f35b503461014257806003193601126101425760ff6020915460a01c166040519015158152f35b50346101425780600319360112610142576020604051600a8152f35b50346101425780600319360112610142576105dd611828565b805460ff8160a01c16156106235760ff60a01b191681556040513381527f5db9ee0a495bf2e6ff9c91a7834c1ba4fdd244a5e8aa4e537bd38aeae4b073aa90602090a180f35b60405162461bcd60e51b815260206004820152601460248201527314185d5cd8589b194e881b9bdd081c185d5cd95960621b6044820152606490fd5b503461014257806003193601126101425760055461067c81611a39565b8291835b8181106106d157505061069282611a39565b925b8281106106ad57604051806106a986826115c5565b0390f35b806106bb6106cc9284611a6b565b516106c68287611a6b565b52611880565b610694565b808552600360205260ff600960408720015416600481101561071c5715610701575b6106fc90611880565b610680565b9261071481856106c66106fc9487611a6b565b9390506106f3565b634e487b7160e01b86526021600452602486fd5b503461014257602036600319011261014257806040916101c083516107548161162a565b82815282602082015282858201528260608201528260808201528260a08201528260c08201528260e082015260606101008201526060610120820152826101408201528261016082015282610180820152826101a082015201526004358152600360205220604051906107c68261162a565b8054825260018101546001600160a01b039081166020840152600282015490811660408401526107ff9060a01c60ff16606084016118a5565b60038101546080830152600481015460a0830152600581015460c0830152600681015460e083015261083360078201611754565b61010083015261084560088201611754565b61012083015260ff600982015416600481101561098757610140830152600a810154610160830152600b810154610180830152600c8101546101a0830152600d01546001600160a01b039081166101c083015260408051602080825284518183015284015183168183015290830151909116606080830191909152820151909182916108d59060808401906116c0565b608081015160a083015260a081015160c083015260c081015160e083015260e08101516101008301526101008101516109386109206101e092836101208701526102008601906116cd565b610120840151858203601f19016101408701526116cd565b9161094d61014082015161016086019061170d565b6101608101516101808501526101808101516101a08501526101a08101516101c08501526101c060018060a01b0391015116908301520390f35b634e487b7160e01b600052602160045260246000fd5b5034610142576020366003190112610142576004356109ba6118eb565b6109c2611932565b80825260036020526040822060ff6009820154166004811015610bd1576109e99015611988565b60018101546001600160a01b039081163314610b8c5760028201918254828116610b4757610a1e600b60ff93015442106119cb565b60a01c166002811015610b3357849190610ae45760025416803b15610ae0578180916024604051809481936314ed853560e21b83523360048401525af18015610ad557610abd575b50505b336001600160601b0360a01b8254161790553382526004602052610a9081604084206118b1565b33907fd984ac8050a068db0ada14b33626b418e0cdfbad700867c1f3e0ab23cf123b338380a36001805580f35b610ac690611600565b610ad1578238610a66565b8280fd5b6040513d84823e3d90fd5b5080fd5b60025416803b15610ae05781809160246040518094819363229c5dff60e01b83523360048401525af18015610ad557610b1f575b5050610a69565b610b2890611600565b610ad1578238610b18565b634e487b7160e01b85526021600452602485fd5b60405162461bcd60e51b815260206004820152601a60248201527f4368616c6c656e676520616c72656164792061636365707465640000000000006044820152606490fd5b60405162461bcd60e51b815260206004820152601960248201527f43616e6e6f74206368616c6c656e676520796f757273656c66000000000000006044820152606490fd5b634e487b7160e01b84526021600452602484fd5b503461014257608036600319011261014257600260043510156101425760443567ffffffffffffffff8111610ae057610c22903690600401611669565b60643567ffffffffffffffff8111610ad157610c42903690600401611669565b610c4a6118eb565b610c52611932565b600435159182156111df57620f4240925b1561117e5760025484906001600160a01b0316803b15610ae0578180916024604051809481936314ed853560e21b83523360048401525af18015610ad557611166575b50505b60055492610cb684611880565b60055562093a804201421161115257604051610cd18161162a565b848152336020820152856040820152610cef600435606083016118a5565b8160808201526024358060a08301528660c083015260e08201528261010082015283610120820152856101408201524261016082015262093a804201610180820152856101a0820152856101c08201528486526003602052604086208151815560018060a01b036020830151166001600160601b0360a01b60018301541617600182015560018060a01b036040830151166002820154906060840151600281101561113e576001600160a81b03199092161760a091821b60ff60a01b1617600283015560808301516003830155820151600482015560c0820151600582015560e0820151600682015561010082015180519067ffffffffffffffff821161105f578190610dff600785015461171a565b601f81116110ed575b50602090601f831160011461107e578a92611073575b50508160011b916000199060031b1c19161760078201555b61012082015180519067ffffffffffffffff821161105f578190610e5d600885015461171a565b601f811161100e575b50602090601f8311600114610f9f578a92610f94575b50508160011b916000199060031b1c19161760088201555b6101408201516004811015610f8057866040602099829795600d86610f359660097f709b332686fa75d3ea81d4fa5ff198a83ca7ed5a55f126cd9f1c35db0745aba19b99019060ff80198354169116179055610160830151600a820155610180830151600b8201556101a0830151600c82015501906101c060018060a01b03910151166001600160601b0360a01b82541617905533815260048b52206118b1565b610f71610f62604051938493610f4d856004356116c0565b8a8501526080604085015260808401906116cd565b828103606084015233966116cd565b0390a360018055604051908152f35b634e487b7160e01b88526021600452602488fd5b015190503880610e7c565b9250600884018a5260208a20908a935b601f1984168510610ff3576001945083601f19811610610fda575b505050811b016008820155610e94565b015160001960f88460031b161c19169055388080610fca565b81810151835560209485019460019093019290910190610faf565b909150600884018a5260208a20601f840160051c810160208510611058575b90849392915b601f830160051c82018110611049575050610e66565b60008155859450600101611033565b508061102d565b634e487b7160e01b89526041600452602489fd5b015190503880610e1e565b9250600784018a5260208a20908a935b601f19841685106110d2576001945083601f198116106110b9575b505050811b016007820155610e36565b015160001960f88460031b161c191690553880806110a9565b8181015183556020948501946001909301929091019061108e565b909150600784018a5260208a20601f840160051c810160208510611137575b90849392915b601f830160051c82018110611128575050610e08565b60008155859450600101611112565b508061110c565b634e487b7160e01b8a52602160045260248afd5b634e487b7160e01b85526011600452602485fd5b61116f90611600565b61117a578338610ca6565b8380fd5b60025484906001600160a01b0316803b15610ae057819060246040518094819363229c5dff60e01b83523360048401525af180156111d4576111c1575b50610ca9565b6111cd90949194611600565b92386111bb565b6040513d87823e3d90fd5b624c4b4092610c63565b503461014257604036600319011261014257600435602480359161120b6118eb565b611213611932565b808452600360205260408420600981019384549460ff861660048110156114205761123e9015611988565b60028301546001600160a01b039190821633036113dc57611264600b85015442106119cb565b8260058501556001809760ff191617905542600c84015560048301549081831160001461132a57339560038501549081891b918083046002149015171561131857509160409391600d60646112da7f939953dc28f51d09c4cc5eab0df34092ba75f794e37ca4b7b2b55dfa4b2422ce9896611a0b565b04945b01971696876001600160601b0360a01b8254161790553387146000146113105750905b82519182526020820152a3805580f35b905090611300565b634e487b7160e01b8a52601160045289fd5b8183101561138d578087850154169560038501549081891b918083046002149015171561131857509160409391600d60646113867f939953dc28f51d09c4cc5eab0df34092ba75f794e37ca4b7b2b55dfa4b2422ce9896611a0b565b04946112dd565b879560038501549081891b918083046002149015171561131857509160409391600d60646113867f939953dc28f51d09c4cc5eab0df34092ba75f794e37ca4b7b2b55dfa4b2422ce9896611a0b565b60405162461bcd60e51b815260206004820152601c818801527f4f6e6c79206368616c6c656e6765722063616e20636f6d706c657465000000006044820152606490fd5b634e487b7160e01b885260216004528588fd5b503461014257602080600319360112610ae0576001600160a01b036114566115aa565b1682526004815260408220916040518092808554928381520194835280832092905b82821061149b576106a98561148f81890382611647565b604051918291826115c5565b835486529485019460019384019390910190611478565b5034610142576020366003190112610142576114cc6115aa565b6114d4611828565b60018060a01b03166001600160601b0360a01b600254161760025580f35b503461014257602036600319011261014257600435808252600360205260408220600981019081549060ff8216600481101561071c5790611535600b9215611988565b0154421061156d5760ff191660021790557f5e804f6ab65f629e96873f89acb6e5d1456139dc56369bcfc528171e348baa428280a280f35b60405162461bcd60e51b815260206004820152601560248201527410da185b1b195b99d9481b9bdd08195e1c1a5c9959605a1b6044820152606490fd5b600435906001600160a01b03821682036115c057565b600080fd5b6020908160408183019282815285518094520193019160005b8281106115ec575050505090565b8351855293810193928101926001016115de565b67ffffffffffffffff811161161457604052565b634e487b7160e01b600052604160045260246000fd5b6101e0810190811067ffffffffffffffff82111761161457604052565b90601f8019910116810190811067ffffffffffffffff82111761161457604052565b81601f820112156115c05780359067ffffffffffffffff8211611614576040519261169e601f8401601f191660200185611647565b828452602083830101116115c057816000926020809301838601378301015290565b9060028210156109875752565b919082519283825260005b8481106116f9575050826000602080949584010152601f8019910116010190565b6020818301810151848301820152016116d8565b9060048210156109875752565b90600182811c9216801561174a575b602083101461173457565b634e487b7160e01b600052602260045260246000fd5b91607f1691611729565b90604051918260008254926117688461171a565b9081845260019485811690816000146117d75750600114611794575b505061179292500383611647565b565b9093915060005260209081600020936000915b8183106117bf57505061179293508201013880611784565b855488840185015294850194879450918301916117a7565b91505061179294506020925060ff191682840152151560051b8201013880611784565b80548210156118125760005260206000200190600090565b634e487b7160e01b600052603260045260246000fd5b6000546001600160a01b0316330361183c57565b606460405162461bcd60e51b815260206004820152602060248201527f4f776e61626c653a2063616c6c6572206973206e6f7420746865206f776e65726044820152fd5b600019811461188f5760010190565b634e487b7160e01b600052601160045260246000fd5b60028210156109875752565b805468010000000000000000811015611614576118d3916001820181556117fa565b819291549060031b91821b91600019901b1916179055565b60ff60005460a01c166118fa57565b60405162461bcd60e51b815260206004820152601060248201526f14185d5cd8589b194e881c185d5cd95960821b6044820152606490fd5b600260015414611943576002600155565b60405162461bcd60e51b815260206004820152601f60248201527f5265656e7472616e637947756172643a207265656e7472616e742063616c6c006044820152606490fd5b1561198f57565b60405162461bcd60e51b81526020600482015260146024820152734368616c6c656e6765206e6f742061637469766560601b6044820152606490fd5b156119d257565b60405162461bcd60e51b815260206004820152601160248201527010da185b1b195b99d948195e1c1a5c9959607a1b6044820152606490fd5b90605a820291808304605a149015171561188f57565b67ffffffffffffffff81116116145760051b60200190565b90611a4382611a21565b611a506040519182611647565b8281528092611a61601f1991611a21565b0190602036910137565b80518210156118125760209160051b01019056fea264697066735822122092251ff9262babd1ed89f52711f7eed4d70c60a630a17abda2cce797481337e364736f6c63430008130033",
  "linkReferences": {},
  "deployedLinkReferences": {}
}