{"src/BlockzoneGame.sol":{"BlockzoneGame":{"abi":[{"inputs":[{"internalType":"address","name":"_usdcToken","type":"address"},{"internalType":"address","name":"_dailyLeaderboardAddress","type":"address"},{"internalType":"address","name":"_challengeManagerAddress","type":"address"},{"internalType":"address","name":"_platformFeeWallet","type":"address"}],"stateMutability":"nonpayable","type":"constructor"},{"anonymous":false,"inputs":[{"indexed":true,"internalType":"address","name":"challenger","type":"address"},{"indexed":false,"internalType":"uint256","name":"challengeId","type":"uint256"}],"name":"ChallengeAccepted","type":"event"},{"anonymous":false,"inputs":[{"indexed":true,"internalType":"address","name":"creator","type":"address"},{"indexed":false,"internalType":"uint256","name":"challengeId","type":"uint256"}],"name":"ChallengeCreated","type":"event"},{"anonymous":false,"inputs":[{"indexed":true,"internalType":"address","name":"player","type":"address"},{"indexed":false,"internalType":"uint256","name":"score","type":"uint256"},{"indexed":false,"internalType":"string","name":"gameType","type":"string"}],"name":"GamePlayed","type":"event"},{"inputs":[{"internalType":"uint256","name":"challengeId","type":"uint256"}],"name":"acceptChallenge","outputs":[],"stateMutability":"nonpayable","type":"function"},{"inputs":[{"internalType":"address","name":"player","type":"address"}],"name":"canPlay","outputs":[{"internalType":"bool","name":"","type":"bool"}],"stateMutability":"view","type":"function"},{"inputs":[],"name":"challengeManager","outputs":[{"internalType":"contract ChallengeManager","name":"","type":"address"}],"stateMutability":"view","type":"function"},{"inputs":[{"internalType":"uint256","name":"challengeId","type":"uint256"},{"internalType":"uint256","name":"challengerScore","type":"uint256"}],"name":"completeChallenge","outputs":[],"stateMutability":"nonpayable","type":"function"},{"inputs":[{"internalType":"uint256","name":"creatorScore","type":"uint256"},{"internalType":"string","name":"gamePattern","type":"string"},{"internalType":"string","name":"message","type":"string"}],"name":"createHighRollerChallenge","outputs":[{"internalType":"uint256","name":"","type":"uint256"}],"stateMutability":"nonpayable","type":"function"},{"inputs":[{"internalType":"uint256","name":"creatorScore","type":"uint256"},{"internalType":"string","name":"gamePattern","type":"string"},{"internalType":"string","name":"message","type":"string"}],"name":"createQuickChallenge","outputs":[{"internalType":"uint256","name":"","type":"uint256"}],"stateMutability":"nonpayable","type":"function"},{"inputs":[],"name":"dailyLeaderboard","outputs":[{"internalType":"contract DailyLeaderboard","name":"","type":"address"}],"stateMutability":"view","type":"function"},{"inputs":[],"name":"getContractBalance","outputs":[{"internalType":"uint256","name":"","type":"uint256"}],"stateMutability":"view","type":"function"},{"inputs":[],"name":"getCurrentLeaderboard","outputs":[{"components":[{"internalType":"address","name":"player","type":"address"},{"internalType":"uint256","name":"score","type":"uint256"},{"internalType":"uint256","name":"timestamp","type":"uint256"},{"internalType":"string","name":"displayName","type":"string"}],"internalType":"struct DailyLeaderboard.LeaderboardEntry[]","name":"","type":"tuple[]"}],"stateMutability":"view","type":"function"},{"inputs":[{"internalType":"address","name":"player","type":"address"}],"name":"getPlayerState","outputs":[{"components":[{"internalType":"uint256","name":"lastFreeGameDay","type":"uint256"},{"internalType":"uint256","name":"unlimitedPassExpiry","type":"uint256"},{"internalType":"uint256","name":"totalGamesPlayed","type":"uint256"},{"internalType":"uint256","name":"totalScore","type":"uint256"},{"internalType":"bool","name":"hasUnlimitedPass","type":"bool"}],"internalType":"struct DailyLeaderboard.PlayerState","name":"","type":"tuple"}],"stateMutability":"view","type":"function"},{"inputs":[],"name":"platformFeeWallet","outputs":[{"internalType":"address","name":"","type":"address"}],"stateMutability":"view","type":"function"},{"inputs":[],"name":"playFreeGame","outputs":[],"stateMutability":"nonpayable","type":"function"},{"inputs":[],"name":"purchaseIndividualGame","outputs":[],"stateMutability":"nonpayable","type":"function"},{"inputs":[],"name":"purchaseUnlimitedDailyPass","outputs":[],"stateMutability":"nonpayable","type":"function"},{"inputs":[{"internalType":"uint256","name":"score","type":"uint256"},{"internalType":"string","name":"displayName","type":"string"}],"name":"submitScore","outputs":[],"stateMutability":"nonpayable","type":"function"},{"inputs":[],"name":"usdcToken","outputs":[{"internalType":"contract IERC20","name":"","type":"address"}],"stateMutability":"view","type":"function"}],"evm":{"bytecode":{"linkReferences":{},"object":"6080346100b957601f610e9e38819003918201601f19168301916001600160401b038311848410176100be578084926080946040528339810103126100b957610047816100d4565b90610054602082016100d4565b61006c6060610065604085016100d4565b93016100d4565b9060018060a01b03928380928160018060a01b03199716876000541617600055168560015416176001551683600254161760025516906003541617600355604051610db590816100e98239f35b600080fd5b634e487b7160e01b600052604160045260246000fd5b51906001600160a01b03821682036100b95756fe6080604081815260048036101561001557600080fd5b600092833560e01c908163023a96fe14610bd0575080630569b3a114610aef5780630823d5f314610a4e57806311eac85514610a265783816313b7a45a146109ad575080631b0fc10614610917578063491db668146106b15780634e04f697146106885780636f9fb98a146105f4578063b978c97d14610508578063bc2256dc1461042057838163bfc2edfd1461038257508063c01ca43f1461024e578063e20fc1181461022557838163ed250f871461018c575063f1259329146100d957600080fd5b8290346101775781600319360112610177576001546001600160a01b031690813b1561018857835163f125932960e01b81529183918391829084905af1801561017b57610163575b5050600f8151918383528060208401528201526e696e646976696475616c5f67616d6560881b6060820152600080516020610d6083398151915260803392a280f35b61016c90610bf5565b610177578138610121565b5080fd5b50505051903d90823e3d90fd5b8280fd5b919050346101775781600319360112610177576001546001600160a01b031690813b1561018857835163014f004960e01b81529183918391829084905af1801561017b57610211575b5050600981519183835280602084015282015268667265655f67616d6560b81b6060820152600080516020610d6083398151915260803392a280f35b61021a90610bf5565b6101775781386101d5565b50503461017757816003193601126101775760035490516001600160a01b039091168152602090f35b50823461036857602091826003193601126101775780356001600160a01b038181169182900361037e5790602460a092856080895161028c81610c1f565b828152828a820152828b820152826060820152015260015416938751948593849263c01ca43f60e01b84528301525afa9182156103735780926102fd575b60a08460808588805193825185528083015190850152808201519084015260608101516060840152015115156080820152f35b90915060a0823d821161036b575b8161031860a09383610c3b565b8101031261036857508260809161035b8360a096519261033784610c1f565b80518452868101518785015284810151858501526060810151606085015201610d52565b83820152918194506102ca565b80fd5b3d915061030b565b8451903d90823e3d90fd5b8380fd5b919050346101775781600319360112610177576001546001600160a01b031690813b156101885783516398f79dcd60e01b81529183918391829084905af1801561017b5761040c575b5050600e8151918383528060208401528201526d756e6c696d697465645f7061737360901b6060820152600080516020610d6083398151915260803392a280f35b61041590610bf5565b6101775781386103cb565b5090346101885780600319360112610188578282359260243567ffffffffffffffff8111610188576104559036908301610c79565b6001546001600160a01b03169190823b1561037e576104989286858094885196879586948593632f0895b760e21b85528401528a60248401526044830190610d2d565b03925af180156104fe576104ea575b505080601091519283528060208401528201526f39b1b7b932afb9bab136b4b9b9b4b7b760811b6060820152600080516020610d6083398151915260803392a280f35b6104f390610bf5565b6101885782386104a7565b83513d84823e3d90fd5b509190346101775760016105569361051f36610cc0565b92919690848060a01b03600254169786519586946317e3c05160e01b86528501526024840152608060448401526084830190610d2d565b9560031982880301606483015281868161057360209a8b97610d2d565b03925af19283156105e957926105b5575b5080518281527f9f85484cc8fb25030d222fdcd51eb22a0f9b61069192af1dbfb3ff32b78b6d67843392a251908152f35b9091508281813d83116105e2575b6105cd8183610c3b565b810103126105dd57519038610584565b600080fd5b503d6105c3565b8251903d90823e3d90fd5b50919034610177578160031936011261017757815481516370a0823160e01b81523094810194909452602090849060249082906001600160a01b03165afa91821561067d5791610649575b6020925051908152f35b90506020823d8211610675575b8161066360209383610c3b565b810103126105dd57602091519061063f565b3d9150610656565b9051903d90823e3d90fd5b50503461017757816003193601126101775760015490516001600160a01b039091168152602090f35b503461018857826003193601126101885760018060a01b03600193828183875416865195868092630923b6cd60e31b82525afa93841561090d578294610780575b5050908394929451936020908186019282875287518094528187019083838660051b8a0101990195925b85841061072957888a0389f35b90919293949596858061076d839c603f198d82030188528b518781511682528381015184830152868101518783015260608091015191608080928201520190610d2d565b9b9901979695919091019301919061071c565b909193503d8085833e6107938183610c3b565b810191602091828185031261090957805167ffffffffffffffff9182821161090557019184601f84011215610901578251948286116108ee578560051b928951966107e087860189610c3b565b87528580880194860101948286116108ea57868101945b86861061080e5750505050505050509138806106f2565b85518381116108e657820160809081601f1982880301126108c9578d5191808301838110878211176108d1578f528a8201518d811681036108c5578f908452808301518c850152606083015190840152810151908582116108cd570185603f820112156108c957898101518e918761088583610c5d565b9361089281519586610c3b565b83855283830101116108c557918f8c9593928695936108b5928785019101610d0a565b60608201528152019501946107f7565b8e80fd5b8c80fd5b8d80fd5b604189634e487b7160e01b6000525260246000fd5b8b80fd5b8980fd5b634e487b7160e01b885260418252602488fd5b8680fd5b8780fd5b8580fd5b85513d84823e3d90fd5b5090346101885760203660031901126101885760025482359284916001600160a01b031690813b156101885784602484928387519586948593630d87e08360e11b85528401525af180156104fe57610999575b5050519081527f198848172490c9cede6f00b7d3d59d018f0bc4715a37f81b8ce39cc7807369ad60203392a280f35b6109a290610bf5565b61018857823861096a565b80848434610a225781600319360112610a22576002546001600160a01b0316803b15610a1d5760448492845195869384926309dbd22d60e11b845280359084015260243560248401525af1908115610a145750610a08575080f35b610a1190610bf5565b80f35b513d84823e3d90fd5b505050fd5b5050fd5b505034610177578160031936011261017757905490516001600160a01b039091168152602090f35b5091903461017757602092836003193601126101885780356001600160a01b0381811691829003610aeb579060248692600154169385519485938492630823d5f360e01b84528301525afa9283156105e9578093610ab1575b5050519015158152f35b909192508382813d8311610ae4575b610aca8183610c3b565b810103126103685750610adc90610d52565b903880610aa7565b503d610ac0565b8480fd5b509190346101775781610b3d93610b0536610cc0565b9291969060018060a01b03600254169786519586946317e3c05160e01b86528501526024840152608060448401526084830190610d2d565b95600319828803016064830152818681610b5a60209a8b97610d2d565b03925af19283156105e9578093610b9e575b505080518281527f9f85484cc8fb25030d222fdcd51eb22a0f9b61069192af1dbfb3ff32b78b6d67843392a251908152f35b909192508382813d8311610bc9575b610bb78183610c3b565b81010312610368575051903880610b6c565b503d610bad565b8490346101775781600319360112610177576002546001600160a01b03168152602090f35b67ffffffffffffffff8111610c0957604052565b634e487b7160e01b600052604160045260246000fd5b60a0810190811067ffffffffffffffff821117610c0957604052565b90601f8019910116810190811067ffffffffffffffff821117610c0957604052565b67ffffffffffffffff8111610c0957601f01601f191660200190565b81601f820112156105dd57803590610c9082610c5d565b92610c9e6040519485610c3b565b828452602083830101116105dd57816000926020809301838601378301015290565b60606003198201126105dd576004359167ffffffffffffffff6024358181116105dd5783610cf091600401610c79565b926044359182116105dd57610d0791600401610c79565b90565b60005b838110610d1d5750506000910152565b8181015183820152602001610d0d565b90602091610d4681518092818552858086019101610d0a565b601f01601f1916010190565b519081151582036105dd5756fe570ca89d15dea96a90cc65e78214b4f234f53b0c882b5b39aa0fb846f29881fea26469706673582212201c60e78a3270a51dc370d4ef995643a59ffc74070a92291e42f543242e1b562064736f6c63430008130033","opcodes":"PUSH1 0x80 CALLVALUE PUSH2 0xB9 JUMPI PUSH1 0x1F PUSH2 0xE9E CODESIZE DUP2 SWAP1 SUB SWAP2 DUP3 ADD PUSH1 0x1F NOT AND DUP4 ADD SWAP2 PUSH1 0x1 PUSH1 0x1 PUSH1 0x40 SHL SUB DUP4 GT DUP5 DUP5 LT OR PUSH2 0xBE JUMPI DUP1 DUP5 SWAP3 PUSH1 0x80 SWAP5 PUSH1 0x40 MSTORE DUP4 CODECOPY DUP2 ADD SUB SLT PUSH2 0xB9 JUMPI PUSH2 0x47 DUP2 PUSH2 0xD4 JUMP JUMPDEST SWAP1 PUSH2 0x54 PUSH1 0x20 DUP3 ADD PUSH2 0xD4 JUMP JUMPDEST PUSH2 0x6C PUSH1 0x60 PUSH2 0x65 PUSH1 0x40 DUP6 ADD PUSH2 0xD4 JUMP JUMPDEST SWAP4 ADD PUSH2 0xD4 JUMP JUMPDEST SWAP1 PUSH1 0x1 DUP1 PUSH1 0xA0 SHL SUB SWAP3 DUP4 DUP1 SWAP3 DUP2 PUSH1 0x1 DUP1 PUSH1 0xA0 SHL SUB NOT SWAP8 AND DUP8 PUSH1 0x0 SLOAD AND OR PUSH1 0x0 SSTORE AND DUP6 PUSH1 0x1 SLOAD AND OR PUSH1 0x1 SSTORE AND DUP4 PUSH1 0x2 SLOAD AND OR PUSH1 0x2 SSTORE AND SWAP1 PUSH1 0x3 SLOAD AND OR PUSH1 0x3 SSTORE PUSH1 0x40 MLOAD PUSH2 0xDB5 SWAP1 DUP2 PUSH2 0xE9 DUP3 CODECOPY RETURN JUMPDEST PUSH1 0x0 DUP1 REVERT JUMPDEST PUSH4 0x4E487B71 PUSH1 0xE0 SHL PUSH1 0x0 MSTORE PUSH1 0x41 PUSH1 0x4 MSTORE PUSH1 0x24 PUSH1 0x0 REVERT JUMPDEST MLOAD SWAP1 PUSH1 0x1 PUSH1 0x1 PUSH1 0xA0 SHL SUB DUP3 AND DUP3 SUB PUSH2 0xB9 JUMPI JUMP INVALID PUSH1 0x80 PUSH1 0x40 DUP2 DUP2 MSTORE PUSH1 0x4 DUP1 CALLDATASIZE LT ISZERO PUSH2 0x15 JUMPI PUSH1 0x0 DUP1 REVERT JUMPDEST PUSH1 0x0 SWAP3 DUP4 CALLDATALOAD PUSH1 0xE0 SHR SWAP1 DUP2 PUSH4 0x23A96FE EQ PUSH2 0xBD0 JUMPI POP DUP1 PUSH4 0x569B3A1 EQ PUSH2 0xAEF JUMPI DUP1 PUSH4 0x823D5F3 EQ PUSH2 0xA4E JUMPI DUP1 PUSH4 0x11EAC855 EQ PUSH2 0xA26 JUMPI DUP4 DUP2 PUSH4 0x13B7A45A EQ PUSH2 0x9AD JUMPI POP DUP1 PUSH4 0x1B0FC106 EQ PUSH2 0x917 JUMPI DUP1 PUSH4 0x491DB668 EQ PUSH2 0x6B1 JUMPI DUP1 PUSH4 0x4E04F697 EQ PUSH2 0x688 JUMPI DUP1 PUSH4 0x6F9FB98A EQ PUSH2 0x5F4 JUMPI DUP1 PUSH4 0xB978C97D EQ PUSH2 0x508 JUMPI DUP1 PUSH4 0xBC2256DC EQ PUSH2 0x420 JUMPI DUP4 DUP2 PUSH4 0xBFC2EDFD EQ PUSH2 0x382 JUMPI POP DUP1 PUSH4 0xC01CA43F EQ PUSH2 0x24E JUMPI DUP1 PUSH4 0xE20FC118 EQ PUSH2 0x225 JUMPI DUP4 DUP2 PUSH4 0xED250F87 EQ PUSH2 0x18C JUMPI POP PUSH4 0xF1259329 EQ PUSH2 0xD9 JUMPI PUSH1 0x0 DUP1 REVERT JUMPDEST DUP3 SWAP1 CALLVALUE PUSH2 0x177 JUMPI DUP2 PUSH1 0x3 NOT CALLDATASIZE ADD SLT PUSH2 0x177 JUMPI PUSH1 0x1 SLOAD PUSH1 0x1 PUSH1 0x1 PUSH1 0xA0 SHL SUB AND SWAP1 DUP2 EXTCODESIZE ISZERO PUSH2 0x188 JUMPI DUP4 MLOAD PUSH4 0xF1259329 PUSH1 0xE0 SHL DUP2 MSTORE SWAP2 DUP4 SWAP2 DUP4 SWAP2 DUP3 SWAP1 DUP5 SWAP1 GAS CALL DUP1 ISZERO PUSH2 0x17B JUMPI PUSH2 0x163 JUMPI JUMPDEST POP POP PUSH1 0xF DUP2 MLOAD SWAP2 DUP4 DUP4 MSTORE DUP1 PUSH1 0x20 DUP5 ADD MSTORE DUP3 ADD MSTORE PUSH15 0x696E646976696475616C5F67616D65 PUSH1 0x88 SHL PUSH1 0x60 DUP3 ADD MSTORE PUSH1 0x0 DUP1 MLOAD PUSH1 0x20 PUSH2 0xD60 DUP4 CODECOPY DUP2 MLOAD SWAP2 MSTORE PUSH1 0x80 CALLER SWAP3 LOG2 DUP1 RETURN JUMPDEST PUSH2 0x16C SWAP1 PUSH2 0xBF5 JUMP JUMPDEST PUSH2 0x177 JUMPI DUP2 CODESIZE PUSH2 0x121 JUMP JUMPDEST POP DUP1 REVERT JUMPDEST POP POP POP MLOAD SWAP1 RETURNDATASIZE SWAP1 DUP3 RETURNDATACOPY RETURNDATASIZE SWAP1 REVERT JUMPDEST DUP3 DUP1 REVERT JUMPDEST SWAP2 SWAP1 POP CALLVALUE PUSH2 0x177 JUMPI DUP2 PUSH1 0x3 NOT CALLDATASIZE ADD SLT PUSH2 0x177 JUMPI PUSH1 0x1 SLOAD PUSH1 0x1 PUSH1 0x1 PUSH1 0xA0 SHL SUB AND SWAP1 DUP2 EXTCODESIZE ISZERO PUSH2 0x188 JUMPI DUP4 MLOAD PUSH4 0x14F0049 PUSH1 0xE0 SHL DUP2 MSTORE SWAP2 DUP4 SWAP2 DUP4 SWAP2 DUP3 SWAP1 DUP5 SWAP1 GAS CALL DUP1 ISZERO PUSH2 0x17B JUMPI PUSH2 0x211 JUMPI JUMPDEST POP POP PUSH1 0x9 DUP2 MLOAD SWAP2 DUP4 DUP4 MSTORE DUP1 PUSH1 0x20 DUP5 ADD MSTORE DUP3 ADD MSTORE PUSH9 0x667265655F67616D65 PUSH1 0xB8 SHL PUSH1 0x60 DUP3 ADD MSTORE PUSH1 0x0 DUP1 MLOAD PUSH1 0x20 PUSH2 0xD60 DUP4 CODECOPY DUP2 MLOAD SWAP2 MSTORE PUSH1 0x80 CALLER SWAP3 LOG2 DUP1 RETURN JUMPDEST PUSH2 0x21A SWAP1 PUSH2 0xBF5 JUMP JUMPDEST PUSH2 0x177 JUMPI DUP2 CODESIZE PUSH2 0x1D5 JUMP JUMPDEST POP POP CALLVALUE PUSH2 0x177 JUMPI DUP2 PUSH1 0x3 NOT CALLDATASIZE ADD SLT PUSH2 0x177 JUMPI PUSH1 0x3 SLOAD SWAP1 MLOAD PUSH1 0x1 PUSH1 0x1 PUSH1 0xA0 SHL SUB SWAP1 SWAP2 AND DUP2 MSTORE PUSH1 0x20 SWAP1 RETURN JUMPDEST POP DUP3 CALLVALUE PUSH2 0x368 JUMPI PUSH1 0x20 SWAP2 DUP3 PUSH1 0x3 NOT CALLDATASIZE ADD SLT PUSH2 0x177 JUMPI DUP1 CALLDATALOAD PUSH1 0x1 PUSH1 0x1 PUSH1 0xA0 SHL SUB DUP2 DUP2 AND SWAP2 DUP3 SWAP1 SUB PUSH2 0x37E JUMPI SWAP1 PUSH1 0x24 PUSH1 0xA0 SWAP3 DUP6 PUSH1 0x80 DUP10 MLOAD PUSH2 0x28C DUP2 PUSH2 0xC1F JUMP JUMPDEST DUP3 DUP2 MSTORE DUP3 DUP11 DUP3 ADD MSTORE DUP3 DUP12 DUP3 ADD MSTORE DUP3 PUSH1 0x60 DUP3 ADD MSTORE ADD MSTORE PUSH1 0x1 SLOAD AND SWAP4 DUP8 MLOAD SWAP5 DUP6 SWAP4 DUP5 SWAP3 PUSH4 0xC01CA43F PUSH1 0xE0 SHL DUP5 MSTORE DUP4 ADD MSTORE GAS STATICCALL SWAP2 DUP3 ISZERO PUSH2 0x373 JUMPI DUP1 SWAP3 PUSH2 0x2FD JUMPI JUMPDEST PUSH1 0xA0 DUP5 PUSH1 0x80 DUP6 DUP9 DUP1 MLOAD SWAP4 DUP3 MLOAD DUP6 MSTORE DUP1 DUP4 ADD MLOAD SWAP1 DUP6 ADD MSTORE DUP1 DUP3 ADD MLOAD SWAP1 DUP5 ADD MSTORE PUSH1 0x60 DUP2 ADD MLOAD PUSH1 0x60 DUP5 ADD MSTORE ADD MLOAD ISZERO ISZERO PUSH1 0x80 DUP3 ADD MSTORE RETURN JUMPDEST SWAP1 SWAP2 POP PUSH1 0xA0 DUP3 RETURNDATASIZE DUP3 GT PUSH2 0x36B JUMPI JUMPDEST DUP2 PUSH2 0x318 PUSH1 0xA0 SWAP4 DUP4 PUSH2 0xC3B JUMP JUMPDEST DUP2 ADD SUB SLT PUSH2 0x368 JUMPI POP DUP3 PUSH1 0x80 SWAP2 PUSH2 0x35B DUP4 PUSH1 0xA0 SWAP7 MLOAD SWAP3 PUSH2 0x337 DUP5 PUSH2 0xC1F JUMP JUMPDEST DUP1 MLOAD DUP5 MSTORE DUP7 DUP2 ADD MLOAD DUP8 DUP6 ADD MSTORE DUP5 DUP2 ADD MLOAD DUP6 DUP6 ADD MSTORE PUSH1 0x60 DUP2 ADD MLOAD PUSH1 0x60 DUP6 ADD MSTORE ADD PUSH2 0xD52 JUMP JUMPDEST DUP4 DUP3 ADD MSTORE SWAP2 DUP2 SWAP5 POP PUSH2 0x2CA JUMP JUMPDEST DUP1 REVERT JUMPDEST RETURNDATASIZE SWAP2 POP PUSH2 0x30B JUMP JUMPDEST DUP5 MLOAD SWAP1 RETURNDATASIZE SWAP1 DUP3 RETURNDATACOPY RETURNDATASIZE SWAP1 REVERT JUMPDEST DUP4 DUP1 REVERT JUMPDEST SWAP2 SWAP1 POP CALLVALUE PUSH2 0x177 JUMPI DUP2 PUSH1 0x3 NOT CALLDATASIZE ADD SLT PUSH2 0x177 JUMPI PUSH1 0x1 SLOAD PUSH1 0x1 PUSH1 0x1 PUSH1 0xA0 SHL SUB AND SWAP1 DUP2 EXTCODESIZE ISZERO PUSH2 0x188 JUMPI DUP4 MLOAD PUSH4 0x98F79DCD PUSH1 0xE0 SHL DUP2 MSTORE SWAP2 DUP4 SWAP2 DUP4 SWAP2 DUP3 SWAP1 DUP5 SWAP1 GAS CALL DUP1 ISZERO PUSH2 0x17B JUMPI PUSH2 0x40C JUMPI JUMPDEST POP POP PUSH1 0xE DUP2 MLOAD SWAP2 DUP4 DUP4 MSTORE DUP1 PUSH1 0x20 DUP5 ADD MSTORE DUP3 ADD MSTORE PUSH14 0x756E6C696D697465645F70617373 PUSH1 0x90 SHL PUSH1 0x60 DUP3 ADD MSTORE PUSH1 0x0 DUP1 MLOAD PUSH1 0x20 PUSH2 0xD60 DUP4 CODECOPY DUP2 MLOAD SWAP2 MSTORE PUSH1 0x80 CALLER SWAP3 LOG2 DUP1 RETURN JUMPDEST PUSH2 0x415 SWAP1 PUSH2 0xBF5 JUMP JUMPDEST PUSH2 0x177 JUMPI DUP2 CODESIZE PUSH2 0x3CB JUMP JUMPDEST POP SWAP1 CALLVALUE PUSH2 0x188 JUMPI DUP1 PUSH1 0x3 NOT CALLDATASIZE ADD SLT PUSH2 0x188 JUMPI DUP3 DUP3 CALLDATALOAD SWAP3 PUSH1 0x24 CALLDATALOAD PUSH8 0xFFFFFFFFFFFFFFFF DUP2 GT PUSH2 0x188 JUMPI PUSH2 0x455 SWAP1 CALLDATASIZE SWAP1 DUP4 ADD PUSH2 0xC79 JUMP JUMPDEST PUSH1 0x1 SLOAD PUSH1 0x1 PUSH1 0x1 PUSH1 0xA0 SHL SUB AND SWAP2 SWAP1 DUP3 EXTCODESIZE ISZERO PUSH2 0x37E JUMPI PUSH2 0x498 SWAP3 DUP7 DUP6 DUP1 SWAP5 DUP9 MLOAD SWAP7 DUP8 SWAP6 DUP7 SWAP5 DUP6 SWAP4 PUSH4 0x2F0895B7 PUSH1 0xE2 SHL DUP6 MSTORE DUP5 ADD MSTORE DUP11 PUSH1 0x24 DUP5 ADD MSTORE PUSH1 0x44 DUP4 ADD SWAP1 PUSH2 0xD2D JUMP JUMPDEST SUB SWAP3 GAS CALL DUP1 ISZERO PUSH2 0x4FE JUMPI PUSH2 0x4EA JUMPI JUMPDEST POP POP DUP1 PUSH1 0x10 SWAP2 MLOAD SWAP3 DUP4 MSTORE DUP1 PUSH1 0x20 DUP5 ADD MSTORE DUP3 ADD MSTORE PUSH16 0x39B1B7B932AFB9BAB136B4B9B9B4B7B7 PUSH1 0x81 SHL PUSH1 0x60 DUP3 ADD MSTORE PUSH1 0x0 DUP1 MLOAD PUSH1 0x20 PUSH2 0xD60 DUP4 CODECOPY DUP2 MLOAD SWAP2 MSTORE PUSH1 0x80 CALLER SWAP3 LOG2 DUP1 RETURN JUMPDEST PUSH2 0x4F3 SWAP1 PUSH2 0xBF5 JUMP JUMPDEST PUSH2 0x188 JUMPI DUP3 CODESIZE PUSH2 0x4A7 JUMP JUMPDEST DUP4 MLOAD RETURNDATASIZE DUP5 DUP3 RETURNDATACOPY RETURNDATASIZE SWAP1 REVERT JUMPDEST POP SWAP2 SWAP1 CALLVALUE PUSH2 0x177 JUMPI PUSH1 0x1 PUSH2 0x556 SWAP4 PUSH2 0x51F CALLDATASIZE PUSH2 0xCC0 JUMP JUMPDEST SWAP3 SWAP2 SWAP7 SWAP1 DUP5 DUP1 PUSH1 0xA0 SHL SUB PUSH1 0x2 SLOAD AND SWAP8 DUP7 MLOAD SWAP6 DUP7 SWAP5 PUSH4 0x17E3C051 PUSH1 0xE0 SHL DUP7 MSTORE DUP6 ADD MSTORE PUSH1 0x24 DUP5 ADD MSTORE PUSH1 0x80 PUSH1 0x44 DUP5 ADD MSTORE PUSH1 0x84 DUP4 ADD SWAP1 PUSH2 0xD2D JUMP JUMPDEST SWAP6 PUSH1 0x3 NOT DUP3 DUP9 SUB ADD PUSH1 0x64 DUP4 ADD MSTORE DUP2 DUP7 DUP2 PUSH2 0x573 PUSH1 0x20 SWAP11 DUP12 SWAP8 PUSH2 0xD2D JUMP JUMPDEST SUB SWAP3 GAS CALL SWAP3 DUP4 ISZERO PUSH2 0x5E9 JUMPI SWAP3 PUSH2 0x5B5 JUMPI JUMPDEST POP DUP1 MLOAD DUP3 DUP2 MSTORE PUSH32 0x9F85484CC8FB25030D222FDCD51EB22A0F9B61069192AF1DBFB3FF32B78B6D67 DUP5 CALLER SWAP3 LOG2 MLOAD SWAP1 DUP2 MSTORE RETURN JUMPDEST SWAP1 SWAP2 POP DUP3 DUP2 DUP2 RETURNDATASIZE DUP4 GT PUSH2 0x5E2 JUMPI JUMPDEST PUSH2 0x5CD DUP2 DUP4 PUSH2 0xC3B JUMP JUMPDEST DUP2 ADD SUB SLT PUSH2 0x5DD JUMPI MLOAD SWAP1 CODESIZE PUSH2 0x584 JUMP JUMPDEST PUSH1 0x0 DUP1 REVERT JUMPDEST POP RETURNDATASIZE PUSH2 0x5C3 JUMP JUMPDEST DUP3 MLOAD SWAP1 RETURNDATASIZE SWAP1 DUP3 RETURNDATACOPY RETURNDATASIZE SWAP1 REVERT JUMPDEST POP SWAP2 SWAP1 CALLVALUE PUSH2 0x177 JUMPI DUP2 PUSH1 0x3 NOT CALLDATASIZE ADD SLT PUSH2 0x177 JUMPI DUP2 SLOAD DUP2 MLOAD PUSH4 0x70A08231 PUSH1 0xE0 SHL DUP2 MSTORE ADDRESS SWAP5 DUP2 ADD SWAP5 SWAP1 SWAP5 MSTORE PUSH1 0x20 SWAP1 DUP5 SWAP1 PUSH1 0x24 SWAP1 DUP3 SWAP1 PUSH1 0x1 PUSH1 0x1 PUSH1 0xA0 SHL SUB AND GAS STATICCALL SWAP2 DUP3 ISZERO PUSH2 0x67D JUMPI SWAP2 PUSH2 0x649 JUMPI JUMPDEST PUSH1 0x20 SWAP3 POP MLOAD SWAP1 DUP2 MSTORE RETURN JUMPDEST SWAP1 POP PUSH1 0x20 DUP3 RETURNDATASIZE DUP3 GT PUSH2 0x675 JUMPI JUMPDEST DUP2 PUSH2 0x663 PUSH1 0x20 SWAP4 DUP4 PUSH2 0xC3B JUMP JUMPDEST DUP2 ADD SUB SLT PUSH2 0x5DD JUMPI PUSH1 0x20 SWAP2 MLOAD SWAP1 PUSH2 0x63F JUMP JUMPDEST RETURNDATASIZE SWAP2 POP PUSH2 0x656 JUMP JUMPDEST SWAP1 MLOAD SWAP1 RETURNDATASIZE SWAP1 DUP3 RETURNDATACOPY RETURNDATASIZE SWAP1 REVERT JUMPDEST POP POP CALLVALUE PUSH2 0x177 JUMPI DUP2 PUSH1 0x3 NOT CALLDATASIZE ADD SLT PUSH2 0x177 JUMPI PUSH1 0x1 SLOAD SWAP1 MLOAD PUSH1 0x1 PUSH1 0x1 PUSH1 0xA0 SHL SUB SWAP1 SWAP2 AND DUP2 MSTORE PUSH1 0x20 SWAP1 RETURN JUMPDEST POP CALLVALUE PUSH2 0x188 JUMPI DUP3 PUSH1 0x3 NOT CALLDATASIZE ADD SLT PUSH2 0x188 JUMPI PUSH1 0x1 DUP1 PUSH1 0xA0 SHL SUB PUSH1 0x1 SWAP4 DUP3 DUP2 DUP4 DUP8 SLOAD AND DUP7 MLOAD SWAP6 DUP7 DUP1 SWAP3 PUSH4 0x923B6CD PUSH1 0xE3 SHL DUP3 MSTORE GAS STATICCALL SWAP4 DUP5 ISZERO PUSH2 0x90D JUMPI DUP3 SWAP5 PUSH2 0x780 JUMPI JUMPDEST POP POP SWAP1 DUP4 SWAP5 SWAP3 SWAP5 MLOAD SWAP4 PUSH1 0x20 SWAP1 DUP2 DUP7 ADD SWAP3 DUP3 DUP8 MSTORE DUP8 MLOAD DUP1 SWAP5 MSTORE DUP2 DUP8 ADD SWAP1 DUP4 DUP4 DUP7 PUSH1 0x5 SHL DUP11 ADD ADD SWAP10 ADD SWAP6 SWAP3 JUMPDEST DUP6 DUP5 LT PUSH2 0x729 JUMPI DUP9 DUP11 SUB DUP10 RETURN JUMPDEST SWAP1 SWAP2 SWAP3 SWAP4 SWAP5 SWAP6 SWAP7 DUP6 DUP1 PUSH2 0x76D DUP4 SWAP13 PUSH1 0x3F NOT DUP14 DUP3 SUB ADD DUP9 MSTORE DUP12 MLOAD DUP8 DUP2 MLOAD AND DUP3 MSTORE DUP4 DUP2 ADD MLOAD DUP5 DUP4 ADD MSTORE DUP7 DUP2 ADD MLOAD DUP8 DUP4 ADD MSTORE PUSH1 0x60 DUP1 SWAP2 ADD MLOAD SWAP2 PUSH1 0x80 DUP1 SWAP3 DUP3 ADD MSTORE ADD SWAP1 PUSH2 0xD2D JUMP JUMPDEST SWAP12 SWAP10 ADD SWAP8 SWAP7 SWAP6 SWAP2 SWAP1 SWAP2 ADD SWAP4 ADD SWAP2 SWAP1 PUSH2 0x71C JUMP JUMPDEST SWAP1 SWAP2 SWAP4 POP RETURNDATASIZE DUP1 DUP6 DUP4 RETURNDATACOPY PUSH2 0x793 DUP2 DUP4 PUSH2 0xC3B JUMP JUMPDEST DUP2 ADD SWAP2 PUSH1 0x20 SWAP2 DUP3 DUP2 DUP6 SUB SLT PUSH2 0x909 JUMPI DUP1 MLOAD PUSH8 0xFFFFFFFFFFFFFFFF SWAP2 DUP3 DUP3 GT PUSH2 0x905 JUMPI ADD SWAP2 DUP5 PUSH1 0x1F DUP5 ADD SLT ISZERO PUSH2 0x901 JUMPI DUP3 MLOAD SWAP5 DUP3 DUP7 GT PUSH2 0x8EE JUMPI DUP6 PUSH1 0x5 SHL SWAP3 DUP10 MLOAD SWAP7 PUSH2 0x7E0 DUP8 DUP7 ADD DUP10 PUSH2 0xC3B JUMP JUMPDEST DUP8 MSTORE DUP6 DUP1 DUP9 ADD SWAP5 DUP7 ADD ADD SWAP5 DUP3 DUP7 GT PUSH2 0x8EA JUMPI DUP7 DUP2 ADD SWAP5 JUMPDEST DUP7 DUP7 LT PUSH2 0x80E JUMPI POP POP POP POP POP POP POP POP SWAP2 CODESIZE DUP1 PUSH2 0x6F2 JUMP JUMPDEST DUP6 MLOAD DUP4 DUP2 GT PUSH2 0x8E6 JUMPI DUP3 ADD PUSH1 0x80 SWAP1 DUP2 PUSH1 0x1F NOT DUP3 DUP9 SUB ADD SLT PUSH2 0x8C9 JUMPI DUP14 MLOAD SWAP2 DUP1 DUP4 ADD DUP4 DUP2 LT DUP8 DUP3 GT OR PUSH2 0x8D1 JUMPI DUP16 MSTORE DUP11 DUP3 ADD MLOAD DUP14 DUP2 AND DUP2 SUB PUSH2 0x8C5 JUMPI DUP16 SWAP1 DUP5 MSTORE DUP1 DUP4 ADD MLOAD DUP13 DUP6 ADD MSTORE PUSH1 0x60 DUP4 ADD MLOAD SWAP1 DUP5 ADD MSTORE DUP2 ADD MLOAD SWAP1 DUP6 DUP3 GT PUSH2 0x8CD JUMPI ADD DUP6 PUSH1 0x3F DUP3 ADD SLT ISZERO PUSH2 0x8C9 JUMPI DUP10 DUP2 ADD MLOAD DUP15 SWAP2 DUP8 PUSH2 0x885 DUP4 PUSH2 0xC5D JUMP JUMPDEST SWAP4 PUSH2 0x892 DUP2 MLOAD SWAP6 DUP7 PUSH2 0xC3B JUMP JUMPDEST DUP4 DUP6 MSTORE DUP4 DUP4 ADD ADD GT PUSH2 0x8C5 JUMPI SWAP2 DUP16 DUP13 SWAP6 SWAP4 SWAP3 DUP7 SWAP6 SWAP4 PUSH2 0x8B5 SWAP3 DUP8 DUP6 ADD SWAP2 ADD PUSH2 0xD0A JUMP JUMPDEST PUSH1 0x60 DUP3 ADD MSTORE DUP2 MSTORE ADD SWAP6 ADD SWAP5 PUSH2 0x7F7 JUMP JUMPDEST DUP15 DUP1 REVERT JUMPDEST DUP13 DUP1 REVERT JUMPDEST DUP14 DUP1 REVERT JUMPDEST PUSH1 0x41 DUP10 PUSH4 0x4E487B71 PUSH1 0xE0 SHL PUSH1 0x0 MSTORE MSTORE PUSH1 0x24 PUSH1 0x0 REVERT JUMPDEST DUP12 DUP1 REVERT JUMPDEST DUP10 DUP1 REVERT JUMPDEST PUSH4 0x4E487B71 PUSH1 0xE0 SHL DUP9 MSTORE PUSH1 0x41 DUP3 MSTORE PUSH1 0x24 DUP9 REVERT JUMPDEST DUP7 DUP1 REVERT JUMPDEST DUP8 DUP1 REVERT JUMPDEST DUP6 DUP1 REVERT JUMPDEST DUP6 MLOAD RETURNDATASIZE DUP5 DUP3 RETURNDATACOPY RETURNDATASIZE SWAP1 REVERT JUMPDEST POP SWAP1 CALLVALUE PUSH2 0x188 JUMPI PUSH1 0x20 CALLDATASIZE PUSH1 0x3 NOT ADD SLT PUSH2 0x188 JUMPI PUSH1 0x2 SLOAD DUP3 CALLDATALOAD SWAP3 DUP5 SWAP2 PUSH1 0x1 PUSH1 0x1 PUSH1 0xA0 SHL SUB AND SWAP1 DUP2 EXTCODESIZE ISZERO PUSH2 0x188 JUMPI DUP5 PUSH1 0x24 DUP5 SWAP3 DUP4 DUP8 MLOAD SWAP6 DUP7 SWAP5 DUP6 SWAP4 PUSH4 0xD87E083 PUSH1 0xE1 SHL DUP6 MSTORE DUP5 ADD MSTORE GAS CALL DUP1 ISZERO PUSH2 0x4FE JUMPI PUSH2 0x999 JUMPI JUMPDEST POP POP MLOAD SWAP1 DUP2 MSTORE PUSH32 0x198848172490C9CEDE6F00B7D3D59D018F0BC4715A37F81B8CE39CC7807369AD PUSH1 0x20 CALLER SWAP3 LOG2 DUP1 RETURN JUMPDEST PUSH2 0x9A2 SWAP1 PUSH2 0xBF5 JUMP JUMPDEST PUSH2 0x188 JUMPI DUP3 CODESIZE PUSH2 0x96A JUMP JUMPDEST DUP1 DUP5 DUP5 CALLVALUE PUSH2 0xA22 JUMPI DUP2 PUSH1 0x3 NOT CALLDATASIZE ADD SLT PUSH2 0xA22 JUMPI PUSH1 0x2 SLOAD PUSH1 0x1 PUSH1 0x1 PUSH1 0xA0 SHL SUB AND DUP1 EXTCODESIZE ISZERO PUSH2 0xA1D JUMPI PUSH1 0x44 DUP5 SWAP3 DUP5 MLOAD SWAP6 DUP7 SWAP4 DUP5 SWAP3 PUSH4 0x9DBD22D PUSH1 0xE1 SHL DUP5 MSTORE DUP1 CALLDATALOAD SWAP1 DUP5 ADD MSTORE PUSH1 0x24 CALLDATALOAD PUSH1 0x24 DUP5 ADD MSTORE GAS CALL SWAP1 DUP2 ISZERO PUSH2 0xA14 JUMPI POP PUSH2 0xA08 JUMPI POP DUP1 RETURN JUMPDEST PUSH2 0xA11 SWAP1 PUSH2 0xBF5 JUMP JUMPDEST DUP1 RETURN JUMPDEST MLOAD RETURNDATASIZE DUP5 DUP3 RETURNDATACOPY RETURNDATASIZE SWAP1 REVERT JUMPDEST POP POP POP REVERT JUMPDEST POP POP REVERT JUMPDEST POP POP CALLVALUE PUSH2 0x177 JUMPI DUP2 PUSH1 0x3 NOT CALLDATASIZE ADD SLT PUSH2 0x177 JUMPI SWAP1 SLOAD SWAP1 MLOAD PUSH1 0x1 PUSH1 0x1 PUSH1 0xA0 SHL SUB SWAP1 SWAP2 AND DUP2 MSTORE PUSH1 0x20 SWAP1 RETURN JUMPDEST POP SWAP2 SWAP1 CALLVALUE PUSH2 0x177 JUMPI PUSH1 0x20 SWAP3 DUP4 PUSH1 0x3 NOT CALLDATASIZE ADD SLT PUSH2 0x188 JUMPI DUP1 CALLDATALOAD PUSH1 0x1 PUSH1 0x1 PUSH1 0xA0 SHL SUB DUP2 DUP2 AND SWAP2 DUP3 SWAP1 SUB PUSH2 0xAEB JUMPI SWAP1 PUSH1 0x24 DUP7 SWAP3 PUSH1 0x1 SLOAD AND SWAP4 DUP6 MLOAD SWAP5 DUP6 SWAP4 DUP5 SWAP3 PUSH4 0x823D5F3 PUSH1 0xE0 SHL DUP5 MSTORE DUP4 ADD MSTORE GAS STATICCALL SWAP3 DUP4 ISZERO PUSH2 0x5E9 JUMPI DUP1 SWAP4 PUSH2 0xAB1 JUMPI JUMPDEST POP POP MLOAD SWAP1 ISZERO ISZERO DUP2 MSTORE RETURN JUMPDEST SWAP1 SWAP2 SWAP3 POP DUP4 DUP3 DUP2 RETURNDATASIZE DUP4 GT PUSH2 0xAE4 JUMPI JUMPDEST PUSH2 0xACA DUP2 DUP4 PUSH2 0xC3B JUMP JUMPDEST DUP2 ADD SUB SLT PUSH2 0x368 JUMPI POP PUSH2 0xADC SWAP1 PUSH2 0xD52 JUMP JUMPDEST SWAP1 CODESIZE DUP1 PUSH2 0xAA7 JUMP JUMPDEST POP RETURNDATASIZE PUSH2 0xAC0 JUMP JUMPDEST DUP5 DUP1 REVERT JUMPDEST POP SWAP2 SWAP1 CALLVALUE PUSH2 0x177 JUMPI DUP2 PUSH2 0xB3D SWAP4 PUSH2 0xB05 CALLDATASIZE PUSH2 0xCC0 JUMP JUMPDEST SWAP3 SWAP2 SWAP7 SWAP1 PUSH1 0x1 DUP1 PUSH1 0xA0 SHL SUB PUSH1 0x2 SLOAD AND SWAP8 DUP7 MLOAD SWAP6 DUP7 SWAP5 PUSH4 0x17E3C051 PUSH1 0xE0 SHL DUP7 MSTORE DUP6 ADD MSTORE PUSH1 0x24 DUP5 ADD MSTORE PUSH1 0x80 PUSH1 0x44 DUP5 ADD MSTORE PUSH1 0x84 DUP4 ADD SWAP1 PUSH2 0xD2D JUMP JUMPDEST SWAP6 PUSH1 0x3 NOT DUP3 DUP9 SUB ADD PUSH1 0x64 DUP4 ADD MSTORE DUP2 DUP7 DUP2 PUSH2 0xB5A PUSH1 0x20 SWAP11 DUP12 SWAP8 PUSH2 0xD2D JUMP JUMPDEST SUB SWAP3 GAS CALL SWAP3 DUP4 ISZERO PUSH2 0x5E9 JUMPI DUP1 SWAP4 PUSH2 0xB9E JUMPI JUMPDEST POP POP DUP1 MLOAD DUP3 DUP2 MSTORE PUSH32 0x9F85484CC8FB25030D222FDCD51EB22A0F9B61069192AF1DBFB3FF32B78B6D67 DUP5 CALLER SWAP3 LOG2 MLOAD SWAP1 DUP2 MSTORE RETURN JUMPDEST SWAP1 SWAP2 SWAP3 POP DUP4 DUP3 DUP2 RETURNDATASIZE DUP4 GT PUSH2 0xBC9 JUMPI JUMPDEST PUSH2 0xBB7 DUP2 DUP4 PUSH2 0xC3B JUMP JUMPDEST DUP2 ADD SUB SLT PUSH2 0x368 JUMPI POP MLOAD SWAP1 CODESIZE DUP1 PUSH2 0xB6C JUMP JUMPDEST POP RETURNDATASIZE PUSH2 0xBAD JUMP JUMPDEST DUP5 SWAP1 CALLVALUE PUSH2 0x177 JUMPI DUP2 PUSH1 0x3 NOT CALLDATASIZE ADD SLT PUSH2 0x177 JUMPI PUSH1 0x2 SLOAD PUSH1 0x1 PUSH1 0x1 PUSH1 0xA0 SHL SUB AND DUP2 MSTORE PUSH1 0x20 SWAP1 RETURN JUMPDEST PUSH8 0xFFFFFFFFFFFFFFFF DUP2 GT PUSH2 0xC09 JUMPI PUSH1 0x40 MSTORE JUMP JUMPDEST PUSH4 0x4E487B71 PUSH1 0xE0 SHL PUSH1 0x0 MSTORE PUSH1 0x41 PUSH1 0x4 MSTORE PUSH1 0x24 PUSH1 0x0 REVERT JUMPDEST PUSH1 0xA0 DUP2 ADD SWAP1 DUP2 LT PUSH8 0xFFFFFFFFFFFFFFFF DUP3 GT OR PUSH2 0xC09 JUMPI PUSH1 0x40 MSTORE JUMP JUMPDEST SWAP1 PUSH1 0x1F DUP1 NOT SWAP2 ADD AND DUP2 ADD SWAP1 DUP2 LT PUSH8 0xFFFFFFFFFFFFFFFF DUP3 GT OR PUSH2 0xC09 JUMPI PUSH1 0x40 MSTORE JUMP JUMPDEST PUSH8 0xFFFFFFFFFFFFFFFF DUP2 GT PUSH2 0xC09 JUMPI PUSH1 0x1F ADD PUSH1 0x1F NOT AND PUSH1 0x20 ADD SWAP1 JUMP JUMPDEST DUP2 PUSH1 0x1F DUP3 ADD SLT ISZERO PUSH2 0x5DD JUMPI DUP1 CALLDATALOAD SWAP1 PUSH2 0xC90 DUP3 PUSH2 0xC5D JUMP JUMPDEST SWAP3 PUSH2 0xC9E PUSH1 0x40 MLOAD SWAP5 DUP6 PUSH2 0xC3B JUMP JUMPDEST DUP3 DUP5 MSTORE PUSH1 0x20 DUP4 DUP4 ADD ADD GT PUSH2 0x5DD JUMPI DUP2 PUSH1 0x0 SWAP3 PUSH1 0x20 DUP1 SWAP4 ADD DUP4 DUP7 ADD CALLDATACOPY DUP4 ADD ADD MSTORE SWAP1 JUMP JUMPDEST PUSH1 0x60 PUSH1 0x3 NOT DUP3 ADD SLT PUSH2 0x5DD JUMPI PUSH1 0x4 CALLDATALOAD SWAP2 PUSH8 0xFFFFFFFFFFFFFFFF PUSH1 0x24 CALLDATALOAD DUP2 DUP2 GT PUSH2 0x5DD JUMPI DUP4 PUSH2 0xCF0 SWAP2 PUSH1 0x4 ADD PUSH2 0xC79 JUMP JUMPDEST SWAP3 PUSH1 0x44 CALLDATALOAD SWAP2 DUP3 GT PUSH2 0x5DD JUMPI PUSH2 0xD07 SWAP2 PUSH1 0x4 ADD PUSH2 0xC79 JUMP JUMPDEST SWAP1 JUMP JUMPDEST PUSH1 0x0 JUMPDEST DUP4 DUP2 LT PUSH2 0xD1D JUMPI POP POP PUSH1 0x0 SWAP2 ADD MSTORE JUMP JUMPDEST DUP2 DUP2 ADD MLOAD DUP4 DUP3 ADD MSTORE PUSH1 0x20 ADD PUSH2 0xD0D JUMP JUMPDEST SWAP1 PUSH1 0x20 SWAP2 PUSH2 0xD46 DUP2 MLOAD DUP1 SWAP3 DUP2 DUP6 MSTORE DUP6 DUP1 DUP7 ADD SWAP2 ADD PUSH2 0xD0A JUMP JUMPDEST PUSH1 0x1F ADD PUSH1 0x1F NOT AND ADD ADD SWAP1 JUMP JUMPDEST MLOAD SWAP1 DUP2 ISZERO ISZERO DUP3 SUB PUSH2 0x5DD JUMPI JUMP INVALID JUMPI 0xC 0xA8 SWAP14 ISZERO 0xDE 0xA9 PUSH11 0x90CC65E78214B4F234F53B 0xC DUP9 0x2B JUMPDEST CODECOPY 0xAA 0xF 0xB8 CHAINID CALLCODE SWAP9 DUP2 INVALID LOG2 PUSH5 0x6970667358 0x22 SLT KECCAK256 SHR PUSH1 0xE7 DUP11 ORIGIN PUSH17 0xA51DC370D4EF995643A59FFC74070A9229 0x1E TIMESTAMP CREATE2 NUMBER 0x24 0x2E SHL JUMP KECCAK256 PUSH5 0x736F6C6343 STOP ADDMOD SGT STOP CALLER "},"methodIdentifiers":{"acceptChallenge(uint256)":"1b0fc106","canPlay(address)":"0823d5f3","challengeManager()":"023a96fe","completeChallenge(uint256,uint256)":"13b7a45a","createHighRollerChallenge(uint256,string,string)":"b978c97d","createQuickChallenge(uint256,string,string)":"0569b3a1","dailyLeaderboard()":"4e04f697","getContractBalance()":"6f9fb98a","getCurrentLeaderboard()":"491db668","getPlayerState(address)":"c01ca43f","platformFeeWallet()":"e20fc118","playFreeGame()":"ed250f87","purchaseIndividualGame()":"f1259329","purchaseUnlimitedDailyPass()":"bfc2edfd","submitScore(uint256,string)":"bc2256dc","usdcToken()":"11eac855"}}}}}