{"src/DailyLeaderboard.sol":{"DailyLeaderboard":{"abi":[{"inputs":[{"internalType":"address","name":"_usdcToken","type":"address"},{"internalType":"address","name":"_platformFeeWallet","type":"address"}],"stateMutability":"nonpayable","type":"constructor"},{"anonymous":false,"inputs":[{"indexed":false,"internalType":"uint256","name":"day","type":"uint256"}],"name":"DailyReset","type":"event"},{"anonymous":false,"inputs":[{"indexed":true,"internalType":"address","name":"player","type":"address"},{"indexed":false,"internalType":"uint256","name":"day","type":"uint256"}],"name":"FreeGameUsed","type":"event"},{"anonymous":false,"inputs":[{"indexed":true,"internalType":"address","name":"player","type":"address"},{"indexed":false,"internalType":"uint256","name":"price","type":"uint256"}],"name":"IndividualGamePurchased","type":"event"},{"anonymous":false,"inputs":[{"indexed":true,"internalType":"address","name":"previousOwner","type":"address"},{"indexed":true,"internalType":"address","name":"newOwner","type":"address"}],"name":"OwnershipTransferred","type":"event"},{"anonymous":false,"inputs":[{"indexed":false,"internalType":"address","name":"account","type":"address"}],"name":"Paused","type":"event"},{"anonymous":false,"inputs":[{"indexed":true,"internalType":"address","name":"player","type":"address"},{"indexed":false,"internalType":"uint256","name":"score","type":"uint256"},{"indexed":false,"internalType":"uint256","name":"day","type":"uint256"}],"name":"ScoreSubmitted","type":"event"},{"anonymous":false,"inputs":[{"indexed":true,"internalType":"address","name":"player","type":"address"},{"indexed":false,"internalType":"uint256","name":"expiry","type":"uint256"}],"name":"UnlimitedPassPurchased","type":"event"},{"anonymous":false,"inputs":[{"indexed":false,"internalType":"address","name":"account","type":"address"}],"name":"Unpaused","type":"event"},{"inputs":[],"name":"DAILY_RESET_HOUR","outputs":[{"internalType":"uint256","name":"","type":"uint256"}],"stateMutability":"view","type":"function"},{"inputs":[],"name":"INDIVIDUAL_GAME_PRICE","outputs":[{"internalType":"uint256","name":"","type":"uint256"}],"stateMutability":"view","type":"function"},{"inputs":[],"name":"PLATFORM_FEE_PERCENT","outputs":[{"internalType":"uint256","name":"","type":"uint256"}],"stateMutability":"view","type":"function"},{"inputs":[],"name":"UNLIMITED_DAILY_PRICE","outputs":[{"internalType":"uint256","name":"","type":"uint256"}],"stateMutability":"view","type":"function"},{"inputs":[{"internalType":"address","name":"player","type":"address"}],"name":"canPlay","outputs":[{"internalType":"bool","name":"","type":"bool"}],"stateMutability":"view","type":"function"},{"inputs":[{"internalType":"address","name":"player","type":"address"}],"name":"canPlayFreeGame","outputs":[{"internalType":"bool","name":"","type":"bool"}],"stateMutability":"view","type":"function"},{"inputs":[{"internalType":"uint256","name":"","type":"uint256"},{"internalType":"uint256","name":"","type":"uint256"}],"name":"dailyLeaderboards","outputs":[{"internalType":"address","name":"player","type":"address"},{"internalType":"uint256","name":"score","type":"uint256"},{"internalType":"uint256","name":"timestamp","type":"uint256"},{"internalType":"string","name":"displayName","type":"string"}],"stateMutability":"view","type":"function"},{"inputs":[{"internalType":"uint256","name":"","type":"uint256"},{"internalType":"address","name":"","type":"address"}],"name":"dailySubmissions","outputs":[{"internalType":"bool","name":"","type":"bool"}],"stateMutability":"view","type":"function"},{"inputs":[],"name":"emergencyWithdraw","outputs":[],"stateMutability":"nonpayable","type":"function"},{"inputs":[],"name":"getCurrentDay","outputs":[{"internalType":"uint256","name":"","type":"uint256"}],"stateMutability":"view","type":"function"},{"inputs":[],"name":"getCurrentLeaderboard","outputs":[{"components":[{"internalType":"address","name":"player","type":"address"},{"internalType":"uint256","name":"score","type":"uint256"},{"internalType":"uint256","name":"timestamp","type":"uint256"},{"internalType":"string","name":"displayName","type":"string"}],"internalType":"struct DailyLeaderboard.LeaderboardEntry[]","name":"","type":"tuple[]"}],"stateMutability":"view","type":"function"},{"inputs":[{"internalType":"uint256","name":"day","type":"uint256"}],"name":"getDailyLeaderboard","outputs":[{"components":[{"internalType":"address","name":"player","type":"address"},{"internalType":"uint256","name":"score","type":"uint256"},{"internalType":"uint256","name":"timestamp","type":"uint256"},{"internalType":"string","name":"displayName","type":"string"}],"internalType":"struct DailyLeaderboard.LeaderboardEntry[]","name":"","type":"tuple[]"}],"stateMutability":"view","type":"function"},{"inputs":[{"internalType":"address","name":"player","type":"address"}],"name":"getPlayerState","outputs":[{"components":[{"internalType":"uint256","name":"lastFreeGameDay","type":"uint256"},{"internalType":"uint256","name":"unlimitedPassExpiry","type":"uint256"},{"internalType":"uint256","name":"totalGamesPlayed","type":"uint256"},{"internalType":"uint256","name":"totalScore","type":"uint256"},{"internalType":"bool","name":"hasUnlimitedPass","type":"bool"}],"internalType":"struct DailyLeaderboard.PlayerState","name":"","type":"tuple"}],"stateMutability":"view","type":"function"},{"inputs":[{"internalType":"address","name":"player","type":"address"}],"name":"hasUnlimitedPass","outputs":[{"internalType":"bool","name":"","type":"bool"}],"stateMutability":"view","type":"function"},{"inputs":[],"name":"owner","outputs":[{"internalType":"address","name":"","type":"address"}],"stateMutability":"view","type":"function"},{"inputs":[],"name":"pause","outputs":[],"stateMutability":"nonpayable","type":"function"},{"inputs":[],"name":"paused","outputs":[{"internalType":"bool","name":"","type":"bool"}],"stateMutability":"view","type":"function"},{"inputs":[],"name":"platformFeeWallet","outputs":[{"internalType":"address","name":"","type":"address"}],"stateMutability":"view","type":"function"},{"inputs":[{"internalType":"address","name":"","type":"address"}],"name":"playerStates","outputs":[{"internalType":"uint256","name":"lastFreeGameDay","type":"uint256"},{"internalType":"uint256","name":"unlimitedPassExpiry","type":"uint256"},{"internalType":"uint256","name":"totalGamesPlayed","type":"uint256"},{"internalType":"uint256","name":"totalScore","type":"uint256"},{"internalType":"bool","name":"hasUnlimitedPass","type":"bool"}],"stateMutability":"view","type":"function"},{"inputs":[],"name":"purchaseIndividualGame","outputs":[],"stateMutability":"nonpayable","type":"function"},{"inputs":[],"name":"purchaseUnlimitedPass","outputs":[],"stateMutability":"nonpayable","type":"function"},{"inputs":[],"name":"renounceOwnership","outputs":[],"stateMutability":"nonpayable","type":"function"},{"inputs":[{"internalType":"address","name":"_newWallet","type":"address"}],"name":"setPlatformFeeWallet","outputs":[],"stateMutability":"nonpayable","type":"function"},{"inputs":[{"internalType":"uint256","name":"score","type":"uint256"},{"internalType":"string","name":"displayName","type":"string"}],"name":"submitScore","outputs":[],"stateMutability":"nonpayable","type":"function"},{"inputs":[{"internalType":"address","name":"newOwner","type":"address"}],"name":"transferOwnership","outputs":[],"stateMutability":"nonpayable","type":"function"},{"inputs":[],"name":"unpause","outputs":[],"stateMutability":"nonpayable","type":"function"},{"inputs":[],"name":"usdcToken","outputs":[{"internalType":"contract IERC20","name":"","type":"address"}],"stateMutability":"view","type":"function"},{"inputs":[],"name":"useFreeGame","outputs":[],"stateMutability":"nonpayable","type":"function"}],"evm":{"bytecode":{"linkReferences":{},"object":"6080346100d657601f61177138819003918201601f19168301916001600160401b038311848410176100db5780849260409485528339810103126100d657610052602061004b836100f1565b92016100f1565b906000546040519260018060a01b0391338382167f8be0079c531659141344cd1fd0a4f28419497f9722a3daafe3b4186f6b6457e0600080a36001600160a81b0319163360ff60a01b19161760005560018055600280546001600160a01b031990811694841694909417905560068054909316911617905561166b90816101068239f35b600080fd5b634e487b7160e01b600052604160045260246000fd5b51906001600160a01b03821682036100d65756fe6040608081526004908136101561001557600080fd5b600091823560e01c908163014f00491461111f5781630257c5d2146110f95781630823d5f3146110ae5781630832275e14610ffb57816311eac85514610fd2578163329a4a6c14610fb45781633e6968b614610f905781633f4ba83a14610ef65781633f9eacdc14610eab578163491db66814610ddf578163560d52d414610dc35781635c975abb14610d9e578163715018a614610d445781638366021714610cc55781638456cb5914610c665781638a3b204414610c375781638da5cb5b14610c0f57816395f2a2f114610bf257816398f79dcd14610a24578163bc2256dc14610670578163c01ca43f146105b8578163d15e55b714610550578163d96d98ca14610508578163db2e21bc14610410578163e20fc118146103e7578163f12593291461023e578163f2fde38b14610177575063fef391941461015757600080fd5b34610173578160031936011261017357602090516203d0908152f35b5080fd5b90503461023a57602036600319011261023a576101926111e9565b9061019b611456565b6001600160a01b039182169283156101e857505082546001600160a01b0319811683178455167f8be0079c531659141344cd1fd0a4f28419497f9722a3daafe3b4186f6b6457e08380a380f35b906020608492519162461bcd60e51b8352820152602660248201527f4f776e61626c653a206e6577206f776e657220697320746865207a65726f206160448201526564647265737360d01b6064820152fd5b8280fd5b90503461023a578260031936011261023a57610258611543565b61026061158a565b61026933611500565b6103a5578260018060a01b039283600254169281516323b872dd60e01b815233828201523060248201526203d090948560448301528160648160209788945af190811561039b578492916102c491899161037e575b506115f8565b60448660025416966006541691888551988994859363a9059cbb60e01b85528401526161a860248401525af1938415610374577fb451b637378c20db51805e6a988cbf224e3ec1380a5f0b6d745e65a7c3a0dcf19394610347575b50338552600382526002818620016103378154611534565b9055519283523392a26001805580f35b61036690833d851161036d575b61035e818361138e565b8101906115e0565b503861031f565b503d610354565b81513d87823e3d90fd5b6103959150843d861161036d5761035e818361138e565b386102be565b83513d89823e3d90fd5b6020606492519162461bcd60e51b8352820152601a60248201527f4861766520756e6c696d697465642070617373206163746976650000000000006044820152fd5b50503461017357816003193601126101735760065490516001600160a01b039091168152602090f35b90503461023a578260031936011261023a5761042a611456565b60018060a01b039182600254168151926370a0823160e01b84523081850152856020958686602481875afa9586156104fe5790829188959493976104c4575b509060449291815416938651978895869463a9059cbb60e01b865285015260248401525af19081156104bb575061049e578280f35b816104b492903d1061036d5761035e818361138e565b5038808280f35b513d85823e3d90fd5b85819493969298503d83116104f7575b6104de818361138e565b810103126104f3579051948693906044610469565b8380fd5b503d6104d4565b85513d84823e3d90fd5b833461054d57602036600319011261054d576105226111e9565b61052a611456565b60018060a01b03166bffffffffffffffffffffffff60a01b600654161760065580f35b80fd5b9190503461023a57602036600319011261023a5760a09281906001600160a01b036105796111e9565b16815260036020522080549260018201549260ff6002840154926003850154940154169381519586526020860152840152606083015215156080820152f35b9190503461023a57602036600319011261023a578060a0936105d86111e9565b81608084516105e681611372565b82815282602082015282868201528260608201520152600180871b0316815260036020522081519161061783611372565b815493848452600183015460208501908152608060ff6002860154938588019485526003870154966060890197885201541695019415158552825195865251602086015251908401525160608301525115156080820152f35b838334610173578060031936011261017357823590602493843567ffffffffffffffff91828211610a205736602383011215610a20578181013591838311610a0e578451602093601f19926106cc601f8301851687018461138e565b818352368b8383010111610a0a57818a928c88930183860137830101526106f1611543565b6106f96114ae565b94610703336114da565b80156109fb575b80156109e5575b156109ac5785895260058552868920338a52855260ff878a20541661096a578589528385528689209289885161074681611340565b3381528781018b81528a8201914283526060810196875287546801000000000000000081101561095857610781906001998a820181556112d4565b94909461094757505183546001600160a01b0319166001600160a01b039190911617835551868301555160028201559251805160039490940193928311610935579082916107cf8554611306565b601f81116108e3575b508791601f841160011461088757508b9261087c575b5050600019600383901b1c191690831b1790555b8387526005835284872033885283528487209060ff198254161790556003825260038487200180549186830180931161086a57507fb7f20d0949b6a8bc59d005af4a52f7ff5d0cfcde9056fa556adb0e4b24dcb6d2959697505582519485528401523392a280f35b634e487b7160e01b8852601190528787fd5b015190508b806107ee565b858d52888d20879590939291168d5b8a8282106108cd57505084116108b4575b505050811b019055610802565b015160001960f88460031b161c191690558b80806108a7565b8385015186558997909501949384019301610896565b90919250848c52878c20601f850160051c81019189861061092b575b8594939291601f89920160051c01915b82811061091d5750506107d8565b8e815586955088910161090f565b90915081906108ff565b634e487b7160e01b8b52604186528b8bfd5b634e487b7160e01b8152808a528f90fd5b634e487b7160e01b855260418a528f85fd5b865162461bcd60e51b81528085018690526017818c01527f416c7265616479207375626d697474656420746f6461790000000000000000006044820152606490fd5b865162461bcd60e51b81528085018690526014818c015273135d5cdd081c1b185e4819d85b5948199a5c9cdd60621b6044820152606490fd5b50338952600385526002878a2001541515610711565b50610a0533611500565b61070a565b8980fd5b634e487b7160e01b8752604182528787fd5b8580fd5b90503461023a578260031936011261023a57610a3e611543565b610a4661158a565b610a4f33611500565b610bb057610a5b6114ae565b9060018201809211610b9d576201518091828102928184041490151715610b9d576138408201809211610b9d5760025483516323b872dd60e01b81523381840152306024820152622625a06044820152602092918691906001600160a01b0390859083906064908290879086165af1918215610b93578592610ae391859161037e57506115f8565b6044816002541691600654168851948593849263a9059cbb60e01b8452888401526203d09060248401525af18015610b8957916002917ffccd92c3218efe7bdeef2c0eb1423d56edbb72bb3d47cd78e4c76140fe495957959693610b6c575b5033875260038452828720908101600160ff19825416179055856001820155016103378154611534565b610b8290853d871161036d5761035e818361138e565b5038610b42565b85513d88823e3d90fd5b87513d85823e3d90fd5b634e487b7160e01b845260119052602483fd5b6020606492519162461bcd60e51b8352820152601b60248201527f416c7265616479206861766520756e6c696d69746564207061737300000000006044820152fd5b9190503461023a578260031936011261023a576020925051908152f35b505034610173578160031936011261017357905490516001600160a01b039091168152602090f35b50503461017357602036600319011261017357602090610c5d610c586111e9565b611500565b90519015158152f35b50503461017357816003193601126101735760207f62e78cea01bee320cd4e420270b5ea74000d11b0c9f74754ebdbfc544b05a25891610ca4611456565b610cac611543565b835460ff60a01b1916600160a01b17845551338152a180f35b90503461023a578160031936011261023a57602435908035845260205281832080548210156104f35790610cf8916112d4565b5090610d4060018060a01b0383541691600184015493610d1f6003600283015492016113b0565b91805195869586526020860152840152608060608401526080830190611204565b0390f35b833461054d578060031936011261054d57610d5d611456565b80546001600160a01b03198116825581906001600160a01b03167f8be0079c531659141344cd1fd0a4f28419497f9722a3daafe3b4186f6b6457e08280a380f35b50503461017357816003193601126101735760ff6020925460a01c1690519015158152f35b50503461017357816003193601126101735760209051600a8152f35b83915034610173578160031936011261017357610dfa6114ae565b82526020908082528383209283549267ffffffffffffffff8411610e985785519491610e2c600586901b83018761138e565b8486529182528082208186015b858410610e4d57875180610d408982611244565b84836001928a51610e5d81611340565b848060a01b038654168152848601548382015260028601548c820152610e85600387016113b0565b6060820152815201920193019290610e39565b506041602492634e487b7160e01b835252fd5b90503461023a578160031936011261023a576024356001600160a01b03811691908290036104f35760209360ff92849235825260058652828220908252855220541690519015158152f35b90503461023a578260031936011261023a57610f10611456565b82549060ff8260a01c1615610f56575060ff60a01b19168255513381527f5db9ee0a495bf2e6ff9c91a7834c1ba4fdd244a5e8aa4e537bd38aeae4b073aa90602090a180f35b606490602084519162461bcd60e51b8352820152601460248201527314185d5cd8589b194e881b9bdd081c185d5cd95960621b6044820152fd5b505034610173578160031936011261017357602090610fad6114ae565b9051908152f35b50503461017357816003193601126101735760209051622625a08152f35b50503461017357816003193601126101735760025490516001600160a01b039091168152602090f35b83915034610173576020908160031936011261023a57803583528082528383209283549267ffffffffffffffff8411610e985785519491611042600586901b83018761138e565b8486529182528082208186015b85841061106357875180610d408982611244565b84836001928a5161107381611340565b848060a01b038654168152848601548382015260028601548c82015261109b600387016113b0565b606082015281520192019301929061104f565b505034610173576020366003190112610173576020906110cc6111e9565b906110d6826114da565b9182156110e7575b50519015158152f35b6110f2919250611500565b90836110de565b50503461017357602036600319011261017357602090610c5d61111a6111e9565b6114da565b90503461023a578260031936011261023a57611139611543565b61114161158a565b61114a336114da565b156111a757506111586114ae565b9033835260036020526002818420838155016111748154611534565b9055519081527f51bf18afe64c0561be5f93315988a368650fb8dcefb8bee78457cc200b0234b960203392a26001805580f35b6020606492519162461bcd60e51b8352820152601c60248201527f467265652067616d6520616c7265616479207573656420746f646179000000006044820152fd5b600435906001600160a01b03821682036111ff57565b600080fd5b919082519283825260005b848110611230575050826000602080949584010152601f8019910116010190565b60208183018101518483018201520161120f565b602080820190808352835180925260409283810182858560051b8401019601946000925b858410611279575050505050505090565b9091929394959685806112c3600193603f198682030188528b51858060a01b0381511682528381015184830152878101518883015260608091015191608080928201520190611204565b990194019401929594939190611268565b80548210156112f05760005260206000209060021b0190600090565b634e487b7160e01b600052603260045260246000fd5b90600182811c92168015611336575b602083101461132057565b634e487b7160e01b600052602260045260246000fd5b91607f1691611315565b6080810190811067ffffffffffffffff82111761135c57604052565b634e487b7160e01b600052604160045260246000fd5b60a0810190811067ffffffffffffffff82111761135c57604052565b90601f8019910116810190811067ffffffffffffffff82111761135c57604052565b90604051918260008254926113c484611306565b90818452600194858116908160001461143357506001146113f0575b50506113ee9250038361138e565b565b9093915060005260209081600020936000915b81831061141b5750506113ee935082010138806113e0565b85548884018501529485019487945091830191611403565b9150506113ee94506020925060ff191682840152151560051b82010138806113e0565b6000546001600160a01b0316330361146a57565b606460405162461bcd60e51b815260206004820152602060248201527f4f776e61626c653a2063616c6c6572206973206e6f7420746865206f776e65726044820152fd5b61464f1942014281116114c45762015180900490565b634e487b7160e01b600052601160045260246000fd5b6114e26114ae565b6001600160a01b039091166000908152600360205260409020541090565b6001600160a01b03166000908152600360205260409020600481015460ff169081611529575090565b600191500154421090565b60001981146114c45760010190565b60ff60005460a01c1661155257565b60405162461bcd60e51b815260206004820152601060248201526f14185d5cd8589b194e881c185d5cd95960821b6044820152606490fd5b60026001541461159b576002600155565b60405162461bcd60e51b815260206004820152601f60248201527f5265656e7472616e637947756172643a207265656e7472616e742063616c6c006044820152606490fd5b908160209103126111ff575180151581036111ff5790565b156115ff57565b60405162461bcd60e51b815260206004820152600e60248201526d14185e5b595b9d0819985a5b195960921b6044820152606490fdfea2646970667358221220ec667f9ed66b804614f80394694f8755be7fb2600d8dd25d12228a982e0b627964736f6c63430008130033","opcodes":"PUSH1 0x80 CALLVALUE PUSH2 0xD6 JUMPI PUSH1 0x1F PUSH2 0x1771 CODESIZE DUP2 SWAP1 SUB SWAP2 DUP3 ADD PUSH1 0x1F NOT AND DUP4 ADD SWAP2 PUSH1 0x1 PUSH1 0x1 PUSH1 0x40 SHL SUB DUP4 GT DUP5 DUP5 LT OR PUSH2 0xDB JUMPI DUP1 DUP5 SWAP3 PUSH1 0x40 SWAP5 DUP6 MSTORE DUP4 CODECOPY DUP2 ADD SUB SLT PUSH2 0xD6 JUMPI PUSH2 0x52 PUSH1 0x20 PUSH2 0x4B DUP4 PUSH2 0xF1 JUMP JUMPDEST SWAP3 ADD PUSH2 0xF1 JUMP JUMPDEST SWAP1 PUSH1 0x0 SLOAD PUSH1 0x40 MLOAD SWAP3 PUSH1 0x1 DUP1 PUSH1 0xA0 SHL SUB SWAP2 CALLER DUP4 DUP3 AND PUSH32 0x8BE0079C531659141344CD1FD0A4F28419497F9722A3DAAFE3B4186F6B6457E0 PUSH1 0x0 DUP1 LOG3 PUSH1 0x1 PUSH1 0x1 PUSH1 0xA8 SHL SUB NOT AND CALLER PUSH1 0xFF PUSH1 0xA0 SHL NOT AND OR PUSH1 0x0 SSTORE PUSH1 0x1 DUP1 SSTORE PUSH1 0x2 DUP1 SLOAD PUSH1 0x1 PUSH1 0x1 PUSH1 0xA0 SHL SUB NOT SWAP1 DUP2 AND SWAP5 DUP5 AND SWAP5 SWAP1 SWAP5 OR SWAP1 SSTORE PUSH1 0x6 DUP1 SLOAD SWAP1 SWAP4 AND SWAP2 AND OR SWAP1 SSTORE PUSH2 0x166B SWAP1 DUP2 PUSH2 0x106 DUP3 CODECOPY RETURN JUMPDEST PUSH1 0x0 DUP1 REVERT JUMPDEST PUSH4 0x4E487B71 PUSH1 0xE0 SHL PUSH1 0x0 MSTORE PUSH1 0x41 PUSH1 0x4 MSTORE PUSH1 0x24 PUSH1 0x0 REVERT JUMPDEST MLOAD SWAP1 PUSH1 0x1 PUSH1 0x1 PUSH1 0xA0 SHL SUB DUP3 AND DUP3 SUB PUSH2 0xD6 JUMPI JUMP INVALID PUSH1 0x40 PUSH1 0x80 DUP2 MSTORE PUSH1 0x4 SWAP1 DUP2 CALLDATASIZE LT ISZERO PUSH2 0x15 JUMPI PUSH1 0x0 DUP1 REVERT JUMPDEST PUSH1 0x0 SWAP2 DUP3 CALLDATALOAD PUSH1 0xE0 SHR SWAP1 DUP2 PUSH4 0x14F0049 EQ PUSH2 0x111F JUMPI DUP2 PUSH4 0x257C5D2 EQ PUSH2 0x10F9 JUMPI DUP2 PUSH4 0x823D5F3 EQ PUSH2 0x10AE JUMPI DUP2 PUSH4 0x832275E EQ PUSH2 0xFFB JUMPI DUP2 PUSH4 0x11EAC855 EQ PUSH2 0xFD2 JUMPI DUP2 PUSH4 0x329A4A6C EQ PUSH2 0xFB4 JUMPI DUP2 PUSH4 0x3E6968B6 EQ PUSH2 0xF90 JUMPI DUP2 PUSH4 0x3F4BA83A EQ PUSH2 0xEF6 JUMPI DUP2 PUSH4 0x3F9EACDC EQ PUSH2 0xEAB JUMPI DUP2 PUSH4 0x491DB668 EQ PUSH2 0xDDF JUMPI DUP2 PUSH4 0x560D52D4 EQ PUSH2 0xDC3 JUMPI DUP2 PUSH4 0x5C975ABB EQ PUSH2 0xD9E JUMPI DUP2 PUSH4 0x715018A6 EQ PUSH2 0xD44 JUMPI DUP2 PUSH4 0x83660217 EQ PUSH2 0xCC5 JUMPI DUP2 PUSH4 0x8456CB59 EQ PUSH2 0xC66 JUMPI DUP2 PUSH4 0x8A3B2044 EQ PUSH2 0xC37 JUMPI DUP2 PUSH4 0x8DA5CB5B EQ PUSH2 0xC0F JUMPI DUP2 PUSH4 0x95F2A2F1 EQ PUSH2 0xBF2 JUMPI DUP2 PUSH4 0x98F79DCD EQ PUSH2 0xA24 JUMPI DUP2 PUSH4 0xBC2256DC EQ PUSH2 0x670 JUMPI DUP2 PUSH4 0xC01CA43F EQ PUSH2 0x5B8 JUMPI DUP2 PUSH4 0xD15E55B7 EQ PUSH2 0x550 JUMPI DUP2 PUSH4 0xD96D98CA EQ PUSH2 0x508 JUMPI DUP2 PUSH4 0xDB2E21BC EQ PUSH2 0x410 JUMPI DUP2 PUSH4 0xE20FC118 EQ PUSH2 0x3E7 JUMPI DUP2 PUSH4 0xF1259329 EQ PUSH2 0x23E JUMPI DUP2 PUSH4 0xF2FDE38B EQ PUSH2 0x177 JUMPI POP PUSH4 0xFEF39194 EQ PUSH2 0x157 JUMPI PUSH1 0x0 DUP1 REVERT JUMPDEST CALLVALUE PUSH2 0x173 JUMPI DUP2 PUSH1 0x3 NOT CALLDATASIZE ADD SLT PUSH2 0x173 JUMPI PUSH1 0x20 SWAP1 MLOAD PUSH3 0x3D090 DUP2 MSTORE RETURN JUMPDEST POP DUP1 REVERT JUMPDEST SWAP1 POP CALLVALUE PUSH2 0x23A JUMPI PUSH1 0x20 CALLDATASIZE PUSH1 0x3 NOT ADD SLT PUSH2 0x23A JUMPI PUSH2 0x192 PUSH2 0x11E9 JUMP JUMPDEST SWAP1 PUSH2 0x19B PUSH2 0x1456 JUMP JUMPDEST PUSH1 0x1 PUSH1 0x1 PUSH1 0xA0 SHL SUB SWAP2 DUP3 AND SWAP3 DUP4 ISZERO PUSH2 0x1E8 JUMPI POP POP DUP3 SLOAD PUSH1 0x1 PUSH1 0x1 PUSH1 0xA0 SHL SUB NOT DUP2 AND DUP4 OR DUP5 SSTORE AND PUSH32 0x8BE0079C531659141344CD1FD0A4F28419497F9722A3DAAFE3B4186F6B6457E0 DUP4 DUP1 LOG3 DUP1 RETURN JUMPDEST SWAP1 PUSH1 0x20 PUSH1 0x84 SWAP3 MLOAD SWAP2 PUSH3 0x461BCD PUSH1 0xE5 SHL DUP4 MSTORE DUP3 ADD MSTORE PUSH1 0x26 PUSH1 0x24 DUP3 ADD MSTORE PUSH32 0x4F776E61626C653A206E6577206F776E657220697320746865207A65726F2061 PUSH1 0x44 DUP3 ADD MSTORE PUSH6 0x646472657373 PUSH1 0xD0 SHL PUSH1 0x64 DUP3 ADD MSTORE REVERT JUMPDEST DUP3 DUP1 REVERT JUMPDEST SWAP1 POP CALLVALUE PUSH2 0x23A JUMPI DUP3 PUSH1 0x3 NOT CALLDATASIZE ADD SLT PUSH2 0x23A JUMPI PUSH2 0x258 PUSH2 0x1543 JUMP JUMPDEST PUSH2 0x260 PUSH2 0x158A JUMP JUMPDEST PUSH2 0x269 CALLER PUSH2 0x1500 JUMP JUMPDEST PUSH2 0x3A5 JUMPI DUP3 PUSH1 0x1 DUP1 PUSH1 0xA0 SHL SUB SWAP3 DUP4 PUSH1 0x2 SLOAD AND SWAP3 DUP2 MLOAD PUSH4 0x23B872DD PUSH1 0xE0 SHL DUP2 MSTORE CALLER DUP3 DUP3 ADD MSTORE ADDRESS PUSH1 0x24 DUP3 ADD MSTORE PUSH3 0x3D090 SWAP5 DUP6 PUSH1 0x44 DUP4 ADD MSTORE DUP2 PUSH1 0x64 DUP2 PUSH1 0x20 SWAP8 DUP9 SWAP5 GAS CALL SWAP1 DUP2 ISZERO PUSH2 0x39B JUMPI DUP5 SWAP3 SWAP2 PUSH2 0x2C4 SWAP2 DUP10 SWAP2 PUSH2 0x37E JUMPI JUMPDEST POP PUSH2 0x15F8 JUMP JUMPDEST PUSH1 0x44 DUP7 PUSH1 0x2 SLOAD AND SWAP7 PUSH1 0x6 SLOAD AND SWAP2 DUP9 DUP6 MLOAD SWAP9 DUP10 SWAP5 DUP6 SWAP4 PUSH4 0xA9059CBB PUSH1 0xE0 SHL DUP6 MSTORE DUP5 ADD MSTORE PUSH2 0x61A8 PUSH1 0x24 DUP5 ADD MSTORE GAS CALL SWAP4 DUP5 ISZERO PUSH2 0x374 JUMPI PUSH32 0xB451B637378C20DB51805E6A988CBF224E3EC1380A5F0B6D745E65A7C3A0DCF1 SWAP4 SWAP5 PUSH2 0x347 JUMPI JUMPDEST POP CALLER DUP6 MSTORE PUSH1 0x3 DUP3 MSTORE PUSH1 0x2 DUP2 DUP7 KECCAK256 ADD PUSH2 0x337 DUP2 SLOAD PUSH2 0x1534 JUMP JUMPDEST SWAP1 SSTORE MLOAD SWAP3 DUP4 MSTORE CALLER SWAP3 LOG2 PUSH1 0x1 DUP1 SSTORE DUP1 RETURN JUMPDEST PUSH2 0x366 SWAP1 DUP4 RETURNDATASIZE DUP6 GT PUSH2 0x36D JUMPI JUMPDEST PUSH2 0x35E DUP2 DUP4 PUSH2 0x138E JUMP JUMPDEST DUP2 ADD SWAP1 PUSH2 0x15E0 JUMP JUMPDEST POP CODESIZE PUSH2 0x31F JUMP JUMPDEST POP RETURNDATASIZE PUSH2 0x354 JUMP JUMPDEST DUP2 MLOAD RETURNDATASIZE DUP8 DUP3 RETURNDATACOPY RETURNDATASIZE SWAP1 REVERT JUMPDEST PUSH2 0x395 SWAP2 POP DUP5 RETURNDATASIZE DUP7 GT PUSH2 0x36D JUMPI PUSH2 0x35E DUP2 DUP4 PUSH2 0x138E JUMP JUMPDEST CODESIZE PUSH2 0x2BE JUMP JUMPDEST DUP4 MLOAD RETURNDATASIZE DUP10 DUP3 RETURNDATACOPY RETURNDATASIZE SWAP1 REVERT JUMPDEST PUSH1 0x20 PUSH1 0x64 SWAP3 MLOAD SWAP2 PUSH3 0x461BCD PUSH1 0xE5 SHL DUP4 MSTORE DUP3 ADD MSTORE PUSH1 0x1A PUSH1 0x24 DUP3 ADD MSTORE PUSH32 0x4861766520756E6C696D69746564207061737320616374697665000000000000 PUSH1 0x44 DUP3 ADD MSTORE REVERT JUMPDEST POP POP CALLVALUE PUSH2 0x173 JUMPI DUP2 PUSH1 0x3 NOT CALLDATASIZE ADD SLT PUSH2 0x173 JUMPI PUSH1 0x6 SLOAD SWAP1 MLOAD PUSH1 0x1 PUSH1 0x1 PUSH1 0xA0 SHL SUB SWAP1 SWAP2 AND DUP2 MSTORE PUSH1 0x20 SWAP1 RETURN JUMPDEST SWAP1 POP CALLVALUE PUSH2 0x23A JUMPI DUP3 PUSH1 0x3 NOT CALLDATASIZE ADD SLT PUSH2 0x23A JUMPI PUSH2 0x42A PUSH2 0x1456 JUMP JUMPDEST PUSH1 0x1 DUP1 PUSH1 0xA0 SHL SUB SWAP2 DUP3 PUSH1 0x2 SLOAD AND DUP2 MLOAD SWAP3 PUSH4 0x70A08231 PUSH1 0xE0 SHL DUP5 MSTORE ADDRESS DUP2 DUP6 ADD MSTORE DUP6 PUSH1 0x20 SWAP6 DUP7 DUP7 PUSH1 0x24 DUP2 DUP8 GAS STATICCALL SWAP6 DUP7 ISZERO PUSH2 0x4FE JUMPI SWAP1 DUP3 SWAP2 DUP9 SWAP6 SWAP5 SWAP4 SWAP8 PUSH2 0x4C4 JUMPI JUMPDEST POP SWAP1 PUSH1 0x44 SWAP3 SWAP2 DUP2 SLOAD AND SWAP4 DUP7 MLOAD SWAP8 DUP9 SWAP6 DUP7 SWAP5 PUSH4 0xA9059CBB PUSH1 0xE0 SHL DUP7 MSTORE DUP6 ADD MSTORE PUSH1 0x24 DUP5 ADD MSTORE GAS CALL SWAP1 DUP2 ISZERO PUSH2 0x4BB JUMPI POP PUSH2 0x49E JUMPI DUP3 DUP1 RETURN JUMPDEST DUP2 PUSH2 0x4B4 SWAP3 SWAP1 RETURNDATASIZE LT PUSH2 0x36D JUMPI PUSH2 0x35E DUP2 DUP4 PUSH2 0x138E JUMP JUMPDEST POP CODESIZE DUP1 DUP3 DUP1 RETURN JUMPDEST MLOAD RETURNDATASIZE DUP6 DUP3 RETURNDATACOPY RETURNDATASIZE SWAP1 REVERT JUMPDEST DUP6 DUP2 SWAP5 SWAP4 SWAP7 SWAP3 SWAP9 POP RETURNDATASIZE DUP4 GT PUSH2 0x4F7 JUMPI JUMPDEST PUSH2 0x4DE DUP2 DUP4 PUSH2 0x138E JUMP JUMPDEST DUP2 ADD SUB SLT PUSH2 0x4F3 JUMPI SWAP1 MLOAD SWAP5 DUP7 SWAP4 SWAP1 PUSH1 0x44 PUSH2 0x469 JUMP JUMPDEST DUP4 DUP1 REVERT JUMPDEST POP RETURNDATASIZE PUSH2 0x4D4 JUMP JUMPDEST DUP6 MLOAD RETURNDATASIZE DUP5 DUP3 RETURNDATACOPY RETURNDATASIZE SWAP1 REVERT JUMPDEST DUP4 CALLVALUE PUSH2 0x54D JUMPI PUSH1 0x20 CALLDATASIZE PUSH1 0x3 NOT ADD SLT PUSH2 0x54D JUMPI PUSH2 0x522 PUSH2 0x11E9 JUMP JUMPDEST PUSH2 0x52A PUSH2 0x1456 JUMP JUMPDEST PUSH1 0x1 DUP1 PUSH1 0xA0 SHL SUB AND PUSH12 0xFFFFFFFFFFFFFFFFFFFFFFFF PUSH1 0xA0 SHL PUSH1 0x6 SLOAD AND OR PUSH1 0x6 SSTORE DUP1 RETURN JUMPDEST DUP1 REVERT JUMPDEST SWAP2 SWAP1 POP CALLVALUE PUSH2 0x23A JUMPI PUSH1 0x20 CALLDATASIZE PUSH1 0x3 NOT ADD SLT PUSH2 0x23A JUMPI PUSH1 0xA0 SWAP3 DUP2 SWAP1 PUSH1 0x1 PUSH1 0x1 PUSH1 0xA0 SHL SUB PUSH2 0x579 PUSH2 0x11E9 JUMP JUMPDEST AND DUP2 MSTORE PUSH1 0x3 PUSH1 0x20 MSTORE KECCAK256 DUP1 SLOAD SWAP3 PUSH1 0x1 DUP3 ADD SLOAD SWAP3 PUSH1 0xFF PUSH1 0x2 DUP5 ADD SLOAD SWAP3 PUSH1 0x3 DUP6 ADD SLOAD SWAP5 ADD SLOAD AND SWAP4 DUP2 MLOAD SWAP6 DUP7 MSTORE PUSH1 0x20 DUP7 ADD MSTORE DUP5 ADD MSTORE PUSH1 0x60 DUP4 ADD MSTORE ISZERO ISZERO PUSH1 0x80 DUP3 ADD MSTORE RETURN JUMPDEST SWAP2 SWAP1 POP CALLVALUE PUSH2 0x23A JUMPI PUSH1 0x20 CALLDATASIZE PUSH1 0x3 NOT ADD SLT PUSH2 0x23A JUMPI DUP1 PUSH1 0xA0 SWAP4 PUSH2 0x5D8 PUSH2 0x11E9 JUMP JUMPDEST DUP2 PUSH1 0x80 DUP5 MLOAD PUSH2 0x5E6 DUP2 PUSH2 0x1372 JUMP JUMPDEST DUP3 DUP2 MSTORE DUP3 PUSH1 0x20 DUP3 ADD MSTORE DUP3 DUP7 DUP3 ADD MSTORE DUP3 PUSH1 0x60 DUP3 ADD MSTORE ADD MSTORE PUSH1 0x1 DUP1 DUP8 SHL SUB AND DUP2 MSTORE PUSH1 0x3 PUSH1 0x20 MSTORE KECCAK256 DUP2 MLOAD SWAP2 PUSH2 0x617 DUP4 PUSH2 0x1372 JUMP JUMPDEST DUP2 SLOAD SWAP4 DUP5 DUP5 MSTORE PUSH1 0x1 DUP4 ADD SLOAD PUSH1 0x20 DUP6 ADD SWAP1 DUP2 MSTORE PUSH1 0x80 PUSH1 0xFF PUSH1 0x2 DUP7 ADD SLOAD SWAP4 DUP6 DUP9 ADD SWAP5 DUP6 MSTORE PUSH1 0x3 DUP8 ADD SLOAD SWAP7 PUSH1 0x60 DUP10 ADD SWAP8 DUP9 MSTORE ADD SLOAD AND SWAP6 ADD SWAP5 ISZERO ISZERO DUP6 MSTORE DUP3 MLOAD SWAP6 DUP7 MSTORE MLOAD PUSH1 0x20 DUP7 ADD MSTORE MLOAD SWAP1 DUP5 ADD MSTORE MLOAD PUSH1 0x60 DUP4 ADD MSTORE MLOAD ISZERO ISZERO PUSH1 0x80 DUP3 ADD MSTORE RETURN JUMPDEST DUP4 DUP4 CALLVALUE PUSH2 0x173 JUMPI DUP1 PUSH1 0x3 NOT CALLDATASIZE ADD SLT PUSH2 0x173 JUMPI DUP3 CALLDATALOAD SWAP1 PUSH1 0x24 SWAP4 DUP5 CALLDATALOAD PUSH8 0xFFFFFFFFFFFFFFFF SWAP2 DUP3 DUP3 GT PUSH2 0xA20 JUMPI CALLDATASIZE PUSH1 0x23 DUP4 ADD SLT ISZERO PUSH2 0xA20 JUMPI DUP2 DUP2 ADD CALLDATALOAD SWAP2 DUP4 DUP4 GT PUSH2 0xA0E JUMPI DUP5 MLOAD PUSH1 0x20 SWAP4 PUSH1 0x1F NOT SWAP3 PUSH2 0x6CC PUSH1 0x1F DUP4 ADD DUP6 AND DUP8 ADD DUP5 PUSH2 0x138E JUMP JUMPDEST DUP2 DUP4 MSTORE CALLDATASIZE DUP12 DUP4 DUP4 ADD ADD GT PUSH2 0xA0A JUMPI DUP2 DUP11 SWAP3 DUP13 DUP9 SWAP4 ADD DUP4 DUP7 ADD CALLDATACOPY DUP4 ADD ADD MSTORE PUSH2 0x6F1 PUSH2 0x1543 JUMP JUMPDEST PUSH2 0x6F9 PUSH2 0x14AE JUMP JUMPDEST SWAP5 PUSH2 0x703 CALLER PUSH2 0x14DA JUMP JUMPDEST DUP1 ISZERO PUSH2 0x9FB JUMPI JUMPDEST DUP1 ISZERO PUSH2 0x9E5 JUMPI JUMPDEST ISZERO PUSH2 0x9AC JUMPI DUP6 DUP10 MSTORE PUSH1 0x5 DUP6 MSTORE DUP7 DUP10 KECCAK256 CALLER DUP11 MSTORE DUP6 MSTORE PUSH1 0xFF DUP8 DUP11 KECCAK256 SLOAD AND PUSH2 0x96A JUMPI DUP6 DUP10 MSTORE DUP4 DUP6 MSTORE DUP7 DUP10 KECCAK256 SWAP3 DUP10 DUP9 MLOAD PUSH2 0x746 DUP2 PUSH2 0x1340 JUMP JUMPDEST CALLER DUP2 MSTORE DUP8 DUP2 ADD DUP12 DUP2 MSTORE DUP11 DUP3 ADD SWAP2 TIMESTAMP DUP4 MSTORE PUSH1 0x60 DUP2 ADD SWAP7 DUP8 MSTORE DUP8 SLOAD PUSH9 0x10000000000000000 DUP2 LT ISZERO PUSH2 0x958 JUMPI PUSH2 0x781 SWAP1 PUSH1 0x1 SWAP10 DUP11 DUP3 ADD DUP2 SSTORE PUSH2 0x12D4 JUMP JUMPDEST SWAP5 SWAP1 SWAP5 PUSH2 0x947 JUMPI POP MLOAD DUP4 SLOAD PUSH1 0x1 PUSH1 0x1 PUSH1 0xA0 SHL SUB NOT AND PUSH1 0x1 PUSH1 0x1 PUSH1 0xA0 SHL SUB SWAP2 SWAP1 SWAP2 AND OR DUP4 SSTORE MLOAD DUP7 DUP4 ADD SSTORE MLOAD PUSH1 0x2 DUP3 ADD SSTORE SWAP3 MLOAD DUP1 MLOAD PUSH1 0x3 SWAP5 SWAP1 SWAP5 ADD SWAP4 SWAP3 DUP4 GT PUSH2 0x935 JUMPI SWAP1 DUP3 SWAP2 PUSH2 0x7CF DUP6 SLOAD PUSH2 0x1306 JUMP JUMPDEST PUSH1 0x1F DUP2 GT PUSH2 0x8E3 JUMPI JUMPDEST POP DUP8 SWAP2 PUSH1 0x1F DUP5 GT PUSH1 0x1 EQ PUSH2 0x887 JUMPI POP DUP12 SWAP3 PUSH2 0x87C JUMPI JUMPDEST POP POP PUSH1 0x0 NOT PUSH1 0x3 DUP4 SWAP1 SHL SHR NOT AND SWAP1 DUP4 SHL OR SWAP1 SSTORE JUMPDEST DUP4 DUP8 MSTORE PUSH1 0x5 DUP4 MSTORE DUP5 DUP8 KECCAK256 CALLER DUP9 MSTORE DUP4 MSTORE DUP5 DUP8 KECCAK256 SWAP1 PUSH1 0xFF NOT DUP3 SLOAD AND OR SWAP1 SSTORE PUSH1 0x3 DUP3 MSTORE PUSH1 0x3 DUP5 DUP8 KECCAK256 ADD DUP1 SLOAD SWAP2 DUP7 DUP4 ADD DUP1 SWAP4 GT PUSH2 0x86A JUMPI POP PUSH32 0xB7F20D0949B6A8BC59D005AF4A52F7FF5D0CFCDE9056FA556ADB0E4B24DCB6D2 SWAP6 SWAP7 SWAP8 POP SSTORE DUP3 MLOAD SWAP5 DUP6 MSTORE DUP5 ADD MSTORE CALLER SWAP3 LOG2 DUP1 RETURN JUMPDEST PUSH4 0x4E487B71 PUSH1 0xE0 SHL DUP9 MSTORE PUSH1 0x11 SWAP1 MSTORE DUP8 DUP8 REVERT JUMPDEST ADD MLOAD SWAP1 POP DUP12 DUP1 PUSH2 0x7EE JUMP JUMPDEST DUP6 DUP14 MSTORE DUP9 DUP14 KECCAK256 DUP8 SWAP6 SWAP1 SWAP4 SWAP3 SWAP2 AND DUP14 JUMPDEST DUP11 DUP3 DUP3 LT PUSH2 0x8CD JUMPI POP POP DUP5 GT PUSH2 0x8B4 JUMPI JUMPDEST POP POP POP DUP2 SHL ADD SWAP1 SSTORE PUSH2 0x802 JUMP JUMPDEST ADD MLOAD PUSH1 0x0 NOT PUSH1 0xF8 DUP5 PUSH1 0x3 SHL AND SHR NOT AND SWAP1 SSTORE DUP12 DUP1 DUP1 PUSH2 0x8A7 JUMP JUMPDEST DUP4 DUP6 ADD MLOAD DUP7 SSTORE DUP10 SWAP8 SWAP1 SWAP6 ADD SWAP5 SWAP4 DUP5 ADD SWAP4 ADD PUSH2 0x896 JUMP JUMPDEST SWAP1 SWAP2 SWAP3 POP DUP5 DUP13 MSTORE DUP8 DUP13 KECCAK256 PUSH1 0x1F DUP6 ADD PUSH1 0x5 SHR DUP2 ADD SWAP2 DUP10 DUP7 LT PUSH2 0x92B JUMPI JUMPDEST DUP6 SWAP5 SWAP4 SWAP3 SWAP2 PUSH1 0x1F DUP10 SWAP3 ADD PUSH1 0x5 SHR ADD SWAP2 JUMPDEST DUP3 DUP2 LT PUSH2 0x91D JUMPI POP POP PUSH2 0x7D8 JUMP JUMPDEST DUP15 DUP2 SSTORE DUP7 SWAP6 POP DUP9 SWAP2 ADD PUSH2 0x90F JUMP JUMPDEST SWAP1 SWAP2 POP DUP2 SWAP1 PUSH2 0x8FF JUMP JUMPDEST PUSH4 0x4E487B71 PUSH1 0xE0 SHL DUP12 MSTORE PUSH1 0x41 DUP7 MSTORE DUP12 DUP12 REVERT JUMPDEST PUSH4 0x4E487B71 PUSH1 0xE0 SHL DUP2 MSTORE DUP1 DUP11 MSTORE DUP16 SWAP1 REVERT JUMPDEST PUSH4 0x4E487B71 PUSH1 0xE0 SHL DUP6 MSTORE PUSH1 0x41 DUP11 MSTORE DUP16 DUP6 REVERT JUMPDEST DUP7 MLOAD PUSH3 0x461BCD PUSH1 0xE5 SHL DUP2 MSTORE DUP1 DUP6 ADD DUP7 SWAP1 MSTORE PUSH1 0x17 DUP2 DUP13 ADD MSTORE PUSH32 0x416C7265616479207375626D697474656420746F646179000000000000000000 PUSH1 0x44 DUP3 ADD MSTORE PUSH1 0x64 SWAP1 REVERT JUMPDEST DUP7 MLOAD PUSH3 0x461BCD PUSH1 0xE5 SHL DUP2 MSTORE DUP1 DUP6 ADD DUP7 SWAP1 MSTORE PUSH1 0x14 DUP2 DUP13 ADD MSTORE PUSH20 0x135D5CDD081C1B185E4819D85B5948199A5C9CDD PUSH1 0x62 SHL PUSH1 0x44 DUP3 ADD MSTORE PUSH1 0x64 SWAP1 REVERT JUMPDEST POP CALLER DUP10 MSTORE PUSH1 0x3 DUP6 MSTORE PUSH1 0x2 DUP8 DUP11 KECCAK256 ADD SLOAD ISZERO ISZERO PUSH2 0x711 JUMP JUMPDEST POP PUSH2 0xA05 CALLER PUSH2 0x1500 JUMP JUMPDEST PUSH2 0x70A JUMP JUMPDEST DUP10 DUP1 REVERT JUMPDEST PUSH4 0x4E487B71 PUSH1 0xE0 SHL DUP8 MSTORE PUSH1 0x41 DUP3 MSTORE DUP8 DUP8 REVERT JUMPDEST DUP6 DUP1 REVERT JUMPDEST SWAP1 POP CALLVALUE PUSH2 0x23A JUMPI DUP3 PUSH1 0x3 NOT CALLDATASIZE ADD SLT PUSH2 0x23A JUMPI PUSH2 0xA3E PUSH2 0x1543 JUMP JUMPDEST PUSH2 0xA46 PUSH2 0x158A JUMP JUMPDEST PUSH2 0xA4F CALLER PUSH2 0x1500 JUMP JUMPDEST PUSH2 0xBB0 JUMPI PUSH2 0xA5B PUSH2 0x14AE JUMP JUMPDEST SWAP1 PUSH1 0x1 DUP3 ADD DUP1 SWAP3 GT PUSH2 0xB9D JUMPI PUSH3 0x15180 SWAP2 DUP3 DUP2 MUL SWAP3 DUP2 DUP5 DIV EQ SWAP1 ISZERO OR ISZERO PUSH2 0xB9D JUMPI PUSH2 0x3840 DUP3 ADD DUP1 SWAP3 GT PUSH2 0xB9D JUMPI PUSH1 0x2 SLOAD DUP4 MLOAD PUSH4 0x23B872DD PUSH1 0xE0 SHL DUP2 MSTORE CALLER DUP2 DUP5 ADD MSTORE ADDRESS PUSH1 0x24 DUP3 ADD MSTORE PUSH3 0x2625A0 PUSH1 0x44 DUP3 ADD MSTORE PUSH1 0x20 SWAP3 SWAP2 DUP7 SWAP2 SWAP1 PUSH1 0x1 PUSH1 0x1 PUSH1 0xA0 SHL SUB SWAP1 DUP6 SWAP1 DUP4 SWAP1 PUSH1 0x64 SWAP1 DUP3 SWAP1 DUP8 SWAP1 DUP7 AND GAS CALL SWAP2 DUP3 ISZERO PUSH2 0xB93 JUMPI DUP6 SWAP3 PUSH2 0xAE3 SWAP2 DUP6 SWAP2 PUSH2 0x37E JUMPI POP PUSH2 0x15F8 JUMP JUMPDEST PUSH1 0x44 DUP2 PUSH1 0x2 SLOAD AND SWAP2 PUSH1 0x6 SLOAD AND DUP9 MLOAD SWAP5 DUP6 SWAP4 DUP5 SWAP3 PUSH4 0xA9059CBB PUSH1 0xE0 SHL DUP5 MSTORE DUP9 DUP5 ADD MSTORE PUSH3 0x3D090 PUSH1 0x24 DUP5 ADD MSTORE GAS CALL DUP1 ISZERO PUSH2 0xB89 JUMPI SWAP2 PUSH1 0x2 SWAP2 PUSH32 0xFCCD92C3218EFE7BDEEF2C0EB1423D56EDBB72BB3D47CD78E4C76140FE495957 SWAP6 SWAP7 SWAP4 PUSH2 0xB6C JUMPI JUMPDEST POP CALLER DUP8 MSTORE PUSH1 0x3 DUP5 MSTORE DUP3 DUP8 KECCAK256 SWAP1 DUP2 ADD PUSH1 0x1 PUSH1 0xFF NOT DUP3 SLOAD AND OR SWAP1 SSTORE DUP6 PUSH1 0x1 DUP3 ADD SSTORE ADD PUSH2 0x337 DUP2 SLOAD PUSH2 0x1534 JUMP JUMPDEST PUSH2 0xB82 SWAP1 DUP6 RETURNDATASIZE DUP8 GT PUSH2 0x36D JUMPI PUSH2 0x35E DUP2 DUP4 PUSH2 0x138E JUMP JUMPDEST POP CODESIZE PUSH2 0xB42 JUMP JUMPDEST DUP6 MLOAD RETURNDATASIZE DUP9 DUP3 RETURNDATACOPY RETURNDATASIZE SWAP1 REVERT JUMPDEST DUP8 MLOAD RETURNDATASIZE DUP6 DUP3 RETURNDATACOPY RETURNDATASIZE SWAP1 REVERT JUMPDEST PUSH4 0x4E487B71 PUSH1 0xE0 SHL DUP5 MSTORE PUSH1 0x11 SWAP1 MSTORE PUSH1 0x24 DUP4 REVERT JUMPDEST PUSH1 0x20 PUSH1 0x64 SWAP3 MLOAD SWAP2 PUSH3 0x461BCD PUSH1 0xE5 SHL DUP4 MSTORE DUP3 ADD MSTORE PUSH1 0x1B PUSH1 0x24 DUP3 ADD MSTORE PUSH32 0x416C7265616479206861766520756E6C696D6974656420706173730000000000 PUSH1 0x44 DUP3 ADD MSTORE REVERT JUMPDEST SWAP2 SWAP1 POP CALLVALUE PUSH2 0x23A JUMPI DUP3 PUSH1 0x3 NOT CALLDATASIZE ADD SLT PUSH2 0x23A JUMPI PUSH1 0x20 SWAP3 POP MLOAD SWAP1 DUP2 MSTORE RETURN JUMPDEST POP POP CALLVALUE PUSH2 0x173 JUMPI DUP2 PUSH1 0x3 NOT CALLDATASIZE ADD SLT PUSH2 0x173 JUMPI SWAP1 SLOAD SWAP1 MLOAD PUSH1 0x1 PUSH1 0x1 PUSH1 0xA0 SHL SUB SWAP1 SWAP2 AND DUP2 MSTORE PUSH1 0x20 SWAP1 RETURN JUMPDEST POP POP CALLVALUE PUSH2 0x173 JUMPI PUSH1 0x20 CALLDATASIZE PUSH1 0x3 NOT ADD SLT PUSH2 0x173 JUMPI PUSH1 0x20 SWAP1 PUSH2 0xC5D PUSH2 0xC58 PUSH2 0x11E9 JUMP JUMPDEST PUSH2 0x1500 JUMP JUMPDEST SWAP1 MLOAD SWAP1 ISZERO ISZERO DUP2 MSTORE RETURN JUMPDEST POP POP CALLVALUE PUSH2 0x173 JUMPI DUP2 PUSH1 0x3 NOT CALLDATASIZE ADD SLT PUSH2 0x173 JUMPI PUSH1 0x20 PUSH32 0x62E78CEA01BEE320CD4E420270B5EA74000D11B0C9F74754EBDBFC544B05A258 SWAP2 PUSH2 0xCA4 PUSH2 0x1456 JUMP JUMPDEST PUSH2 0xCAC PUSH2 0x1543 JUMP JUMPDEST DUP4 SLOAD PUSH1 0xFF PUSH1 0xA0 SHL NOT AND PUSH1 0x1 PUSH1 0xA0 SHL OR DUP5 SSTORE MLOAD CALLER DUP2 MSTORE LOG1 DUP1 RETURN JUMPDEST SWAP1 POP CALLVALUE PUSH2 0x23A JUMPI DUP2 PUSH1 0x3 NOT CALLDATASIZE ADD SLT PUSH2 0x23A JUMPI PUSH1 0x24 CALLDATALOAD SWAP1 DUP1 CALLDATALOAD DUP5 MSTORE PUSH1 0x20 MSTORE DUP2 DUP4 KECCAK256 DUP1 SLOAD DUP3 LT ISZERO PUSH2 0x4F3 JUMPI SWAP1 PUSH2 0xCF8 SWAP2 PUSH2 0x12D4 JUMP JUMPDEST POP SWAP1 PUSH2 0xD40 PUSH1 0x1 DUP1 PUSH1 0xA0 SHL SUB DUP4 SLOAD AND SWAP2 PUSH1 0x1 DUP5 ADD SLOAD SWAP4 PUSH2 0xD1F PUSH1 0x3 PUSH1 0x2 DUP4 ADD SLOAD SWAP3 ADD PUSH2 0x13B0 JUMP JUMPDEST SWAP2 DUP1 MLOAD SWAP6 DUP7 SWAP6 DUP7 MSTORE PUSH1 0x20 DUP7 ADD MSTORE DUP5 ADD MSTORE PUSH1 0x80 PUSH1 0x60 DUP5 ADD MSTORE PUSH1 0x80 DUP4 ADD SWAP1 PUSH2 0x1204 JUMP JUMPDEST SUB SWAP1 RETURN JUMPDEST DUP4 CALLVALUE PUSH2 0x54D JUMPI DUP1 PUSH1 0x3 NOT CALLDATASIZE ADD SLT PUSH2 0x54D JUMPI PUSH2 0xD5D PUSH2 0x1456 JUMP JUMPDEST DUP1 SLOAD PUSH1 0x1 PUSH1 0x1 PUSH1 0xA0 SHL SUB NOT DUP2 AND DUP3 SSTORE DUP2 SWAP1 PUSH1 0x1 PUSH1 0x1 PUSH1 0xA0 SHL SUB AND PUSH32 0x8BE0079C531659141344CD1FD0A4F28419497F9722A3DAAFE3B4186F6B6457E0 DUP3 DUP1 LOG3 DUP1 RETURN JUMPDEST POP POP CALLVALUE PUSH2 0x173 JUMPI DUP2 PUSH1 0x3 NOT CALLDATASIZE ADD SLT PUSH2 0x173 JUMPI PUSH1 0xFF PUSH1 0x20 SWAP3 SLOAD PUSH1 0xA0 SHR AND SWAP1 MLOAD SWAP1 ISZERO ISZERO DUP2 MSTORE RETURN JUMPDEST POP POP CALLVALUE PUSH2 0x173 JUMPI DUP2 PUSH1 0x3 NOT CALLDATASIZE ADD SLT PUSH2 0x173 JUMPI PUSH1 0x20 SWAP1 MLOAD PUSH1 0xA DUP2 MSTORE RETURN JUMPDEST DUP4 SWAP2 POP CALLVALUE PUSH2 0x173 JUMPI DUP2 PUSH1 0x3 NOT CALLDATASIZE ADD SLT PUSH2 0x173 JUMPI PUSH2 0xDFA PUSH2 0x14AE JUMP JUMPDEST DUP3 MSTORE PUSH1 0x20 SWAP1 DUP1 DUP3 MSTORE DUP4 DUP4 KECCAK256 SWAP3 DUP4 SLOAD SWAP3 PUSH8 0xFFFFFFFFFFFFFFFF DUP5 GT PUSH2 0xE98 JUMPI DUP6 MLOAD SWAP5 SWAP2 PUSH2 0xE2C PUSH1 0x5 DUP7 SWAP1 SHL DUP4 ADD DUP8 PUSH2 0x138E JUMP JUMPDEST DUP5 DUP7 MSTORE SWAP2 DUP3 MSTORE DUP1 DUP3 KECCAK256 DUP2 DUP7 ADD JUMPDEST DUP6 DUP5 LT PUSH2 0xE4D JUMPI DUP8 MLOAD DUP1 PUSH2 0xD40 DUP10 DUP3 PUSH2 0x1244 JUMP JUMPDEST DUP5 DUP4 PUSH1 0x1 SWAP3 DUP11 MLOAD PUSH2 0xE5D DUP2 PUSH2 0x1340 JUMP JUMPDEST DUP5 DUP1 PUSH1 0xA0 SHL SUB DUP7 SLOAD AND DUP2 MSTORE DUP5 DUP7 ADD SLOAD DUP4 DUP3 ADD MSTORE PUSH1 0x2 DUP7 ADD SLOAD DUP13 DUP3 ADD MSTORE PUSH2 0xE85 PUSH1 0x3 DUP8 ADD PUSH2 0x13B0 JUMP JUMPDEST PUSH1 0x60 DUP3 ADD MSTORE DUP2 MSTORE ADD SWAP3 ADD SWAP4 ADD SWAP3 SWAP1 PUSH2 0xE39 JUMP JUMPDEST POP PUSH1 0x41 PUSH1 0x24 SWAP3 PUSH4 0x4E487B71 PUSH1 0xE0 SHL DUP4 MSTORE MSTORE REVERT JUMPDEST SWAP1 POP CALLVALUE PUSH2 0x23A JUMPI DUP2 PUSH1 0x3 NOT CALLDATASIZE ADD SLT PUSH2 0x23A JUMPI PUSH1 0x24 CALLDATALOAD PUSH1 0x1 PUSH1 0x1 PUSH1 0xA0 SHL SUB DUP2 AND SWAP2 SWAP1 DUP3 SWAP1 SUB PUSH2 0x4F3 JUMPI PUSH1 0x20 SWAP4 PUSH1 0xFF SWAP3 DUP5 SWAP3 CALLDATALOAD DUP3 MSTORE PUSH1 0x5 DUP7 MSTORE DUP3 DUP3 KECCAK256 SWAP1 DUP3 MSTORE DUP6 MSTORE KECCAK256 SLOAD AND SWAP1 MLOAD SWAP1 ISZERO ISZERO DUP2 MSTORE RETURN JUMPDEST SWAP1 POP CALLVALUE PUSH2 0x23A JUMPI DUP3 PUSH1 0x3 NOT CALLDATASIZE ADD SLT PUSH2 0x23A JUMPI PUSH2 0xF10 PUSH2 0x1456 JUMP JUMPDEST DUP3 SLOAD SWAP1 PUSH1 0xFF DUP3 PUSH1 0xA0 SHR AND ISZERO PUSH2 0xF56 JUMPI POP PUSH1 0xFF PUSH1 0xA0 SHL NOT AND DUP3 SSTORE MLOAD CALLER DUP2 MSTORE PUSH32 0x5DB9EE0A495BF2E6FF9C91A7834C1BA4FDD244A5E8AA4E537BD38AEAE4B073AA SWAP1 PUSH1 0x20 SWAP1 LOG1 DUP1 RETURN JUMPDEST PUSH1 0x64 SWAP1 PUSH1 0x20 DUP5 MLOAD SWAP2 PUSH3 0x461BCD PUSH1 0xE5 SHL DUP4 MSTORE DUP3 ADD MSTORE PUSH1 0x14 PUSH1 0x24 DUP3 ADD MSTORE PUSH20 0x14185D5CD8589B194E881B9BDD081C185D5CD959 PUSH1 0x62 SHL PUSH1 0x44 DUP3 ADD MSTORE REVERT JUMPDEST POP POP CALLVALUE PUSH2 0x173 JUMPI DUP2 PUSH1 0x3 NOT CALLDATASIZE ADD SLT PUSH2 0x173 JUMPI PUSH1 0x20 SWAP1 PUSH2 0xFAD PUSH2 0x14AE JUMP JUMPDEST SWAP1 MLOAD SWAP1 DUP2 MSTORE RETURN JUMPDEST POP POP CALLVALUE PUSH2 0x173 JUMPI DUP2 PUSH1 0x3 NOT CALLDATASIZE ADD SLT PUSH2 0x173 JUMPI PUSH1 0x20 SWAP1 MLOAD PUSH3 0x2625A0 DUP2 MSTORE RETURN JUMPDEST POP POP CALLVALUE PUSH2 0x173 JUMPI DUP2 PUSH1 0x3 NOT CALLDATASIZE ADD SLT PUSH2 0x173 JUMPI PUSH1 0x2 SLOAD SWAP1 MLOAD PUSH1 0x1 PUSH1 0x1 PUSH1 0xA0 SHL SUB SWAP1 SWAP2 AND DUP2 MSTORE PUSH1 0x20 SWAP1 RETURN JUMPDEST DUP4 SWAP2 POP CALLVALUE PUSH2 0x173 JUMPI PUSH1 0x20 SWAP1 DUP2 PUSH1 0x3 NOT CALLDATASIZE ADD SLT PUSH2 0x23A JUMPI DUP1 CALLDATALOAD DUP4 MSTORE DUP1 DUP3 MSTORE DUP4 DUP4 KECCAK256 SWAP3 DUP4 SLOAD SWAP3 PUSH8 0xFFFFFFFFFFFFFFFF DUP5 GT PUSH2 0xE98 JUMPI DUP6 MLOAD SWAP5 SWAP2 PUSH2 0x1042 PUSH1 0x5 DUP7 SWAP1 SHL DUP4 ADD DUP8 PUSH2 0x138E JUMP JUMPDEST DUP5 DUP7 MSTORE SWAP2 DUP3 MSTORE DUP1 DUP3 KECCAK256 DUP2 DUP7 ADD JUMPDEST DUP6 DUP5 LT PUSH2 0x1063 JUMPI DUP8 MLOAD DUP1 PUSH2 0xD40 DUP10 DUP3 PUSH2 0x1244 JUMP JUMPDEST DUP5 DUP4 PUSH1 0x1 SWAP3 DUP11 MLOAD PUSH2 0x1073 DUP2 PUSH2 0x1340 JUMP JUMPDEST DUP5 DUP1 PUSH1 0xA0 SHL SUB DUP7 SLOAD AND DUP2 MSTORE DUP5 DUP7 ADD SLOAD DUP4 DUP3 ADD MSTORE PUSH1 0x2 DUP7 ADD SLOAD DUP13 DUP3 ADD MSTORE PUSH2 0x109B PUSH1 0x3 DUP8 ADD PUSH2 0x13B0 JUMP JUMPDEST PUSH1 0x60 DUP3 ADD MSTORE DUP2 MSTORE ADD SWAP3 ADD SWAP4 ADD SWAP3 SWAP1 PUSH2 0x104F JUMP JUMPDEST POP POP CALLVALUE PUSH2 0x173 JUMPI PUSH1 0x20 CALLDATASIZE PUSH1 0x3 NOT ADD SLT PUSH2 0x173 JUMPI PUSH1 0x20 SWAP1 PUSH2 0x10CC PUSH2 0x11E9 JUMP JUMPDEST SWAP1 PUSH2 0x10D6 DUP3 PUSH2 0x14DA JUMP JUMPDEST SWAP2 DUP3 ISZERO PUSH2 0x10E7 JUMPI JUMPDEST POP MLOAD SWAP1 ISZERO ISZERO DUP2 MSTORE RETURN JUMPDEST PUSH2 0x10F2 SWAP2 SWAP3 POP PUSH2 0x1500 JUMP JUMPDEST SWAP1 DUP4 PUSH2 0x10DE JUMP JUMPDEST POP POP CALLVALUE PUSH2 0x173 JUMPI PUSH1 0x20 CALLDATASIZE PUSH1 0x3 NOT ADD SLT PUSH2 0x173 JUMPI PUSH1 0x20 SWAP1 PUSH2 0xC5D PUSH2 0x111A PUSH2 0x11E9 JUMP JUMPDEST PUSH2 0x14DA JUMP JUMPDEST SWAP1 POP CALLVALUE PUSH2 0x23A JUMPI DUP3 PUSH1 0x3 NOT CALLDATASIZE ADD SLT PUSH2 0x23A JUMPI PUSH2 0x1139 PUSH2 0x1543 JUMP JUMPDEST PUSH2 0x1141 PUSH2 0x158A JUMP JUMPDEST PUSH2 0x114A CALLER PUSH2 0x14DA JUMP JUMPDEST ISZERO PUSH2 0x11A7 JUMPI POP PUSH2 0x1158 PUSH2 0x14AE JUMP JUMPDEST SWAP1 CALLER DUP4 MSTORE PUSH1 0x3 PUSH1 0x20 MSTORE PUSH1 0x2 DUP2 DUP5 KECCAK256 DUP4 DUP2 SSTORE ADD PUSH2 0x1174 DUP2 SLOAD PUSH2 0x1534 JUMP JUMPDEST SWAP1 SSTORE MLOAD SWAP1 DUP2 MSTORE PUSH32 0x51BF18AFE64C0561BE5F93315988A368650FB8DCEFB8BEE78457CC200B0234B9 PUSH1 0x20 CALLER SWAP3 LOG2 PUSH1 0x1 DUP1 SSTORE DUP1 RETURN JUMPDEST PUSH1 0x20 PUSH1 0x64 SWAP3 MLOAD SWAP2 PUSH3 0x461BCD PUSH1 0xE5 SHL DUP4 MSTORE DUP3 ADD MSTORE PUSH1 0x1C PUSH1 0x24 DUP3 ADD MSTORE PUSH32 0x467265652067616D6520616C7265616479207573656420746F64617900000000 PUSH1 0x44 DUP3 ADD MSTORE REVERT JUMPDEST PUSH1 0x4 CALLDATALOAD SWAP1 PUSH1 0x1 PUSH1 0x1 PUSH1 0xA0 SHL SUB DUP3 AND DUP3 SUB PUSH2 0x11FF JUMPI JUMP JUMPDEST PUSH1 0x0 DUP1 REVERT JUMPDEST SWAP2 SWAP1 DUP3 MLOAD SWAP3 DUP4 DUP3 MSTORE PUSH1 0x0 JUMPDEST DUP5 DUP2 LT PUSH2 0x1230 JUMPI POP POP DUP3 PUSH1 0x0 PUSH1 0x20 DUP1 SWAP5 SWAP6 DUP5 ADD ADD MSTORE PUSH1 0x1F DUP1 NOT SWAP2 ADD AND ADD ADD SWAP1 JUMP JUMPDEST PUSH1 0x20 DUP2 DUP4 ADD DUP2 ADD MLOAD DUP5 DUP4 ADD DUP3 ADD MSTORE ADD PUSH2 0x120F JUMP JUMPDEST PUSH1 0x20 DUP1 DUP3 ADD SWAP1 DUP1 DUP4 MSTORE DUP4 MLOAD DUP1 SWAP3 MSTORE PUSH1 0x40 SWAP3 DUP4 DUP2 ADD DUP3 DUP6 DUP6 PUSH1 0x5 SHL DUP5 ADD ADD SWAP7 ADD SWAP5 PUSH1 0x0 SWAP3 JUMPDEST DUP6 DUP5 LT PUSH2 0x1279 JUMPI POP POP POP POP POP POP POP SWAP1 JUMP JUMPDEST SWAP1 SWAP2 SWAP3 SWAP4 SWAP5 SWAP6 SWAP7 DUP6 DUP1 PUSH2 0x12C3 PUSH1 0x1 SWAP4 PUSH1 0x3F NOT DUP7 DUP3 SUB ADD DUP9 MSTORE DUP12 MLOAD DUP6 DUP1 PUSH1 0xA0 SHL SUB DUP2 MLOAD AND DUP3 MSTORE DUP4 DUP2 ADD MLOAD DUP5 DUP4 ADD MSTORE DUP8 DUP2 ADD MLOAD DUP9 DUP4 ADD MSTORE PUSH1 0x60 DUP1 SWAP2 ADD MLOAD SWAP2 PUSH1 0x80 DUP1 SWAP3 DUP3 ADD MSTORE ADD SWAP1 PUSH2 0x1204 JUMP JUMPDEST SWAP10 ADD SWAP5 ADD SWAP5 ADD SWAP3 SWAP6 SWAP5 SWAP4 SWAP2 SWAP1 PUSH2 0x1268 JUMP JUMPDEST DUP1 SLOAD DUP3 LT ISZERO PUSH2 0x12F0 JUMPI PUSH1 0x0 MSTORE PUSH1 0x20 PUSH1 0x0 KECCAK256 SWAP1 PUSH1 0x2 SHL ADD SWAP1 PUSH1 0x0 SWAP1 JUMP JUMPDEST PUSH4 0x4E487B71 PUSH1 0xE0 SHL PUSH1 0x0 MSTORE PUSH1 0x32 PUSH1 0x4 MSTORE PUSH1 0x24 PUSH1 0x0 REVERT JUMPDEST SWAP1 PUSH1 0x1 DUP3 DUP2 SHR SWAP3 AND DUP1 ISZERO PUSH2 0x1336 JUMPI JUMPDEST PUSH1 0x20 DUP4 LT EQ PUSH2 0x1320 JUMPI JUMP JUMPDEST PUSH4 0x4E487B71 PUSH1 0xE0 SHL PUSH1 0x0 MSTORE PUSH1 0x22 PUSH1 0x4 MSTORE PUSH1 0x24 PUSH1 0x0 REVERT JUMPDEST SWAP2 PUSH1 0x7F AND SWAP2 PUSH2 0x1315 JUMP JUMPDEST PUSH1 0x80 DUP2 ADD SWAP1 DUP2 LT PUSH8 0xFFFFFFFFFFFFFFFF DUP3 GT OR PUSH2 0x135C JUMPI PUSH1 0x40 MSTORE JUMP JUMPDEST PUSH4 0x4E487B71 PUSH1 0xE0 SHL PUSH1 0x0 MSTORE PUSH1 0x41 PUSH1 0x4 MSTORE PUSH1 0x24 PUSH1 0x0 REVERT JUMPDEST PUSH1 0xA0 DUP2 ADD SWAP1 DUP2 LT PUSH8 0xFFFFFFFFFFFFFFFF DUP3 GT OR PUSH2 0x135C JUMPI PUSH1 0x40 MSTORE JUMP JUMPDEST SWAP1 PUSH1 0x1F DUP1 NOT SWAP2 ADD AND DUP2 ADD SWAP1 DUP2 LT PUSH8 0xFFFFFFFFFFFFFFFF DUP3 GT OR PUSH2 0x135C JUMPI PUSH1 0x40 MSTORE JUMP JUMPDEST SWAP1 PUSH1 0x40 MLOAD SWAP2 DUP3 PUSH1 0x0 DUP3 SLOAD SWAP3 PUSH2 0x13C4 DUP5 PUSH2 0x1306 JUMP JUMPDEST SWAP1 DUP2 DUP5 MSTORE PUSH1 0x1 SWAP5 DUP6 DUP2 AND SWAP1 DUP2 PUSH1 0x0 EQ PUSH2 0x1433 JUMPI POP PUSH1 0x1 EQ PUSH2 0x13F0 JUMPI JUMPDEST POP POP PUSH2 0x13EE SWAP3 POP SUB DUP4 PUSH2 0x138E JUMP JUMPDEST JUMP JUMPDEST SWAP1 SWAP4 SWAP2 POP PUSH1 0x0 MSTORE PUSH1 0x20 SWAP1 DUP2 PUSH1 0x0 KECCAK256 SWAP4 PUSH1 0x0 SWAP2 JUMPDEST DUP2 DUP4 LT PUSH2 0x141B JUMPI POP POP PUSH2 0x13EE SWAP4 POP DUP3 ADD ADD CODESIZE DUP1 PUSH2 0x13E0 JUMP JUMPDEST DUP6 SLOAD DUP9 DUP5 ADD DUP6 ADD MSTORE SWAP5 DUP6 ADD SWAP5 DUP8 SWAP5 POP SWAP2 DUP4 ADD SWAP2 PUSH2 0x1403 JUMP JUMPDEST SWAP2 POP POP PUSH2 0x13EE SWAP5 POP PUSH1 0x20 SWAP3 POP PUSH1 0xFF NOT AND DUP3 DUP5 ADD MSTORE ISZERO ISZERO PUSH1 0x5 SHL DUP3 ADD ADD CODESIZE DUP1 PUSH2 0x13E0 JUMP JUMPDEST PUSH1 0x0 SLOAD PUSH1 0x1 PUSH1 0x1 PUSH1 0xA0 SHL SUB AND CALLER SUB PUSH2 0x146A JUMPI JUMP JUMPDEST PUSH1 0x64 PUSH1 0x40 MLOAD PUSH3 0x461BCD PUSH1 0xE5 SHL DUP2 MSTORE PUSH1 0x20 PUSH1 0x4 DUP3 ADD MSTORE PUSH1 0x20 PUSH1 0x24 DUP3 ADD MSTORE PUSH32 0x4F776E61626C653A2063616C6C6572206973206E6F7420746865206F776E6572 PUSH1 0x44 DUP3 ADD MSTORE REVERT JUMPDEST PUSH2 0x464F NOT TIMESTAMP ADD TIMESTAMP DUP2 GT PUSH2 0x14C4 JUMPI PUSH3 0x15180 SWAP1 DIV SWAP1 JUMP JUMPDEST PUSH4 0x4E487B71 PUSH1 0xE0 SHL PUSH1 0x0 MSTORE PUSH1 0x11 PUSH1 0x4 MSTORE PUSH1 0x24 PUSH1 0x0 REVERT JUMPDEST PUSH2 0x14E2 PUSH2 0x14AE JUMP JUMPDEST PUSH1 0x1 PUSH1 0x1 PUSH1 0xA0 SHL SUB SWAP1 SWAP2 AND PUSH1 0x0 SWAP1 DUP2 MSTORE PUSH1 0x3 PUSH1 0x20 MSTORE PUSH1 0x40 SWAP1 KECCAK256 SLOAD LT SWAP1 JUMP JUMPDEST PUSH1 0x1 PUSH1 0x1 PUSH1 0xA0 SHL SUB AND PUSH1 0x0 SWAP1 DUP2 MSTORE PUSH1 0x3 PUSH1 0x20 MSTORE PUSH1 0x40 SWAP1 KECCAK256 PUSH1 0x4 DUP2 ADD SLOAD PUSH1 0xFF AND SWAP1 DUP2 PUSH2 0x1529 JUMPI POP SWAP1 JUMP JUMPDEST PUSH1 0x1 SWAP2 POP ADD SLOAD TIMESTAMP LT SWAP1 JUMP JUMPDEST PUSH1 0x0 NOT DUP2 EQ PUSH2 0x14C4 JUMPI PUSH1 0x1 ADD SWAP1 JUMP JUMPDEST PUSH1 0xFF PUSH1 0x0 SLOAD PUSH1 0xA0 SHR AND PUSH2 0x1552 JUMPI JUMP JUMPDEST PUSH1 0x40 MLOAD PUSH3 0x461BCD PUSH1 0xE5 SHL DUP2 MSTORE PUSH1 0x20 PUSH1 0x4 DUP3 ADD MSTORE PUSH1 0x10 PUSH1 0x24 DUP3 ADD MSTORE PUSH16 0x14185D5CD8589B194E881C185D5CD959 PUSH1 0x82 SHL PUSH1 0x44 DUP3 ADD MSTORE PUSH1 0x64 SWAP1 REVERT JUMPDEST PUSH1 0x2 PUSH1 0x1 SLOAD EQ PUSH2 0x159B JUMPI PUSH1 0x2 PUSH1 0x1 SSTORE JUMP JUMPDEST PUSH1 0x40 MLOAD PUSH3 0x461BCD PUSH1 0xE5 SHL DUP2 MSTORE PUSH1 0x20 PUSH1 0x4 DUP3 ADD MSTORE PUSH1 0x1F PUSH1 0x24 DUP3 ADD MSTORE PUSH32 0x5265656E7472616E637947756172643A207265656E7472616E742063616C6C00 PUSH1 0x44 DUP3 ADD MSTORE PUSH1 0x64 SWAP1 REVERT JUMPDEST SWAP1 DUP2 PUSH1 0x20 SWAP2 SUB SLT PUSH2 0x11FF JUMPI MLOAD DUP1 ISZERO ISZERO DUP2 SUB PUSH2 0x11FF JUMPI SWAP1 JUMP JUMPDEST ISZERO PUSH2 0x15FF JUMPI JUMP JUMPDEST PUSH1 0x40 MLOAD PUSH3 0x461BCD PUSH1 0xE5 SHL DUP2 MSTORE PUSH1 0x20 PUSH1 0x4 DUP3 ADD MSTORE PUSH1 0xE PUSH1 0x24 DUP3 ADD MSTORE PUSH14 0x14185E5B595B9D0819985A5B1959 PUSH1 0x92 SHL PUSH1 0x44 DUP3 ADD MSTORE PUSH1 0x64 SWAP1 REVERT INVALID LOG2 PUSH5 0x6970667358 0x22 SLT KECCAK256 0xEC PUSH7 0x7F9ED66B804614 0xF8 SUB SWAP5 PUSH10 0x4F8755BE7FB2600D8DD2 0x5D SLT 0x22 DUP11 SWAP9 0x2E SIGNEXTEND PUSH3 0x796473 PUSH16 0x6C634300081300330000000000000000 "},"methodIdentifiers":{"DAILY_RESET_HOUR()":"95f2a2f1","INDIVIDUAL_GAME_PRICE()":"fef39194","PLATFORM_FEE_PERCENT()":"560d52d4","UNLIMITED_DAILY_PRICE()":"329a4a6c","canPlay(address)":"0823d5f3","canPlayFreeGame(address)":"0257c5d2","dailyLeaderboards(uint256,uint256)":"83660217","dailySubmissions(uint256,address)":"3f9eacdc","emergencyWithdraw()":"db2e21bc","getCurrentDay()":"3e6968b6","getCurrentLeaderboard()":"491db668","getDailyLeaderboard(uint256)":"0832275e","getPlayerState(address)":"c01ca43f","hasUnlimitedPass(address)":"8a3b2044","owner()":"8da5cb5b","pause()":"8456cb59","paused()":"5c975abb","platformFeeWallet()":"e20fc118","playerStates(address)":"d15e55b7","purchaseIndividualGame()":"f1259329","purchaseUnlimitedPass()":"98f79dcd","renounceOwnership()":"715018a6","setPlatformFeeWallet(address)":"d96d98ca","submitScore(uint256,string)":"bc2256dc","transferOwnership(address)":"f2fde38b","unpause()":"3f4ba83a","usdcToken()":"11eac855","useFreeGame()":"014f0049"}}}}}