{"src/ChallengeManager.sol":{"ChallengeManager":{"abi":[{"inputs":[{"internalType":"address","name":"_paymentProcessor","type":"address"}],"stateMutability":"nonpayable","type":"constructor"},{"anonymous":false,"inputs":[{"indexed":true,"internalType":"uint256","name":"challengeId","type":"uint256"},{"indexed":true,"internalType":"address","name":"challenger","type":"address"}],"name":"ChallengeAccepted","type":"event"},{"anonymous":false,"inputs":[{"indexed":true,"internalType":"uint256","name":"challengeId","type":"uint256"},{"indexed":true,"internalType":"address","name":"winner","type":"address"},{"indexed":false,"internalType":"uint256","name":"winnerScore","type":"uint256"},{"indexed":false,"internalType":"uint256","name":"prizeAmount","type":"uint256"}],"name":"ChallengeCompleted","type":"event"},{"anonymous":false,"inputs":[{"indexed":true,"internalType":"uint256","name":"challengeId","type":"uint256"},{"indexed":true,"internalType":"address","name":"creator","type":"address"},{"indexed":false,"internalType":"enum ChallengeManager.ChallengeType","name":"challengeType","type":"uint8"},{"indexed":false,"internalType":"uint256","name":"entryFee","type":"uint256"},{"indexed":false,"internalType":"string","name":"gamePattern","type":"string"},{"indexed":false,"internalType":"string","name":"message","type":"string"}],"name":"ChallengeCreated","type":"event"},{"anonymous":false,"inputs":[{"indexed":true,"internalType":"uint256","name":"challengeId","type":"uint256"}],"name":"ChallengeExpired","type":"event"},{"anonymous":false,"inputs":[{"indexed":true,"internalType":"address","name":"previousOwner","type":"address"},{"indexed":true,"internalType":"address","name":"newOwner","type":"address"}],"name":"OwnershipTransferred","type":"event"},{"anonymous":false,"inputs":[{"indexed":false,"internalType":"address","name":"account","type":"address"}],"name":"Paused","type":"event"},{"anonymous":false,"inputs":[{"indexed":false,"internalType":"address","name":"account","type":"address"}],"name":"Unpaused","type":"event"},{"inputs":[],"name":"CHALLENGE_EXPIRY_TIME","outputs":[{"internalType":"uint256","name":"","type":"uint256"}],"stateMutability":"view","type":"function"},{"inputs":[],"name":"HIGH_ROLLER_CHALLENGE_AMOUNT","outputs":[{"internalType":"uint256","name":"","type":"uint256"}],"stateMutability":"view","type":"function"},{"inputs":[],"name":"PLATFORM_FEE_PERCENT","outputs":[{"internalType":"uint256","name":"","type":"uint256"}],"stateMutability":"view","type":"function"},{"inputs":[],"name":"QUICK_CHALLENGE_AMOUNT","outputs":[{"internalType":"uint256","name":"","type":"uint256"}],"stateMutability":"view","type":"function"},{"inputs":[{"internalType":"uint256","name":"challengeId","type":"uint256"}],"name":"acceptChallenge","outputs":[],"stateMutability":"nonpayable","type":"function"},{"inputs":[{"internalType":"uint256","name":"challengeId","type":"uint256"}],"name":"cancelExpiredChallenge","outputs":[],"stateMutability":"nonpayable","type":"function"},{"inputs":[{"internalType":"uint256","name":"","type":"uint256"}],"name":"challenges","outputs":[{"internalType":"uint256","name":"id","type":"uint256"},{"internalType":"address","name":"creator","type":"address"},{"internalType":"address","name":"challenger","type":"address"},{"internalType":"enum ChallengeManager.ChallengeType","name":"challengeType","type":"uint8"},{"internalType":"uint256","name":"entryFee","type":"uint256"},{"internalType":"uint256","name":"creatorScore","type":"uint256"},{"internalType":"uint256","name":"challengerScore","type":"uint256"},{"internalType":"uint256","name":"creatorScoreTarget","type":"uint256"},{"internalType":"string","name":"gamePattern","type":"string"},{"internalType":"string","name":"message","type":"string"},{"internalType":"enum ChallengeManager.ChallengeStatus","name":"status","type":"uint8"},{"internalType":"uint256","name":"createdAt","type":"uint256"},{"internalType":"uint256","name":"expiresAt","type":"uint256"},{"internalType":"uint256","name":"completedAt","type":"uint256"},{"internalType":"address","name":"winner","type":"address"}],"stateMutability":"view","type":"function"},{"inputs":[{"internalType":"uint256","name":"challengeId","type":"uint256"},{"internalType":"uint256","name":"challengerScore","type":"uint256"}],"name":"completeChallenge","outputs":[],"stateMutability":"nonpayable","type":"function"},{"inputs":[{"internalType":"enum ChallengeManager.ChallengeType","name":"challengeType","type":"uint8"},{"internalType":"uint256","name":"creatorScore","type":"uint256"},{"internalType":"string","name":"gamePattern","type":"string"},{"internalType":"string","name":"message","type":"string"}],"name":"createChallenge","outputs":[{"internalType":"uint256","name":"","type":"uint256"}],"stateMutability":"nonpayable","type":"function"},{"inputs":[],"name":"getActiveChallenges","outputs":[{"internalType":"uint256[]","name":"","type":"uint256[]"}],"stateMutability":"view","type":"function"},{"inputs":[{"internalType":"uint256","name":"challengeId","type":"uint256"}],"name":"getChallenge","outputs":[{"components":[{"internalType":"uint256","name":"id","type":"uint256"},{"internalType":"address","name":"creator","type":"address"},{"internalType":"address","name":"challenger","type":"address"},{"internalType":"enum ChallengeManager.ChallengeType","name":"challengeType","type":"uint8"},{"internalType":"uint256","name":"entryFee","type":"uint256"},{"internalType":"uint256","name":"creatorScore","type":"uint256"},{"internalType":"uint256","name":"challengerScore","type":"uint256"},{"internalType":"uint256","name":"creatorScoreTarget","type":"uint256"},{"internalType":"string","name":"gamePattern","type":"string"},{"internalType":"string","name":"message","type":"string"},{"internalType":"enum ChallengeManager.ChallengeStatus","name":"status","type":"uint8"},{"internalType":"uint256","name":"createdAt","type":"uint256"},{"internalType":"uint256","name":"expiresAt","type":"uint256"},{"internalType":"uint256","name":"completedAt","type":"uint256"},{"internalType":"address","name":"winner","type":"address"}],"internalType":"struct ChallengeManager.Challenge","name":"","type":"tuple"}],"stateMutability":"view","type":"function"},{"inputs":[{"internalType":"uint256","name":"challengeId","type":"uint256"}],"name":"getChallengePrize","outputs":[{"internalType":"uint256","name":"","type":"uint256"}],"stateMutability":"view","type":"function"},{"inputs":[{"internalType":"address","name":"user","type":"address"}],"name":"getUserChallenges","outputs":[{"internalType":"uint256[]","name":"","type":"uint256[]"}],"stateMutability":"view","type":"function"},{"inputs":[{"internalType":"uint256","name":"challengeId","type":"uint256"}],"name":"isChallengeExpired","outputs":[{"internalType":"bool","name":"","type":"bool"}],"stateMutability":"view","type":"function"},{"inputs":[],"name":"nextChallengeId","outputs":[{"internalType":"uint256","name":"","type":"uint256"}],"stateMutability":"view","type":"function"},{"inputs":[],"name":"owner","outputs":[{"internalType":"address","name":"","type":"address"}],"stateMutability":"view","type":"function"},{"inputs":[],"name":"pause","outputs":[],"stateMutability":"nonpayable","type":"function"},{"inputs":[],"name":"paused","outputs":[{"internalType":"bool","name":"","type":"bool"}],"stateMutability":"view","type":"function"},{"inputs":[],"name":"paymentProcessor","outputs":[{"internalType":"contract PaymentProcessor","name":"","type":"address"}],"stateMutability":"view","type":"function"},{"inputs":[],"name":"renounceOwnership","outputs":[],"stateMutability":"nonpayable","type":"function"},{"inputs":[{"internalType":"address","name":"_newProcessor","type":"address"}],"name":"setPaymentProcessor","outputs":[],"stateMutability":"nonpayable","type":"function"},{"inputs":[{"internalType":"address","name":"newOwner","type":"address"}],"name":"transferOwnership","outputs":[],"stateMutability":"nonpayable","type":"function"},{"inputs":[],"name":"unpause","outputs":[],"stateMutability":"nonpayable","type":"function"},{"inputs":[{"internalType":"address","name":"","type":"address"},{"internalType":"uint256","name":"","type":"uint256"}],"name":"userChallenges","outputs":[{"internalType":"uint256","name":"","type":"uint256"}],"stateMutability":"view","type":"function"}],"evm":{"bytecode":{"linkReferences":{},"object":"6080346100bd57601f611b8e38819003918201601f19168301916001600160401b038311848410176100c2578084926020946040528339810103126100bd57516001600160a01b0390818116908190036100bd5760005460405192339082167f8be0079c531659141344cd1fd0a4f28419497f9722a3daafe3b4186f6b6457e0600080a36001600160a81b0319163360ff60a01b19161760005560018055600280546001600160a01b031916919091179055611ab590816100d98239f35b600080fd5b634e487b7160e01b600052604160045260246000fdfe6080604052600436101561001257600080fd5b6000803560e01c806304e03164146114f2578063088b0d75146114b257806311da8e541461143357806313b7a45a146111e957806317e3c05114610be55780631b0fc1061461099d5780631bdd4b74146107305780631f47991e1461065f5780633f4ba83a146105c4578063560d52d4146105a85780635c975abb14610583578063715018a61461052957806378e72ef5146104c75780638456cb59146104665780638da5cb5b1461043f5780638f1d37761461031357806396b2a315146102f5578063a4a3c4ee146102c6578063a5ff0a1314610270578063d421562f14610252578063dbb5300d14610234578063f1c6bdf81461020b578063f2fde38b146101455763fc67aa501461012557600080fd5b346101425780600319360112610142576020600554604051908152f35b80fd5b50346101425760203660031901126101425761015f6115aa565b610167611828565b6001600160a01b039081169081156101b757600054826001600160601b0360a01b821617600055167f8be0079c531659141344cd1fd0a4f28419497f9722a3daafe3b4186f6b6457e0600080a380f35b60405162461bcd60e51b815260206004820152602660248201527f4f776e61626c653a206e6577206f776e657220697320746865207a65726f206160448201526564647265737360d01b6064820152608490fd5b50346101425780600319360112610142576002546040516001600160a01b039091168152602090f35b5034610142578060031936011261014257602060405162093a808152f35b50346101425780600319360112610142576020604051620f42408152f35b50346101425760403660031901126101425761028a6115aa565b6001600160a01b03168152600460205260408120805460243592908310156101425760206102b884846117fa565b90546040519160031b1c8152f35b503461014257602036600319011261014257600b60406020926004358152600384522001546040519042118152f35b50346101425780600319360112610142576020604051624c4b408152f35b50346101425760203660031901126101425760043581526003602052604090208054600160a01b6001900360018301541691600281015460038201549160048101549260058201549360068301546007840161036e90611754565b61037a60088601611754565b91600986015460ff1697600a87015494600b88015496600c89015498600160a01b6001900390600d015416996040519d8e809e8152602001528c600160a01b600190038216906040015260608d019060a01c60ff16906103d9916116c0565b60808c015260a08b015260c08a015260e08901526101e0806101008a01528801610402916116cd565b878103610120890152610414916116cd565b9461014087016104239161170d565b6101608601526101808501526101a08401526101c08301520390f35b5034610142578060031936011261014257546040516001600160a01b039091168152602090f35b503461014257806003193601126101425761047f611828565b6104876118eb565b805460ff60a01b1916600160a01b1781556040513381527f62e78cea01bee320cd4e420270b5ea74000d11b0c9f74754ebdbfc544b05a25890602090a180f35b503461014257602036600319011261014257600435815260036020526003604082200154908160011b9180830460021490151715610515576020606461050c84611a0b565b04604051908152f35b634e487b7160e01b81526011600452602490fd5b5034610142578060031936011261014257610542611828565b600080546001600160a01b0319811682556001600160a01b03167f8be0079c531659141344cd1fd0a4f28419497f9722a3daafe3b4186f6b6457e08280a380f35b503461014257806003193601126101425760ff6020915460a01c166040519015158152f35b50346101425780600319360112610142576020604051600a8152f35b50346101425780600319360112610142576105dd611828565b805460ff8160a01c16156106235760ff60a01b191681556040513381527f5db9ee0a495bf2e6ff9c91a7834c1ba4fdd244a5e8aa4e537bd38aeae4b073aa90602090a180f35b60405162461bcd60e51b815260206004820152601460248201527314185d5cd8589b194e881b9bdd081c185d5cd95960621b6044820152606490fd5b503461014257806003193601126101425760055461067c81611a39565b8291835b8181106106d157505061069282611a39565b925b8281106106ad57604051806106a986826115c5565b0390f35b806106bb6106cc9284611a6b565b516106c68287611a6b565b52611880565b610694565b808552600360205260ff600960408720015416600481101561071c5715610701575b6106fc90611880565b610680565b9261071481856106c66106fc9487611a6b565b9390506106f3565b634e487b7160e01b86526021600452602486fd5b503461014257602036600319011261014257806040916101c083516107548161162a565b82815282602082015282858201528260608201528260808201528260a08201528260c08201528260e082015260606101008201526060610120820152826101408201528261016082015282610180820152826101a082015201526004358152600360205220604051906107c68261162a565b8054825260018101546001600160a01b039081166020840152600282015490811660408401526107ff9060a01c60ff16606084016118a5565b60038101546080830152600481015460a0830152600581015460c0830152600681015460e083015261083360078201611754565b61010083015261084560088201611754565b61012083015260ff600982015416600481101561098757610140830152600a810154610160830152600b810154610180830152600c8101546101a0830152600d01546001600160a01b039081166101c083015260408051602080825284518183015284015183168183015290830151909116606080830191909152820151909182916108d59060808401906116c0565b608081015160a083015260a081015160c083015260c081015160e083015260e08101516101008301526101008101516109386109206101e092836101208701526102008601906116cd565b610120840151858203601f19016101408701526116cd565b9161094d61014082015161016086019061170d565b6101608101516101808501526101808101516101a08501526101a08101516101c08501526101c060018060a01b0391015116908301520390f35b634e487b7160e01b600052602160045260246000fd5b5034610142576020366003190112610142576004356109ba6118eb565b6109c2611932565b80825260036020526040822060ff6009820154166004811015610bd1576109e99015611988565b60018101546001600160a01b039081163314610b8c5760028201918254828116610b4757610a1e600b60ff93015442106119cb565b60a01c166002811015610b3357849190610ae45760025416803b15610ae0578180916024604051809481936314ed853560e21b83523360048401525af18015610ad557610abd575b50505b336001600160601b0360a01b8254161790553382526004602052610a9081604084206118b1565b33907fd984ac8050a068db0ada14b33626b418e0cdfbad700867c1f3e0ab23cf123b338380a36001805580f35b610ac690611600565b610ad1578238610a66565b8280fd5b6040513d84823e3d90fd5b5080fd5b60025416803b15610ae05781809160246040518094819363229c5dff60e01b83523360048401525af18015610ad557610b1f575b5050610a69565b610b2890611600565b610ad1578238610b18565b634e487b7160e01b85526021600452602485fd5b60405162461bcd60e51b815260206004820152601a60248201527f4368616c6c656e676520616c72656164792061636365707465640000000000006044820152606490fd5b60405162461bcd60e51b815260206004820152601960248201527f43616e6e6f74206368616c6c656e676520796f757273656c66000000000000006044820152606490fd5b634e487b7160e01b84526021600452602484fd5b503461014257608036600319011261014257600260043510156101425760443567ffffffffffffffff8111610ae057610c22903690600401611669565b60643567ffffffffffffffff8111610ad157610c42903690600401611669565b610c4a6118eb565b610c52611932565b600435159182156111df57620f4240925b1561117e5760025484906001600160a01b0316803b15610ae0578180916024604051809481936314ed853560e21b83523360048401525af18015610ad557611166575b50505b60055492610cb684611880565b60055562093a804201421161115257604051610cd18161162a565b848152336020820152856040820152610cef600435606083016118a5565b8160808201526024358060a08301528660c083015260e08201528261010082015283610120820152856101408201524261016082015262093a804201610180820152856101a0820152856101c08201528486526003602052604086208151815560018060a01b036020830151166001600160601b0360a01b60018301541617600182015560018060a01b036040830151166002820154906060840151600281101561113e576001600160a81b03199092161760a091821b60ff60a01b1617600283015560808301516003830155820151600482015560c0820151600582015560e0820151600682015561010082015180519067ffffffffffffffff821161105f578190610dff600785015461171a565b601f81116110ed575b50602090601f831160011461107e578a92611073575b50508160011b916000199060031b1c19161760078201555b61012082015180519067ffffffffffffffff821161105f578190610e5d600885015461171a565b601f811161100e575b50602090601f8311600114610f9f578a92610f94575b50508160011b916000199060031b1c19161760088201555b6101408201516004811015610f8057866040602099829795600d86610f359660097f709b332686fa75d3ea81d4fa5ff198a83ca7ed5a55f126cd9f1c35db0745aba19b99019060ff80198354169116179055610160830151600a820155610180830151600b8201556101a0830151600c82015501906101c060018060a01b03910151166001600160601b0360a01b82541617905533815260048b52206118b1565b610f71610f62604051938493610f4d856004356116c0565b8a8501526080604085015260808401906116cd565b828103606084015233966116cd565b0390a360018055604051908152f35b634e487b7160e01b88526021600452602488fd5b015190503880610e7c565b9250600884018a5260208a20908a935b601f1984168510610ff3576001945083601f19811610610fda575b505050811b016008820155610e94565b015160001960f88460031b161c19169055388080610fca565b81810151835560209485019460019093019290910190610faf565b909150600884018a5260208a20601f840160051c810160208510611058575b90849392915b601f830160051c82018110611049575050610e66565b60008155859450600101611033565b508061102d565b634e487b7160e01b89526041600452602489fd5b015190503880610e1e565b9250600784018a5260208a20908a935b601f19841685106110d2576001945083601f198116106110b9575b505050811b016007820155610e36565b015160001960f88460031b161c191690553880806110a9565b8181015183556020948501946001909301929091019061108e565b909150600784018a5260208a20601f840160051c810160208510611137575b90849392915b601f830160051c82018110611128575050610e08565b60008155859450600101611112565b508061110c565b634e487b7160e01b8a52602160045260248afd5b634e487b7160e01b85526011600452602485fd5b61116f90611600565b61117a578338610ca6565b8380fd5b60025484906001600160a01b0316803b15610ae057819060246040518094819363229c5dff60e01b83523360048401525af180156111d4576111c1575b50610ca9565b6111cd90949194611600565b92386111bb565b6040513d87823e3d90fd5b624c4b4092610c63565b503461014257604036600319011261014257600435602480359161120b6118eb565b611213611932565b808452600360205260408420600981019384549460ff861660048110156114205761123e9015611988565b60028301546001600160a01b039190821633036113dc57611264600b85015442106119cb565b8260058501556001809760ff191617905542600c84015560048301549081831160001461132a57339560038501549081891b918083046002149015171561131857509160409391600d60646112da7f939953dc28f51d09c4cc5eab0df34092ba75f794e37ca4b7b2b55dfa4b2422ce9896611a0b565b04945b01971696876001600160601b0360a01b8254161790553387146000146113105750905b82519182526020820152a3805580f35b905090611300565b634e487b7160e01b8a52601160045289fd5b8183101561138d578087850154169560038501549081891b918083046002149015171561131857509160409391600d60646113867f939953dc28f51d09c4cc5eab0df34092ba75f794e37ca4b7b2b55dfa4b2422ce9896611a0b565b04946112dd565b879560038501549081891b918083046002149015171561131857509160409391600d60646113867f939953dc28f51d09c4cc5eab0df34092ba75f794e37ca4b7b2b55dfa4b2422ce9896611a0b565b60405162461bcd60e51b815260206004820152601c818801527f4f6e6c79206368616c6c656e6765722063616e20636f6d706c657465000000006044820152606490fd5b634e487b7160e01b885260216004528588fd5b503461014257602080600319360112610ae0576001600160a01b036114566115aa565b1682526004815260408220916040518092808554928381520194835280832092905b82821061149b576106a98561148f81890382611647565b604051918291826115c5565b835486529485019460019384019390910190611478565b5034610142576020366003190112610142576114cc6115aa565b6114d4611828565b60018060a01b03166001600160601b0360a01b600254161760025580f35b503461014257602036600319011261014257600435808252600360205260408220600981019081549060ff8216600481101561071c5790611535600b9215611988565b0154421061156d5760ff191660021790557f5e804f6ab65f629e96873f89acb6e5d1456139dc56369bcfc528171e348baa428280a280f35b60405162461bcd60e51b815260206004820152601560248201527410da185b1b195b99d9481b9bdd08195e1c1a5c9959605a1b6044820152606490fd5b600435906001600160a01b03821682036115c057565b600080fd5b6020908160408183019282815285518094520193019160005b8281106115ec575050505090565b8351855293810193928101926001016115de565b67ffffffffffffffff811161161457604052565b634e487b7160e01b600052604160045260246000fd5b6101e0810190811067ffffffffffffffff82111761161457604052565b90601f8019910116810190811067ffffffffffffffff82111761161457604052565b81601f820112156115c05780359067ffffffffffffffff8211611614576040519261169e601f8401601f191660200185611647565b828452602083830101116115c057816000926020809301838601378301015290565b9060028210156109875752565b919082519283825260005b8481106116f9575050826000602080949584010152601f8019910116010190565b6020818301810151848301820152016116d8565b9060048210156109875752565b90600182811c9216801561174a575b602083101461173457565b634e487b7160e01b600052602260045260246000fd5b91607f1691611729565b90604051918260008254926117688461171a565b9081845260019485811690816000146117d75750600114611794575b505061179292500383611647565b565b9093915060005260209081600020936000915b8183106117bf57505061179293508201013880611784565b855488840185015294850194879450918301916117a7565b91505061179294506020925060ff191682840152151560051b8201013880611784565b80548210156118125760005260206000200190600090565b634e487b7160e01b600052603260045260246000fd5b6000546001600160a01b0316330361183c57565b606460405162461bcd60e51b815260206004820152602060248201527f4f776e61626c653a2063616c6c6572206973206e6f7420746865206f776e65726044820152fd5b600019811461188f5760010190565b634e487b7160e01b600052601160045260246000fd5b60028210156109875752565b805468010000000000000000811015611614576118d3916001820181556117fa565b819291549060031b91821b91600019901b1916179055565b60ff60005460a01c166118fa57565b60405162461bcd60e51b815260206004820152601060248201526f14185d5cd8589b194e881c185d5cd95960821b6044820152606490fd5b600260015414611943576002600155565b60405162461bcd60e51b815260206004820152601f60248201527f5265656e7472616e637947756172643a207265656e7472616e742063616c6c006044820152606490fd5b1561198f57565b60405162461bcd60e51b81526020600482015260146024820152734368616c6c656e6765206e6f742061637469766560601b6044820152606490fd5b156119d257565b60405162461bcd60e51b815260206004820152601160248201527010da185b1b195b99d948195e1c1a5c9959607a1b6044820152606490fd5b90605a820291808304605a149015171561188f57565b67ffffffffffffffff81116116145760051b60200190565b90611a4382611a21565b611a506040519182611647565b8281528092611a61601f1991611a21565b0190602036910137565b80518210156118125760209160051b01019056fea264697066735822122092251ff9262babd1ed89f52711f7eed4d70c60a630a17abda2cce797481337e364736f6c63430008130033","opcodes":"PUSH1 0x80 CALLVALUE PUSH2 0xBD JUMPI PUSH1 0x1F PUSH2 0x1B8E CODESIZE DUP2 SWAP1 SUB SWAP2 DUP3 ADD PUSH1 0x1F NOT AND DUP4 ADD SWAP2 PUSH1 0x1 PUSH1 0x1 PUSH1 0x40 SHL SUB DUP4 GT DUP5 DUP5 LT OR PUSH2 0xC2 JUMPI DUP1 DUP5 SWAP3 PUSH1 0x20 SWAP5 PUSH1 0x40 MSTORE DUP4 CODECOPY DUP2 ADD SUB SLT PUSH2 0xBD JUMPI MLOAD PUSH1 0x1 PUSH1 0x1 PUSH1 0xA0 SHL SUB SWAP1 DUP2 DUP2 AND SWAP1 DUP2 SWAP1 SUB PUSH2 0xBD JUMPI PUSH1 0x0 SLOAD PUSH1 0x40 MLOAD SWAP3 CALLER SWAP1 DUP3 AND PUSH32 0x8BE0079C531659141344CD1FD0A4F28419497F9722A3DAAFE3B4186F6B6457E0 PUSH1 0x0 DUP1 LOG3 PUSH1 0x1 PUSH1 0x1 PUSH1 0xA8 SHL SUB NOT AND CALLER PUSH1 0xFF PUSH1 0xA0 SHL NOT AND OR PUSH1 0x0 SSTORE PUSH1 0x1 DUP1 SSTORE PUSH1 0x2 DUP1 SLOAD PUSH1 0x1 PUSH1 0x1 PUSH1 0xA0 SHL SUB NOT AND SWAP2 SWAP1 SWAP2 OR SWAP1 SSTORE PUSH2 0x1AB5 SWAP1 DUP2 PUSH2 0xD9 DUP3 CODECOPY RETURN JUMPDEST PUSH1 0x0 DUP1 REVERT JUMPDEST PUSH4 0x4E487B71 PUSH1 0xE0 SHL PUSH1 0x0 MSTORE PUSH1 0x41 PUSH1 0x4 MSTORE PUSH1 0x24 PUSH1 0x0 REVERT INVALID PUSH1 0x80 PUSH1 0x40 MSTORE PUSH1 0x4 CALLDATASIZE LT ISZERO PUSH2 0x12 JUMPI PUSH1 0x0 DUP1 REVERT JUMPDEST PUSH1 0x0 DUP1 CALLDATALOAD PUSH1 0xE0 SHR DUP1 PUSH4 0x4E03164 EQ PUSH2 0x14F2 JUMPI DUP1 PUSH4 0x88B0D75 EQ PUSH2 0x14B2 JUMPI DUP1 PUSH4 0x11DA8E54 EQ PUSH2 0x1433 JUMPI DUP1 PUSH4 0x13B7A45A EQ PUSH2 0x11E9 JUMPI DUP1 PUSH4 0x17E3C051 EQ PUSH2 0xBE5 JUMPI DUP1 PUSH4 0x1B0FC106 EQ PUSH2 0x99D JUMPI DUP1 PUSH4 0x1BDD4B74 EQ PUSH2 0x730 JUMPI DUP1 PUSH4 0x1F47991E EQ PUSH2 0x65F JUMPI DUP1 PUSH4 0x3F4BA83A EQ PUSH2 0x5C4 JUMPI DUP1 PUSH4 0x560D52D4 EQ PUSH2 0x5A8 JUMPI DUP1 PUSH4 0x5C975ABB EQ PUSH2 0x583 JUMPI DUP1 PUSH4 0x715018A6 EQ PUSH2 0x529 JUMPI DUP1 PUSH4 0x78E72EF5 EQ PUSH2 0x4C7 JUMPI DUP1 PUSH4 0x8456CB59 EQ PUSH2 0x466 JUMPI DUP1 PUSH4 0x8DA5CB5B EQ PUSH2 0x43F JUMPI DUP1 PUSH4 0x8F1D3776 EQ PUSH2 0x313 JUMPI DUP1 PUSH4 0x96B2A315 EQ PUSH2 0x2F5 JUMPI DUP1 PUSH4 0xA4A3C4EE EQ PUSH2 0x2C6 JUMPI DUP1 PUSH4 0xA5FF0A13 EQ PUSH2 0x270 JUMPI DUP1 PUSH4 0xD421562F EQ PUSH2 0x252 JUMPI DUP1 PUSH4 0xDBB5300D EQ PUSH2 0x234 JUMPI DUP1 PUSH4 0xF1C6BDF8 EQ PUSH2 0x20B JUMPI DUP1 PUSH4 0xF2FDE38B EQ PUSH2 0x145 JUMPI PUSH4 0xFC67AA50 EQ PUSH2 0x125 JUMPI PUSH1 0x0 DUP1 REVERT JUMPDEST CALLVALUE PUSH2 0x142 JUMPI DUP1 PUSH1 0x3 NOT CALLDATASIZE ADD SLT PUSH2 0x142 JUMPI PUSH1 0x20 PUSH1 0x5 SLOAD PUSH1 0x40 MLOAD SWAP1 DUP2 MSTORE RETURN JUMPDEST DUP1 REVERT JUMPDEST POP CALLVALUE PUSH2 0x142 JUMPI PUSH1 0x20 CALLDATASIZE PUSH1 0x3 NOT ADD SLT PUSH2 0x142 JUMPI PUSH2 0x15F PUSH2 0x15AA JUMP JUMPDEST PUSH2 0x167 PUSH2 0x1828 JUMP JUMPDEST PUSH1 0x1 PUSH1 0x1 PUSH1 0xA0 SHL SUB SWAP1 DUP2 AND SWAP1 DUP2 ISZERO PUSH2 0x1B7 JUMPI PUSH1 0x0 SLOAD DUP3 PUSH1 0x1 PUSH1 0x1 PUSH1 0x60 SHL SUB PUSH1 0xA0 SHL DUP3 AND OR PUSH1 0x0 SSTORE AND PUSH32 0x8BE0079C531659141344CD1FD0A4F28419497F9722A3DAAFE3B4186F6B6457E0 PUSH1 0x0 DUP1 LOG3 DUP1 RETURN JUMPDEST PUSH1 0x40 MLOAD PUSH3 0x461BCD PUSH1 0xE5 SHL DUP2 MSTORE PUSH1 0x20 PUSH1 0x4 DUP3 ADD MSTORE PUSH1 0x26 PUSH1 0x24 DUP3 ADD MSTORE PUSH32 0x4F776E61626C653A206E6577206F776E657220697320746865207A65726F2061 PUSH1 0x44 DUP3 ADD MSTORE PUSH6 0x646472657373 PUSH1 0xD0 SHL PUSH1 0x64 DUP3 ADD MSTORE PUSH1 0x84 SWAP1 REVERT JUMPDEST POP CALLVALUE PUSH2 0x142 JUMPI DUP1 PUSH1 0x3 NOT CALLDATASIZE ADD SLT PUSH2 0x142 JUMPI PUSH1 0x2 SLOAD PUSH1 0x40 MLOAD PUSH1 0x1 PUSH1 0x1 PUSH1 0xA0 SHL SUB SWAP1 SWAP2 AND DUP2 MSTORE PUSH1 0x20 SWAP1 RETURN JUMPDEST POP CALLVALUE PUSH2 0x142 JUMPI DUP1 PUSH1 0x3 NOT CALLDATASIZE ADD SLT PUSH2 0x142 JUMPI PUSH1 0x20 PUSH1 0x40 MLOAD PUSH3 0x93A80 DUP2 MSTORE RETURN JUMPDEST POP CALLVALUE PUSH2 0x142 JUMPI DUP1 PUSH1 0x3 NOT CALLDATASIZE ADD SLT PUSH2 0x142 JUMPI PUSH1 0x20 PUSH1 0x40 MLOAD PUSH3 0xF4240 DUP2 MSTORE RETURN JUMPDEST POP CALLVALUE PUSH2 0x142 JUMPI PUSH1 0x40 CALLDATASIZE PUSH1 0x3 NOT ADD SLT PUSH2 0x142 JUMPI PUSH2 0x28A PUSH2 0x15AA JUMP JUMPDEST PUSH1 0x1 PUSH1 0x1 PUSH1 0xA0 SHL SUB AND DUP2 MSTORE PUSH1 0x4 PUSH1 0x20 MSTORE PUSH1 0x40 DUP2 KECCAK256 DUP1 SLOAD PUSH1 0x24 CALLDATALOAD SWAP3 SWAP1 DUP4 LT ISZERO PUSH2 0x142 JUMPI PUSH1 0x20 PUSH2 0x2B8 DUP5 DUP5 PUSH2 0x17FA JUMP JUMPDEST SWAP1 SLOAD PUSH1 0x40 MLOAD SWAP2 PUSH1 0x3 SHL SHR DUP2 MSTORE RETURN JUMPDEST POP CALLVALUE PUSH2 0x142 JUMPI PUSH1 0x20 CALLDATASIZE PUSH1 0x3 NOT ADD SLT PUSH2 0x142 JUMPI PUSH1 0xB PUSH1 0x40 PUSH1 0x20 SWAP3 PUSH1 0x4 CALLDATALOAD DUP2 MSTORE PUSH1 0x3 DUP5 MSTORE KECCAK256 ADD SLOAD PUSH1 0x40 MLOAD SWAP1 TIMESTAMP GT DUP2 MSTORE RETURN JUMPDEST POP CALLVALUE PUSH2 0x142 JUMPI DUP1 PUSH1 0x3 NOT CALLDATASIZE ADD SLT PUSH2 0x142 JUMPI PUSH1 0x20 PUSH1 0x40 MLOAD PUSH3 0x4C4B40 DUP2 MSTORE RETURN JUMPDEST POP CALLVALUE PUSH2 0x142 JUMPI PUSH1 0x20 CALLDATASIZE PUSH1 0x3 NOT ADD SLT PUSH2 0x142 JUMPI PUSH1 0x4 CALLDATALOAD DUP2 MSTORE PUSH1 0x3 PUSH1 0x20 MSTORE PUSH1 0x40 SWAP1 KECCAK256 DUP1 SLOAD PUSH1 0x1 PUSH1 0xA0 SHL PUSH1 0x1 SWAP1 SUB PUSH1 0x1 DUP4 ADD SLOAD AND SWAP2 PUSH1 0x2 DUP2 ADD SLOAD PUSH1 0x3 DUP3 ADD SLOAD SWAP2 PUSH1 0x4 DUP2 ADD SLOAD SWAP3 PUSH1 0x5 DUP3 ADD SLOAD SWAP4 PUSH1 0x6 DUP4 ADD SLOAD PUSH1 0x7 DUP5 ADD PUSH2 0x36E SWAP1 PUSH2 0x1754 JUMP JUMPDEST PUSH2 0x37A PUSH1 0x8 DUP7 ADD PUSH2 0x1754 JUMP JUMPDEST SWAP2 PUSH1 0x9 DUP7 ADD SLOAD PUSH1 0xFF AND SWAP8 PUSH1 0xA DUP8 ADD SLOAD SWAP5 PUSH1 0xB DUP9 ADD SLOAD SWAP7 PUSH1 0xC DUP10 ADD SLOAD SWAP9 PUSH1 0x1 PUSH1 0xA0 SHL PUSH1 0x1 SWAP1 SUB SWAP1 PUSH1 0xD ADD SLOAD AND SWAP10 PUSH1 0x40 MLOAD SWAP14 DUP15 DUP1 SWAP15 DUP2 MSTORE PUSH1 0x20 ADD MSTORE DUP13 PUSH1 0x1 PUSH1 0xA0 SHL PUSH1 0x1 SWAP1 SUB DUP3 AND SWAP1 PUSH1 0x40 ADD MSTORE PUSH1 0x60 DUP14 ADD SWAP1 PUSH1 0xA0 SHR PUSH1 0xFF AND SWAP1 PUSH2 0x3D9 SWAP2 PUSH2 0x16C0 JUMP JUMPDEST PUSH1 0x80 DUP13 ADD MSTORE PUSH1 0xA0 DUP12 ADD MSTORE PUSH1 0xC0 DUP11 ADD MSTORE PUSH1 0xE0 DUP10 ADD MSTORE PUSH2 0x1E0 DUP1 PUSH2 0x100 DUP11 ADD MSTORE DUP9 ADD PUSH2 0x402 SWAP2 PUSH2 0x16CD JUMP JUMPDEST DUP8 DUP2 SUB PUSH2 0x120 DUP10 ADD MSTORE PUSH2 0x414 SWAP2 PUSH2 0x16CD JUMP JUMPDEST SWAP5 PUSH2 0x140 DUP8 ADD PUSH2 0x423 SWAP2 PUSH2 0x170D JUMP JUMPDEST PUSH2 0x160 DUP7 ADD MSTORE PUSH2 0x180 DUP6 ADD MSTORE PUSH2 0x1A0 DUP5 ADD MSTORE PUSH2 0x1C0 DUP4 ADD MSTORE SUB SWAP1 RETURN JUMPDEST POP CALLVALUE PUSH2 0x142 JUMPI DUP1 PUSH1 0x3 NOT CALLDATASIZE ADD SLT PUSH2 0x142 JUMPI SLOAD PUSH1 0x40 MLOAD PUSH1 0x1 PUSH1 0x1 PUSH1 0xA0 SHL SUB SWAP1 SWAP2 AND DUP2 MSTORE PUSH1 0x20 SWAP1 RETURN JUMPDEST POP CALLVALUE PUSH2 0x142 JUMPI DUP1 PUSH1 0x3 NOT CALLDATASIZE ADD SLT PUSH2 0x142 JUMPI PUSH2 0x47F PUSH2 0x1828 JUMP JUMPDEST PUSH2 0x487 PUSH2 0x18EB JUMP JUMPDEST DUP1 SLOAD PUSH1 0xFF PUSH1 0xA0 SHL NOT AND PUSH1 0x1 PUSH1 0xA0 SHL OR DUP2 SSTORE PUSH1 0x40 MLOAD CALLER DUP2 MSTORE PUSH32 0x62E78CEA01BEE320CD4E420270B5EA74000D11B0C9F74754EBDBFC544B05A258 SWAP1 PUSH1 0x20 SWAP1 LOG1 DUP1 RETURN JUMPDEST POP CALLVALUE PUSH2 0x142 JUMPI PUSH1 0x20 CALLDATASIZE PUSH1 0x3 NOT ADD SLT PUSH2 0x142 JUMPI PUSH1 0x4 CALLDATALOAD DUP2 MSTORE PUSH1 0x3 PUSH1 0x20 MSTORE PUSH1 0x3 PUSH1 0x40 DUP3 KECCAK256 ADD SLOAD SWAP1 DUP2 PUSH1 0x1 SHL SWAP2 DUP1 DUP4 DIV PUSH1 0x2 EQ SWAP1 ISZERO OR ISZERO PUSH2 0x515 JUMPI PUSH1 0x20 PUSH1 0x64 PUSH2 0x50C DUP5 PUSH2 0x1A0B JUMP JUMPDEST DIV PUSH1 0x40 MLOAD SWAP1 DUP2 MSTORE RETURN JUMPDEST PUSH4 0x4E487B71 PUSH1 0xE0 SHL DUP2 MSTORE PUSH1 0x11 PUSH1 0x4 MSTORE PUSH1 0x24 SWAP1 REVERT JUMPDEST POP CALLVALUE PUSH2 0x142 JUMPI DUP1 PUSH1 0x3 NOT CALLDATASIZE ADD SLT PUSH2 0x142 JUMPI PUSH2 0x542 PUSH2 0x1828 JUMP JUMPDEST PUSH1 0x0 DUP1 SLOAD PUSH1 0x1 PUSH1 0x1 PUSH1 0xA0 SHL SUB NOT DUP2 AND DUP3 SSTORE PUSH1 0x1 PUSH1 0x1 PUSH1 0xA0 SHL SUB AND PUSH32 0x8BE0079C531659141344CD1FD0A4F28419497F9722A3DAAFE3B4186F6B6457E0 DUP3 DUP1 LOG3 DUP1 RETURN JUMPDEST POP CALLVALUE PUSH2 0x142 JUMPI DUP1 PUSH1 0x3 NOT CALLDATASIZE ADD SLT PUSH2 0x142 JUMPI PUSH1 0xFF PUSH1 0x20 SWAP2 SLOAD PUSH1 0xA0 SHR AND PUSH1 0x40 MLOAD SWAP1 ISZERO ISZERO DUP2 MSTORE RETURN JUMPDEST POP CALLVALUE PUSH2 0x142 JUMPI DUP1 PUSH1 0x3 NOT CALLDATASIZE ADD SLT PUSH2 0x142 JUMPI PUSH1 0x20 PUSH1 0x40 MLOAD PUSH1 0xA DUP2 MSTORE RETURN JUMPDEST POP CALLVALUE PUSH2 0x142 JUMPI DUP1 PUSH1 0x3 NOT CALLDATASIZE ADD SLT PUSH2 0x142 JUMPI PUSH2 0x5DD PUSH2 0x1828 JUMP JUMPDEST DUP1 SLOAD PUSH1 0xFF DUP2 PUSH1 0xA0 SHR AND ISZERO PUSH2 0x623 JUMPI PUSH1 0xFF PUSH1 0xA0 SHL NOT AND DUP2 SSTORE PUSH1 0x40 MLOAD CALLER DUP2 MSTORE PUSH32 0x5DB9EE0A495BF2E6FF9C91A7834C1BA4FDD244A5E8AA4E537BD38AEAE4B073AA SWAP1 PUSH1 0x20 SWAP1 LOG1 DUP1 RETURN JUMPDEST PUSH1 0x40 MLOAD PUSH3 0x461BCD PUSH1 0xE5 SHL DUP2 MSTORE PUSH1 0x20 PUSH1 0x4 DUP3 ADD MSTORE PUSH1 0x14 PUSH1 0x24 DUP3 ADD MSTORE PUSH20 0x14185D5CD8589B194E881B9BDD081C185D5CD959 PUSH1 0x62 SHL PUSH1 0x44 DUP3 ADD MSTORE PUSH1 0x64 SWAP1 REVERT JUMPDEST POP CALLVALUE PUSH2 0x142 JUMPI DUP1 PUSH1 0x3 NOT CALLDATASIZE ADD SLT PUSH2 0x142 JUMPI PUSH1 0x5 SLOAD PUSH2 0x67C DUP2 PUSH2 0x1A39 JUMP JUMPDEST DUP3 SWAP2 DUP4 JUMPDEST DUP2 DUP2 LT PUSH2 0x6D1 JUMPI POP POP PUSH2 0x692 DUP3 PUSH2 0x1A39 JUMP JUMPDEST SWAP3 JUMPDEST DUP3 DUP2 LT PUSH2 0x6AD JUMPI PUSH1 0x40 MLOAD DUP1 PUSH2 0x6A9 DUP7 DUP3 PUSH2 0x15C5 JUMP JUMPDEST SUB SWAP1 RETURN JUMPDEST DUP1 PUSH2 0x6BB PUSH2 0x6CC SWAP3 DUP5 PUSH2 0x1A6B JUMP JUMPDEST MLOAD PUSH2 0x6C6 DUP3 DUP8 PUSH2 0x1A6B JUMP JUMPDEST MSTORE PUSH2 0x1880 JUMP JUMPDEST PUSH2 0x694 JUMP JUMPDEST DUP1 DUP6 MSTORE PUSH1 0x3 PUSH1 0x20 MSTORE PUSH1 0xFF PUSH1 0x9 PUSH1 0x40 DUP8 KECCAK256 ADD SLOAD AND PUSH1 0x4 DUP2 LT ISZERO PUSH2 0x71C JUMPI ISZERO PUSH2 0x701 JUMPI JUMPDEST PUSH2 0x6FC SWAP1 PUSH2 0x1880 JUMP JUMPDEST PUSH2 0x680 JUMP JUMPDEST SWAP3 PUSH2 0x714 DUP2 DUP6 PUSH2 0x6C6 PUSH2 0x6FC SWAP5 DUP8 PUSH2 0x1A6B JUMP JUMPDEST SWAP4 SWAP1 POP PUSH2 0x6F3 JUMP JUMPDEST PUSH4 0x4E487B71 PUSH1 0xE0 SHL DUP7 MSTORE PUSH1 0x21 PUSH1 0x4 MSTORE PUSH1 0x24 DUP7 REVERT JUMPDEST POP CALLVALUE PUSH2 0x142 JUMPI PUSH1 0x20 CALLDATASIZE PUSH1 0x3 NOT ADD SLT PUSH2 0x142 JUMPI DUP1 PUSH1 0x40 SWAP2 PUSH2 0x1C0 DUP4 MLOAD PUSH2 0x754 DUP2 PUSH2 0x162A JUMP JUMPDEST DUP3 DUP2 MSTORE DUP3 PUSH1 0x20 DUP3 ADD MSTORE DUP3 DUP6 DUP3 ADD MSTORE DUP3 PUSH1 0x60 DUP3 ADD MSTORE DUP3 PUSH1 0x80 DUP3 ADD MSTORE DUP3 PUSH1 0xA0 DUP3 ADD MSTORE DUP3 PUSH1 0xC0 DUP3 ADD MSTORE DUP3 PUSH1 0xE0 DUP3 ADD MSTORE PUSH1 0x60 PUSH2 0x100 DUP3 ADD MSTORE PUSH1 0x60 PUSH2 0x120 DUP3 ADD MSTORE DUP3 PUSH2 0x140 DUP3 ADD MSTORE DUP3 PUSH2 0x160 DUP3 ADD MSTORE DUP3 PUSH2 0x180 DUP3 ADD MSTORE DUP3 PUSH2 0x1A0 DUP3 ADD MSTORE ADD MSTORE PUSH1 0x4 CALLDATALOAD DUP2 MSTORE PUSH1 0x3 PUSH1 0x20 MSTORE KECCAK256 PUSH1 0x40 MLOAD SWAP1 PUSH2 0x7C6 DUP3 PUSH2 0x162A JUMP JUMPDEST DUP1 SLOAD DUP3 MSTORE PUSH1 0x1 DUP2 ADD SLOAD PUSH1 0x1 PUSH1 0x1 PUSH1 0xA0 SHL SUB SWAP1 DUP2 AND PUSH1 0x20 DUP5 ADD MSTORE PUSH1 0x2 DUP3 ADD SLOAD SWAP1 DUP2 AND PUSH1 0x40 DUP5 ADD MSTORE PUSH2 0x7FF SWAP1 PUSH1 0xA0 SHR PUSH1 0xFF AND PUSH1 0x60 DUP5 ADD PUSH2 0x18A5 JUMP JUMPDEST PUSH1 0x3 DUP2 ADD SLOAD PUSH1 0x80 DUP4 ADD MSTORE PUSH1 0x4 DUP2 ADD SLOAD PUSH1 0xA0 DUP4 ADD MSTORE PUSH1 0x5 DUP2 ADD SLOAD PUSH1 0xC0 DUP4 ADD MSTORE PUSH1 0x6 DUP2 ADD SLOAD PUSH1 0xE0 DUP4 ADD MSTORE PUSH2 0x833 PUSH1 0x7 DUP3 ADD PUSH2 0x1754 JUMP JUMPDEST PUSH2 0x100 DUP4 ADD MSTORE PUSH2 0x845 PUSH1 0x8 DUP3 ADD PUSH2 0x1754 JUMP JUMPDEST PUSH2 0x120 DUP4 ADD MSTORE PUSH1 0xFF PUSH1 0x9 DUP3 ADD SLOAD AND PUSH1 0x4 DUP2 LT ISZERO PUSH2 0x987 JUMPI PUSH2 0x140 DUP4 ADD MSTORE PUSH1 0xA DUP2 ADD SLOAD PUSH2 0x160 DUP4 ADD MSTORE PUSH1 0xB DUP2 ADD SLOAD PUSH2 0x180 DUP4 ADD MSTORE PUSH1 0xC DUP2 ADD SLOAD PUSH2 0x1A0 DUP4 ADD MSTORE PUSH1 0xD ADD SLOAD PUSH1 0x1 PUSH1 0x1 PUSH1 0xA0 SHL SUB SWAP1 DUP2 AND PUSH2 0x1C0 DUP4 ADD MSTORE PUSH1 0x40 DUP1 MLOAD PUSH1 0x20 DUP1 DUP3 MSTORE DUP5 MLOAD DUP2 DUP4 ADD MSTORE DUP5 ADD MLOAD DUP4 AND DUP2 DUP4 ADD MSTORE SWAP1 DUP4 ADD MLOAD SWAP1 SWAP2 AND PUSH1 0x60 DUP1 DUP4 ADD SWAP2 SWAP1 SWAP2 MSTORE DUP3 ADD MLOAD SWAP1 SWAP2 DUP3 SWAP2 PUSH2 0x8D5 SWAP1 PUSH1 0x80 DUP5 ADD SWAP1 PUSH2 0x16C0 JUMP JUMPDEST PUSH1 0x80 DUP2 ADD MLOAD PUSH1 0xA0 DUP4 ADD MSTORE PUSH1 0xA0 DUP2 ADD MLOAD PUSH1 0xC0 DUP4 ADD MSTORE PUSH1 0xC0 DUP2 ADD MLOAD PUSH1 0xE0 DUP4 ADD MSTORE PUSH1 0xE0 DUP2 ADD MLOAD PUSH2 0x100 DUP4 ADD MSTORE PUSH2 0x100 DUP2 ADD MLOAD PUSH2 0x938 PUSH2 0x920 PUSH2 0x1E0 SWAP3 DUP4 PUSH2 0x120 DUP8 ADD MSTORE PUSH2 0x200 DUP7 ADD SWAP1 PUSH2 0x16CD JUMP JUMPDEST PUSH2 0x120 DUP5 ADD MLOAD DUP6 DUP3 SUB PUSH1 0x1F NOT ADD PUSH2 0x140 DUP8 ADD MSTORE PUSH2 0x16CD JUMP JUMPDEST SWAP2 PUSH2 0x94D PUSH2 0x140 DUP3 ADD MLOAD PUSH2 0x160 DUP7 ADD SWAP1 PUSH2 0x170D JUMP JUMPDEST PUSH2 0x160 DUP2 ADD MLOAD PUSH2 0x180 DUP6 ADD MSTORE PUSH2 0x180 DUP2 ADD MLOAD PUSH2 0x1A0 DUP6 ADD MSTORE PUSH2 0x1A0 DUP2 ADD MLOAD PUSH2 0x1C0 DUP6 ADD MSTORE PUSH2 0x1C0 PUSH1 0x1 DUP1 PUSH1 0xA0 SHL SUB SWAP2 ADD MLOAD AND SWAP1 DUP4 ADD MSTORE SUB SWAP1 RETURN JUMPDEST PUSH4 0x4E487B71 PUSH1 0xE0 SHL PUSH1 0x0 MSTORE PUSH1 0x21 PUSH1 0x4 MSTORE PUSH1 0x24 PUSH1 0x0 REVERT JUMPDEST POP CALLVALUE PUSH2 0x142 JUMPI PUSH1 0x20 CALLDATASIZE PUSH1 0x3 NOT ADD SLT PUSH2 0x142 JUMPI PUSH1 0x4 CALLDATALOAD PUSH2 0x9BA PUSH2 0x18EB JUMP JUMPDEST PUSH2 0x9C2 PUSH2 0x1932 JUMP JUMPDEST DUP1 DUP3 MSTORE PUSH1 0x3 PUSH1 0x20 MSTORE PUSH1 0x40 DUP3 KECCAK256 PUSH1 0xFF PUSH1 0x9 DUP3 ADD SLOAD AND PUSH1 0x4 DUP2 LT ISZERO PUSH2 0xBD1 JUMPI PUSH2 0x9E9 SWAP1 ISZERO PUSH2 0x1988 JUMP JUMPDEST PUSH1 0x1 DUP2 ADD SLOAD PUSH1 0x1 PUSH1 0x1 PUSH1 0xA0 SHL SUB SWAP1 DUP2 AND CALLER EQ PUSH2 0xB8C JUMPI PUSH1 0x2 DUP3 ADD SWAP2 DUP3 SLOAD DUP3 DUP2 AND PUSH2 0xB47 JUMPI PUSH2 0xA1E PUSH1 0xB PUSH1 0xFF SWAP4 ADD SLOAD TIMESTAMP LT PUSH2 0x19CB JUMP JUMPDEST PUSH1 0xA0 SHR AND PUSH1 0x2 DUP2 LT ISZERO PUSH2 0xB33 JUMPI DUP5 SWAP2 SWAP1 PUSH2 0xAE4 JUMPI PUSH1 0x2 SLOAD AND DUP1 EXTCODESIZE ISZERO PUSH2 0xAE0 JUMPI DUP2 DUP1 SWAP2 PUSH1 0x24 PUSH1 0x40 MLOAD DUP1 SWAP5 DUP2 SWAP4 PUSH4 0x14ED8535 PUSH1 0xE2 SHL DUP4 MSTORE CALLER PUSH1 0x4 DUP5 ADD MSTORE GAS CALL DUP1 ISZERO PUSH2 0xAD5 JUMPI PUSH2 0xABD JUMPI JUMPDEST POP POP JUMPDEST CALLER PUSH1 0x1 PUSH1 0x1 PUSH1 0x60 SHL SUB PUSH1 0xA0 SHL DUP3 SLOAD AND OR SWAP1 SSTORE CALLER DUP3 MSTORE PUSH1 0x4 PUSH1 0x20 MSTORE PUSH2 0xA90 DUP2 PUSH1 0x40 DUP5 KECCAK256 PUSH2 0x18B1 JUMP JUMPDEST CALLER SWAP1 PUSH32 0xD984AC8050A068DB0ADA14B33626B418E0CDFBAD700867C1F3E0AB23CF123B33 DUP4 DUP1 LOG3 PUSH1 0x1 DUP1 SSTORE DUP1 RETURN JUMPDEST PUSH2 0xAC6 SWAP1 PUSH2 0x1600 JUMP JUMPDEST PUSH2 0xAD1 JUMPI DUP3 CODESIZE PUSH2 0xA66 JUMP JUMPDEST DUP3 DUP1 REVERT JUMPDEST PUSH1 0x40 MLOAD RETURNDATASIZE DUP5 DUP3 RETURNDATACOPY RETURNDATASIZE SWAP1 REVERT JUMPDEST POP DUP1 REVERT JUMPDEST PUSH1 0x2 SLOAD AND DUP1 EXTCODESIZE ISZERO PUSH2 0xAE0 JUMPI DUP2 DUP1 SWAP2 PUSH1 0x24 PUSH1 0x40 MLOAD DUP1 SWAP5 DUP2 SWAP4 PUSH4 0x229C5DFF PUSH1 0xE0 SHL DUP4 MSTORE CALLER PUSH1 0x4 DUP5 ADD MSTORE GAS CALL DUP1 ISZERO PUSH2 0xAD5 JUMPI PUSH2 0xB1F JUMPI JUMPDEST POP POP PUSH2 0xA69 JUMP JUMPDEST PUSH2 0xB28 SWAP1 PUSH2 0x1600 JUMP JUMPDEST PUSH2 0xAD1 JUMPI DUP3 CODESIZE PUSH2 0xB18 JUMP JUMPDEST PUSH4 0x4E487B71 PUSH1 0xE0 SHL DUP6 MSTORE PUSH1 0x21 PUSH1 0x4 MSTORE PUSH1 0x24 DUP6 REVERT JUMPDEST PUSH1 0x40 MLOAD PUSH3 0x461BCD PUSH1 0xE5 SHL DUP2 MSTORE PUSH1 0x20 PUSH1 0x4 DUP3 ADD MSTORE PUSH1 0x1A PUSH1 0x24 DUP3 ADD MSTORE PUSH32 0x4368616C6C656E676520616C7265616479206163636570746564000000000000 PUSH1 0x44 DUP3 ADD MSTORE PUSH1 0x64 SWAP1 REVERT JUMPDEST PUSH1 0x40 MLOAD PUSH3 0x461BCD PUSH1 0xE5 SHL DUP2 MSTORE PUSH1 0x20 PUSH1 0x4 DUP3 ADD MSTORE PUSH1 0x19 PUSH1 0x24 DUP3 ADD MSTORE PUSH32 0x43616E6E6F74206368616C6C656E676520796F757273656C6600000000000000 PUSH1 0x44 DUP3 ADD MSTORE PUSH1 0x64 SWAP1 REVERT JUMPDEST PUSH4 0x4E487B71 PUSH1 0xE0 SHL DUP5 MSTORE PUSH1 0x21 PUSH1 0x4 MSTORE PUSH1 0x24 DUP5 REVERT JUMPDEST POP CALLVALUE PUSH2 0x142 JUMPI PUSH1 0x80 CALLDATASIZE PUSH1 0x3 NOT ADD SLT PUSH2 0x142 JUMPI PUSH1 0x2 PUSH1 0x4 CALLDATALOAD LT ISZERO PUSH2 0x142 JUMPI PUSH1 0x44 CALLDATALOAD PUSH8 0xFFFFFFFFFFFFFFFF DUP2 GT PUSH2 0xAE0 JUMPI PUSH2 0xC22 SWAP1 CALLDATASIZE SWAP1 PUSH1 0x4 ADD PUSH2 0x1669 JUMP JUMPDEST PUSH1 0x64 CALLDATALOAD PUSH8 0xFFFFFFFFFFFFFFFF DUP2 GT PUSH2 0xAD1 JUMPI PUSH2 0xC42 SWAP1 CALLDATASIZE SWAP1 PUSH1 0x4 ADD PUSH2 0x1669 JUMP JUMPDEST PUSH2 0xC4A PUSH2 0x18EB JUMP JUMPDEST PUSH2 0xC52 PUSH2 0x1932 JUMP JUMPDEST PUSH1 0x4 CALLDATALOAD ISZERO SWAP2 DUP3 ISZERO PUSH2 0x11DF JUMPI PUSH3 0xF4240 SWAP3 JUMPDEST ISZERO PUSH2 0x117E JUMPI PUSH1 0x2 SLOAD DUP5 SWAP1 PUSH1 0x1 PUSH1 0x1 PUSH1 0xA0 SHL SUB AND DUP1 EXTCODESIZE ISZERO PUSH2 0xAE0 JUMPI DUP2 DUP1 SWAP2 PUSH1 0x24 PUSH1 0x40 MLOAD DUP1 SWAP5 DUP2 SWAP4 PUSH4 0x14ED8535 PUSH1 0xE2 SHL DUP4 MSTORE CALLER PUSH1 0x4 DUP5 ADD MSTORE GAS CALL DUP1 ISZERO PUSH2 0xAD5 JUMPI PUSH2 0x1166 JUMPI JUMPDEST POP POP JUMPDEST PUSH1 0x5 SLOAD SWAP3 PUSH2 0xCB6 DUP5 PUSH2 0x1880 JUMP JUMPDEST PUSH1 0x5 SSTORE PUSH3 0x93A80 TIMESTAMP ADD TIMESTAMP GT PUSH2 0x1152 JUMPI PUSH1 0x40 MLOAD PUSH2 0xCD1 DUP2 PUSH2 0x162A JUMP JUMPDEST DUP5 DUP2 MSTORE CALLER PUSH1 0x20 DUP3 ADD MSTORE DUP6 PUSH1 0x40 DUP3 ADD MSTORE PUSH2 0xCEF PUSH1 0x4 CALLDATALOAD PUSH1 0x60 DUP4 ADD PUSH2 0x18A5 JUMP JUMPDEST DUP2 PUSH1 0x80 DUP3 ADD MSTORE PUSH1 0x24 CALLDATALOAD DUP1 PUSH1 0xA0 DUP4 ADD MSTORE DUP7 PUSH1 0xC0 DUP4 ADD MSTORE PUSH1 0xE0 DUP3 ADD MSTORE DUP3 PUSH2 0x100 DUP3 ADD MSTORE DUP4 PUSH2 0x120 DUP3 ADD MSTORE DUP6 PUSH2 0x140 DUP3 ADD MSTORE TIMESTAMP PUSH2 0x160 DUP3 ADD MSTORE PUSH3 0x93A80 TIMESTAMP ADD PUSH2 0x180 DUP3 ADD MSTORE DUP6 PUSH2 0x1A0 DUP3 ADD MSTORE DUP6 PUSH2 0x1C0 DUP3 ADD MSTORE DUP5 DUP7 MSTORE PUSH1 0x3 PUSH1 0x20 MSTORE PUSH1 0x40 DUP7 KECCAK256 DUP2 MLOAD DUP2 SSTORE PUSH1 0x1 DUP1 PUSH1 0xA0 SHL SUB PUSH1 0x20 DUP4 ADD MLOAD AND PUSH1 0x1 PUSH1 0x1 PUSH1 0x60 SHL SUB PUSH1 0xA0 SHL PUSH1 0x1 DUP4 ADD SLOAD AND OR PUSH1 0x1 DUP3 ADD SSTORE PUSH1 0x1 DUP1 PUSH1 0xA0 SHL SUB PUSH1 0x40 DUP4 ADD MLOAD AND PUSH1 0x2 DUP3 ADD SLOAD SWAP1 PUSH1 0x60 DUP5 ADD MLOAD PUSH1 0x2 DUP2 LT ISZERO PUSH2 0x113E JUMPI PUSH1 0x1 PUSH1 0x1 PUSH1 0xA8 SHL SUB NOT SWAP1 SWAP3 AND OR PUSH1 0xA0 SWAP2 DUP3 SHL PUSH1 0xFF PUSH1 0xA0 SHL AND OR PUSH1 0x2 DUP4 ADD SSTORE PUSH1 0x80 DUP4 ADD MLOAD PUSH1 0x3 DUP4 ADD SSTORE DUP3 ADD MLOAD PUSH1 0x4 DUP3 ADD SSTORE PUSH1 0xC0 DUP3 ADD MLOAD PUSH1 0x5 DUP3 ADD SSTORE PUSH1 0xE0 DUP3 ADD MLOAD PUSH1 0x6 DUP3 ADD SSTORE PUSH2 0x100 DUP3 ADD MLOAD DUP1 MLOAD SWAP1 PUSH8 0xFFFFFFFFFFFFFFFF DUP3 GT PUSH2 0x105F JUMPI DUP2 SWAP1 PUSH2 0xDFF PUSH1 0x7 DUP6 ADD SLOAD PUSH2 0x171A JUMP JUMPDEST PUSH1 0x1F DUP2 GT PUSH2 0x10ED JUMPI JUMPDEST POP PUSH1 0x20 SWAP1 PUSH1 0x1F DUP4 GT PUSH1 0x1 EQ PUSH2 0x107E JUMPI DUP11 SWAP3 PUSH2 0x1073 JUMPI JUMPDEST POP POP DUP2 PUSH1 0x1 SHL SWAP2 PUSH1 0x0 NOT SWAP1 PUSH1 0x3 SHL SHR NOT AND OR PUSH1 0x7 DUP3 ADD SSTORE JUMPDEST PUSH2 0x120 DUP3 ADD MLOAD DUP1 MLOAD SWAP1 PUSH8 0xFFFFFFFFFFFFFFFF DUP3 GT PUSH2 0x105F JUMPI DUP2 SWAP1 PUSH2 0xE5D PUSH1 0x8 DUP6 ADD SLOAD PUSH2 0x171A JUMP JUMPDEST PUSH1 0x1F DUP2 GT PUSH2 0x100E JUMPI JUMPDEST POP PUSH1 0x20 SWAP1 PUSH1 0x1F DUP4 GT PUSH1 0x1 EQ PUSH2 0xF9F JUMPI DUP11 SWAP3 PUSH2 0xF94 JUMPI JUMPDEST POP POP DUP2 PUSH1 0x1 SHL SWAP2 PUSH1 0x0 NOT SWAP1 PUSH1 0x3 SHL SHR NOT AND OR PUSH1 0x8 DUP3 ADD SSTORE JUMPDEST PUSH2 0x140 DUP3 ADD MLOAD PUSH1 0x4 DUP2 LT ISZERO PUSH2 0xF80 JUMPI DUP7 PUSH1 0x40 PUSH1 0x20 SWAP10 DUP3 SWAP8 SWAP6 PUSH1 0xD DUP7 PUSH2 0xF35 SWAP7 PUSH1 0x9 PUSH32 0x709B332686FA75D3EA81D4FA5FF198A83CA7ED5A55F126CD9F1C35DB0745ABA1 SWAP12 SWAP10 ADD SWAP1 PUSH1 0xFF DUP1 NOT DUP4 SLOAD AND SWAP2 AND OR SWAP1 SSTORE PUSH2 0x160 DUP4 ADD MLOAD PUSH1 0xA DUP3 ADD SSTORE PUSH2 0x180 DUP4 ADD MLOAD PUSH1 0xB DUP3 ADD SSTORE PUSH2 0x1A0 DUP4 ADD MLOAD PUSH1 0xC DUP3 ADD SSTORE ADD SWAP1 PUSH2 0x1C0 PUSH1 0x1 DUP1 PUSH1 0xA0 SHL SUB SWAP2 ADD MLOAD AND PUSH1 0x1 PUSH1 0x1 PUSH1 0x60 SHL SUB PUSH1 0xA0 SHL DUP3 SLOAD AND OR SWAP1 SSTORE CALLER DUP2 MSTORE PUSH1 0x4 DUP12 MSTORE KECCAK256 PUSH2 0x18B1 JUMP JUMPDEST PUSH2 0xF71 PUSH2 0xF62 PUSH1 0x40 MLOAD SWAP4 DUP5 SWAP4 PUSH2 0xF4D DUP6 PUSH1 0x4 CALLDATALOAD PUSH2 0x16C0 JUMP JUMPDEST DUP11 DUP6 ADD MSTORE PUSH1 0x80 PUSH1 0x40 DUP6 ADD MSTORE PUSH1 0x80 DUP5 ADD SWAP1 PUSH2 0x16CD JUMP JUMPDEST DUP3 DUP2 SUB PUSH1 0x60 DUP5 ADD MSTORE CALLER SWAP7 PUSH2 0x16CD JUMP JUMPDEST SUB SWAP1 LOG3 PUSH1 0x1 DUP1 SSTORE PUSH1 0x40 MLOAD SWAP1 DUP2 MSTORE RETURN JUMPDEST PUSH4 0x4E487B71 PUSH1 0xE0 SHL DUP9 MSTORE PUSH1 0x21 PUSH1 0x4 MSTORE PUSH1 0x24 DUP9 REVERT JUMPDEST ADD MLOAD SWAP1 POP CODESIZE DUP1 PUSH2 0xE7C JUMP JUMPDEST SWAP3 POP PUSH1 0x8 DUP5 ADD DUP11 MSTORE PUSH1 0x20 DUP11 KECCAK256 SWAP1 DUP11 SWAP4 JUMPDEST PUSH1 0x1F NOT DUP5 AND DUP6 LT PUSH2 0xFF3 JUMPI PUSH1 0x1 SWAP5 POP DUP4 PUSH1 0x1F NOT DUP2 AND LT PUSH2 0xFDA JUMPI JUMPDEST POP POP POP DUP2 SHL ADD PUSH1 0x8 DUP3 ADD SSTORE PUSH2 0xE94 JUMP JUMPDEST ADD MLOAD PUSH1 0x0 NOT PUSH1 0xF8 DUP5 PUSH1 0x3 SHL AND SHR NOT AND SWAP1 SSTORE CODESIZE DUP1 DUP1 PUSH2 0xFCA JUMP JUMPDEST DUP2 DUP2 ADD MLOAD DUP4 SSTORE PUSH1 0x20 SWAP5 DUP6 ADD SWAP5 PUSH1 0x1 SWAP1 SWAP4 ADD SWAP3 SWAP1 SWAP2 ADD SWAP1 PUSH2 0xFAF JUMP JUMPDEST SWAP1 SWAP2 POP PUSH1 0x8 DUP5 ADD DUP11 MSTORE PUSH1 0x20 DUP11 KECCAK256 PUSH1 0x1F DUP5 ADD PUSH1 0x5 SHR DUP2 ADD PUSH1 0x20 DUP6 LT PUSH2 0x1058 JUMPI JUMPDEST SWAP1 DUP5 SWAP4 SWAP3 SWAP2 JUMPDEST PUSH1 0x1F DUP4 ADD PUSH1 0x5 SHR DUP3 ADD DUP2 LT PUSH2 0x1049 JUMPI POP POP PUSH2 0xE66 JUMP JUMPDEST PUSH1 0x0 DUP2 SSTORE DUP6 SWAP5 POP PUSH1 0x1 ADD PUSH2 0x1033 JUMP JUMPDEST POP DUP1 PUSH2 0x102D JUMP JUMPDEST PUSH4 0x4E487B71 PUSH1 0xE0 SHL DUP10 MSTORE PUSH1 0x41 PUSH1 0x4 MSTORE PUSH1 0x24 DUP10 REVERT JUMPDEST ADD MLOAD SWAP1 POP CODESIZE DUP1 PUSH2 0xE1E JUMP JUMPDEST SWAP3 POP PUSH1 0x7 DUP5 ADD DUP11 MSTORE PUSH1 0x20 DUP11 KECCAK256 SWAP1 DUP11 SWAP4 JUMPDEST PUSH1 0x1F NOT DUP5 AND DUP6 LT PUSH2 0x10D2 JUMPI PUSH1 0x1 SWAP5 POP DUP4 PUSH1 0x1F NOT DUP2 AND LT PUSH2 0x10B9 JUMPI JUMPDEST POP POP POP DUP2 SHL ADD PUSH1 0x7 DUP3 ADD SSTORE PUSH2 0xE36 JUMP JUMPDEST ADD MLOAD PUSH1 0x0 NOT PUSH1 0xF8 DUP5 PUSH1 0x3 SHL AND SHR NOT AND SWAP1 SSTORE CODESIZE DUP1 DUP1 PUSH2 0x10A9 JUMP JUMPDEST DUP2 DUP2 ADD MLOAD DUP4 SSTORE PUSH1 0x20 SWAP5 DUP6 ADD SWAP5 PUSH1 0x1 SWAP1 SWAP4 ADD SWAP3 SWAP1 SWAP2 ADD SWAP1 PUSH2 0x108E JUMP JUMPDEST SWAP1 SWAP2 POP PUSH1 0x7 DUP5 ADD DUP11 MSTORE PUSH1 0x20 DUP11 KECCAK256 PUSH1 0x1F DUP5 ADD PUSH1 0x5 SHR DUP2 ADD PUSH1 0x20 DUP6 LT PUSH2 0x1137 JUMPI JUMPDEST SWAP1 DUP5 SWAP4 SWAP3 SWAP2 JUMPDEST PUSH1 0x1F DUP4 ADD PUSH1 0x5 SHR DUP3 ADD DUP2 LT PUSH2 0x1128 JUMPI POP POP PUSH2 0xE08 JUMP JUMPDEST PUSH1 0x0 DUP2 SSTORE DUP6 SWAP5 POP PUSH1 0x1 ADD PUSH2 0x1112 JUMP JUMPDEST POP DUP1 PUSH2 0x110C JUMP JUMPDEST PUSH4 0x4E487B71 PUSH1 0xE0 SHL DUP11 MSTORE PUSH1 0x21 PUSH1 0x4 MSTORE PUSH1 0x24 DUP11 REVERT JUMPDEST PUSH4 0x4E487B71 PUSH1 0xE0 SHL DUP6 MSTORE PUSH1 0x11 PUSH1 0x4 MSTORE PUSH1 0x24 DUP6 REVERT JUMPDEST PUSH2 0x116F SWAP1 PUSH2 0x1600 JUMP JUMPDEST PUSH2 0x117A JUMPI DUP4 CODESIZE PUSH2 0xCA6 JUMP JUMPDEST DUP4 DUP1 REVERT JUMPDEST PUSH1 0x2 SLOAD DUP5 SWAP1 PUSH1 0x1 PUSH1 0x1 PUSH1 0xA0 SHL SUB AND DUP1 EXTCODESIZE ISZERO PUSH2 0xAE0 JUMPI DUP2 SWAP1 PUSH1 0x24 PUSH1 0x40 MLOAD DUP1 SWAP5 DUP2 SWAP4 PUSH4 0x229C5DFF PUSH1 0xE0 SHL DUP4 MSTORE CALLER PUSH1 0x4 DUP5 ADD MSTORE GAS CALL DUP1 ISZERO PUSH2 0x11D4 JUMPI PUSH2 0x11C1 JUMPI JUMPDEST POP PUSH2 0xCA9 JUMP JUMPDEST PUSH2 0x11CD SWAP1 SWAP5 SWAP2 SWAP5 PUSH2 0x1600 JUMP JUMPDEST SWAP3 CODESIZE PUSH2 0x11BB JUMP JUMPDEST PUSH1 0x40 MLOAD RETURNDATASIZE DUP8 DUP3 RETURNDATACOPY RETURNDATASIZE SWAP1 REVERT JUMPDEST PUSH3 0x4C4B40 SWAP3 PUSH2 0xC63 JUMP JUMPDEST POP CALLVALUE PUSH2 0x142 JUMPI PUSH1 0x40 CALLDATASIZE PUSH1 0x3 NOT ADD SLT PUSH2 0x142 JUMPI PUSH1 0x4 CALLDATALOAD PUSH1 0x24 DUP1 CALLDATALOAD SWAP2 PUSH2 0x120B PUSH2 0x18EB JUMP JUMPDEST PUSH2 0x1213 PUSH2 0x1932 JUMP JUMPDEST DUP1 DUP5 MSTORE PUSH1 0x3 PUSH1 0x20 MSTORE PUSH1 0x40 DUP5 KECCAK256 PUSH1 0x9 DUP2 ADD SWAP4 DUP5 SLOAD SWAP5 PUSH1 0xFF DUP7 AND PUSH1 0x4 DUP2 LT ISZERO PUSH2 0x1420 JUMPI PUSH2 0x123E SWAP1 ISZERO PUSH2 0x1988 JUMP JUMPDEST PUSH1 0x2 DUP4 ADD SLOAD PUSH1 0x1 PUSH1 0x1 PUSH1 0xA0 SHL SUB SWAP2 SWAP1 DUP3 AND CALLER SUB PUSH2 0x13DC JUMPI PUSH2 0x1264 PUSH1 0xB DUP6 ADD SLOAD TIMESTAMP LT PUSH2 0x19CB JUMP JUMPDEST DUP3 PUSH1 0x5 DUP6 ADD SSTORE PUSH1 0x1 DUP1 SWAP8 PUSH1 0xFF NOT AND OR SWAP1 SSTORE TIMESTAMP PUSH1 0xC DUP5 ADD SSTORE PUSH1 0x4 DUP4 ADD SLOAD SWAP1 DUP2 DUP4 GT PUSH1 0x0 EQ PUSH2 0x132A JUMPI CALLER SWAP6 PUSH1 0x3 DUP6 ADD SLOAD SWAP1 DUP2 DUP10 SHL SWAP2 DUP1 DUP4 DIV PUSH1 0x2 EQ SWAP1 ISZERO OR ISZERO PUSH2 0x1318 JUMPI POP SWAP2 PUSH1 0x40 SWAP4 SWAP2 PUSH1 0xD PUSH1 0x64 PUSH2 0x12DA PUSH32 0x939953DC28F51D09C4CC5EAB0DF34092BA75F794E37CA4B7B2B55DFA4B2422CE SWAP9 SWAP7 PUSH2 0x1A0B JUMP JUMPDEST DIV SWAP5 JUMPDEST ADD SWAP8 AND SWAP7 DUP8 PUSH1 0x1 PUSH1 0x1 PUSH1 0x60 SHL SUB PUSH1 0xA0 SHL DUP3 SLOAD AND OR SWAP1 SSTORE CALLER DUP8 EQ PUSH1 0x0 EQ PUSH2 0x1310 JUMPI POP SWAP1 JUMPDEST DUP3 MLOAD SWAP2 DUP3 MSTORE PUSH1 0x20 DUP3 ADD MSTORE LOG3 DUP1 SSTORE DUP1 RETURN JUMPDEST SWAP1 POP SWAP1 PUSH2 0x1300 JUMP JUMPDEST PUSH4 0x4E487B71 PUSH1 0xE0 SHL DUP11 MSTORE PUSH1 0x11 PUSH1 0x4 MSTORE DUP10 REVERT JUMPDEST DUP2 DUP4 LT ISZERO PUSH2 0x138D JUMPI DUP1 DUP8 DUP6 ADD SLOAD AND SWAP6 PUSH1 0x3 DUP6 ADD SLOAD SWAP1 DUP2 DUP10 SHL SWAP2 DUP1 DUP4 DIV PUSH1 0x2 EQ SWAP1 ISZERO OR ISZERO PUSH2 0x1318 JUMPI POP SWAP2 PUSH1 0x40 SWAP4 SWAP2 PUSH1 0xD PUSH1 0x64 PUSH2 0x1386 PUSH32 0x939953DC28F51D09C4CC5EAB0DF34092BA75F794E37CA4B7B2B55DFA4B2422CE SWAP9 SWAP7 PUSH2 0x1A0B JUMP JUMPDEST DIV SWAP5 PUSH2 0x12DD JUMP JUMPDEST DUP8 SWAP6 PUSH1 0x3 DUP6 ADD SLOAD SWAP1 DUP2 DUP10 SHL SWAP2 DUP1 DUP4 DIV PUSH1 0x2 EQ SWAP1 ISZERO OR ISZERO PUSH2 0x1318 JUMPI POP SWAP2 PUSH1 0x40 SWAP4 SWAP2 PUSH1 0xD PUSH1 0x64 PUSH2 0x1386 PUSH32 0x939953DC28F51D09C4CC5EAB0DF34092BA75F794E37CA4B7B2B55DFA4B2422CE SWAP9 SWAP7 PUSH2 0x1A0B JUMP JUMPDEST PUSH1 0x40 MLOAD PUSH3 0x461BCD PUSH1 0xE5 SHL DUP2 MSTORE PUSH1 0x20 PUSH1 0x4 DUP3 ADD MSTORE PUSH1 0x1C DUP2 DUP9 ADD MSTORE PUSH32 0x4F6E6C79206368616C6C656E6765722063616E20636F6D706C65746500000000 PUSH1 0x44 DUP3 ADD MSTORE PUSH1 0x64 SWAP1 REVERT JUMPDEST PUSH4 0x4E487B71 PUSH1 0xE0 SHL DUP9 MSTORE PUSH1 0x21 PUSH1 0x4 MSTORE DUP6 DUP9 REVERT JUMPDEST POP CALLVALUE PUSH2 0x142 JUMPI PUSH1 0x20 DUP1 PUSH1 0x3 NOT CALLDATASIZE ADD SLT PUSH2 0xAE0 JUMPI PUSH1 0x1 PUSH1 0x1 PUSH1 0xA0 SHL SUB PUSH2 0x1456 PUSH2 0x15AA JUMP JUMPDEST AND DUP3 MSTORE PUSH1 0x4 DUP2 MSTORE PUSH1 0x40 DUP3 KECCAK256 SWAP2 PUSH1 0x40 MLOAD DUP1 SWAP3 DUP1 DUP6 SLOAD SWAP3 DUP4 DUP2 MSTORE ADD SWAP5 DUP4 MSTORE DUP1 DUP4 KECCAK256 SWAP3 SWAP1 JUMPDEST DUP3 DUP3 LT PUSH2 0x149B JUMPI PUSH2 0x6A9 DUP6 PUSH2 0x148F DUP2 DUP10 SUB DUP3 PUSH2 0x1647 JUMP JUMPDEST PUSH1 0x40 MLOAD SWAP2 DUP3 SWAP2 DUP3 PUSH2 0x15C5 JUMP JUMPDEST DUP4 SLOAD DUP7 MSTORE SWAP5 DUP6 ADD SWAP5 PUSH1 0x1 SWAP4 DUP5 ADD SWAP4 SWAP1 SWAP2 ADD SWAP1 PUSH2 0x1478 JUMP JUMPDEST POP CALLVALUE PUSH2 0x142 JUMPI PUSH1 0x20 CALLDATASIZE PUSH1 0x3 NOT ADD SLT PUSH2 0x142 JUMPI PUSH2 0x14CC PUSH2 0x15AA JUMP JUMPDEST PUSH2 0x14D4 PUSH2 0x1828 JUMP JUMPDEST PUSH1 0x1 DUP1 PUSH1 0xA0 SHL SUB AND PUSH1 0x1 PUSH1 0x1 PUSH1 0x60 SHL SUB PUSH1 0xA0 SHL PUSH1 0x2 SLOAD AND OR PUSH1 0x2 SSTORE DUP1 RETURN JUMPDEST POP CALLVALUE PUSH2 0x142 JUMPI PUSH1 0x20 CALLDATASIZE PUSH1 0x3 NOT ADD SLT PUSH2 0x142 JUMPI PUSH1 0x4 CALLDATALOAD DUP1 DUP3 MSTORE PUSH1 0x3 PUSH1 0x20 MSTORE PUSH1 0x40 DUP3 KECCAK256 PUSH1 0x9 DUP2 ADD SWAP1 DUP2 SLOAD SWAP1 PUSH1 0xFF DUP3 AND PUSH1 0x4 DUP2 LT ISZERO PUSH2 0x71C JUMPI SWAP1 PUSH2 0x1535 PUSH1 0xB SWAP3 ISZERO PUSH2 0x1988 JUMP JUMPDEST ADD SLOAD TIMESTAMP LT PUSH2 0x156D JUMPI PUSH1 0xFF NOT AND PUSH1 0x2 OR SWAP1 SSTORE PUSH32 0x5E804F6AB65F629E96873F89ACB6E5D1456139DC56369BCFC528171E348BAA42 DUP3 DUP1 LOG2 DUP1 RETURN JUMPDEST PUSH1 0x40 MLOAD PUSH3 0x461BCD PUSH1 0xE5 SHL DUP2 MSTORE PUSH1 0x20 PUSH1 0x4 DUP3 ADD MSTORE PUSH1 0x15 PUSH1 0x24 DUP3 ADD MSTORE PUSH21 0x10DA185B1B195B99D9481B9BDD08195E1C1A5C9959 PUSH1 0x5A SHL PUSH1 0x44 DUP3 ADD MSTORE PUSH1 0x64 SWAP1 REVERT JUMPDEST PUSH1 0x4 CALLDATALOAD SWAP1 PUSH1 0x1 PUSH1 0x1 PUSH1 0xA0 SHL SUB DUP3 AND DUP3 SUB PUSH2 0x15C0 JUMPI JUMP JUMPDEST PUSH1 0x0 DUP1 REVERT JUMPDEST PUSH1 0x20 SWAP1 DUP2 PUSH1 0x40 DUP2 DUP4 ADD SWAP3 DUP3 DUP2 MSTORE DUP6 MLOAD DUP1 SWAP5 MSTORE ADD SWAP4 ADD SWAP2 PUSH1 0x0 JUMPDEST DUP3 DUP2 LT PUSH2 0x15EC JUMPI POP POP POP POP SWAP1 JUMP JUMPDEST DUP4 MLOAD DUP6 MSTORE SWAP4 DUP2 ADD SWAP4 SWAP3 DUP2 ADD SWAP3 PUSH1 0x1 ADD PUSH2 0x15DE JUMP JUMPDEST PUSH8 0xFFFFFFFFFFFFFFFF DUP2 GT PUSH2 0x1614 JUMPI PUSH1 0x40 MSTORE JUMP JUMPDEST PUSH4 0x4E487B71 PUSH1 0xE0 SHL PUSH1 0x0 MSTORE PUSH1 0x41 PUSH1 0x4 MSTORE PUSH1 0x24 PUSH1 0x0 REVERT JUMPDEST PUSH2 0x1E0 DUP2 ADD SWAP1 DUP2 LT PUSH8 0xFFFFFFFFFFFFFFFF DUP3 GT OR PUSH2 0x1614 JUMPI PUSH1 0x40 MSTORE JUMP JUMPDEST SWAP1 PUSH1 0x1F DUP1 NOT SWAP2 ADD AND DUP2 ADD SWAP1 DUP2 LT PUSH8 0xFFFFFFFFFFFFFFFF DUP3 GT OR PUSH2 0x1614 JUMPI PUSH1 0x40 MSTORE JUMP JUMPDEST DUP2 PUSH1 0x1F DUP3 ADD SLT ISZERO PUSH2 0x15C0 JUMPI DUP1 CALLDATALOAD SWAP1 PUSH8 0xFFFFFFFFFFFFFFFF DUP3 GT PUSH2 0x1614 JUMPI PUSH1 0x40 MLOAD SWAP3 PUSH2 0x169E PUSH1 0x1F DUP5 ADD PUSH1 0x1F NOT AND PUSH1 0x20 ADD DUP6 PUSH2 0x1647 JUMP JUMPDEST DUP3 DUP5 MSTORE PUSH1 0x20 DUP4 DUP4 ADD ADD GT PUSH2 0x15C0 JUMPI DUP2 PUSH1 0x0 SWAP3 PUSH1 0x20 DUP1 SWAP4 ADD DUP4 DUP7 ADD CALLDATACOPY DUP4 ADD ADD MSTORE SWAP1 JUMP JUMPDEST SWAP1 PUSH1 0x2 DUP3 LT ISZERO PUSH2 0x987 JUMPI MSTORE JUMP JUMPDEST SWAP2 SWAP1 DUP3 MLOAD SWAP3 DUP4 DUP3 MSTORE PUSH1 0x0 JUMPDEST DUP5 DUP2 LT PUSH2 0x16F9 JUMPI POP POP DUP3 PUSH1 0x0 PUSH1 0x20 DUP1 SWAP5 SWAP6 DUP5 ADD ADD MSTORE PUSH1 0x1F DUP1 NOT SWAP2 ADD AND ADD ADD SWAP1 JUMP JUMPDEST PUSH1 0x20 DUP2 DUP4 ADD DUP2 ADD MLOAD DUP5 DUP4 ADD DUP3 ADD MSTORE ADD PUSH2 0x16D8 JUMP JUMPDEST SWAP1 PUSH1 0x4 DUP3 LT ISZERO PUSH2 0x987 JUMPI MSTORE JUMP JUMPDEST SWAP1 PUSH1 0x1 DUP3 DUP2 SHR SWAP3 AND DUP1 ISZERO PUSH2 0x174A JUMPI JUMPDEST PUSH1 0x20 DUP4 LT EQ PUSH2 0x1734 JUMPI JUMP JUMPDEST PUSH4 0x4E487B71 PUSH1 0xE0 SHL PUSH1 0x0 MSTORE PUSH1 0x22 PUSH1 0x4 MSTORE PUSH1 0x24 PUSH1 0x0 REVERT JUMPDEST SWAP2 PUSH1 0x7F AND SWAP2 PUSH2 0x1729 JUMP JUMPDEST SWAP1 PUSH1 0x40 MLOAD SWAP2 DUP3 PUSH1 0x0 DUP3 SLOAD SWAP3 PUSH2 0x1768 DUP5 PUSH2 0x171A JUMP JUMPDEST SWAP1 DUP2 DUP5 MSTORE PUSH1 0x1 SWAP5 DUP6 DUP2 AND SWAP1 DUP2 PUSH1 0x0 EQ PUSH2 0x17D7 JUMPI POP PUSH1 0x1 EQ PUSH2 0x1794 JUMPI JUMPDEST POP POP PUSH2 0x1792 SWAP3 POP SUB DUP4 PUSH2 0x1647 JUMP JUMPDEST JUMP JUMPDEST SWAP1 SWAP4 SWAP2 POP PUSH1 0x0 MSTORE PUSH1 0x20 SWAP1 DUP2 PUSH1 0x0 KECCAK256 SWAP4 PUSH1 0x0 SWAP2 JUMPDEST DUP2 DUP4 LT PUSH2 0x17BF JUMPI POP POP PUSH2 0x1792 SWAP4 POP DUP3 ADD ADD CODESIZE DUP1 PUSH2 0x1784 JUMP JUMPDEST DUP6 SLOAD DUP9 DUP5 ADD DUP6 ADD MSTORE SWAP5 DUP6 ADD SWAP5 DUP8 SWAP5 POP SWAP2 DUP4 ADD SWAP2 PUSH2 0x17A7 JUMP JUMPDEST SWAP2 POP POP PUSH2 0x1792 SWAP5 POP PUSH1 0x20 SWAP3 POP PUSH1 0xFF NOT AND DUP3 DUP5 ADD MSTORE ISZERO ISZERO PUSH1 0x5 SHL DUP3 ADD ADD CODESIZE DUP1 PUSH2 0x1784 JUMP JUMPDEST DUP1 SLOAD DUP3 LT ISZERO PUSH2 0x1812 JUMPI PUSH1 0x0 MSTORE PUSH1 0x20 PUSH1 0x0 KECCAK256 ADD SWAP1 PUSH1 0x0 SWAP1 JUMP JUMPDEST PUSH4 0x4E487B71 PUSH1 0xE0 SHL PUSH1 0x0 MSTORE PUSH1 0x32 PUSH1 0x4 MSTORE PUSH1 0x24 PUSH1 0x0 REVERT JUMPDEST PUSH1 0x0 SLOAD PUSH1 0x1 PUSH1 0x1 PUSH1 0xA0 SHL SUB AND CALLER SUB PUSH2 0x183C JUMPI JUMP JUMPDEST PUSH1 0x64 PUSH1 0x40 MLOAD PUSH3 0x461BCD PUSH1 0xE5 SHL DUP2 MSTORE PUSH1 0x20 PUSH1 0x4 DUP3 ADD MSTORE PUSH1 0x20 PUSH1 0x24 DUP3 ADD MSTORE PUSH32 0x4F776E61626C653A2063616C6C6572206973206E6F7420746865206F776E6572 PUSH1 0x44 DUP3 ADD MSTORE REVERT JUMPDEST PUSH1 0x0 NOT DUP2 EQ PUSH2 0x188F JUMPI PUSH1 0x1 ADD SWAP1 JUMP JUMPDEST PUSH4 0x4E487B71 PUSH1 0xE0 SHL PUSH1 0x0 MSTORE PUSH1 0x11 PUSH1 0x4 MSTORE PUSH1 0x24 PUSH1 0x0 REVERT JUMPDEST PUSH1 0x2 DUP3 LT ISZERO PUSH2 0x987 JUMPI MSTORE JUMP JUMPDEST DUP1 SLOAD PUSH9 0x10000000000000000 DUP2 LT ISZERO PUSH2 0x1614 JUMPI PUSH2 0x18D3 SWAP2 PUSH1 0x1 DUP3 ADD DUP2 SSTORE PUSH2 0x17FA JUMP JUMPDEST DUP2 SWAP3 SWAP2 SLOAD SWAP1 PUSH1 0x3 SHL SWAP2 DUP3 SHL SWAP2 PUSH1 0x0 NOT SWAP1 SHL NOT AND OR SWAP1 SSTORE JUMP JUMPDEST PUSH1 0xFF PUSH1 0x0 SLOAD PUSH1 0xA0 SHR AND PUSH2 0x18FA JUMPI JUMP JUMPDEST PUSH1 0x40 MLOAD PUSH3 0x461BCD PUSH1 0xE5 SHL DUP2 MSTORE PUSH1 0x20 PUSH1 0x4 DUP3 ADD MSTORE PUSH1 0x10 PUSH1 0x24 DUP3 ADD MSTORE PUSH16 0x14185D5CD8589B194E881C185D5CD959 PUSH1 0x82 SHL PUSH1 0x44 DUP3 ADD MSTORE PUSH1 0x64 SWAP1 REVERT JUMPDEST PUSH1 0x2 PUSH1 0x1 SLOAD EQ PUSH2 0x1943 JUMPI PUSH1 0x2 PUSH1 0x1 SSTORE JUMP JUMPDEST PUSH1 0x40 MLOAD PUSH3 0x461BCD PUSH1 0xE5 SHL DUP2 MSTORE PUSH1 0x20 PUSH1 0x4 DUP3 ADD MSTORE PUSH1 0x1F PUSH1 0x24 DUP3 ADD MSTORE PUSH32 0x5265656E7472616E637947756172643A207265656E7472616E742063616C6C00 PUSH1 0x44 DUP3 ADD MSTORE PUSH1 0x64 SWAP1 REVERT JUMPDEST ISZERO PUSH2 0x198F JUMPI JUMP JUMPDEST PUSH1 0x40 MLOAD PUSH3 0x461BCD PUSH1 0xE5 SHL DUP2 MSTORE PUSH1 0x20 PUSH1 0x4 DUP3 ADD MSTORE PUSH1 0x14 PUSH1 0x24 DUP3 ADD MSTORE PUSH20 0x4368616C6C656E6765206E6F7420616374697665 PUSH1 0x60 SHL PUSH1 0x44 DUP3 ADD MSTORE PUSH1 0x64 SWAP1 REVERT JUMPDEST ISZERO PUSH2 0x19D2 JUMPI JUMP JUMPDEST PUSH1 0x40 MLOAD PUSH3 0x461BCD PUSH1 0xE5 SHL DUP2 MSTORE PUSH1 0x20 PUSH1 0x4 DUP3 ADD MSTORE PUSH1 0x11 PUSH1 0x24 DUP3 ADD MSTORE PUSH17 0x10DA185B1B195B99D948195E1C1A5C9959 PUSH1 0x7A SHL PUSH1 0x44 DUP3 ADD MSTORE PUSH1 0x64 SWAP1 REVERT JUMPDEST SWAP1 PUSH1 0x5A DUP3 MUL SWAP2 DUP1 DUP4 DIV PUSH1 0x5A EQ SWAP1 ISZERO OR ISZERO PUSH2 0x188F JUMPI JUMP JUMPDEST PUSH8 0xFFFFFFFFFFFFFFFF DUP2 GT PUSH2 0x1614 JUMPI PUSH1 0x5 SHL PUSH1 0x20 ADD SWAP1 JUMP JUMPDEST SWAP1 PUSH2 0x1A43 DUP3 PUSH2 0x1A21 JUMP JUMPDEST PUSH2 0x1A50 PUSH1 0x40 MLOAD SWAP2 DUP3 PUSH2 0x1647 JUMP JUMPDEST DUP3 DUP2 MSTORE DUP1 SWAP3 PUSH2 0x1A61 PUSH1 0x1F NOT SWAP2 PUSH2 0x1A21 JUMP JUMPDEST ADD SWAP1 PUSH1 0x20 CALLDATASIZE SWAP2 ADD CALLDATACOPY JUMP JUMPDEST DUP1 MLOAD DUP3 LT ISZERO PUSH2 0x1812 JUMPI PUSH1 0x20 SWAP2 PUSH1 0x5 SHL ADD ADD SWAP1 JUMP INVALID LOG2 PUSH5 0x6970667358 0x22 SLT KECCAK256 SWAP3 0x25 0x1F 0xF9 0x26 0x2B 0xAB 0xD1 0xED DUP10 CREATE2 0x27 GT 0xF7 0xEE 0xD4 0xD7 0xC PUSH1 0xA6 ADDRESS LOG1 PUSH27 0xBDA2CCE797481337E364736F6C6343000813003300000000000000 "},"methodIdentifiers":{"CHALLENGE_EXPIRY_TIME()":"dbb5300d","HIGH_ROLLER_CHALLENGE_AMOUNT()":"96b2a315","PLATFORM_FEE_PERCENT()":"560d52d4","QUICK_CHALLENGE_AMOUNT()":"d421562f","acceptChallenge(uint256)":"1b0fc106","cancelExpiredChallenge(uint256)":"04e03164","challenges(uint256)":"8f1d3776","completeChallenge(uint256,uint256)":"13b7a45a","createChallenge(uint8,uint256,string,string)":"17e3c051","getActiveChallenges()":"1f47991e","getChallenge(uint256)":"1bdd4b74","getChallengePrize(uint256)":"78e72ef5","getUserChallenges(address)":"11da8e54","isChallengeExpired(uint256)":"a4a3c4ee","nextChallengeId()":"fc67aa50","owner()":"8da5cb5b","pause()":"8456cb59","paused()":"5c975abb","paymentProcessor()":"f1c6bdf8","renounceOwnership()":"715018a6","setPaymentProcessor(address)":"088b0d75","transferOwnership(address)":"f2fde38b","unpause()":"3f4ba83a","userChallenges(address,uint256)":"a5ff0a13"}}}}}