{"src/BlockzoneGame.sol":{"BlockzoneGame":{"abi":[{"inputs":[{"internalType":"address","name":"_quartersAddress","type":"address"},{"internalType":"address","name":"_dailyLeaderboardAddress","type":"address"},{"internalType":"address","name":"_challengeManagerAddress","type":"address"},{"internalType":"address","name":"_platformFeeWallet","type":"address"}],"stateMutability":"nonpayable","type":"constructor"},{"anonymous":false,"inputs":[{"indexed":true,"internalType":"address","name":"challenger","type":"address"},{"indexed":false,"internalType":"uint256","name":"challengeId","type":"uint256"}],"name":"ChallengeAccepted","type":"event"},{"anonymous":false,"inputs":[{"indexed":true,"internalType":"address","name":"creator","type":"address"},{"indexed":false,"internalType":"uint256","name":"challengeId","type":"uint256"}],"name":"ChallengeCreated","type":"event"},{"anonymous":false,"inputs":[{"indexed":true,"internalType":"address","name":"player","type":"address"},{"indexed":false,"internalType":"uint256","name":"score","type":"uint256"},{"indexed":false,"internalType":"string","name":"gameType","type":"string"}],"name":"GamePlayed","type":"event"},{"inputs":[{"internalType":"uint256","name":"challengeId","type":"uint256"}],"name":"acceptChallenge","outputs":[],"stateMutability":"nonpayable","type":"function"},{"inputs":[{"internalType":"address","name":"player","type":"address"}],"name":"canPlay","outputs":[{"internalType":"bool","name":"","type":"bool"}],"stateMutability":"view","type":"function"},{"inputs":[],"name":"challengeManager","outputs":[{"internalType":"contract ChallengeManager","name":"","type":"address"}],"stateMutability":"view","type":"function"},{"inputs":[{"internalType":"uint256","name":"challengeId","type":"uint256"},{"internalType":"uint256","name":"challengerScore","type":"uint256"}],"name":"completeChallenge","outputs":[],"stateMutability":"nonpayable","type":"function"},{"inputs":[{"internalType":"uint256","name":"creatorScore","type":"uint256"},{"internalType":"string","name":"gamePattern","type":"string"},{"internalType":"string","name":"message","type":"string"}],"name":"createHighRollerChallenge","outputs":[{"internalType":"uint256","name":"","type":"uint256"}],"stateMutability":"nonpayable","type":"function"},{"inputs":[{"internalType":"uint256","name":"creatorScore","type":"uint256"},{"internalType":"string","name":"gamePattern","type":"string"},{"internalType":"string","name":"message","type":"string"}],"name":"createQuickChallenge","outputs":[{"internalType":"uint256","name":"","type":"uint256"}],"stateMutability":"nonpayable","type":"function"},{"inputs":[],"name":"dailyLeaderboard","outputs":[{"internalType":"contract DailyLeaderboard","name":"","type":"address"}],"stateMutability":"view","type":"function"},{"inputs":[{"internalType":"uint256","name":"challengeId","type":"uint256"}],"name":"getChallenge","outputs":[{"components":[{"internalType":"uint256","name":"id","type":"uint256"},{"internalType":"address","name":"creator","type":"address"},{"internalType":"address","name":"challenger","type":"address"},{"internalType":"enum ChallengeManager.ChallengeType","name":"challengeType","type":"uint8"},{"internalType":"uint256","name":"entryFee","type":"uint256"},{"internalType":"uint256","name":"creatorScore","type":"uint256"},{"internalType":"uint256","name":"challengerScore","type":"uint256"},{"internalType":"uint256","name":"creatorScoreTarget","type":"uint256"},{"internalType":"string","name":"gamePattern","type":"string"},{"internalType":"string","name":"message","type":"string"},{"internalType":"enum ChallengeManager.ChallengeStatus","name":"status","type":"uint8"},{"internalType":"uint256","name":"createdAt","type":"uint256"},{"internalType":"uint256","name":"expiresAt","type":"uint256"},{"internalType":"uint256","name":"completedAt","type":"uint256"},{"internalType":"address","name":"winner","type":"address"}],"internalType":"struct ChallengeManager.Challenge","name":"","type":"tuple"}],"stateMutability":"view","type":"function"},{"inputs":[],"name":"getCurrentLeaderboard","outputs":[{"components":[{"internalType":"address","name":"player","type":"address"},{"internalType":"uint256","name":"score","type":"uint256"},{"internalType":"uint256","name":"timestamp","type":"uint256"},{"internalType":"string","name":"displayName","type":"string"}],"internalType":"struct DailyLeaderboard.LeaderboardEntry[]","name":"","type":"tuple[]"}],"stateMutability":"view","type":"function"},{"inputs":[],"name":"getPlatformFeeWallet","outputs":[{"internalType":"address","name":"","type":"address"}],"stateMutability":"view","type":"function"},{"inputs":[{"internalType":"address","name":"player","type":"address"}],"name":"getPlayerState","outputs":[{"components":[{"internalType":"uint256","name":"lastFreeGameDay","type":"uint256"},{"internalType":"uint256","name":"unlimitedPassExpiry","type":"uint256"},{"internalType":"uint256","name":"totalGamesPlayed","type":"uint256"},{"internalType":"uint256","name":"totalScore","type":"uint256"},{"internalType":"bool","name":"hasUnlimitedPass","type":"bool"}],"internalType":"struct DailyLeaderboard.PlayerState","name":"","type":"tuple"}],"stateMutability":"view","type":"function"},{"inputs":[],"name":"platformFeeWallet","outputs":[{"internalType":"address","name":"","type":"address"}],"stateMutability":"view","type":"function"},{"inputs":[],"name":"playFreeGame","outputs":[],"stateMutability":"nonpayable","type":"function"},{"inputs":[],"name":"purchaseIndividualGame","outputs":[],"stateMutability":"nonpayable","type":"function"},{"inputs":[],"name":"purchaseUnlimitedDailyPass","outputs":[],"stateMutability":"nonpayable","type":"function"},{"inputs":[],"name":"quarters","outputs":[{"internalType":"contract QUARTERSToken","name":"","type":"address"}],"stateMutability":"view","type":"function"},{"inputs":[{"internalType":"uint256","name":"score","type":"uint256"},{"internalType":"string","name":"displayName","type":"string"}],"name":"submitScore","outputs":[],"stateMutability":"nonpayable","type":"function"}],"evm":{"bytecode":{"linkReferences":{},"object":"6080346100b957601f61116338819003918201601f19168301916001600160401b038311848410176100be578084926080946040528339810103126100b957610047816100d4565b90610054602082016100d4565b61006c6060610065604085016100d4565b93016100d4565b9060018060a01b03928380928160018060a01b0319971687600054161760005516856001541617600155168360025416176002551690600354161760035560405161107a90816100e98239f35b600080fd5b634e487b7160e01b600052604160045260246000fd5b51906001600160a01b03821682036100b95756fe608080604052600436101561001357600080fd5b600090813560e01c908163023a96fe14610e38575080630569b3a114610d535780630823d5f314610cb657806313b7a45a14610c4e5780631b0fc10614610bb55780631bdd4b7414610877578063491db668146106475780634e04f6971461061e5780637dd912b714610228578063b978c97d14610539578063bc2256dc14610451578063be9864201461042a578063bfc2edfd1461038a578063c01ca43f14610251578063e20fc11814610228578063ed250f871461018d5763f1259329146100dc57600080fd5b3461017c578060031936011261017c5760015481906001600160a01b0316803b1561018a5781809160046040518094819363f125932960e01b83525af1801561017f57610168575b5060405181815260406020820152600f60408201526e696e646976696475616c5f67616d6560881b606082015260008051602061102583398151915260803392a280f35b61017190610e5d565b61017c578038610124565b80fd5b6040513d84823e3d90fd5b50fd5b503461017c578060031936011261017c5760015481906001600160a01b0316803b1561018a5781809160046040518094819363014f004960e01b83525af1801561017f57610214575b50604051818152604060208201526009604082015268667265655f67616d6560b81b606082015260008051602061102583398151915260803392a280f35b61021d90610e5d565b61017c5780386101d6565b503461017c578060031936011261017c576003546040516001600160a01b039091168152602090f35b503461017c57602080600319360112610386576004356001600160a01b03818116918290036103825760a09084608060405161028c81610e8e565b82815282878201528260408201528260608201520152600154169160246040518094819363c01ca43f60e01b835260048301525afa928315610376578093610304575b60a083608086604051928151845280820151908401526040810151604084015260608101516060840152015115156080820152f35b90925060a0833d821161036e575b8161031f60a09383610eaa565b8101031261017c5750608060a092610364826040519261033e84610e8e565b805184528581015186850152604081015160408501526060810151606085015201610fc1565b82820152926102cf565b3d9150610312565b604051903d90823e3d90fd5b8380fd5b5080fd5b503461017c578060031936011261017c5760015481906001600160a01b0316803b1561018a578180916004604051809481936398f79dcd60e01b83525af1801561017f57610416575b5060405181815260406020820152600e60408201526d756e6c696d697465645f7061737360901b606082015260008051602061102583398151915260803392a280f35b61041f90610e5d565b61017c5780386103d3565b503461017c578060031936011261017c57546040516001600160a01b039091168152602090f35b503461017c57604036600319011261017c576004358160243567ffffffffffffffff811161038657610487903690600401610ee8565b6001546001600160a01b0316803b15610535576104cc8392918392604051948580948193632f0895b760e21b83528a6004840152604060248401526044830190610f9c565b03925af1801561017f57610521575b505060405190815260406020820152601060408201526f39b1b7b932afb9bab136b4b9b9b4b7b760811b606082015260008051602061102583398151915260803392a280f35b61052a90610e5d565b6103865781386104db565b8280fd5b503461017c5761054836610f2f565b6002546040516317e3c05160e01b8152600160048201526024810194909452608060448501526001600160a01b0316939291829061058a906084830190610f9c565b946003198287030160648301528185816105a76020998a97610f9c565b03925af191821561037657916105ec575b506040518181527f9f85484cc8fb25030d222fdcd51eb22a0f9b61069192af1dbfb3ff32b78b6d67833392a2604051908152f35b90508181813d8311610617575b6106038183610eaa565b810103126106125751386105b8565b600080fd5b503d6105f9565b503461017c578060031936011261017c576001546040516001600160a01b039091168152602090f35b503461017c578060031936011261017c5760018054604051630923b6cd60e31b815291926001600160a01b03929181908390600490829087165afa91821561086a57819261071d575b50604093919351926020808501918186528651809352604086018260408560051b890101980194915b8483106106c65787890388f35b909192939495848061070b839b603f198c82030187528a5186815116825283810151848301526040810151604083015260608091015191608080928201520190610f9c565b9a9801969594919091019201906106b9565b9091503d8083833e61072f8183610eaa565b810190602090818184031261038257805167ffffffffffffffff9182821161086657019083601f830112156108625781519381851161084e578460051b916040519561077d86850188610eaa565b865284808701938501019382851161084a57858101935b8585106107a957505050505050509038610690565b8451838111610846578201608080601f19838803011261084257604051918183018381108782111761082c576040526107e38a8201610fce565b835260408101518a840152606091828201516040850152810151908682116108285791610819888c809795948197950101610fe2565b90820152815201940193610794565b8c80fd5b634e487b7160e01b600052604160045260246000fd5b8a80fd5b8980fd5b8780fd5b634e487b7160e01b86526041600452602486fd5b8480fd5b8580fd5b50604051903d90823e3d90fd5b503461017c57602036600319011261017c57806101c060405161089981610e71565b8281528260208201528260408201528260608201528260808201528260a08201528260c08201528260e082015260606101008201526060610120820152826101408201528261016082015282610180820152826101a0820152015260248160018060a01b0360025416604051928380926306f752dd60e21b825260043560048301525afa90811561017f578291610a52575b5060405190602082528051602083015260018060a01b03602082015116604083015260018060a01b03604082015116606083015260608101516002811015610a3c576080830152608081015160a083015260a081015160c083015260c081015160e083015260e08101516101008301526101008101516109d56109bd6101e09283610120870152610200860190610f9c565b610120840151858203601f1901610140870152610f9c565b916101408101516004811015610a28578495506101608501526101608101516101808501526101808101516101a08501526101a08101516101c08501526101c060018060a01b0391015116908301520390f35b634e487b7160e01b86526021600452602486fd5b634e487b7160e01b600052602160045260246000fd5b3d91508183823e610a638282610eaa565b602081838101031261053557805167ffffffffffffffff8111610382576101e081830184840103126103825760405192610a9c84610e71565b82820180518552610aaf90602001610fce565b6020850152610ac2604083850101610fce565b60408501526060828401015160028110156108665760608501528282016080818101519086015260a0808201519086015260c0808201519086015260e08082015190860152610100015167ffffffffffffffff811161086657610b2c908285019084860101610fe2565b610100850152610120828401015167ffffffffffffffff811161086657610b599184019083850101610fe2565b61012084015261014081830101519060048210156108625761014084019190915201610160818101519083015261018080820151908301526101a08082015190830152610ba9906101c001610fce565b6101c08201523861092b565b503461017c57602036600319011261017c576002546004359082906001600160a01b0316803b1561038657818091602460405180948193630d87e08360e11b83528860048401525af1801561017f57610c3a575b50506040519081527f198848172490c9cede6f00b7d3d59d018f0bc4715a37f81b8ce39cc7807369ad60203392a280f35b610c4390610e5d565b610386578138610c09565b503461017c57604036600319011261017c5760025481906001600160a01b0316803b1561018a5781906044604051809481936309dbd22d60e11b8352600435600484015260243560248401525af1801561017f57610caa575080f35b610cb390610e5d565b80f35b503461017c576020908160031936011261017c576004356001600160a01b03818116918290036105355783906001541691602460405180948193630823d5f360e01b835260048301525afa918215610376578092610d1b575b50506040519015158152f35b9091508282813d8311610d4c575b610d338183610eaa565b8101031261017c5750610d4590610fc1565b3880610d0f565b503d610d29565b503461017c57610d6236610f2f565b6002546040516317e3c05160e01b8152600481018690526024810194909452608060448501526001600160a01b03169392918290610da4906084830190610f9c565b94600319828703016064830152818581610dc16020998a97610f9c565b03925af1918215610376578092610e08575b50506040518181527f9f85484cc8fb25030d222fdcd51eb22a0f9b61069192af1dbfb3ff32b78b6d67833392a2604051908152f35b9091508282813d8311610e31575b610e208183610eaa565b8101031261017c5750513880610dd3565b503d610e16565b9050346103865781600319360112610386576002546001600160a01b03168152602090f35b67ffffffffffffffff811161082c57604052565b6101e0810190811067ffffffffffffffff82111761082c57604052565b60a0810190811067ffffffffffffffff82111761082c57604052565b90601f8019910116810190811067ffffffffffffffff82111761082c57604052565b67ffffffffffffffff811161082c57601f01601f191660200190565b81601f8201121561061257803590610eff82610ecc565b92610f0d6040519485610eaa565b8284526020838301011161061257816000926020809301838601378301015290565b6060600319820112610612576004359167ffffffffffffffff6024358181116106125783610f5f91600401610ee8565b9260443591821161061257610f7691600401610ee8565b90565b60005b838110610f8c5750506000910152565b8181015183820152602001610f7c565b90602091610fb581518092818552858086019101610f79565b601f01601f1916010190565b5190811515820361061257565b51906001600160a01b038216820361061257565b81601f82011215610612578051610ff881610ecc565b926110066040519485610eaa565b8184526020828401011161061257610f769160208085019101610f7956fe570ca89d15dea96a90cc65e78214b4f234f53b0c882b5b39aa0fb846f29881fea2646970667358221220f6d2f9dc785b6dd833ec36dd16444fce3b0e504f8239d3952944420f65857a1d64736f6c63430008130033","opcodes":"PUSH1 0x80 CALLVALUE PUSH2 0xB9 JUMPI PUSH1 0x1F PUSH2 0x1163 CODESIZE DUP2 SWAP1 SUB SWAP2 DUP3 ADD PUSH1 0x1F NOT AND DUP4 ADD SWAP2 PUSH1 0x1 PUSH1 0x1 PUSH1 0x40 SHL SUB DUP4 GT DUP5 DUP5 LT OR PUSH2 0xBE JUMPI DUP1 DUP5 SWAP3 PUSH1 0x80 SWAP5 PUSH1 0x40 MSTORE DUP4 CODECOPY DUP2 ADD SUB SLT PUSH2 0xB9 JUMPI PUSH2 0x47 DUP2 PUSH2 0xD4 JUMP JUMPDEST SWAP1 PUSH2 0x54 PUSH1 0x20 DUP3 ADD PUSH2 0xD4 JUMP JUMPDEST PUSH2 0x6C PUSH1 0x60 PUSH2 0x65 PUSH1 0x40 DUP6 ADD PUSH2 0xD4 JUMP JUMPDEST SWAP4 ADD PUSH2 0xD4 JUMP JUMPDEST SWAP1 PUSH1 0x1 DUP1 PUSH1 0xA0 SHL SUB SWAP3 DUP4 DUP1 SWAP3 DUP2 PUSH1 0x1 DUP1 PUSH1 0xA0 SHL SUB NOT SWAP8 AND DUP8 PUSH1 0x0 SLOAD AND OR PUSH1 0x0 SSTORE AND DUP6 PUSH1 0x1 SLOAD AND OR PUSH1 0x1 SSTORE AND DUP4 PUSH1 0x2 SLOAD AND OR PUSH1 0x2 SSTORE AND SWAP1 PUSH1 0x3 SLOAD AND OR PUSH1 0x3 SSTORE PUSH1 0x40 MLOAD PUSH2 0x107A SWAP1 DUP2 PUSH2 0xE9 DUP3 CODECOPY RETURN JUMPDEST PUSH1 0x0 DUP1 REVERT JUMPDEST PUSH4 0x4E487B71 PUSH1 0xE0 SHL PUSH1 0x0 MSTORE PUSH1 0x41 PUSH1 0x4 MSTORE PUSH1 0x24 PUSH1 0x0 REVERT JUMPDEST MLOAD SWAP1 PUSH1 0x1 PUSH1 0x1 PUSH1 0xA0 SHL SUB DUP3 AND DUP3 SUB PUSH2 0xB9 JUMPI JUMP INVALID PUSH1 0x80 DUP1 PUSH1 0x40 MSTORE PUSH1 0x4 CALLDATASIZE LT ISZERO PUSH2 0x13 JUMPI PUSH1 0x0 DUP1 REVERT JUMPDEST PUSH1 0x0 SWAP1 DUP2 CALLDATALOAD PUSH1 0xE0 SHR SWAP1 DUP2 PUSH4 0x23A96FE EQ PUSH2 0xE38 JUMPI POP DUP1 PUSH4 0x569B3A1 EQ PUSH2 0xD53 JUMPI DUP1 PUSH4 0x823D5F3 EQ PUSH2 0xCB6 JUMPI DUP1 PUSH4 0x13B7A45A EQ PUSH2 0xC4E JUMPI DUP1 PUSH4 0x1B0FC106 EQ PUSH2 0xBB5 JUMPI DUP1 PUSH4 0x1BDD4B74 EQ PUSH2 0x877 JUMPI DUP1 PUSH4 0x491DB668 EQ PUSH2 0x647 JUMPI DUP1 PUSH4 0x4E04F697 EQ PUSH2 0x61E JUMPI DUP1 PUSH4 0x7DD912B7 EQ PUSH2 0x228 JUMPI DUP1 PUSH4 0xB978C97D EQ PUSH2 0x539 JUMPI DUP1 PUSH4 0xBC2256DC EQ PUSH2 0x451 JUMPI DUP1 PUSH4 0xBE986420 EQ PUSH2 0x42A JUMPI DUP1 PUSH4 0xBFC2EDFD EQ PUSH2 0x38A JUMPI DUP1 PUSH4 0xC01CA43F EQ PUSH2 0x251 JUMPI DUP1 PUSH4 0xE20FC118 EQ PUSH2 0x228 JUMPI DUP1 PUSH4 0xED250F87 EQ PUSH2 0x18D JUMPI PUSH4 0xF1259329 EQ PUSH2 0xDC JUMPI PUSH1 0x0 DUP1 REVERT JUMPDEST CALLVALUE PUSH2 0x17C JUMPI DUP1 PUSH1 0x3 NOT CALLDATASIZE ADD SLT PUSH2 0x17C JUMPI PUSH1 0x1 SLOAD DUP2 SWAP1 PUSH1 0x1 PUSH1 0x1 PUSH1 0xA0 SHL SUB AND DUP1 EXTCODESIZE ISZERO PUSH2 0x18A JUMPI DUP2 DUP1 SWAP2 PUSH1 0x4 PUSH1 0x40 MLOAD DUP1 SWAP5 DUP2 SWAP4 PUSH4 0xF1259329 PUSH1 0xE0 SHL DUP4 MSTORE GAS CALL DUP1 ISZERO PUSH2 0x17F JUMPI PUSH2 0x168 JUMPI JUMPDEST POP PUSH1 0x40 MLOAD DUP2 DUP2 MSTORE PUSH1 0x40 PUSH1 0x20 DUP3 ADD MSTORE PUSH1 0xF PUSH1 0x40 DUP3 ADD MSTORE PUSH15 0x696E646976696475616C5F67616D65 PUSH1 0x88 SHL PUSH1 0x60 DUP3 ADD MSTORE PUSH1 0x0 DUP1 MLOAD PUSH1 0x20 PUSH2 0x1025 DUP4 CODECOPY DUP2 MLOAD SWAP2 MSTORE PUSH1 0x80 CALLER SWAP3 LOG2 DUP1 RETURN JUMPDEST PUSH2 0x171 SWAP1 PUSH2 0xE5D JUMP JUMPDEST PUSH2 0x17C JUMPI DUP1 CODESIZE PUSH2 0x124 JUMP JUMPDEST DUP1 REVERT JUMPDEST PUSH1 0x40 MLOAD RETURNDATASIZE DUP5 DUP3 RETURNDATACOPY RETURNDATASIZE SWAP1 REVERT JUMPDEST POP REVERT JUMPDEST POP CALLVALUE PUSH2 0x17C JUMPI DUP1 PUSH1 0x3 NOT CALLDATASIZE ADD SLT PUSH2 0x17C JUMPI PUSH1 0x1 SLOAD DUP2 SWAP1 PUSH1 0x1 PUSH1 0x1 PUSH1 0xA0 SHL SUB AND DUP1 EXTCODESIZE ISZERO PUSH2 0x18A JUMPI DUP2 DUP1 SWAP2 PUSH1 0x4 PUSH1 0x40 MLOAD DUP1 SWAP5 DUP2 SWAP4 PUSH4 0x14F0049 PUSH1 0xE0 SHL DUP4 MSTORE GAS CALL DUP1 ISZERO PUSH2 0x17F JUMPI PUSH2 0x214 JUMPI JUMPDEST POP PUSH1 0x40 MLOAD DUP2 DUP2 MSTORE PUSH1 0x40 PUSH1 0x20 DUP3 ADD MSTORE PUSH1 0x9 PUSH1 0x40 DUP3 ADD MSTORE PUSH9 0x667265655F67616D65 PUSH1 0xB8 SHL PUSH1 0x60 DUP3 ADD MSTORE PUSH1 0x0 DUP1 MLOAD PUSH1 0x20 PUSH2 0x1025 DUP4 CODECOPY DUP2 MLOAD SWAP2 MSTORE PUSH1 0x80 CALLER SWAP3 LOG2 DUP1 RETURN JUMPDEST PUSH2 0x21D SWAP1 PUSH2 0xE5D JUMP JUMPDEST PUSH2 0x17C JUMPI DUP1 CODESIZE PUSH2 0x1D6 JUMP JUMPDEST POP CALLVALUE PUSH2 0x17C JUMPI DUP1 PUSH1 0x3 NOT CALLDATASIZE ADD SLT PUSH2 0x17C JUMPI PUSH1 0x3 SLOAD PUSH1 0x40 MLOAD PUSH1 0x1 PUSH1 0x1 PUSH1 0xA0 SHL SUB SWAP1 SWAP2 AND DUP2 MSTORE PUSH1 0x20 SWAP1 RETURN JUMPDEST POP CALLVALUE PUSH2 0x17C JUMPI PUSH1 0x20 DUP1 PUSH1 0x3 NOT CALLDATASIZE ADD SLT PUSH2 0x386 JUMPI PUSH1 0x4 CALLDATALOAD PUSH1 0x1 PUSH1 0x1 PUSH1 0xA0 SHL SUB DUP2 DUP2 AND SWAP2 DUP3 SWAP1 SUB PUSH2 0x382 JUMPI PUSH1 0xA0 SWAP1 DUP5 PUSH1 0x80 PUSH1 0x40 MLOAD PUSH2 0x28C DUP2 PUSH2 0xE8E JUMP JUMPDEST DUP3 DUP2 MSTORE DUP3 DUP8 DUP3 ADD MSTORE DUP3 PUSH1 0x40 DUP3 ADD MSTORE DUP3 PUSH1 0x60 DUP3 ADD MSTORE ADD MSTORE PUSH1 0x1 SLOAD AND SWAP2 PUSH1 0x24 PUSH1 0x40 MLOAD DUP1 SWAP5 DUP2 SWAP4 PUSH4 0xC01CA43F PUSH1 0xE0 SHL DUP4 MSTORE PUSH1 0x4 DUP4 ADD MSTORE GAS STATICCALL SWAP3 DUP4 ISZERO PUSH2 0x376 JUMPI DUP1 SWAP4 PUSH2 0x304 JUMPI JUMPDEST PUSH1 0xA0 DUP4 PUSH1 0x80 DUP7 PUSH1 0x40 MLOAD SWAP3 DUP2 MLOAD DUP5 MSTORE DUP1 DUP3 ADD MLOAD SWAP1 DUP5 ADD MSTORE PUSH1 0x40 DUP2 ADD MLOAD PUSH1 0x40 DUP5 ADD MSTORE PUSH1 0x60 DUP2 ADD MLOAD PUSH1 0x60 DUP5 ADD MSTORE ADD MLOAD ISZERO ISZERO PUSH1 0x80 DUP3 ADD MSTORE RETURN JUMPDEST SWAP1 SWAP3 POP PUSH1 0xA0 DUP4 RETURNDATASIZE DUP3 GT PUSH2 0x36E JUMPI JUMPDEST DUP2 PUSH2 0x31F PUSH1 0xA0 SWAP4 DUP4 PUSH2 0xEAA JUMP JUMPDEST DUP2 ADD SUB SLT PUSH2 0x17C JUMPI POP PUSH1 0x80 PUSH1 0xA0 SWAP3 PUSH2 0x364 DUP3 PUSH1 0x40 MLOAD SWAP3 PUSH2 0x33E DUP5 PUSH2 0xE8E JUMP JUMPDEST DUP1 MLOAD DUP5 MSTORE DUP6 DUP2 ADD MLOAD DUP7 DUP6 ADD MSTORE PUSH1 0x40 DUP2 ADD MLOAD PUSH1 0x40 DUP6 ADD MSTORE PUSH1 0x60 DUP2 ADD MLOAD PUSH1 0x60 DUP6 ADD MSTORE ADD PUSH2 0xFC1 JUMP JUMPDEST DUP3 DUP3 ADD MSTORE SWAP3 PUSH2 0x2CF JUMP JUMPDEST RETURNDATASIZE SWAP2 POP PUSH2 0x312 JUMP JUMPDEST PUSH1 0x40 MLOAD SWAP1 RETURNDATASIZE SWAP1 DUP3 RETURNDATACOPY RETURNDATASIZE SWAP1 REVERT JUMPDEST DUP4 DUP1 REVERT JUMPDEST POP DUP1 REVERT JUMPDEST POP CALLVALUE PUSH2 0x17C JUMPI DUP1 PUSH1 0x3 NOT CALLDATASIZE ADD SLT PUSH2 0x17C JUMPI PUSH1 0x1 SLOAD DUP2 SWAP1 PUSH1 0x1 PUSH1 0x1 PUSH1 0xA0 SHL SUB AND DUP1 EXTCODESIZE ISZERO PUSH2 0x18A JUMPI DUP2 DUP1 SWAP2 PUSH1 0x4 PUSH1 0x40 MLOAD DUP1 SWAP5 DUP2 SWAP4 PUSH4 0x98F79DCD PUSH1 0xE0 SHL DUP4 MSTORE GAS CALL DUP1 ISZERO PUSH2 0x17F JUMPI PUSH2 0x416 JUMPI JUMPDEST POP PUSH1 0x40 MLOAD DUP2 DUP2 MSTORE PUSH1 0x40 PUSH1 0x20 DUP3 ADD MSTORE PUSH1 0xE PUSH1 0x40 DUP3 ADD MSTORE PUSH14 0x756E6C696D697465645F70617373 PUSH1 0x90 SHL PUSH1 0x60 DUP3 ADD MSTORE PUSH1 0x0 DUP1 MLOAD PUSH1 0x20 PUSH2 0x1025 DUP4 CODECOPY DUP2 MLOAD SWAP2 MSTORE PUSH1 0x80 CALLER SWAP3 LOG2 DUP1 RETURN JUMPDEST PUSH2 0x41F SWAP1 PUSH2 0xE5D JUMP JUMPDEST PUSH2 0x17C JUMPI DUP1 CODESIZE PUSH2 0x3D3 JUMP JUMPDEST POP CALLVALUE PUSH2 0x17C JUMPI DUP1 PUSH1 0x3 NOT CALLDATASIZE ADD SLT PUSH2 0x17C JUMPI SLOAD PUSH1 0x40 MLOAD PUSH1 0x1 PUSH1 0x1 PUSH1 0xA0 SHL SUB SWAP1 SWAP2 AND DUP2 MSTORE PUSH1 0x20 SWAP1 RETURN JUMPDEST POP CALLVALUE PUSH2 0x17C JUMPI PUSH1 0x40 CALLDATASIZE PUSH1 0x3 NOT ADD SLT PUSH2 0x17C JUMPI PUSH1 0x4 CALLDATALOAD DUP2 PUSH1 0x24 CALLDATALOAD PUSH8 0xFFFFFFFFFFFFFFFF DUP2 GT PUSH2 0x386 JUMPI PUSH2 0x487 SWAP1 CALLDATASIZE SWAP1 PUSH1 0x4 ADD PUSH2 0xEE8 JUMP JUMPDEST PUSH1 0x1 SLOAD PUSH1 0x1 PUSH1 0x1 PUSH1 0xA0 SHL SUB AND DUP1 EXTCODESIZE ISZERO PUSH2 0x535 JUMPI PUSH2 0x4CC DUP4 SWAP3 SWAP2 DUP4 SWAP3 PUSH1 0x40 MLOAD SWAP5 DUP6 DUP1 SWAP5 DUP2 SWAP4 PUSH4 0x2F0895B7 PUSH1 0xE2 SHL DUP4 MSTORE DUP11 PUSH1 0x4 DUP5 ADD MSTORE PUSH1 0x40 PUSH1 0x24 DUP5 ADD MSTORE PUSH1 0x44 DUP4 ADD SWAP1 PUSH2 0xF9C JUMP JUMPDEST SUB SWAP3 GAS CALL DUP1 ISZERO PUSH2 0x17F JUMPI PUSH2 0x521 JUMPI JUMPDEST POP POP PUSH1 0x40 MLOAD SWAP1 DUP2 MSTORE PUSH1 0x40 PUSH1 0x20 DUP3 ADD MSTORE PUSH1 0x10 PUSH1 0x40 DUP3 ADD MSTORE PUSH16 0x39B1B7B932AFB9BAB136B4B9B9B4B7B7 PUSH1 0x81 SHL PUSH1 0x60 DUP3 ADD MSTORE PUSH1 0x0 DUP1 MLOAD PUSH1 0x20 PUSH2 0x1025 DUP4 CODECOPY DUP2 MLOAD SWAP2 MSTORE PUSH1 0x80 CALLER SWAP3 LOG2 DUP1 RETURN JUMPDEST PUSH2 0x52A SWAP1 PUSH2 0xE5D JUMP JUMPDEST PUSH2 0x386 JUMPI DUP2 CODESIZE PUSH2 0x4DB JUMP JUMPDEST DUP3 DUP1 REVERT JUMPDEST POP CALLVALUE PUSH2 0x17C JUMPI PUSH2 0x548 CALLDATASIZE PUSH2 0xF2F JUMP JUMPDEST PUSH1 0x2 SLOAD PUSH1 0x40 MLOAD PUSH4 0x17E3C051 PUSH1 0xE0 SHL DUP2 MSTORE PUSH1 0x1 PUSH1 0x4 DUP3 ADD MSTORE PUSH1 0x24 DUP2 ADD SWAP5 SWAP1 SWAP5 MSTORE PUSH1 0x80 PUSH1 0x44 DUP6 ADD MSTORE PUSH1 0x1 PUSH1 0x1 PUSH1 0xA0 SHL SUB AND SWAP4 SWAP3 SWAP2 DUP3 SWAP1 PUSH2 0x58A SWAP1 PUSH1 0x84 DUP4 ADD SWAP1 PUSH2 0xF9C JUMP JUMPDEST SWAP5 PUSH1 0x3 NOT DUP3 DUP8 SUB ADD PUSH1 0x64 DUP4 ADD MSTORE DUP2 DUP6 DUP2 PUSH2 0x5A7 PUSH1 0x20 SWAP10 DUP11 SWAP8 PUSH2 0xF9C JUMP JUMPDEST SUB SWAP3 GAS CALL SWAP2 DUP3 ISZERO PUSH2 0x376 JUMPI SWAP2 PUSH2 0x5EC JUMPI JUMPDEST POP PUSH1 0x40 MLOAD DUP2 DUP2 MSTORE PUSH32 0x9F85484CC8FB25030D222FDCD51EB22A0F9B61069192AF1DBFB3FF32B78B6D67 DUP4 CALLER SWAP3 LOG2 PUSH1 0x40 MLOAD SWAP1 DUP2 MSTORE RETURN JUMPDEST SWAP1 POP DUP2 DUP2 DUP2 RETURNDATASIZE DUP4 GT PUSH2 0x617 JUMPI JUMPDEST PUSH2 0x603 DUP2 DUP4 PUSH2 0xEAA JUMP JUMPDEST DUP2 ADD SUB SLT PUSH2 0x612 JUMPI MLOAD CODESIZE PUSH2 0x5B8 JUMP JUMPDEST PUSH1 0x0 DUP1 REVERT JUMPDEST POP RETURNDATASIZE PUSH2 0x5F9 JUMP JUMPDEST POP CALLVALUE PUSH2 0x17C JUMPI DUP1 PUSH1 0x3 NOT CALLDATASIZE ADD SLT PUSH2 0x17C JUMPI PUSH1 0x1 SLOAD PUSH1 0x40 MLOAD PUSH1 0x1 PUSH1 0x1 PUSH1 0xA0 SHL SUB SWAP1 SWAP2 AND DUP2 MSTORE PUSH1 0x20 SWAP1 RETURN JUMPDEST POP CALLVALUE PUSH2 0x17C JUMPI DUP1 PUSH1 0x3 NOT CALLDATASIZE ADD SLT PUSH2 0x17C JUMPI PUSH1 0x1 DUP1 SLOAD PUSH1 0x40 MLOAD PUSH4 0x923B6CD PUSH1 0xE3 SHL DUP2 MSTORE SWAP2 SWAP3 PUSH1 0x1 PUSH1 0x1 PUSH1 0xA0 SHL SUB SWAP3 SWAP2 DUP2 SWAP1 DUP4 SWAP1 PUSH1 0x4 SWAP1 DUP3 SWAP1 DUP8 AND GAS STATICCALL SWAP2 DUP3 ISZERO PUSH2 0x86A JUMPI DUP2 SWAP3 PUSH2 0x71D JUMPI JUMPDEST POP PUSH1 0x40 SWAP4 SWAP2 SWAP4 MLOAD SWAP3 PUSH1 0x20 DUP1 DUP6 ADD SWAP2 DUP2 DUP7 MSTORE DUP7 MLOAD DUP1 SWAP4 MSTORE PUSH1 0x40 DUP7 ADD DUP3 PUSH1 0x40 DUP6 PUSH1 0x5 SHL DUP10 ADD ADD SWAP9 ADD SWAP5 SWAP2 JUMPDEST DUP5 DUP4 LT PUSH2 0x6C6 JUMPI DUP8 DUP10 SUB DUP9 RETURN JUMPDEST SWAP1 SWAP2 SWAP3 SWAP4 SWAP5 SWAP6 DUP5 DUP1 PUSH2 0x70B DUP4 SWAP12 PUSH1 0x3F NOT DUP13 DUP3 SUB ADD DUP8 MSTORE DUP11 MLOAD DUP7 DUP2 MLOAD AND DUP3 MSTORE DUP4 DUP2 ADD MLOAD DUP5 DUP4 ADD MSTORE PUSH1 0x40 DUP2 ADD MLOAD PUSH1 0x40 DUP4 ADD MSTORE PUSH1 0x60 DUP1 SWAP2 ADD MLOAD SWAP2 PUSH1 0x80 DUP1 SWAP3 DUP3 ADD MSTORE ADD SWAP1 PUSH2 0xF9C JUMP JUMPDEST SWAP11 SWAP9 ADD SWAP7 SWAP6 SWAP5 SWAP2 SWAP1 SWAP2 ADD SWAP3 ADD SWAP1 PUSH2 0x6B9 JUMP JUMPDEST SWAP1 SWAP2 POP RETURNDATASIZE DUP1 DUP4 DUP4 RETURNDATACOPY PUSH2 0x72F DUP2 DUP4 PUSH2 0xEAA JUMP JUMPDEST DUP2 ADD SWAP1 PUSH1 0x20 SWAP1 DUP2 DUP2 DUP5 SUB SLT PUSH2 0x382 JUMPI DUP1 MLOAD PUSH8 0xFFFFFFFFFFFFFFFF SWAP2 DUP3 DUP3 GT PUSH2 0x866 JUMPI ADD SWAP1 DUP4 PUSH1 0x1F DUP4 ADD SLT ISZERO PUSH2 0x862 JUMPI DUP2 MLOAD SWAP4 DUP2 DUP6 GT PUSH2 0x84E JUMPI DUP5 PUSH1 0x5 SHL SWAP2 PUSH1 0x40 MLOAD SWAP6 PUSH2 0x77D DUP7 DUP6 ADD DUP9 PUSH2 0xEAA JUMP JUMPDEST DUP7 MSTORE DUP5 DUP1 DUP8 ADD SWAP4 DUP6 ADD ADD SWAP4 DUP3 DUP6 GT PUSH2 0x84A JUMPI DUP6 DUP2 ADD SWAP4 JUMPDEST DUP6 DUP6 LT PUSH2 0x7A9 JUMPI POP POP POP POP POP POP POP SWAP1 CODESIZE PUSH2 0x690 JUMP JUMPDEST DUP5 MLOAD DUP4 DUP2 GT PUSH2 0x846 JUMPI DUP3 ADD PUSH1 0x80 DUP1 PUSH1 0x1F NOT DUP4 DUP9 SUB ADD SLT PUSH2 0x842 JUMPI PUSH1 0x40 MLOAD SWAP2 DUP2 DUP4 ADD DUP4 DUP2 LT DUP8 DUP3 GT OR PUSH2 0x82C JUMPI PUSH1 0x40 MSTORE PUSH2 0x7E3 DUP11 DUP3 ADD PUSH2 0xFCE JUMP JUMPDEST DUP4 MSTORE PUSH1 0x40 DUP2 ADD MLOAD DUP11 DUP5 ADD MSTORE PUSH1 0x60 SWAP2 DUP3 DUP3 ADD MLOAD PUSH1 0x40 DUP6 ADD MSTORE DUP2 ADD MLOAD SWAP1 DUP7 DUP3 GT PUSH2 0x828 JUMPI SWAP2 PUSH2 0x819 DUP9 DUP13 DUP1 SWAP8 SWAP6 SWAP5 DUP2 SWAP8 SWAP6 ADD ADD PUSH2 0xFE2 JUMP JUMPDEST SWAP1 DUP3 ADD MSTORE DUP2 MSTORE ADD SWAP5 ADD SWAP4 PUSH2 0x794 JUMP JUMPDEST DUP13 DUP1 REVERT JUMPDEST PUSH4 0x4E487B71 PUSH1 0xE0 SHL PUSH1 0x0 MSTORE PUSH1 0x41 PUSH1 0x4 MSTORE PUSH1 0x24 PUSH1 0x0 REVERT JUMPDEST DUP11 DUP1 REVERT JUMPDEST DUP10 DUP1 REVERT JUMPDEST DUP8 DUP1 REVERT JUMPDEST PUSH4 0x4E487B71 PUSH1 0xE0 SHL DUP7 MSTORE PUSH1 0x41 PUSH1 0x4 MSTORE PUSH1 0x24 DUP7 REVERT JUMPDEST DUP5 DUP1 REVERT JUMPDEST DUP6 DUP1 REVERT JUMPDEST POP PUSH1 0x40 MLOAD SWAP1 RETURNDATASIZE SWAP1 DUP3 RETURNDATACOPY RETURNDATASIZE SWAP1 REVERT JUMPDEST POP CALLVALUE PUSH2 0x17C JUMPI PUSH1 0x20 CALLDATASIZE PUSH1 0x3 NOT ADD SLT PUSH2 0x17C JUMPI DUP1 PUSH2 0x1C0 PUSH1 0x40 MLOAD PUSH2 0x899 DUP2 PUSH2 0xE71 JUMP JUMPDEST DUP3 DUP2 MSTORE DUP3 PUSH1 0x20 DUP3 ADD MSTORE DUP3 PUSH1 0x40 DUP3 ADD MSTORE DUP3 PUSH1 0x60 DUP3 ADD MSTORE DUP3 PUSH1 0x80 DUP3 ADD MSTORE DUP3 PUSH1 0xA0 DUP3 ADD MSTORE DUP3 PUSH1 0xC0 DUP3 ADD MSTORE DUP3 PUSH1 0xE0 DUP3 ADD MSTORE PUSH1 0x60 PUSH2 0x100 DUP3 ADD MSTORE PUSH1 0x60 PUSH2 0x120 DUP3 ADD MSTORE DUP3 PUSH2 0x140 DUP3 ADD MSTORE DUP3 PUSH2 0x160 DUP3 ADD MSTORE DUP3 PUSH2 0x180 DUP3 ADD MSTORE DUP3 PUSH2 0x1A0 DUP3 ADD MSTORE ADD MSTORE PUSH1 0x24 DUP2 PUSH1 0x1 DUP1 PUSH1 0xA0 SHL SUB PUSH1 0x2 SLOAD AND PUSH1 0x40 MLOAD SWAP3 DUP4 DUP1 SWAP3 PUSH4 0x6F752DD PUSH1 0xE2 SHL DUP3 MSTORE PUSH1 0x4 CALLDATALOAD PUSH1 0x4 DUP4 ADD MSTORE GAS STATICCALL SWAP1 DUP2 ISZERO PUSH2 0x17F JUMPI DUP3 SWAP2 PUSH2 0xA52 JUMPI JUMPDEST POP PUSH1 0x40 MLOAD SWAP1 PUSH1 0x20 DUP3 MSTORE DUP1 MLOAD PUSH1 0x20 DUP4 ADD MSTORE PUSH1 0x1 DUP1 PUSH1 0xA0 SHL SUB PUSH1 0x20 DUP3 ADD MLOAD AND PUSH1 0x40 DUP4 ADD MSTORE PUSH1 0x1 DUP1 PUSH1 0xA0 SHL SUB PUSH1 0x40 DUP3 ADD MLOAD AND PUSH1 0x60 DUP4 ADD MSTORE PUSH1 0x60 DUP2 ADD MLOAD PUSH1 0x2 DUP2 LT ISZERO PUSH2 0xA3C JUMPI PUSH1 0x80 DUP4 ADD MSTORE PUSH1 0x80 DUP2 ADD MLOAD PUSH1 0xA0 DUP4 ADD MSTORE PUSH1 0xA0 DUP2 ADD MLOAD PUSH1 0xC0 DUP4 ADD MSTORE PUSH1 0xC0 DUP2 ADD MLOAD PUSH1 0xE0 DUP4 ADD MSTORE PUSH1 0xE0 DUP2 ADD MLOAD PUSH2 0x100 DUP4 ADD MSTORE PUSH2 0x100 DUP2 ADD MLOAD PUSH2 0x9D5 PUSH2 0x9BD PUSH2 0x1E0 SWAP3 DUP4 PUSH2 0x120 DUP8 ADD MSTORE PUSH2 0x200 DUP7 ADD SWAP1 PUSH2 0xF9C JUMP JUMPDEST PUSH2 0x120 DUP5 ADD MLOAD DUP6 DUP3 SUB PUSH1 0x1F NOT ADD PUSH2 0x140 DUP8 ADD MSTORE PUSH2 0xF9C JUMP JUMPDEST SWAP2 PUSH2 0x140 DUP2 ADD MLOAD PUSH1 0x4 DUP2 LT ISZERO PUSH2 0xA28 JUMPI DUP5 SWAP6 POP PUSH2 0x160 DUP6 ADD MSTORE PUSH2 0x160 DUP2 ADD MLOAD PUSH2 0x180 DUP6 ADD MSTORE PUSH2 0x180 DUP2 ADD MLOAD PUSH2 0x1A0 DUP6 ADD MSTORE PUSH2 0x1A0 DUP2 ADD MLOAD PUSH2 0x1C0 DUP6 ADD MSTORE PUSH2 0x1C0 PUSH1 0x1 DUP1 PUSH1 0xA0 SHL SUB SWAP2 ADD MLOAD AND SWAP1 DUP4 ADD MSTORE SUB SWAP1 RETURN JUMPDEST PUSH4 0x4E487B71 PUSH1 0xE0 SHL DUP7 MSTORE PUSH1 0x21 PUSH1 0x4 MSTORE PUSH1 0x24 DUP7 REVERT JUMPDEST PUSH4 0x4E487B71 PUSH1 0xE0 SHL PUSH1 0x0 MSTORE PUSH1 0x21 PUSH1 0x4 MSTORE PUSH1 0x24 PUSH1 0x0 REVERT JUMPDEST RETURNDATASIZE SWAP2 POP DUP2 DUP4 DUP3 RETURNDATACOPY PUSH2 0xA63 DUP3 DUP3 PUSH2 0xEAA JUMP JUMPDEST PUSH1 0x20 DUP2 DUP4 DUP2 ADD SUB SLT PUSH2 0x535 JUMPI DUP1 MLOAD PUSH8 0xFFFFFFFFFFFFFFFF DUP2 GT PUSH2 0x382 JUMPI PUSH2 0x1E0 DUP2 DUP4 ADD DUP5 DUP5 ADD SUB SLT PUSH2 0x382 JUMPI PUSH1 0x40 MLOAD SWAP3 PUSH2 0xA9C DUP5 PUSH2 0xE71 JUMP JUMPDEST DUP3 DUP3 ADD DUP1 MLOAD DUP6 MSTORE PUSH2 0xAAF SWAP1 PUSH1 0x20 ADD PUSH2 0xFCE JUMP JUMPDEST PUSH1 0x20 DUP6 ADD MSTORE PUSH2 0xAC2 PUSH1 0x40 DUP4 DUP6 ADD ADD PUSH2 0xFCE JUMP JUMPDEST PUSH1 0x40 DUP6 ADD MSTORE PUSH1 0x60 DUP3 DUP5 ADD ADD MLOAD PUSH1 0x2 DUP2 LT ISZERO PUSH2 0x866 JUMPI PUSH1 0x60 DUP6 ADD MSTORE DUP3 DUP3 ADD PUSH1 0x80 DUP2 DUP2 ADD MLOAD SWAP1 DUP7 ADD MSTORE PUSH1 0xA0 DUP1 DUP3 ADD MLOAD SWAP1 DUP7 ADD MSTORE PUSH1 0xC0 DUP1 DUP3 ADD MLOAD SWAP1 DUP7 ADD MSTORE PUSH1 0xE0 DUP1 DUP3 ADD MLOAD SWAP1 DUP7 ADD MSTORE PUSH2 0x100 ADD MLOAD PUSH8 0xFFFFFFFFFFFFFFFF DUP2 GT PUSH2 0x866 JUMPI PUSH2 0xB2C SWAP1 DUP3 DUP6 ADD SWAP1 DUP5 DUP7 ADD ADD PUSH2 0xFE2 JUMP JUMPDEST PUSH2 0x100 DUP6 ADD MSTORE PUSH2 0x120 DUP3 DUP5 ADD ADD MLOAD PUSH8 0xFFFFFFFFFFFFFFFF DUP2 GT PUSH2 0x866 JUMPI PUSH2 0xB59 SWAP2 DUP5 ADD SWAP1 DUP4 DUP6 ADD ADD PUSH2 0xFE2 JUMP JUMPDEST PUSH2 0x120 DUP5 ADD MSTORE PUSH2 0x140 DUP2 DUP4 ADD ADD MLOAD SWAP1 PUSH1 0x4 DUP3 LT ISZERO PUSH2 0x862 JUMPI PUSH2 0x140 DUP5 ADD SWAP2 SWAP1 SWAP2 MSTORE ADD PUSH2 0x160 DUP2 DUP2 ADD MLOAD SWAP1 DUP4 ADD MSTORE PUSH2 0x180 DUP1 DUP3 ADD MLOAD SWAP1 DUP4 ADD MSTORE PUSH2 0x1A0 DUP1 DUP3 ADD MLOAD SWAP1 DUP4 ADD MSTORE PUSH2 0xBA9 SWAP1 PUSH2 0x1C0 ADD PUSH2 0xFCE JUMP JUMPDEST PUSH2 0x1C0 DUP3 ADD MSTORE CODESIZE PUSH2 0x92B JUMP JUMPDEST POP CALLVALUE PUSH2 0x17C JUMPI PUSH1 0x20 CALLDATASIZE PUSH1 0x3 NOT ADD SLT PUSH2 0x17C JUMPI PUSH1 0x2 SLOAD PUSH1 0x4 CALLDATALOAD SWAP1 DUP3 SWAP1 PUSH1 0x1 PUSH1 0x1 PUSH1 0xA0 SHL SUB AND DUP1 EXTCODESIZE ISZERO PUSH2 0x386 JUMPI DUP2 DUP1 SWAP2 PUSH1 0x24 PUSH1 0x40 MLOAD DUP1 SWAP5 DUP2 SWAP4 PUSH4 0xD87E083 PUSH1 0xE1 SHL DUP4 MSTORE DUP9 PUSH1 0x4 DUP5 ADD MSTORE GAS CALL DUP1 ISZERO PUSH2 0x17F JUMPI PUSH2 0xC3A JUMPI JUMPDEST POP POP PUSH1 0x40 MLOAD SWAP1 DUP2 MSTORE PUSH32 0x198848172490C9CEDE6F00B7D3D59D018F0BC4715A37F81B8CE39CC7807369AD PUSH1 0x20 CALLER SWAP3 LOG2 DUP1 RETURN JUMPDEST PUSH2 0xC43 SWAP1 PUSH2 0xE5D JUMP JUMPDEST PUSH2 0x386 JUMPI DUP2 CODESIZE PUSH2 0xC09 JUMP JUMPDEST POP CALLVALUE PUSH2 0x17C JUMPI PUSH1 0x40 CALLDATASIZE PUSH1 0x3 NOT ADD SLT PUSH2 0x17C JUMPI PUSH1 0x2 SLOAD DUP2 SWAP1 PUSH1 0x1 PUSH1 0x1 PUSH1 0xA0 SHL SUB AND DUP1 EXTCODESIZE ISZERO PUSH2 0x18A JUMPI DUP2 SWAP1 PUSH1 0x44 PUSH1 0x40 MLOAD DUP1 SWAP5 DUP2 SWAP4 PUSH4 0x9DBD22D PUSH1 0xE1 SHL DUP4 MSTORE PUSH1 0x4 CALLDATALOAD PUSH1 0x4 DUP5 ADD MSTORE PUSH1 0x24 CALLDATALOAD PUSH1 0x24 DUP5 ADD MSTORE GAS CALL DUP1 ISZERO PUSH2 0x17F JUMPI PUSH2 0xCAA JUMPI POP DUP1 RETURN JUMPDEST PUSH2 0xCB3 SWAP1 PUSH2 0xE5D JUMP JUMPDEST DUP1 RETURN JUMPDEST POP CALLVALUE PUSH2 0x17C JUMPI PUSH1 0x20 SWAP1 DUP2 PUSH1 0x3 NOT CALLDATASIZE ADD SLT PUSH2 0x17C JUMPI PUSH1 0x4 CALLDATALOAD PUSH1 0x1 PUSH1 0x1 PUSH1 0xA0 SHL SUB DUP2 DUP2 AND SWAP2 DUP3 SWAP1 SUB PUSH2 0x535 JUMPI DUP4 SWAP1 PUSH1 0x1 SLOAD AND SWAP2 PUSH1 0x24 PUSH1 0x40 MLOAD DUP1 SWAP5 DUP2 SWAP4 PUSH4 0x823D5F3 PUSH1 0xE0 SHL DUP4 MSTORE PUSH1 0x4 DUP4 ADD MSTORE GAS STATICCALL SWAP2 DUP3 ISZERO PUSH2 0x376 JUMPI DUP1 SWAP3 PUSH2 0xD1B JUMPI JUMPDEST POP POP PUSH1 0x40 MLOAD SWAP1 ISZERO ISZERO DUP2 MSTORE RETURN JUMPDEST SWAP1 SWAP2 POP DUP3 DUP3 DUP2 RETURNDATASIZE DUP4 GT PUSH2 0xD4C JUMPI JUMPDEST PUSH2 0xD33 DUP2 DUP4 PUSH2 0xEAA JUMP JUMPDEST DUP2 ADD SUB SLT PUSH2 0x17C JUMPI POP PUSH2 0xD45 SWAP1 PUSH2 0xFC1 JUMP JUMPDEST CODESIZE DUP1 PUSH2 0xD0F JUMP JUMPDEST POP RETURNDATASIZE PUSH2 0xD29 JUMP JUMPDEST POP CALLVALUE PUSH2 0x17C JUMPI PUSH2 0xD62 CALLDATASIZE PUSH2 0xF2F JUMP JUMPDEST PUSH1 0x2 SLOAD PUSH1 0x40 MLOAD PUSH4 0x17E3C051 PUSH1 0xE0 SHL DUP2 MSTORE PUSH1 0x4 DUP2 ADD DUP7 SWAP1 MSTORE PUSH1 0x24 DUP2 ADD SWAP5 SWAP1 SWAP5 MSTORE PUSH1 0x80 PUSH1 0x44 DUP6 ADD MSTORE PUSH1 0x1 PUSH1 0x1 PUSH1 0xA0 SHL SUB AND SWAP4 SWAP3 SWAP2 DUP3 SWAP1 PUSH2 0xDA4 SWAP1 PUSH1 0x84 DUP4 ADD SWAP1 PUSH2 0xF9C JUMP JUMPDEST SWAP5 PUSH1 0x3 NOT DUP3 DUP8 SUB ADD PUSH1 0x64 DUP4 ADD MSTORE DUP2 DUP6 DUP2 PUSH2 0xDC1 PUSH1 0x20 SWAP10 DUP11 SWAP8 PUSH2 0xF9C JUMP JUMPDEST SUB SWAP3 GAS CALL SWAP2 DUP3 ISZERO PUSH2 0x376 JUMPI DUP1 SWAP3 PUSH2 0xE08 JUMPI JUMPDEST POP POP PUSH1 0x40 MLOAD DUP2 DUP2 MSTORE PUSH32 0x9F85484CC8FB25030D222FDCD51EB22A0F9B61069192AF1DBFB3FF32B78B6D67 DUP4 CALLER SWAP3 LOG2 PUSH1 0x40 MLOAD SWAP1 DUP2 MSTORE RETURN JUMPDEST SWAP1 SWAP2 POP DUP3 DUP3 DUP2 RETURNDATASIZE DUP4 GT PUSH2 0xE31 JUMPI JUMPDEST PUSH2 0xE20 DUP2 DUP4 PUSH2 0xEAA JUMP JUMPDEST DUP2 ADD SUB SLT PUSH2 0x17C JUMPI POP MLOAD CODESIZE DUP1 PUSH2 0xDD3 JUMP JUMPDEST POP RETURNDATASIZE PUSH2 0xE16 JUMP JUMPDEST SWAP1 POP CALLVALUE PUSH2 0x386 JUMPI DUP2 PUSH1 0x3 NOT CALLDATASIZE ADD SLT PUSH2 0x386 JUMPI PUSH1 0x2 SLOAD PUSH1 0x1 PUSH1 0x1 PUSH1 0xA0 SHL SUB AND DUP2 MSTORE PUSH1 0x20 SWAP1 RETURN JUMPDEST PUSH8 0xFFFFFFFFFFFFFFFF DUP2 GT PUSH2 0x82C JUMPI PUSH1 0x40 MSTORE JUMP JUMPDEST PUSH2 0x1E0 DUP2 ADD SWAP1 DUP2 LT PUSH8 0xFFFFFFFFFFFFFFFF DUP3 GT OR PUSH2 0x82C JUMPI PUSH1 0x40 MSTORE JUMP JUMPDEST PUSH1 0xA0 DUP2 ADD SWAP1 DUP2 LT PUSH8 0xFFFFFFFFFFFFFFFF DUP3 GT OR PUSH2 0x82C JUMPI PUSH1 0x40 MSTORE JUMP JUMPDEST SWAP1 PUSH1 0x1F DUP1 NOT SWAP2 ADD AND DUP2 ADD SWAP1 DUP2 LT PUSH8 0xFFFFFFFFFFFFFFFF DUP3 GT OR PUSH2 0x82C JUMPI PUSH1 0x40 MSTORE JUMP JUMPDEST PUSH8 0xFFFFFFFFFFFFFFFF DUP2 GT PUSH2 0x82C JUMPI PUSH1 0x1F ADD PUSH1 0x1F NOT AND PUSH1 0x20 ADD SWAP1 JUMP JUMPDEST DUP2 PUSH1 0x1F DUP3 ADD SLT ISZERO PUSH2 0x612 JUMPI DUP1 CALLDATALOAD SWAP1 PUSH2 0xEFF DUP3 PUSH2 0xECC JUMP JUMPDEST SWAP3 PUSH2 0xF0D PUSH1 0x40 MLOAD SWAP5 DUP6 PUSH2 0xEAA JUMP JUMPDEST DUP3 DUP5 MSTORE PUSH1 0x20 DUP4 DUP4 ADD ADD GT PUSH2 0x612 JUMPI DUP2 PUSH1 0x0 SWAP3 PUSH1 0x20 DUP1 SWAP4 ADD DUP4 DUP7 ADD CALLDATACOPY DUP4 ADD ADD MSTORE SWAP1 JUMP JUMPDEST PUSH1 0x60 PUSH1 0x3 NOT DUP3 ADD SLT PUSH2 0x612 JUMPI PUSH1 0x4 CALLDATALOAD SWAP2 PUSH8 0xFFFFFFFFFFFFFFFF PUSH1 0x24 CALLDATALOAD DUP2 DUP2 GT PUSH2 0x612 JUMPI DUP4 PUSH2 0xF5F SWAP2 PUSH1 0x4 ADD PUSH2 0xEE8 JUMP JUMPDEST SWAP3 PUSH1 0x44 CALLDATALOAD SWAP2 DUP3 GT PUSH2 0x612 JUMPI PUSH2 0xF76 SWAP2 PUSH1 0x4 ADD PUSH2 0xEE8 JUMP JUMPDEST SWAP1 JUMP JUMPDEST PUSH1 0x0 JUMPDEST DUP4 DUP2 LT PUSH2 0xF8C JUMPI POP POP PUSH1 0x0 SWAP2 ADD MSTORE JUMP JUMPDEST DUP2 DUP2 ADD MLOAD DUP4 DUP3 ADD MSTORE PUSH1 0x20 ADD PUSH2 0xF7C JUMP JUMPDEST SWAP1 PUSH1 0x20 SWAP2 PUSH2 0xFB5 DUP2 MLOAD DUP1 SWAP3 DUP2 DUP6 MSTORE DUP6 DUP1 DUP7 ADD SWAP2 ADD PUSH2 0xF79 JUMP JUMPDEST PUSH1 0x1F ADD PUSH1 0x1F NOT AND ADD ADD SWAP1 JUMP JUMPDEST MLOAD SWAP1 DUP2 ISZERO ISZERO DUP3 SUB PUSH2 0x612 JUMPI JUMP JUMPDEST MLOAD SWAP1 PUSH1 0x1 PUSH1 0x1 PUSH1 0xA0 SHL SUB DUP3 AND DUP3 SUB PUSH2 0x612 JUMPI JUMP JUMPDEST DUP2 PUSH1 0x1F DUP3 ADD SLT ISZERO PUSH2 0x612 JUMPI DUP1 MLOAD PUSH2 0xFF8 DUP2 PUSH2 0xECC JUMP JUMPDEST SWAP3 PUSH2 0x1006 PUSH1 0x40 MLOAD SWAP5 DUP6 PUSH2 0xEAA JUMP JUMPDEST DUP2 DUP5 MSTORE PUSH1 0x20 DUP3 DUP5 ADD ADD GT PUSH2 0x612 JUMPI PUSH2 0xF76 SWAP2 PUSH1 0x20 DUP1 DUP6 ADD SWAP2 ADD PUSH2 0xF79 JUMP INVALID JUMPI 0xC 0xA8 SWAP14 ISZERO 0xDE 0xA9 PUSH11 0x90CC65E78214B4F234F53B 0xC DUP9 0x2B JUMPDEST CODECOPY 0xAA 0xF 0xB8 CHAINID CALLCODE SWAP9 DUP2 INVALID LOG2 PUSH5 0x6970667358 0x22 SLT KECCAK256 0xF6 0xD2 0xF9 0xDC PUSH25 0x5B6DD833EC36DD16444FCE3B0E504F8239D3952944420F6585 PUSH27 0x1D64736F6C63430008130033000000000000000000000000000000 "},"methodIdentifiers":{"acceptChallenge(uint256)":"1b0fc106","canPlay(address)":"0823d5f3","challengeManager()":"023a96fe","completeChallenge(uint256,uint256)":"13b7a45a","createHighRollerChallenge(uint256,string,string)":"b978c97d","createQuickChallenge(uint256,string,string)":"0569b3a1","dailyLeaderboard()":"4e04f697","getChallenge(uint256)":"1bdd4b74","getCurrentLeaderboard()":"491db668","getPlatformFeeWallet()":"7dd912b7","getPlayerState(address)":"c01ca43f","platformFeeWallet()":"e20fc118","playFreeGame()":"ed250f87","purchaseIndividualGame()":"f1259329","purchaseUnlimitedDailyPass()":"bfc2edfd","quarters()":"be986420","submitScore(uint256,string)":"bc2256dc"}}}}}