{"src/DailyLeaderboard.sol":{"DailyLeaderboard":{"abi":[{"inputs":[{"internalType":"address","name":"_quartersAddress","type":"address"},{"internalType":"address","name":"_platformFeeWallet","type":"address"}],"stateMutability":"nonpayable","type":"constructor"},{"anonymous":false,"inputs":[{"indexed":false,"internalType":"uint256","name":"day","type":"uint256"}],"name":"DailyReset","type":"event"},{"anonymous":false,"inputs":[{"indexed":true,"internalType":"address","name":"player","type":"address"},{"indexed":false,"internalType":"uint256","name":"day","type":"uint256"}],"name":"FreeGameUsed","type":"event"},{"anonymous":false,"inputs":[{"indexed":true,"internalType":"address","name":"player","type":"address"},{"indexed":false,"internalType":"uint256","name":"price","type":"uint256"}],"name":"IndividualGamePurchased","type":"event"},{"anonymous":false,"inputs":[{"indexed":true,"internalType":"address","name":"previousOwner","type":"address"},{"indexed":true,"internalType":"address","name":"newOwner","type":"address"}],"name":"OwnershipTransferred","type":"event"},{"anonymous":false,"inputs":[{"indexed":false,"internalType":"address","name":"account","type":"address"}],"name":"Paused","type":"event"},{"anonymous":false,"inputs":[{"indexed":true,"internalType":"address","name":"player","type":"address"},{"indexed":false,"internalType":"uint256","name":"score","type":"uint256"},{"indexed":false,"internalType":"uint256","name":"day","type":"uint256"}],"name":"ScoreSubmitted","type":"event"},{"anonymous":false,"inputs":[{"indexed":true,"internalType":"address","name":"player","type":"address"},{"indexed":false,"internalType":"uint256","name":"expiry","type":"uint256"}],"name":"UnlimitedPassPurchased","type":"event"},{"anonymous":false,"inputs":[{"indexed":false,"internalType":"address","name":"account","type":"address"}],"name":"Unpaused","type":"event"},{"inputs":[],"name":"DAILY_RESET_HOUR","outputs":[{"internalType":"uint256","name":"","type":"uint256"}],"stateMutability":"view","type":"function"},{"inputs":[],"name":"INDIVIDUAL_GAME_PRICE","outputs":[{"internalType":"uint256","name":"","type":"uint256"}],"stateMutability":"view","type":"function"},{"inputs":[],"name":"PLATFORM_FEE_PERCENT","outputs":[{"internalType":"uint256","name":"","type":"uint256"}],"stateMutability":"view","type":"function"},{"inputs":[],"name":"UNLIMITED_DAILY_PRICE","outputs":[{"internalType":"uint256","name":"","type":"uint256"}],"stateMutability":"view","type":"function"},{"inputs":[{"internalType":"address","name":"player","type":"address"}],"name":"canPlay","outputs":[{"internalType":"bool","name":"","type":"bool"}],"stateMutability":"view","type":"function"},{"inputs":[{"internalType":"address","name":"player","type":"address"}],"name":"canPlayFreeGame","outputs":[{"internalType":"bool","name":"","type":"bool"}],"stateMutability":"view","type":"function"},{"inputs":[{"internalType":"uint256","name":"","type":"uint256"},{"internalType":"uint256","name":"","type":"uint256"}],"name":"dailyLeaderboards","outputs":[{"internalType":"address","name":"player","type":"address"},{"internalType":"uint256","name":"score","type":"uint256"},{"internalType":"uint256","name":"timestamp","type":"uint256"},{"internalType":"string","name":"displayName","type":"string"}],"stateMutability":"view","type":"function"},{"inputs":[{"internalType":"uint256","name":"","type":"uint256"},{"internalType":"address","name":"","type":"address"}],"name":"dailySubmissions","outputs":[{"internalType":"bool","name":"","type":"bool"}],"stateMutability":"view","type":"function"},{"inputs":[],"name":"emergencyWithdraw","outputs":[],"stateMutability":"nonpayable","type":"function"},{"inputs":[],"name":"getCurrentDay","outputs":[{"internalType":"uint256","name":"","type":"uint256"}],"stateMutability":"view","type":"function"},{"inputs":[],"name":"getCurrentLeaderboard","outputs":[{"components":[{"internalType":"address","name":"player","type":"address"},{"internalType":"uint256","name":"score","type":"uint256"},{"internalType":"uint256","name":"timestamp","type":"uint256"},{"internalType":"string","name":"displayName","type":"string"}],"internalType":"struct DailyLeaderboard.LeaderboardEntry[]","name":"","type":"tuple[]"}],"stateMutability":"view","type":"function"},{"inputs":[{"internalType":"uint256","name":"day","type":"uint256"}],"name":"getDailyLeaderboard","outputs":[{"components":[{"internalType":"address","name":"player","type":"address"},{"internalType":"uint256","name":"score","type":"uint256"},{"internalType":"uint256","name":"timestamp","type":"uint256"},{"internalType":"string","name":"displayName","type":"string"}],"internalType":"struct DailyLeaderboard.LeaderboardEntry[]","name":"","type":"tuple[]"}],"stateMutability":"view","type":"function"},{"inputs":[{"internalType":"address","name":"player","type":"address"}],"name":"getPlayerState","outputs":[{"components":[{"internalType":"uint256","name":"lastFreeGameDay","type":"uint256"},{"internalType":"uint256","name":"unlimitedPassExpiry","type":"uint256"},{"internalType":"uint256","name":"totalGamesPlayed","type":"uint256"},{"internalType":"uint256","name":"totalScore","type":"uint256"},{"internalType":"bool","name":"hasUnlimitedPass","type":"bool"}],"internalType":"struct DailyLeaderboard.PlayerState","name":"","type":"tuple"}],"stateMutability":"view","type":"function"},{"inputs":[{"internalType":"address","name":"player","type":"address"}],"name":"hasUnlimitedPass","outputs":[{"internalType":"bool","name":"","type":"bool"}],"stateMutability":"view","type":"function"},{"inputs":[],"name":"owner","outputs":[{"internalType":"address","name":"","type":"address"}],"stateMutability":"view","type":"function"},{"inputs":[],"name":"pause","outputs":[],"stateMutability":"nonpayable","type":"function"},{"inputs":[],"name":"paused","outputs":[{"internalType":"bool","name":"","type":"bool"}],"stateMutability":"view","type":"function"},{"inputs":[],"name":"platformFeeWallet","outputs":[{"internalType":"address","name":"","type":"address"}],"stateMutability":"view","type":"function"},{"inputs":[{"internalType":"address","name":"","type":"address"}],"name":"playerStates","outputs":[{"internalType":"uint256","name":"lastFreeGameDay","type":"uint256"},{"internalType":"uint256","name":"unlimitedPassExpiry","type":"uint256"},{"internalType":"uint256","name":"totalGamesPlayed","type":"uint256"},{"internalType":"uint256","name":"totalScore","type":"uint256"},{"internalType":"bool","name":"hasUnlimitedPass","type":"bool"}],"stateMutability":"view","type":"function"},{"inputs":[],"name":"purchaseIndividualGame","outputs":[],"stateMutability":"nonpayable","type":"function"},{"inputs":[],"name":"purchaseUnlimitedPass","outputs":[],"stateMutability":"nonpayable","type":"function"},{"inputs":[],"name":"quarters","outputs":[{"internalType":"contract QUARTERSToken","name":"","type":"address"}],"stateMutability":"view","type":"function"},{"inputs":[],"name":"renounceOwnership","outputs":[],"stateMutability":"nonpayable","type":"function"},{"inputs":[{"internalType":"address","name":"_newWallet","type":"address"}],"name":"setPlatformFeeWallet","outputs":[],"stateMutability":"nonpayable","type":"function"},{"inputs":[{"internalType":"uint256","name":"score","type":"uint256"},{"internalType":"string","name":"displayName","type":"string"}],"name":"submitScore","outputs":[],"stateMutability":"nonpayable","type":"function"},{"inputs":[{"internalType":"address","name":"newOwner","type":"address"}],"name":"transferOwnership","outputs":[],"stateMutability":"nonpayable","type":"function"},{"inputs":[],"name":"unpause","outputs":[],"stateMutability":"nonpayable","type":"function"},{"inputs":[],"name":"useFreeGame","outputs":[],"stateMutability":"nonpayable","type":"function"}],"evm":{"bytecode":{"linkReferences":{},"object":"6080346100d657601f61177938819003918201601f19168301916001600160401b038311848410176100db5780849260409485528339810103126100d657610052602061004b836100f1565b92016100f1565b906000546040519260018060a01b0391338382167f8be0079c531659141344cd1fd0a4f28419497f9722a3daafe3b4186f6b6457e0600080a36001600160a81b0319163360ff60a01b19161760005560018055600280546001600160a01b031990811694841694909417905560068054909316911617905561167390816101068239f35b600080fd5b634e487b7160e01b600052604160045260246000fd5b51906001600160a01b03821682036100d65756fe6040608081526004908136101561001557600080fd5b600091823560e01c908163014f0049146111275781630257c5d2146111015781630823d5f3146110b65781630832275e14611003578163329a4a6c14610fe75781633e6968b614610fc35781633f4ba83a14610f295781633f9eacdc14610ede578163491db66814610e12578163560d52d414610df65781635c975abb14610dd1578163715018a614610d775781638366021714610cf85781638456cb5914610c995781638a3b204414610c6a5781638da5cb5b14610c4257816395f2a2f114610c2557816398f79dcd14610a4b578163bc2256dc14610697578163be9864201461066e578163c01ca43f146105b6578163d15e55b71461054e578163d96d98ca14610506578163db2e21bc1461040e578163e20fc118146103e5578163f12593291461023c578163f2fde38b14610175575063fef391941461015757600080fd5b346101715781600319360112610171576020905160198152f35b5080fd5b905034610238576020366003190112610238576101906111f1565b9061019961145e565b6001600160a01b039182169283156101e657505082546001600160a01b0319811683178455167f8be0079c531659141344cd1fd0a4f28419497f9722a3daafe3b4186f6b6457e08380a380f35b906020608492519162461bcd60e51b8352820152602660248201527f4f776e61626c653a206e6577206f776e657220697320746865207a65726f206160448201526564647265737360d01b6064820152fd5b8280fd5b9190503461023857826003193601126102385761025761154b565b61025f611592565b61026833611508565b6103a257829060018060a01b039283600254168251906323b872dd60e01b82523383830152306024830152601960448301528160648160209788945af1908115610398578492916102c091889161037b575b50611600565b60448560025416956006541691878551978894859363a9059cbb60e01b8552840152600260248401525af1928315610371577fb451b637378c20db51805e6a988cbf224e3ec1380a5f0b6d745e65a7c3a0dcf19293610344575b5033845260038352600281852001610332815461153c565b90555191601983523392a26001805580f35b61036390843d861161036a575b61035b8183611396565b8101906115e8565b503861031a565b503d610351565b81513d86823e3d90fd5b6103929150843d861161036a5761035b8183611396565b386102ba565b83513d88823e3d90fd5b906020606492519162461bcd60e51b8352820152601a60248201527f4861766520756e6c696d697465642070617373206163746976650000000000006044820152fd5b50503461017157816003193601126101715760065490516001600160a01b039091168152602090f35b90503461023857826003193601126102385761042861145e565b60018060a01b039182600254168151926370a0823160e01b84523081850152856020958686602481875afa9586156104fc5790829188959493976104c2575b509060449291815416938651978895869463a9059cbb60e01b865285015260248401525af19081156104b9575061049c578280f35b816104b292903d1061036a5761035b8183611396565b5038808280f35b513d85823e3d90fd5b85819493969298503d83116104f5575b6104dc8183611396565b810103126104f1579051948693906044610467565b8380fd5b503d6104d2565b85513d84823e3d90fd5b833461054b57602036600319011261054b576105206111f1565b61052861145e565b60018060a01b03166bffffffffffffffffffffffff60a01b600654161760065580f35b80fd5b919050346102385760203660031901126102385760a09281906001600160a01b036105776111f1565b16815260036020522080549260018201549260ff6002840154926003850154940154169381519586526020860152840152606083015215156080820152f35b91905034610238576020366003190112610238578060a0936105d66111f1565b81608084516105e48161137a565b82815282602082015282868201528260608201520152600180871b031681526003602052208151916106158361137a565b815493848452600183015460208501908152608060ff6002860154938588019485526003870154966060890197885201541695019415158552825195865251602086015251908401525160608301525115156080820152f35b50503461017157816003193601126101715760025490516001600160a01b039091168152602090f35b838334610171578060031936011261017157823590602493843567ffffffffffffffff91828211610a475736602383011215610a47578181013591838311610a35578451602093601f19926106f3601f83018516870184611396565b818352368b8383010111610a3157818a928c889301838601378301015261071861154b565b6107206114b6565b9461072a336114e2565b8015610a22575b8015610a0c575b156109d35785895260058552868920338a52855260ff878a205416610991578589528385528689209289885161076d81611348565b3381528781018b81528a8201914283526060810196875287546801000000000000000081101561097f576107a8906001998a820181556112dc565b94909461096e57505183546001600160a01b0319166001600160a01b03919091161783555186830155516002820155925180516003949094019392831161095c579082916107f6855461130e565b601f811161090a575b508791601f84116001146108ae57508b926108a3575b5050600019600383901b1c191690831b1790555b8387526005835284872033885283528487209060ff198254161790556003825260038487200180549186830180931161089157507fb7f20d0949b6a8bc59d005af4a52f7ff5d0cfcde9056fa556adb0e4b24dcb6d2959697505582519485528401523392a280f35b634e487b7160e01b8852601190528787fd5b015190508b80610815565b858d52888d20879590939291168d5b8a8282106108f457505084116108db575b505050811b019055610829565b015160001960f88460031b161c191690558b80806108ce565b83850151865589979095019493840193016108bd565b90919250848c52878c20601f850160051c810191898610610952575b8594939291601f89920160051c01915b8281106109445750506107ff565b8e8155869550889101610936565b9091508190610926565b634e487b7160e01b8b52604186528b8bfd5b634e487b7160e01b8152808a528f90fd5b634e487b7160e01b855260418a528f85fd5b865162461bcd60e51b81528085018690526017818c01527f416c7265616479207375626d697474656420746f6461790000000000000000006044820152606490fd5b865162461bcd60e51b81528085018690526014818c015273135d5cdd081c1b185e4819d85b5948199a5c9cdd60621b6044820152606490fd5b50338952600385526002878a2001541515610738565b50610a2c33611508565b610731565b8980fd5b634e487b7160e01b8752604182528787fd5b8580fd5b905034610238578260031936011261023857610a6561154b565b610a6d611592565b610a7633611508565b610be357610a826114b6565b9060018201809211610bd0576201518091828102928184041490151715610bd0576138408201809211610bd05760025483516323b872dd60e01b8152338184015230602482015260fa6044820152602092918691906001600160a01b0390859083906064908290879086165af1918215610bc6578592610b0891859161037b5750611600565b6044816002541691600654168851948593849263a9059cbb60e01b845288840152601960248401525af18015610bbc57916002917ffccd92c3218efe7bdeef2c0eb1423d56edbb72bb3d47cd78e4c76140fe495957959693610b9f575b5033875260038452828720908101600160ff1982541617905585600182015501610b8f815461153c565b9055519283523392a26001805580f35b610bb590853d871161036a5761035b8183611396565b5038610b65565b85513d88823e3d90fd5b87513d85823e3d90fd5b634e487b7160e01b845260119052602483fd5b6020606492519162461bcd60e51b8352820152601b60248201527f416c7265616479206861766520756e6c696d69746564207061737300000000006044820152fd5b919050346102385782600319360112610238576020925051908152f35b505034610171578160031936011261017157905490516001600160a01b039091168152602090f35b50503461017157602036600319011261017157602090610c90610c8b6111f1565b611508565b90519015158152f35b50503461017157816003193601126101715760207f62e78cea01bee320cd4e420270b5ea74000d11b0c9f74754ebdbfc544b05a25891610cd761145e565b610cdf61154b565b835460ff60a01b1916600160a01b17845551338152a180f35b905034610238578160031936011261023857602435908035845260205281832080548210156104f15790610d2b916112dc565b5090610d7360018060a01b0383541691600184015493610d526003600283015492016113b8565b9180519586958652602086015284015260806060840152608083019061120c565b0390f35b833461054b578060031936011261054b57610d9061145e565b80546001600160a01b03198116825581906001600160a01b03167f8be0079c531659141344cd1fd0a4f28419497f9722a3daafe3b4186f6b6457e08280a380f35b50503461017157816003193601126101715760ff6020925460a01c1690519015158152f35b50503461017157816003193601126101715760209051600a8152f35b83915034610171578160031936011261017157610e2d6114b6565b82526020908082528383209283549267ffffffffffffffff8411610ecb5785519491610e5f600586901b830187611396565b8486529182528082208186015b858410610e8057875180610d73898261124c565b84836001928a51610e9081611348565b848060a01b038654168152848601548382015260028601548c820152610eb8600387016113b8565b6060820152815201920193019290610e6c565b506041602492634e487b7160e01b835252fd5b9050346102385781600319360112610238576024356001600160a01b03811691908290036104f15760209360ff92849235825260058652828220908252855220541690519015158152f35b905034610238578260031936011261023857610f4361145e565b82549060ff8260a01c1615610f89575060ff60a01b19168255513381527f5db9ee0a495bf2e6ff9c91a7834c1ba4fdd244a5e8aa4e537bd38aeae4b073aa90602090a180f35b606490602084519162461bcd60e51b8352820152601460248201527314185d5cd8589b194e881b9bdd081c185d5cd95960621b6044820152fd5b505034610171578160031936011261017157602090610fe06114b6565b9051908152f35b5050346101715781600319360112610171576020905160fa8152f35b83915034610171576020908160031936011261023857803583528082528383209283549267ffffffffffffffff8411610ecb578551949161104a600586901b830187611396565b8486529182528082208186015b85841061106b57875180610d73898261124c565b84836001928a5161107b81611348565b848060a01b038654168152848601548382015260028601548c8201526110a3600387016113b8565b6060820152815201920193019290611057565b505034610171576020366003190112610171576020906110d46111f1565b906110de826114e2565b9182156110ef575b50519015158152f35b6110fa919250611508565b90836110e6565b50503461017157602036600319011261017157602090610c906111226111f1565b6114e2565b90503461023857826003193601126102385761114161154b565b611149611592565b611152336114e2565b156111af57506111606114b6565b90338352600360205260028184208381550161117c815461153c565b9055519081527f51bf18afe64c0561be5f93315988a368650fb8dcefb8bee78457cc200b0234b960203392a26001805580f35b6020606492519162461bcd60e51b8352820152601c60248201527f467265652067616d6520616c7265616479207573656420746f646179000000006044820152fd5b600435906001600160a01b038216820361120757565b600080fd5b919082519283825260005b848110611238575050826000602080949584010152601f8019910116010190565b602081830181015184830182015201611217565b602080820190808352835180925260409283810182858560051b8401019601946000925b858410611281575050505050505090565b9091929394959685806112cb600193603f198682030188528b51858060a01b038151168252838101518483015287810151888301526060809101519160808092820152019061120c565b990194019401929594939190611270565b80548210156112f85760005260206000209060021b0190600090565b634e487b7160e01b600052603260045260246000fd5b90600182811c9216801561133e575b602083101461132857565b634e487b7160e01b600052602260045260246000fd5b91607f169161131d565b6080810190811067ffffffffffffffff82111761136457604052565b634e487b7160e01b600052604160045260246000fd5b60a0810190811067ffffffffffffffff82111761136457604052565b90601f8019910116810190811067ffffffffffffffff82111761136457604052565b90604051918260008254926113cc8461130e565b90818452600194858116908160001461143b57506001146113f8575b50506113f692500383611396565b565b9093915060005260209081600020936000915b8183106114235750506113f6935082010138806113e8565b8554888401850152948501948794509183019161140b565b9150506113f694506020925060ff191682840152151560051b82010138806113e8565b6000546001600160a01b0316330361147257565b606460405162461bcd60e51b815260206004820152602060248201527f4f776e61626c653a2063616c6c6572206973206e6f7420746865206f776e65726044820152fd5b61464f1942014281116114cc5762015180900490565b634e487b7160e01b600052601160045260246000fd5b6114ea6114b6565b6001600160a01b039091166000908152600360205260409020541090565b6001600160a01b03166000908152600360205260409020600481015460ff169081611531575090565b600191500154421090565b60001981146114cc5760010190565b60ff60005460a01c1661155a57565b60405162461bcd60e51b815260206004820152601060248201526f14185d5cd8589b194e881c185d5cd95960821b6044820152606490fd5b6002600154146115a3576002600155565b60405162461bcd60e51b815260206004820152601f60248201527f5265656e7472616e637947756172643a207265656e7472616e742063616c6c006044820152606490fd5b90816020910312611207575180151581036112075790565b1561160757565b60405162461bcd60e51b815260206004820152600e60248201526d14185e5b595b9d0819985a5b195960921b6044820152606490fdfea2646970667358221220c76defde056a3505a794696227e51eee2c819620061c80900dd5b8b9a768390c64736f6c63430008130033","opcodes":"PUSH1 0x80 CALLVALUE PUSH2 0xD6 JUMPI PUSH1 0x1F PUSH2 0x1779 CODESIZE DUP2 SWAP1 SUB SWAP2 DUP3 ADD PUSH1 0x1F NOT AND DUP4 ADD SWAP2 PUSH1 0x1 PUSH1 0x1 PUSH1 0x40 SHL SUB DUP4 GT DUP5 DUP5 LT OR PUSH2 0xDB JUMPI DUP1 DUP5 SWAP3 PUSH1 0x40 SWAP5 DUP6 MSTORE DUP4 CODECOPY DUP2 ADD SUB SLT PUSH2 0xD6 JUMPI PUSH2 0x52 PUSH1 0x20 PUSH2 0x4B DUP4 PUSH2 0xF1 JUMP JUMPDEST SWAP3 ADD PUSH2 0xF1 JUMP JUMPDEST SWAP1 PUSH1 0x0 SLOAD PUSH1 0x40 MLOAD SWAP3 PUSH1 0x1 DUP1 PUSH1 0xA0 SHL SUB SWAP2 CALLER DUP4 DUP3 AND PUSH32 0x8BE0079C531659141344CD1FD0A4F28419497F9722A3DAAFE3B4186F6B6457E0 PUSH1 0x0 DUP1 LOG3 PUSH1 0x1 PUSH1 0x1 PUSH1 0xA8 SHL SUB NOT AND CALLER PUSH1 0xFF PUSH1 0xA0 SHL NOT AND OR PUSH1 0x0 SSTORE PUSH1 0x1 DUP1 SSTORE PUSH1 0x2 DUP1 SLOAD PUSH1 0x1 PUSH1 0x1 PUSH1 0xA0 SHL SUB NOT SWAP1 DUP2 AND SWAP5 DUP5 AND SWAP5 SWAP1 SWAP5 OR SWAP1 SSTORE PUSH1 0x6 DUP1 SLOAD SWAP1 SWAP4 AND SWAP2 AND OR SWAP1 SSTORE PUSH2 0x1673 SWAP1 DUP2 PUSH2 0x106 DUP3 CODECOPY RETURN JUMPDEST PUSH1 0x0 DUP1 REVERT JUMPDEST PUSH4 0x4E487B71 PUSH1 0xE0 SHL PUSH1 0x0 MSTORE PUSH1 0x41 PUSH1 0x4 MSTORE PUSH1 0x24 PUSH1 0x0 REVERT JUMPDEST MLOAD SWAP1 PUSH1 0x1 PUSH1 0x1 PUSH1 0xA0 SHL SUB DUP3 AND DUP3 SUB PUSH2 0xD6 JUMPI JUMP INVALID PUSH1 0x40 PUSH1 0x80 DUP2 MSTORE PUSH1 0x4 SWAP1 DUP2 CALLDATASIZE LT ISZERO PUSH2 0x15 JUMPI PUSH1 0x0 DUP1 REVERT JUMPDEST PUSH1 0x0 SWAP2 DUP3 CALLDATALOAD PUSH1 0xE0 SHR SWAP1 DUP2 PUSH4 0x14F0049 EQ PUSH2 0x1127 JUMPI DUP2 PUSH4 0x257C5D2 EQ PUSH2 0x1101 JUMPI DUP2 PUSH4 0x823D5F3 EQ PUSH2 0x10B6 JUMPI DUP2 PUSH4 0x832275E EQ PUSH2 0x1003 JUMPI DUP2 PUSH4 0x329A4A6C EQ PUSH2 0xFE7 JUMPI DUP2 PUSH4 0x3E6968B6 EQ PUSH2 0xFC3 JUMPI DUP2 PUSH4 0x3F4BA83A EQ PUSH2 0xF29 JUMPI DUP2 PUSH4 0x3F9EACDC EQ PUSH2 0xEDE JUMPI DUP2 PUSH4 0x491DB668 EQ PUSH2 0xE12 JUMPI DUP2 PUSH4 0x560D52D4 EQ PUSH2 0xDF6 JUMPI DUP2 PUSH4 0x5C975ABB EQ PUSH2 0xDD1 JUMPI DUP2 PUSH4 0x715018A6 EQ PUSH2 0xD77 JUMPI DUP2 PUSH4 0x83660217 EQ PUSH2 0xCF8 JUMPI DUP2 PUSH4 0x8456CB59 EQ PUSH2 0xC99 JUMPI DUP2 PUSH4 0x8A3B2044 EQ PUSH2 0xC6A JUMPI DUP2 PUSH4 0x8DA5CB5B EQ PUSH2 0xC42 JUMPI DUP2 PUSH4 0x95F2A2F1 EQ PUSH2 0xC25 JUMPI DUP2 PUSH4 0x98F79DCD EQ PUSH2 0xA4B JUMPI DUP2 PUSH4 0xBC2256DC EQ PUSH2 0x697 JUMPI DUP2 PUSH4 0xBE986420 EQ PUSH2 0x66E JUMPI DUP2 PUSH4 0xC01CA43F EQ PUSH2 0x5B6 JUMPI DUP2 PUSH4 0xD15E55B7 EQ PUSH2 0x54E JUMPI DUP2 PUSH4 0xD96D98CA EQ PUSH2 0x506 JUMPI DUP2 PUSH4 0xDB2E21BC EQ PUSH2 0x40E JUMPI DUP2 PUSH4 0xE20FC118 EQ PUSH2 0x3E5 JUMPI DUP2 PUSH4 0xF1259329 EQ PUSH2 0x23C JUMPI DUP2 PUSH4 0xF2FDE38B EQ PUSH2 0x175 JUMPI POP PUSH4 0xFEF39194 EQ PUSH2 0x157 JUMPI PUSH1 0x0 DUP1 REVERT JUMPDEST CALLVALUE PUSH2 0x171 JUMPI DUP2 PUSH1 0x3 NOT CALLDATASIZE ADD SLT PUSH2 0x171 JUMPI PUSH1 0x20 SWAP1 MLOAD PUSH1 0x19 DUP2 MSTORE RETURN JUMPDEST POP DUP1 REVERT JUMPDEST SWAP1 POP CALLVALUE PUSH2 0x238 JUMPI PUSH1 0x20 CALLDATASIZE PUSH1 0x3 NOT ADD SLT PUSH2 0x238 JUMPI PUSH2 0x190 PUSH2 0x11F1 JUMP JUMPDEST SWAP1 PUSH2 0x199 PUSH2 0x145E JUMP JUMPDEST PUSH1 0x1 PUSH1 0x1 PUSH1 0xA0 SHL SUB SWAP2 DUP3 AND SWAP3 DUP4 ISZERO PUSH2 0x1E6 JUMPI POP POP DUP3 SLOAD PUSH1 0x1 PUSH1 0x1 PUSH1 0xA0 SHL SUB NOT DUP2 AND DUP4 OR DUP5 SSTORE AND PUSH32 0x8BE0079C531659141344CD1FD0A4F28419497F9722A3DAAFE3B4186F6B6457E0 DUP4 DUP1 LOG3 DUP1 RETURN JUMPDEST SWAP1 PUSH1 0x20 PUSH1 0x84 SWAP3 MLOAD SWAP2 PUSH3 0x461BCD PUSH1 0xE5 SHL DUP4 MSTORE DUP3 ADD MSTORE PUSH1 0x26 PUSH1 0x24 DUP3 ADD MSTORE PUSH32 0x4F776E61626C653A206E6577206F776E657220697320746865207A65726F2061 PUSH1 0x44 DUP3 ADD MSTORE PUSH6 0x646472657373 PUSH1 0xD0 SHL PUSH1 0x64 DUP3 ADD MSTORE REVERT JUMPDEST DUP3 DUP1 REVERT JUMPDEST SWAP2 SWAP1 POP CALLVALUE PUSH2 0x238 JUMPI DUP3 PUSH1 0x3 NOT CALLDATASIZE ADD SLT PUSH2 0x238 JUMPI PUSH2 0x257 PUSH2 0x154B JUMP JUMPDEST PUSH2 0x25F PUSH2 0x1592 JUMP JUMPDEST PUSH2 0x268 CALLER PUSH2 0x1508 JUMP JUMPDEST PUSH2 0x3A2 JUMPI DUP3 SWAP1 PUSH1 0x1 DUP1 PUSH1 0xA0 SHL SUB SWAP3 DUP4 PUSH1 0x2 SLOAD AND DUP3 MLOAD SWAP1 PUSH4 0x23B872DD PUSH1 0xE0 SHL DUP3 MSTORE CALLER DUP4 DUP4 ADD MSTORE ADDRESS PUSH1 0x24 DUP4 ADD MSTORE PUSH1 0x19 PUSH1 0x44 DUP4 ADD MSTORE DUP2 PUSH1 0x64 DUP2 PUSH1 0x20 SWAP8 DUP9 SWAP5 GAS CALL SWAP1 DUP2 ISZERO PUSH2 0x398 JUMPI DUP5 SWAP3 SWAP2 PUSH2 0x2C0 SWAP2 DUP9 SWAP2 PUSH2 0x37B JUMPI JUMPDEST POP PUSH2 0x1600 JUMP JUMPDEST PUSH1 0x44 DUP6 PUSH1 0x2 SLOAD AND SWAP6 PUSH1 0x6 SLOAD AND SWAP2 DUP8 DUP6 MLOAD SWAP8 DUP9 SWAP5 DUP6 SWAP4 PUSH4 0xA9059CBB PUSH1 0xE0 SHL DUP6 MSTORE DUP5 ADD MSTORE PUSH1 0x2 PUSH1 0x24 DUP5 ADD MSTORE GAS CALL SWAP3 DUP4 ISZERO PUSH2 0x371 JUMPI PUSH32 0xB451B637378C20DB51805E6A988CBF224E3EC1380A5F0B6D745E65A7C3A0DCF1 SWAP3 SWAP4 PUSH2 0x344 JUMPI JUMPDEST POP CALLER DUP5 MSTORE PUSH1 0x3 DUP4 MSTORE PUSH1 0x2 DUP2 DUP6 KECCAK256 ADD PUSH2 0x332 DUP2 SLOAD PUSH2 0x153C JUMP JUMPDEST SWAP1 SSTORE MLOAD SWAP2 PUSH1 0x19 DUP4 MSTORE CALLER SWAP3 LOG2 PUSH1 0x1 DUP1 SSTORE DUP1 RETURN JUMPDEST PUSH2 0x363 SWAP1 DUP5 RETURNDATASIZE DUP7 GT PUSH2 0x36A JUMPI JUMPDEST PUSH2 0x35B DUP2 DUP4 PUSH2 0x1396 JUMP JUMPDEST DUP2 ADD SWAP1 PUSH2 0x15E8 JUMP JUMPDEST POP CODESIZE PUSH2 0x31A JUMP JUMPDEST POP RETURNDATASIZE PUSH2 0x351 JUMP JUMPDEST DUP2 MLOAD RETURNDATASIZE DUP7 DUP3 RETURNDATACOPY RETURNDATASIZE SWAP1 REVERT JUMPDEST PUSH2 0x392 SWAP2 POP DUP5 RETURNDATASIZE DUP7 GT PUSH2 0x36A JUMPI PUSH2 0x35B DUP2 DUP4 PUSH2 0x1396 JUMP JUMPDEST CODESIZE PUSH2 0x2BA JUMP JUMPDEST DUP4 MLOAD RETURNDATASIZE DUP9 DUP3 RETURNDATACOPY RETURNDATASIZE SWAP1 REVERT JUMPDEST SWAP1 PUSH1 0x20 PUSH1 0x64 SWAP3 MLOAD SWAP2 PUSH3 0x461BCD PUSH1 0xE5 SHL DUP4 MSTORE DUP3 ADD MSTORE PUSH1 0x1A PUSH1 0x24 DUP3 ADD MSTORE PUSH32 0x4861766520756E6C696D69746564207061737320616374697665000000000000 PUSH1 0x44 DUP3 ADD MSTORE REVERT JUMPDEST POP POP CALLVALUE PUSH2 0x171 JUMPI DUP2 PUSH1 0x3 NOT CALLDATASIZE ADD SLT PUSH2 0x171 JUMPI PUSH1 0x6 SLOAD SWAP1 MLOAD PUSH1 0x1 PUSH1 0x1 PUSH1 0xA0 SHL SUB SWAP1 SWAP2 AND DUP2 MSTORE PUSH1 0x20 SWAP1 RETURN JUMPDEST SWAP1 POP CALLVALUE PUSH2 0x238 JUMPI DUP3 PUSH1 0x3 NOT CALLDATASIZE ADD SLT PUSH2 0x238 JUMPI PUSH2 0x428 PUSH2 0x145E JUMP JUMPDEST PUSH1 0x1 DUP1 PUSH1 0xA0 SHL SUB SWAP2 DUP3 PUSH1 0x2 SLOAD AND DUP2 MLOAD SWAP3 PUSH4 0x70A08231 PUSH1 0xE0 SHL DUP5 MSTORE ADDRESS DUP2 DUP6 ADD MSTORE DUP6 PUSH1 0x20 SWAP6 DUP7 DUP7 PUSH1 0x24 DUP2 DUP8 GAS STATICCALL SWAP6 DUP7 ISZERO PUSH2 0x4FC JUMPI SWAP1 DUP3 SWAP2 DUP9 SWAP6 SWAP5 SWAP4 SWAP8 PUSH2 0x4C2 JUMPI JUMPDEST POP SWAP1 PUSH1 0x44 SWAP3 SWAP2 DUP2 SLOAD AND SWAP4 DUP7 MLOAD SWAP8 DUP9 SWAP6 DUP7 SWAP5 PUSH4 0xA9059CBB PUSH1 0xE0 SHL DUP7 MSTORE DUP6 ADD MSTORE PUSH1 0x24 DUP5 ADD MSTORE GAS CALL SWAP1 DUP2 ISZERO PUSH2 0x4B9 JUMPI POP PUSH2 0x49C JUMPI DUP3 DUP1 RETURN JUMPDEST DUP2 PUSH2 0x4B2 SWAP3 SWAP1 RETURNDATASIZE LT PUSH2 0x36A JUMPI PUSH2 0x35B DUP2 DUP4 PUSH2 0x1396 JUMP JUMPDEST POP CODESIZE DUP1 DUP3 DUP1 RETURN JUMPDEST MLOAD RETURNDATASIZE DUP6 DUP3 RETURNDATACOPY RETURNDATASIZE SWAP1 REVERT JUMPDEST DUP6 DUP2 SWAP5 SWAP4 SWAP7 SWAP3 SWAP9 POP RETURNDATASIZE DUP4 GT PUSH2 0x4F5 JUMPI JUMPDEST PUSH2 0x4DC DUP2 DUP4 PUSH2 0x1396 JUMP JUMPDEST DUP2 ADD SUB SLT PUSH2 0x4F1 JUMPI SWAP1 MLOAD SWAP5 DUP7 SWAP4 SWAP1 PUSH1 0x44 PUSH2 0x467 JUMP JUMPDEST DUP4 DUP1 REVERT JUMPDEST POP RETURNDATASIZE PUSH2 0x4D2 JUMP JUMPDEST DUP6 MLOAD RETURNDATASIZE DUP5 DUP3 RETURNDATACOPY RETURNDATASIZE SWAP1 REVERT JUMPDEST DUP4 CALLVALUE PUSH2 0x54B JUMPI PUSH1 0x20 CALLDATASIZE PUSH1 0x3 NOT ADD SLT PUSH2 0x54B JUMPI PUSH2 0x520 PUSH2 0x11F1 JUMP JUMPDEST PUSH2 0x528 PUSH2 0x145E JUMP JUMPDEST PUSH1 0x1 DUP1 PUSH1 0xA0 SHL SUB AND PUSH12 0xFFFFFFFFFFFFFFFFFFFFFFFF PUSH1 0xA0 SHL PUSH1 0x6 SLOAD AND OR PUSH1 0x6 SSTORE DUP1 RETURN JUMPDEST DUP1 REVERT JUMPDEST SWAP2 SWAP1 POP CALLVALUE PUSH2 0x238 JUMPI PUSH1 0x20 CALLDATASIZE PUSH1 0x3 NOT ADD SLT PUSH2 0x238 JUMPI PUSH1 0xA0 SWAP3 DUP2 SWAP1 PUSH1 0x1 PUSH1 0x1 PUSH1 0xA0 SHL SUB PUSH2 0x577 PUSH2 0x11F1 JUMP JUMPDEST AND DUP2 MSTORE PUSH1 0x3 PUSH1 0x20 MSTORE KECCAK256 DUP1 SLOAD SWAP3 PUSH1 0x1 DUP3 ADD SLOAD SWAP3 PUSH1 0xFF PUSH1 0x2 DUP5 ADD SLOAD SWAP3 PUSH1 0x3 DUP6 ADD SLOAD SWAP5 ADD SLOAD AND SWAP4 DUP2 MLOAD SWAP6 DUP7 MSTORE PUSH1 0x20 DUP7 ADD MSTORE DUP5 ADD MSTORE PUSH1 0x60 DUP4 ADD MSTORE ISZERO ISZERO PUSH1 0x80 DUP3 ADD MSTORE RETURN JUMPDEST SWAP2 SWAP1 POP CALLVALUE PUSH2 0x238 JUMPI PUSH1 0x20 CALLDATASIZE PUSH1 0x3 NOT ADD SLT PUSH2 0x238 JUMPI DUP1 PUSH1 0xA0 SWAP4 PUSH2 0x5D6 PUSH2 0x11F1 JUMP JUMPDEST DUP2 PUSH1 0x80 DUP5 MLOAD PUSH2 0x5E4 DUP2 PUSH2 0x137A JUMP JUMPDEST DUP3 DUP2 MSTORE DUP3 PUSH1 0x20 DUP3 ADD MSTORE DUP3 DUP7 DUP3 ADD MSTORE DUP3 PUSH1 0x60 DUP3 ADD MSTORE ADD MSTORE PUSH1 0x1 DUP1 DUP8 SHL SUB AND DUP2 MSTORE PUSH1 0x3 PUSH1 0x20 MSTORE KECCAK256 DUP2 MLOAD SWAP2 PUSH2 0x615 DUP4 PUSH2 0x137A JUMP JUMPDEST DUP2 SLOAD SWAP4 DUP5 DUP5 MSTORE PUSH1 0x1 DUP4 ADD SLOAD PUSH1 0x20 DUP6 ADD SWAP1 DUP2 MSTORE PUSH1 0x80 PUSH1 0xFF PUSH1 0x2 DUP7 ADD SLOAD SWAP4 DUP6 DUP9 ADD SWAP5 DUP6 MSTORE PUSH1 0x3 DUP8 ADD SLOAD SWAP7 PUSH1 0x60 DUP10 ADD SWAP8 DUP9 MSTORE ADD SLOAD AND SWAP6 ADD SWAP5 ISZERO ISZERO DUP6 MSTORE DUP3 MLOAD SWAP6 DUP7 MSTORE MLOAD PUSH1 0x20 DUP7 ADD MSTORE MLOAD SWAP1 DUP5 ADD MSTORE MLOAD PUSH1 0x60 DUP4 ADD MSTORE MLOAD ISZERO ISZERO PUSH1 0x80 DUP3 ADD MSTORE RETURN JUMPDEST POP POP CALLVALUE PUSH2 0x171 JUMPI DUP2 PUSH1 0x3 NOT CALLDATASIZE ADD SLT PUSH2 0x171 JUMPI PUSH1 0x2 SLOAD SWAP1 MLOAD PUSH1 0x1 PUSH1 0x1 PUSH1 0xA0 SHL SUB SWAP1 SWAP2 AND DUP2 MSTORE PUSH1 0x20 SWAP1 RETURN JUMPDEST DUP4 DUP4 CALLVALUE PUSH2 0x171 JUMPI DUP1 PUSH1 0x3 NOT CALLDATASIZE ADD SLT PUSH2 0x171 JUMPI DUP3 CALLDATALOAD SWAP1 PUSH1 0x24 SWAP4 DUP5 CALLDATALOAD PUSH8 0xFFFFFFFFFFFFFFFF SWAP2 DUP3 DUP3 GT PUSH2 0xA47 JUMPI CALLDATASIZE PUSH1 0x23 DUP4 ADD SLT ISZERO PUSH2 0xA47 JUMPI DUP2 DUP2 ADD CALLDATALOAD SWAP2 DUP4 DUP4 GT PUSH2 0xA35 JUMPI DUP5 MLOAD PUSH1 0x20 SWAP4 PUSH1 0x1F NOT SWAP3 PUSH2 0x6F3 PUSH1 0x1F DUP4 ADD DUP6 AND DUP8 ADD DUP5 PUSH2 0x1396 JUMP JUMPDEST DUP2 DUP4 MSTORE CALLDATASIZE DUP12 DUP4 DUP4 ADD ADD GT PUSH2 0xA31 JUMPI DUP2 DUP11 SWAP3 DUP13 DUP9 SWAP4 ADD DUP4 DUP7 ADD CALLDATACOPY DUP4 ADD ADD MSTORE PUSH2 0x718 PUSH2 0x154B JUMP JUMPDEST PUSH2 0x720 PUSH2 0x14B6 JUMP JUMPDEST SWAP5 PUSH2 0x72A CALLER PUSH2 0x14E2 JUMP JUMPDEST DUP1 ISZERO PUSH2 0xA22 JUMPI JUMPDEST DUP1 ISZERO PUSH2 0xA0C JUMPI JUMPDEST ISZERO PUSH2 0x9D3 JUMPI DUP6 DUP10 MSTORE PUSH1 0x5 DUP6 MSTORE DUP7 DUP10 KECCAK256 CALLER DUP11 MSTORE DUP6 MSTORE PUSH1 0xFF DUP8 DUP11 KECCAK256 SLOAD AND PUSH2 0x991 JUMPI DUP6 DUP10 MSTORE DUP4 DUP6 MSTORE DUP7 DUP10 KECCAK256 SWAP3 DUP10 DUP9 MLOAD PUSH2 0x76D DUP2 PUSH2 0x1348 JUMP JUMPDEST CALLER DUP2 MSTORE DUP8 DUP2 ADD DUP12 DUP2 MSTORE DUP11 DUP3 ADD SWAP2 TIMESTAMP DUP4 MSTORE PUSH1 0x60 DUP2 ADD SWAP7 DUP8 MSTORE DUP8 SLOAD PUSH9 0x10000000000000000 DUP2 LT ISZERO PUSH2 0x97F JUMPI PUSH2 0x7A8 SWAP1 PUSH1 0x1 SWAP10 DUP11 DUP3 ADD DUP2 SSTORE PUSH2 0x12DC JUMP JUMPDEST SWAP5 SWAP1 SWAP5 PUSH2 0x96E JUMPI POP MLOAD DUP4 SLOAD PUSH1 0x1 PUSH1 0x1 PUSH1 0xA0 SHL SUB NOT AND PUSH1 0x1 PUSH1 0x1 PUSH1 0xA0 SHL SUB SWAP2 SWAP1 SWAP2 AND OR DUP4 SSTORE MLOAD DUP7 DUP4 ADD SSTORE MLOAD PUSH1 0x2 DUP3 ADD SSTORE SWAP3 MLOAD DUP1 MLOAD PUSH1 0x3 SWAP5 SWAP1 SWAP5 ADD SWAP4 SWAP3 DUP4 GT PUSH2 0x95C JUMPI SWAP1 DUP3 SWAP2 PUSH2 0x7F6 DUP6 SLOAD PUSH2 0x130E JUMP JUMPDEST PUSH1 0x1F DUP2 GT PUSH2 0x90A JUMPI JUMPDEST POP DUP8 SWAP2 PUSH1 0x1F DUP5 GT PUSH1 0x1 EQ PUSH2 0x8AE JUMPI POP DUP12 SWAP3 PUSH2 0x8A3 JUMPI JUMPDEST POP POP PUSH1 0x0 NOT PUSH1 0x3 DUP4 SWAP1 SHL SHR NOT AND SWAP1 DUP4 SHL OR SWAP1 SSTORE JUMPDEST DUP4 DUP8 MSTORE PUSH1 0x5 DUP4 MSTORE DUP5 DUP8 KECCAK256 CALLER DUP9 MSTORE DUP4 MSTORE DUP5 DUP8 KECCAK256 SWAP1 PUSH1 0xFF NOT DUP3 SLOAD AND OR SWAP1 SSTORE PUSH1 0x3 DUP3 MSTORE PUSH1 0x3 DUP5 DUP8 KECCAK256 ADD DUP1 SLOAD SWAP2 DUP7 DUP4 ADD DUP1 SWAP4 GT PUSH2 0x891 JUMPI POP PUSH32 0xB7F20D0949B6A8BC59D005AF4A52F7FF5D0CFCDE9056FA556ADB0E4B24DCB6D2 SWAP6 SWAP7 SWAP8 POP SSTORE DUP3 MLOAD SWAP5 DUP6 MSTORE DUP5 ADD MSTORE CALLER SWAP3 LOG2 DUP1 RETURN JUMPDEST PUSH4 0x4E487B71 PUSH1 0xE0 SHL DUP9 MSTORE PUSH1 0x11 SWAP1 MSTORE DUP8 DUP8 REVERT JUMPDEST ADD MLOAD SWAP1 POP DUP12 DUP1 PUSH2 0x815 JUMP JUMPDEST DUP6 DUP14 MSTORE DUP9 DUP14 KECCAK256 DUP8 SWAP6 SWAP1 SWAP4 SWAP3 SWAP2 AND DUP14 JUMPDEST DUP11 DUP3 DUP3 LT PUSH2 0x8F4 JUMPI POP POP DUP5 GT PUSH2 0x8DB JUMPI JUMPDEST POP POP POP DUP2 SHL ADD SWAP1 SSTORE PUSH2 0x829 JUMP JUMPDEST ADD MLOAD PUSH1 0x0 NOT PUSH1 0xF8 DUP5 PUSH1 0x3 SHL AND SHR NOT AND SWAP1 SSTORE DUP12 DUP1 DUP1 PUSH2 0x8CE JUMP JUMPDEST DUP4 DUP6 ADD MLOAD DUP7 SSTORE DUP10 SWAP8 SWAP1 SWAP6 ADD SWAP5 SWAP4 DUP5 ADD SWAP4 ADD PUSH2 0x8BD JUMP JUMPDEST SWAP1 SWAP2 SWAP3 POP DUP5 DUP13 MSTORE DUP8 DUP13 KECCAK256 PUSH1 0x1F DUP6 ADD PUSH1 0x5 SHR DUP2 ADD SWAP2 DUP10 DUP7 LT PUSH2 0x952 JUMPI JUMPDEST DUP6 SWAP5 SWAP4 SWAP3 SWAP2 PUSH1 0x1F DUP10 SWAP3 ADD PUSH1 0x5 SHR ADD SWAP2 JUMPDEST DUP3 DUP2 LT PUSH2 0x944 JUMPI POP POP PUSH2 0x7FF JUMP JUMPDEST DUP15 DUP2 SSTORE DUP7 SWAP6 POP DUP9 SWAP2 ADD PUSH2 0x936 JUMP JUMPDEST SWAP1 SWAP2 POP DUP2 SWAP1 PUSH2 0x926 JUMP JUMPDEST PUSH4 0x4E487B71 PUSH1 0xE0 SHL DUP12 MSTORE PUSH1 0x41 DUP7 MSTORE DUP12 DUP12 REVERT JUMPDEST PUSH4 0x4E487B71 PUSH1 0xE0 SHL DUP2 MSTORE DUP1 DUP11 MSTORE DUP16 SWAP1 REVERT JUMPDEST PUSH4 0x4E487B71 PUSH1 0xE0 SHL DUP6 MSTORE PUSH1 0x41 DUP11 MSTORE DUP16 DUP6 REVERT JUMPDEST DUP7 MLOAD PUSH3 0x461BCD PUSH1 0xE5 SHL DUP2 MSTORE DUP1 DUP6 ADD DUP7 SWAP1 MSTORE PUSH1 0x17 DUP2 DUP13 ADD MSTORE PUSH32 0x416C7265616479207375626D697474656420746F646179000000000000000000 PUSH1 0x44 DUP3 ADD MSTORE PUSH1 0x64 SWAP1 REVERT JUMPDEST DUP7 MLOAD PUSH3 0x461BCD PUSH1 0xE5 SHL DUP2 MSTORE DUP1 DUP6 ADD DUP7 SWAP1 MSTORE PUSH1 0x14 DUP2 DUP13 ADD MSTORE PUSH20 0x135D5CDD081C1B185E4819D85B5948199A5C9CDD PUSH1 0x62 SHL PUSH1 0x44 DUP3 ADD MSTORE PUSH1 0x64 SWAP1 REVERT JUMPDEST POP CALLER DUP10 MSTORE PUSH1 0x3 DUP6 MSTORE PUSH1 0x2 DUP8 DUP11 KECCAK256 ADD SLOAD ISZERO ISZERO PUSH2 0x738 JUMP JUMPDEST POP PUSH2 0xA2C CALLER PUSH2 0x1508 JUMP JUMPDEST PUSH2 0x731 JUMP JUMPDEST DUP10 DUP1 REVERT JUMPDEST PUSH4 0x4E487B71 PUSH1 0xE0 SHL DUP8 MSTORE PUSH1 0x41 DUP3 MSTORE DUP8 DUP8 REVERT JUMPDEST DUP6 DUP1 REVERT JUMPDEST SWAP1 POP CALLVALUE PUSH2 0x238 JUMPI DUP3 PUSH1 0x3 NOT CALLDATASIZE ADD SLT PUSH2 0x238 JUMPI PUSH2 0xA65 PUSH2 0x154B JUMP JUMPDEST PUSH2 0xA6D PUSH2 0x1592 JUMP JUMPDEST PUSH2 0xA76 CALLER PUSH2 0x1508 JUMP JUMPDEST PUSH2 0xBE3 JUMPI PUSH2 0xA82 PUSH2 0x14B6 JUMP JUMPDEST SWAP1 PUSH1 0x1 DUP3 ADD DUP1 SWAP3 GT PUSH2 0xBD0 JUMPI PUSH3 0x15180 SWAP2 DUP3 DUP2 MUL SWAP3 DUP2 DUP5 DIV EQ SWAP1 ISZERO OR ISZERO PUSH2 0xBD0 JUMPI PUSH2 0x3840 DUP3 ADD DUP1 SWAP3 GT PUSH2 0xBD0 JUMPI PUSH1 0x2 SLOAD DUP4 MLOAD PUSH4 0x23B872DD PUSH1 0xE0 SHL DUP2 MSTORE CALLER DUP2 DUP5 ADD MSTORE ADDRESS PUSH1 0x24 DUP3 ADD MSTORE PUSH1 0xFA PUSH1 0x44 DUP3 ADD MSTORE PUSH1 0x20 SWAP3 SWAP2 DUP7 SWAP2 SWAP1 PUSH1 0x1 PUSH1 0x1 PUSH1 0xA0 SHL SUB SWAP1 DUP6 SWAP1 DUP4 SWAP1 PUSH1 0x64 SWAP1 DUP3 SWAP1 DUP8 SWAP1 DUP7 AND GAS CALL SWAP2 DUP3 ISZERO PUSH2 0xBC6 JUMPI DUP6 SWAP3 PUSH2 0xB08 SWAP2 DUP6 SWAP2 PUSH2 0x37B JUMPI POP PUSH2 0x1600 JUMP JUMPDEST PUSH1 0x44 DUP2 PUSH1 0x2 SLOAD AND SWAP2 PUSH1 0x6 SLOAD AND DUP9 MLOAD SWAP5 DUP6 SWAP4 DUP5 SWAP3 PUSH4 0xA9059CBB PUSH1 0xE0 SHL DUP5 MSTORE DUP9 DUP5 ADD MSTORE PUSH1 0x19 PUSH1 0x24 DUP5 ADD MSTORE GAS CALL DUP1 ISZERO PUSH2 0xBBC JUMPI SWAP2 PUSH1 0x2 SWAP2 PUSH32 0xFCCD92C3218EFE7BDEEF2C0EB1423D56EDBB72BB3D47CD78E4C76140FE495957 SWAP6 SWAP7 SWAP4 PUSH2 0xB9F JUMPI JUMPDEST POP CALLER DUP8 MSTORE PUSH1 0x3 DUP5 MSTORE DUP3 DUP8 KECCAK256 SWAP1 DUP2 ADD PUSH1 0x1 PUSH1 0xFF NOT DUP3 SLOAD AND OR SWAP1 SSTORE DUP6 PUSH1 0x1 DUP3 ADD SSTORE ADD PUSH2 0xB8F DUP2 SLOAD PUSH2 0x153C JUMP JUMPDEST SWAP1 SSTORE MLOAD SWAP3 DUP4 MSTORE CALLER SWAP3 LOG2 PUSH1 0x1 DUP1 SSTORE DUP1 RETURN JUMPDEST PUSH2 0xBB5 SWAP1 DUP6 RETURNDATASIZE DUP8 GT PUSH2 0x36A JUMPI PUSH2 0x35B DUP2 DUP4 PUSH2 0x1396 JUMP JUMPDEST POP CODESIZE PUSH2 0xB65 JUMP JUMPDEST DUP6 MLOAD RETURNDATASIZE DUP9 DUP3 RETURNDATACOPY RETURNDATASIZE SWAP1 REVERT JUMPDEST DUP8 MLOAD RETURNDATASIZE DUP6 DUP3 RETURNDATACOPY RETURNDATASIZE SWAP1 REVERT JUMPDEST PUSH4 0x4E487B71 PUSH1 0xE0 SHL DUP5 MSTORE PUSH1 0x11 SWAP1 MSTORE PUSH1 0x24 DUP4 REVERT JUMPDEST PUSH1 0x20 PUSH1 0x64 SWAP3 MLOAD SWAP2 PUSH3 0x461BCD PUSH1 0xE5 SHL DUP4 MSTORE DUP3 ADD MSTORE PUSH1 0x1B PUSH1 0x24 DUP3 ADD MSTORE PUSH32 0x416C7265616479206861766520756E6C696D6974656420706173730000000000 PUSH1 0x44 DUP3 ADD MSTORE REVERT JUMPDEST SWAP2 SWAP1 POP CALLVALUE PUSH2 0x238 JUMPI DUP3 PUSH1 0x3 NOT CALLDATASIZE ADD SLT PUSH2 0x238 JUMPI PUSH1 0x20 SWAP3 POP MLOAD SWAP1 DUP2 MSTORE RETURN JUMPDEST POP POP CALLVALUE PUSH2 0x171 JUMPI DUP2 PUSH1 0x3 NOT CALLDATASIZE ADD SLT PUSH2 0x171 JUMPI SWAP1 SLOAD SWAP1 MLOAD PUSH1 0x1 PUSH1 0x1 PUSH1 0xA0 SHL SUB SWAP1 SWAP2 AND DUP2 MSTORE PUSH1 0x20 SWAP1 RETURN JUMPDEST POP POP CALLVALUE PUSH2 0x171 JUMPI PUSH1 0x20 CALLDATASIZE PUSH1 0x3 NOT ADD SLT PUSH2 0x171 JUMPI PUSH1 0x20 SWAP1 PUSH2 0xC90 PUSH2 0xC8B PUSH2 0x11F1 JUMP JUMPDEST PUSH2 0x1508 JUMP JUMPDEST SWAP1 MLOAD SWAP1 ISZERO ISZERO DUP2 MSTORE RETURN JUMPDEST POP POP CALLVALUE PUSH2 0x171 JUMPI DUP2 PUSH1 0x3 NOT CALLDATASIZE ADD SLT PUSH2 0x171 JUMPI PUSH1 0x20 PUSH32 0x62E78CEA01BEE320CD4E420270B5EA74000D11B0C9F74754EBDBFC544B05A258 SWAP2 PUSH2 0xCD7 PUSH2 0x145E JUMP JUMPDEST PUSH2 0xCDF PUSH2 0x154B JUMP JUMPDEST DUP4 SLOAD PUSH1 0xFF PUSH1 0xA0 SHL NOT AND PUSH1 0x1 PUSH1 0xA0 SHL OR DUP5 SSTORE MLOAD CALLER DUP2 MSTORE LOG1 DUP1 RETURN JUMPDEST SWAP1 POP CALLVALUE PUSH2 0x238 JUMPI DUP2 PUSH1 0x3 NOT CALLDATASIZE ADD SLT PUSH2 0x238 JUMPI PUSH1 0x24 CALLDATALOAD SWAP1 DUP1 CALLDATALOAD DUP5 MSTORE PUSH1 0x20 MSTORE DUP2 DUP4 KECCAK256 DUP1 SLOAD DUP3 LT ISZERO PUSH2 0x4F1 JUMPI SWAP1 PUSH2 0xD2B SWAP2 PUSH2 0x12DC JUMP JUMPDEST POP SWAP1 PUSH2 0xD73 PUSH1 0x1 DUP1 PUSH1 0xA0 SHL SUB DUP4 SLOAD AND SWAP2 PUSH1 0x1 DUP5 ADD SLOAD SWAP4 PUSH2 0xD52 PUSH1 0x3 PUSH1 0x2 DUP4 ADD SLOAD SWAP3 ADD PUSH2 0x13B8 JUMP JUMPDEST SWAP2 DUP1 MLOAD SWAP6 DUP7 SWAP6 DUP7 MSTORE PUSH1 0x20 DUP7 ADD MSTORE DUP5 ADD MSTORE PUSH1 0x80 PUSH1 0x60 DUP5 ADD MSTORE PUSH1 0x80 DUP4 ADD SWAP1 PUSH2 0x120C JUMP JUMPDEST SUB SWAP1 RETURN JUMPDEST DUP4 CALLVALUE PUSH2 0x54B JUMPI DUP1 PUSH1 0x3 NOT CALLDATASIZE ADD SLT PUSH2 0x54B JUMPI PUSH2 0xD90 PUSH2 0x145E JUMP JUMPDEST DUP1 SLOAD PUSH1 0x1 PUSH1 0x1 PUSH1 0xA0 SHL SUB NOT DUP2 AND DUP3 SSTORE DUP2 SWAP1 PUSH1 0x1 PUSH1 0x1 PUSH1 0xA0 SHL SUB AND PUSH32 0x8BE0079C531659141344CD1FD0A4F28419497F9722A3DAAFE3B4186F6B6457E0 DUP3 DUP1 LOG3 DUP1 RETURN JUMPDEST POP POP CALLVALUE PUSH2 0x171 JUMPI DUP2 PUSH1 0x3 NOT CALLDATASIZE ADD SLT PUSH2 0x171 JUMPI PUSH1 0xFF PUSH1 0x20 SWAP3 SLOAD PUSH1 0xA0 SHR AND SWAP1 MLOAD SWAP1 ISZERO ISZERO DUP2 MSTORE RETURN JUMPDEST POP POP CALLVALUE PUSH2 0x171 JUMPI DUP2 PUSH1 0x3 NOT CALLDATASIZE ADD SLT PUSH2 0x171 JUMPI PUSH1 0x20 SWAP1 MLOAD PUSH1 0xA DUP2 MSTORE RETURN JUMPDEST DUP4 SWAP2 POP CALLVALUE PUSH2 0x171 JUMPI DUP2 PUSH1 0x3 NOT CALLDATASIZE ADD SLT PUSH2 0x171 JUMPI PUSH2 0xE2D PUSH2 0x14B6 JUMP JUMPDEST DUP3 MSTORE PUSH1 0x20 SWAP1 DUP1 DUP3 MSTORE DUP4 DUP4 KECCAK256 SWAP3 DUP4 SLOAD SWAP3 PUSH8 0xFFFFFFFFFFFFFFFF DUP5 GT PUSH2 0xECB JUMPI DUP6 MLOAD SWAP5 SWAP2 PUSH2 0xE5F PUSH1 0x5 DUP7 SWAP1 SHL DUP4 ADD DUP8 PUSH2 0x1396 JUMP JUMPDEST DUP5 DUP7 MSTORE SWAP2 DUP3 MSTORE DUP1 DUP3 KECCAK256 DUP2 DUP7 ADD JUMPDEST DUP6 DUP5 LT PUSH2 0xE80 JUMPI DUP8 MLOAD DUP1 PUSH2 0xD73 DUP10 DUP3 PUSH2 0x124C JUMP JUMPDEST DUP5 DUP4 PUSH1 0x1 SWAP3 DUP11 MLOAD PUSH2 0xE90 DUP2 PUSH2 0x1348 JUMP JUMPDEST DUP5 DUP1 PUSH1 0xA0 SHL SUB DUP7 SLOAD AND DUP2 MSTORE DUP5 DUP7 ADD SLOAD DUP4 DUP3 ADD MSTORE PUSH1 0x2 DUP7 ADD SLOAD DUP13 DUP3 ADD MSTORE PUSH2 0xEB8 PUSH1 0x3 DUP8 ADD PUSH2 0x13B8 JUMP JUMPDEST PUSH1 0x60 DUP3 ADD MSTORE DUP2 MSTORE ADD SWAP3 ADD SWAP4 ADD SWAP3 SWAP1 PUSH2 0xE6C JUMP JUMPDEST POP PUSH1 0x41 PUSH1 0x24 SWAP3 PUSH4 0x4E487B71 PUSH1 0xE0 SHL DUP4 MSTORE MSTORE REVERT JUMPDEST SWAP1 POP CALLVALUE PUSH2 0x238 JUMPI DUP2 PUSH1 0x3 NOT CALLDATASIZE ADD SLT PUSH2 0x238 JUMPI PUSH1 0x24 CALLDATALOAD PUSH1 0x1 PUSH1 0x1 PUSH1 0xA0 SHL SUB DUP2 AND SWAP2 SWAP1 DUP3 SWAP1 SUB PUSH2 0x4F1 JUMPI PUSH1 0x20 SWAP4 PUSH1 0xFF SWAP3 DUP5 SWAP3 CALLDATALOAD DUP3 MSTORE PUSH1 0x5 DUP7 MSTORE DUP3 DUP3 KECCAK256 SWAP1 DUP3 MSTORE DUP6 MSTORE KECCAK256 SLOAD AND SWAP1 MLOAD SWAP1 ISZERO ISZERO DUP2 MSTORE RETURN JUMPDEST SWAP1 POP CALLVALUE PUSH2 0x238 JUMPI DUP3 PUSH1 0x3 NOT CALLDATASIZE ADD SLT PUSH2 0x238 JUMPI PUSH2 0xF43 PUSH2 0x145E JUMP JUMPDEST DUP3 SLOAD SWAP1 PUSH1 0xFF DUP3 PUSH1 0xA0 SHR AND ISZERO PUSH2 0xF89 JUMPI POP PUSH1 0xFF PUSH1 0xA0 SHL NOT AND DUP3 SSTORE MLOAD CALLER DUP2 MSTORE PUSH32 0x5DB9EE0A495BF2E6FF9C91A7834C1BA4FDD244A5E8AA4E537BD38AEAE4B073AA SWAP1 PUSH1 0x20 SWAP1 LOG1 DUP1 RETURN JUMPDEST PUSH1 0x64 SWAP1 PUSH1 0x20 DUP5 MLOAD SWAP2 PUSH3 0x461BCD PUSH1 0xE5 SHL DUP4 MSTORE DUP3 ADD MSTORE PUSH1 0x14 PUSH1 0x24 DUP3 ADD MSTORE PUSH20 0x14185D5CD8589B194E881B9BDD081C185D5CD959 PUSH1 0x62 SHL PUSH1 0x44 DUP3 ADD MSTORE REVERT JUMPDEST POP POP CALLVALUE PUSH2 0x171 JUMPI DUP2 PUSH1 0x3 NOT CALLDATASIZE ADD SLT PUSH2 0x171 JUMPI PUSH1 0x20 SWAP1 PUSH2 0xFE0 PUSH2 0x14B6 JUMP JUMPDEST SWAP1 MLOAD SWAP1 DUP2 MSTORE RETURN JUMPDEST POP POP CALLVALUE PUSH2 0x171 JUMPI DUP2 PUSH1 0x3 NOT CALLDATASIZE ADD SLT PUSH2 0x171 JUMPI PUSH1 0x20 SWAP1 MLOAD PUSH1 0xFA DUP2 MSTORE RETURN JUMPDEST DUP4 SWAP2 POP CALLVALUE PUSH2 0x171 JUMPI PUSH1 0x20 SWAP1 DUP2 PUSH1 0x3 NOT CALLDATASIZE ADD SLT PUSH2 0x238 JUMPI DUP1 CALLDATALOAD DUP4 MSTORE DUP1 DUP3 MSTORE DUP4 DUP4 KECCAK256 SWAP3 DUP4 SLOAD SWAP3 PUSH8 0xFFFFFFFFFFFFFFFF DUP5 GT PUSH2 0xECB JUMPI DUP6 MLOAD SWAP5 SWAP2 PUSH2 0x104A PUSH1 0x5 DUP7 SWAP1 SHL DUP4 ADD DUP8 PUSH2 0x1396 JUMP JUMPDEST DUP5 DUP7 MSTORE SWAP2 DUP3 MSTORE DUP1 DUP3 KECCAK256 DUP2 DUP7 ADD JUMPDEST DUP6 DUP5 LT PUSH2 0x106B JUMPI DUP8 MLOAD DUP1 PUSH2 0xD73 DUP10 DUP3 PUSH2 0x124C JUMP JUMPDEST DUP5 DUP4 PUSH1 0x1 SWAP3 DUP11 MLOAD PUSH2 0x107B DUP2 PUSH2 0x1348 JUMP JUMPDEST DUP5 DUP1 PUSH1 0xA0 SHL SUB DUP7 SLOAD AND DUP2 MSTORE DUP5 DUP7 ADD SLOAD DUP4 DUP3 ADD MSTORE PUSH1 0x2 DUP7 ADD SLOAD DUP13 DUP3 ADD MSTORE PUSH2 0x10A3 PUSH1 0x3 DUP8 ADD PUSH2 0x13B8 JUMP JUMPDEST PUSH1 0x60 DUP3 ADD MSTORE DUP2 MSTORE ADD SWAP3 ADD SWAP4 ADD SWAP3 SWAP1 PUSH2 0x1057 JUMP JUMPDEST POP POP CALLVALUE PUSH2 0x171 JUMPI PUSH1 0x20 CALLDATASIZE PUSH1 0x3 NOT ADD SLT PUSH2 0x171 JUMPI PUSH1 0x20 SWAP1 PUSH2 0x10D4 PUSH2 0x11F1 JUMP JUMPDEST SWAP1 PUSH2 0x10DE DUP3 PUSH2 0x14E2 JUMP JUMPDEST SWAP2 DUP3 ISZERO PUSH2 0x10EF JUMPI JUMPDEST POP MLOAD SWAP1 ISZERO ISZERO DUP2 MSTORE RETURN JUMPDEST PUSH2 0x10FA SWAP2 SWAP3 POP PUSH2 0x1508 JUMP JUMPDEST SWAP1 DUP4 PUSH2 0x10E6 JUMP JUMPDEST POP POP CALLVALUE PUSH2 0x171 JUMPI PUSH1 0x20 CALLDATASIZE PUSH1 0x3 NOT ADD SLT PUSH2 0x171 JUMPI PUSH1 0x20 SWAP1 PUSH2 0xC90 PUSH2 0x1122 PUSH2 0x11F1 JUMP JUMPDEST PUSH2 0x14E2 JUMP JUMPDEST SWAP1 POP CALLVALUE PUSH2 0x238 JUMPI DUP3 PUSH1 0x3 NOT CALLDATASIZE ADD SLT PUSH2 0x238 JUMPI PUSH2 0x1141 PUSH2 0x154B JUMP JUMPDEST PUSH2 0x1149 PUSH2 0x1592 JUMP JUMPDEST PUSH2 0x1152 CALLER PUSH2 0x14E2 JUMP JUMPDEST ISZERO PUSH2 0x11AF JUMPI POP PUSH2 0x1160 PUSH2 0x14B6 JUMP JUMPDEST SWAP1 CALLER DUP4 MSTORE PUSH1 0x3 PUSH1 0x20 MSTORE PUSH1 0x2 DUP2 DUP5 KECCAK256 DUP4 DUP2 SSTORE ADD PUSH2 0x117C DUP2 SLOAD PUSH2 0x153C JUMP JUMPDEST SWAP1 SSTORE MLOAD SWAP1 DUP2 MSTORE PUSH32 0x51BF18AFE64C0561BE5F93315988A368650FB8DCEFB8BEE78457CC200B0234B9 PUSH1 0x20 CALLER SWAP3 LOG2 PUSH1 0x1 DUP1 SSTORE DUP1 RETURN JUMPDEST PUSH1 0x20 PUSH1 0x64 SWAP3 MLOAD SWAP2 PUSH3 0x461BCD PUSH1 0xE5 SHL DUP4 MSTORE DUP3 ADD MSTORE PUSH1 0x1C PUSH1 0x24 DUP3 ADD MSTORE PUSH32 0x467265652067616D6520616C7265616479207573656420746F64617900000000 PUSH1 0x44 DUP3 ADD MSTORE REVERT JUMPDEST PUSH1 0x4 CALLDATALOAD SWAP1 PUSH1 0x1 PUSH1 0x1 PUSH1 0xA0 SHL SUB DUP3 AND DUP3 SUB PUSH2 0x1207 JUMPI JUMP JUMPDEST PUSH1 0x0 DUP1 REVERT JUMPDEST SWAP2 SWAP1 DUP3 MLOAD SWAP3 DUP4 DUP3 MSTORE PUSH1 0x0 JUMPDEST DUP5 DUP2 LT PUSH2 0x1238 JUMPI POP POP DUP3 PUSH1 0x0 PUSH1 0x20 DUP1 SWAP5 SWAP6 DUP5 ADD ADD MSTORE PUSH1 0x1F DUP1 NOT SWAP2 ADD AND ADD ADD SWAP1 JUMP JUMPDEST PUSH1 0x20 DUP2 DUP4 ADD DUP2 ADD MLOAD DUP5 DUP4 ADD DUP3 ADD MSTORE ADD PUSH2 0x1217 JUMP JUMPDEST PUSH1 0x20 DUP1 DUP3 ADD SWAP1 DUP1 DUP4 MSTORE DUP4 MLOAD DUP1 SWAP3 MSTORE PUSH1 0x40 SWAP3 DUP4 DUP2 ADD DUP3 DUP6 DUP6 PUSH1 0x5 SHL DUP5 ADD ADD SWAP7 ADD SWAP5 PUSH1 0x0 SWAP3 JUMPDEST DUP6 DUP5 LT PUSH2 0x1281 JUMPI POP POP POP POP POP POP POP SWAP1 JUMP JUMPDEST SWAP1 SWAP2 SWAP3 SWAP4 SWAP5 SWAP6 SWAP7 DUP6 DUP1 PUSH2 0x12CB PUSH1 0x1 SWAP4 PUSH1 0x3F NOT DUP7 DUP3 SUB ADD DUP9 MSTORE DUP12 MLOAD DUP6 DUP1 PUSH1 0xA0 SHL SUB DUP2 MLOAD AND DUP3 MSTORE DUP4 DUP2 ADD MLOAD DUP5 DUP4 ADD MSTORE DUP8 DUP2 ADD MLOAD DUP9 DUP4 ADD MSTORE PUSH1 0x60 DUP1 SWAP2 ADD MLOAD SWAP2 PUSH1 0x80 DUP1 SWAP3 DUP3 ADD MSTORE ADD SWAP1 PUSH2 0x120C JUMP JUMPDEST SWAP10 ADD SWAP5 ADD SWAP5 ADD SWAP3 SWAP6 SWAP5 SWAP4 SWAP2 SWAP1 PUSH2 0x1270 JUMP JUMPDEST DUP1 SLOAD DUP3 LT ISZERO PUSH2 0x12F8 JUMPI PUSH1 0x0 MSTORE PUSH1 0x20 PUSH1 0x0 KECCAK256 SWAP1 PUSH1 0x2 SHL ADD SWAP1 PUSH1 0x0 SWAP1 JUMP JUMPDEST PUSH4 0x4E487B71 PUSH1 0xE0 SHL PUSH1 0x0 MSTORE PUSH1 0x32 PUSH1 0x4 MSTORE PUSH1 0x24 PUSH1 0x0 REVERT JUMPDEST SWAP1 PUSH1 0x1 DUP3 DUP2 SHR SWAP3 AND DUP1 ISZERO PUSH2 0x133E JUMPI JUMPDEST PUSH1 0x20 DUP4 LT EQ PUSH2 0x1328 JUMPI JUMP JUMPDEST PUSH4 0x4E487B71 PUSH1 0xE0 SHL PUSH1 0x0 MSTORE PUSH1 0x22 PUSH1 0x4 MSTORE PUSH1 0x24 PUSH1 0x0 REVERT JUMPDEST SWAP2 PUSH1 0x7F AND SWAP2 PUSH2 0x131D JUMP JUMPDEST PUSH1 0x80 DUP2 ADD SWAP1 DUP2 LT PUSH8 0xFFFFFFFFFFFFFFFF DUP3 GT OR PUSH2 0x1364 JUMPI PUSH1 0x40 MSTORE JUMP JUMPDEST PUSH4 0x4E487B71 PUSH1 0xE0 SHL PUSH1 0x0 MSTORE PUSH1 0x41 PUSH1 0x4 MSTORE PUSH1 0x24 PUSH1 0x0 REVERT JUMPDEST PUSH1 0xA0 DUP2 ADD SWAP1 DUP2 LT PUSH8 0xFFFFFFFFFFFFFFFF DUP3 GT OR PUSH2 0x1364 JUMPI PUSH1 0x40 MSTORE JUMP JUMPDEST SWAP1 PUSH1 0x1F DUP1 NOT SWAP2 ADD AND DUP2 ADD SWAP1 DUP2 LT PUSH8 0xFFFFFFFFFFFFFFFF DUP3 GT OR PUSH2 0x1364 JUMPI PUSH1 0x40 MSTORE JUMP JUMPDEST SWAP1 PUSH1 0x40 MLOAD SWAP2 DUP3 PUSH1 0x0 DUP3 SLOAD SWAP3 PUSH2 0x13CC DUP5 PUSH2 0x130E JUMP JUMPDEST SWAP1 DUP2 DUP5 MSTORE PUSH1 0x1 SWAP5 DUP6 DUP2 AND SWAP1 DUP2 PUSH1 0x0 EQ PUSH2 0x143B JUMPI POP PUSH1 0x1 EQ PUSH2 0x13F8 JUMPI JUMPDEST POP POP PUSH2 0x13F6 SWAP3 POP SUB DUP4 PUSH2 0x1396 JUMP JUMPDEST JUMP JUMPDEST SWAP1 SWAP4 SWAP2 POP PUSH1 0x0 MSTORE PUSH1 0x20 SWAP1 DUP2 PUSH1 0x0 KECCAK256 SWAP4 PUSH1 0x0 SWAP2 JUMPDEST DUP2 DUP4 LT PUSH2 0x1423 JUMPI POP POP PUSH2 0x13F6 SWAP4 POP DUP3 ADD ADD CODESIZE DUP1 PUSH2 0x13E8 JUMP JUMPDEST DUP6 SLOAD DUP9 DUP5 ADD DUP6 ADD MSTORE SWAP5 DUP6 ADD SWAP5 DUP8 SWAP5 POP SWAP2 DUP4 ADD SWAP2 PUSH2 0x140B JUMP JUMPDEST SWAP2 POP POP PUSH2 0x13F6 SWAP5 POP PUSH1 0x20 SWAP3 POP PUSH1 0xFF NOT AND DUP3 DUP5 ADD MSTORE ISZERO ISZERO PUSH1 0x5 SHL DUP3 ADD ADD CODESIZE DUP1 PUSH2 0x13E8 JUMP JUMPDEST PUSH1 0x0 SLOAD PUSH1 0x1 PUSH1 0x1 PUSH1 0xA0 SHL SUB AND CALLER SUB PUSH2 0x1472 JUMPI JUMP JUMPDEST PUSH1 0x64 PUSH1 0x40 MLOAD PUSH3 0x461BCD PUSH1 0xE5 SHL DUP2 MSTORE PUSH1 0x20 PUSH1 0x4 DUP3 ADD MSTORE PUSH1 0x20 PUSH1 0x24 DUP3 ADD MSTORE PUSH32 0x4F776E61626C653A2063616C6C6572206973206E6F7420746865206F776E6572 PUSH1 0x44 DUP3 ADD MSTORE REVERT JUMPDEST PUSH2 0x464F NOT TIMESTAMP ADD TIMESTAMP DUP2 GT PUSH2 0x14CC JUMPI PUSH3 0x15180 SWAP1 DIV SWAP1 JUMP JUMPDEST PUSH4 0x4E487B71 PUSH1 0xE0 SHL PUSH1 0x0 MSTORE PUSH1 0x11 PUSH1 0x4 MSTORE PUSH1 0x24 PUSH1 0x0 REVERT JUMPDEST PUSH2 0x14EA PUSH2 0x14B6 JUMP JUMPDEST PUSH1 0x1 PUSH1 0x1 PUSH1 0xA0 SHL SUB SWAP1 SWAP2 AND PUSH1 0x0 SWAP1 DUP2 MSTORE PUSH1 0x3 PUSH1 0x20 MSTORE PUSH1 0x40 SWAP1 KECCAK256 SLOAD LT SWAP1 JUMP JUMPDEST PUSH1 0x1 PUSH1 0x1 PUSH1 0xA0 SHL SUB AND PUSH1 0x0 SWAP1 DUP2 MSTORE PUSH1 0x3 PUSH1 0x20 MSTORE PUSH1 0x40 SWAP1 KECCAK256 PUSH1 0x4 DUP2 ADD SLOAD PUSH1 0xFF AND SWAP1 DUP2 PUSH2 0x1531 JUMPI POP SWAP1 JUMP JUMPDEST PUSH1 0x1 SWAP2 POP ADD SLOAD TIMESTAMP LT SWAP1 JUMP JUMPDEST PUSH1 0x0 NOT DUP2 EQ PUSH2 0x14CC JUMPI PUSH1 0x1 ADD SWAP1 JUMP JUMPDEST PUSH1 0xFF PUSH1 0x0 SLOAD PUSH1 0xA0 SHR AND PUSH2 0x155A JUMPI JUMP JUMPDEST PUSH1 0x40 MLOAD PUSH3 0x461BCD PUSH1 0xE5 SHL DUP2 MSTORE PUSH1 0x20 PUSH1 0x4 DUP3 ADD MSTORE PUSH1 0x10 PUSH1 0x24 DUP3 ADD MSTORE PUSH16 0x14185D5CD8589B194E881C185D5CD959 PUSH1 0x82 SHL PUSH1 0x44 DUP3 ADD MSTORE PUSH1 0x64 SWAP1 REVERT JUMPDEST PUSH1 0x2 PUSH1 0x1 SLOAD EQ PUSH2 0x15A3 JUMPI PUSH1 0x2 PUSH1 0x1 SSTORE JUMP JUMPDEST PUSH1 0x40 MLOAD PUSH3 0x461BCD PUSH1 0xE5 SHL DUP2 MSTORE PUSH1 0x20 PUSH1 0x4 DUP3 ADD MSTORE PUSH1 0x1F PUSH1 0x24 DUP3 ADD MSTORE PUSH32 0x5265656E7472616E637947756172643A207265656E7472616E742063616C6C00 PUSH1 0x44 DUP3 ADD MSTORE PUSH1 0x64 SWAP1 REVERT JUMPDEST SWAP1 DUP2 PUSH1 0x20 SWAP2 SUB SLT PUSH2 0x1207 JUMPI MLOAD DUP1 ISZERO ISZERO DUP2 SUB PUSH2 0x1207 JUMPI SWAP1 JUMP JUMPDEST ISZERO PUSH2 0x1607 JUMPI JUMP JUMPDEST PUSH1 0x40 MLOAD PUSH3 0x461BCD PUSH1 0xE5 SHL DUP2 MSTORE PUSH1 0x20 PUSH1 0x4 DUP3 ADD MSTORE PUSH1 0xE PUSH1 0x24 DUP3 ADD MSTORE PUSH14 0x14185E5B595B9D0819985A5B1959 PUSH1 0x92 SHL PUSH1 0x44 DUP3 ADD MSTORE PUSH1 0x64 SWAP1 REVERT INVALID LOG2 PUSH5 0x6970667358 0x22 SLT KECCAK256 0xC7 PUSH14 0xEFDE056A3505A794696227E51EEE 0x2C DUP2 SWAP7 KECCAK256 MOD SHR DUP1 SWAP1 0xD 0xD5 0xB8 0xB9 0xA7 PUSH9 0x390C64736F6C634300 ADDMOD SGT STOP CALLER "},"methodIdentifiers":{"DAILY_RESET_HOUR()":"95f2a2f1","INDIVIDUAL_GAME_PRICE()":"fef39194","PLATFORM_FEE_PERCENT()":"560d52d4","UNLIMITED_DAILY_PRICE()":"329a4a6c","canPlay(address)":"0823d5f3","canPlayFreeGame(address)":"0257c5d2","dailyLeaderboards(uint256,uint256)":"83660217","dailySubmissions(uint256,address)":"3f9eacdc","emergencyWithdraw()":"db2e21bc","getCurrentDay()":"3e6968b6","getCurrentLeaderboard()":"491db668","getDailyLeaderboard(uint256)":"0832275e","getPlayerState(address)":"c01ca43f","hasUnlimitedPass(address)":"8a3b2044","owner()":"8da5cb5b","pause()":"8456cb59","paused()":"5c975abb","platformFeeWallet()":"e20fc118","playerStates(address)":"d15e55b7","purchaseIndividualGame()":"f1259329","purchaseUnlimitedPass()":"98f79dcd","quarters()":"be986420","renounceOwnership()":"715018a6","setPlatformFeeWallet(address)":"d96d98ca","submitScore(uint256,string)":"bc2256dc","transferOwnership(address)":"f2fde38b","unpause()":"3f4ba83a","useFreeGame()":"014f0049"}}}}}