{"src/PaymentProcessor.sol":{"PaymentProcessor":{"abi":[{"inputs":[{"internalType":"address","name":"_usdcToken","type":"address"},{"internalType":"address","name":"_platformFeeWallet","type":"address"}],"stateMutability":"nonpayable","type":"constructor"},{"anonymous":false,"inputs":[{"indexed":true,"internalType":"address","name":"previousOwner","type":"address"},{"indexed":true,"internalType":"address","name":"newOwner","type":"address"}],"name":"OwnershipTransferred","type":"event"},{"anonymous":false,"inputs":[{"indexed":false,"internalType":"address","name":"account","type":"address"}],"name":"Paused","type":"event"},{"anonymous":false,"inputs":[{"indexed":true,"internalType":"address","name":"payer","type":"address"},{"indexed":false,"internalType":"uint256","name":"amount","type":"uint256"},{"indexed":false,"internalType":"string","name":"paymentType","type":"string"},{"indexed":false,"internalType":"uint256","name":"platformFee","type":"uint256"}],"name":"PaymentProcessed","type":"event"},{"anonymous":false,"inputs":[{"indexed":true,"internalType":"address","name":"oldWallet","type":"address"},{"indexed":true,"internalType":"address","name":"newWallet","type":"address"}],"name":"PlatformFeeWalletUpdated","type":"event"},{"anonymous":false,"inputs":[{"indexed":false,"internalType":"address","name":"account","type":"address"}],"name":"Unpaused","type":"event"},{"inputs":[],"name":"HIGH_ROLLER_CHALLENGE_AMOUNT","outputs":[{"internalType":"uint256","name":"","type":"uint256"}],"stateMutability":"view","type":"function"},{"inputs":[],"name":"INDIVIDUAL_GAME_AMOUNT","outputs":[{"internalType":"uint256","name":"","type":"uint256"}],"stateMutability":"view","type":"function"},{"inputs":[],"name":"PLATFORM_FEE_PERCENT","outputs":[{"internalType":"uint256","name":"","type":"uint256"}],"stateMutability":"view","type":"function"},{"inputs":[],"name":"QUICK_CHALLENGE_AMOUNT","outputs":[{"internalType":"uint256","name":"","type":"uint256"}],"stateMutability":"view","type":"function"},{"inputs":[],"name":"UNLIMITED_DAILY_AMOUNT","outputs":[{"internalType":"uint256","name":"","type":"uint256"}],"stateMutability":"view","type":"function"},{"inputs":[],"name":"emergencyWithdrawUSDC","outputs":[],"stateMutability":"nonpayable","type":"function"},{"inputs":[],"name":"getContractBalance","outputs":[{"internalType":"uint256","name":"","type":"uint256"}],"stateMutability":"view","type":"function"},{"inputs":[{"internalType":"uint256","name":"amount","type":"uint256"}],"name":"getNetAmount","outputs":[{"internalType":"uint256","name":"","type":"uint256"}],"stateMutability":"pure","type":"function"},{"inputs":[{"internalType":"uint256","name":"amount","type":"uint256"}],"name":"getPlatformFee","outputs":[{"internalType":"uint256","name":"","type":"uint256"}],"stateMutability":"pure","type":"function"},{"inputs":[],"name":"owner","outputs":[{"internalType":"address","name":"","type":"address"}],"stateMutability":"view","type":"function"},{"inputs":[],"name":"pause","outputs":[],"stateMutability":"nonpayable","type":"function"},{"inputs":[],"name":"paused","outputs":[{"internalType":"bool","name":"","type":"bool"}],"stateMutability":"view","type":"function"},{"inputs":[],"name":"platformFeeWallet","outputs":[{"internalType":"address","name":"","type":"address"}],"stateMutability":"view","type":"function"},{"inputs":[{"internalType":"address","name":"payer","type":"address"},{"internalType":"uint256","name":"amount","type":"uint256"},{"internalType":"string","name":"paymentType","type":"string"}],"name":"processCustomPayment","outputs":[],"stateMutability":"nonpayable","type":"function"},{"inputs":[{"internalType":"address","name":"payer","type":"address"}],"name":"processHighRollerChallengePayment","outputs":[],"stateMutability":"nonpayable","type":"function"},{"inputs":[{"internalType":"address","name":"payer","type":"address"}],"name":"processIndividualGamePayment","outputs":[],"stateMutability":"nonpayable","type":"function"},{"inputs":[{"internalType":"address","name":"payer","type":"address"}],"name":"processQuickChallengePayment","outputs":[],"stateMutability":"nonpayable","type":"function"},{"inputs":[{"internalType":"address","name":"payer","type":"address"}],"name":"processUnlimitedDailyPayment","outputs":[],"stateMutability":"nonpayable","type":"function"},{"inputs":[],"name":"renounceOwnership","outputs":[],"stateMutability":"nonpayable","type":"function"},{"inputs":[{"internalType":"address","name":"_newWallet","type":"address"}],"name":"setPlatformFeeWallet","outputs":[],"stateMutability":"nonpayable","type":"function"},{"inputs":[{"internalType":"address","name":"newOwner","type":"address"}],"name":"transferOwnership","outputs":[],"stateMutability":"nonpayable","type":"function"},{"inputs":[],"name":"unpause","outputs":[],"stateMutability":"nonpayable","type":"function"},{"inputs":[],"name":"usdcToken","outputs":[{"internalType":"contract IERC20","name":"","type":"address"}],"stateMutability":"view","type":"function"}],"evm":{"bytecode":{"linkReferences":{},"object":"6080346100d657601f61113a38819003918201601f19168301916001600160401b038311848410176100db5780849260409485528339810103126100d657610052602061004b836100f1565b92016100f1565b906000546040519260018060a01b0391338382167f8be0079c531659141344cd1fd0a4f28419497f9722a3daafe3b4186f6b6457e0600080a36001600160a81b0319163360ff60a01b19161760005560018055600280546001600160a01b031990811694841694909417905560038054909316911617905561103490816101068239f35b600080fd5b634e487b7160e01b600052604160045260246000fd5b51906001600160a01b03821682036100d65756fe6080604081815260048036101561001557600080fd5b600092833560e01c90816311eac85514610df957508063229c5dff14610cd25780633f4ba83a14610c39578381634fef148814610b2a5750806353b614d414610a09578063560d52d4146109ed5780635c975abb146109c85780636f9fb98a14610931578063715018a6146108d75780637220fc1c146108b957806381807e33146106865780638456cb59146106275780638da5cb5b146105ff57806396b2a315146105e1578063a0f2e966146104c0578063d421562f146104a2578063d5bcd22114610484578063d96d98ca14610419578063d97939eb146103d0578063dca783881461037a578063e20fc1181461034d578063f212ce7a146101e75763f2fde38b1461012257600080fd5b346101e35760203660031901126101e35761013b610e1e565b90610144610e71565b6001600160a01b0391821692831561019157505082546001600160a01b0319811683178455167f8be0079c531659141344cd1fd0a4f28419497f9722a3daafe3b4186f6b6457e08380a380f35b906020608492519162461bcd60e51b8352820152602660248201527f4f776e61626c653a206e6577206f776e657220697320746865207a65726f206160448201526564647265737360d01b6064820152fd5b8280fd5b50346101e35760208060031936011261034957610202610e1e565b9261020b610f41565b610213610f88565b60018060a01b0391826002541693838351966323b872dd60e01b88521695868282015230602482015282816064818b6203d0909a8b60448401525af190811561033f5790610268918991610322575b50610f04565b8360025416936003541683519163a9059cbb60e01b835282015281816044818a6161a8988960248401525af180156103185760a09492600080516020610fdf8339815191529694926060926102eb575b508251948552840152600f60608401526e696e646976696475616c5f67616d6560881b6080840152820152a26001805580f35b61030a90823d8411610311575b6103028183610e39565b810190610eec565b50386102b8565b503d6102f8565b83513d89823e3d90fd5b6103399150843d8611610311576103028183610e39565b38610262565b84513d8a823e3d90fd5b8380fd5b50503461037657816003193601126103765760035490516001600160a01b039091168152602090f35b5080fd5b5091346103cd5760203660031901126103cd57823590600a820290828204600a14831517156103ba576020846103b36064850486610ec9565b9051908152f35b634e487b7160e01b815260118552602490fd5b80fd5b5082346103cd5760203660031901126103cd57813591600a830292808404600a1490151715610406576020836064865191048152f35b634e487b7160e01b825260119052602490fd5b83346103cd5760203660031901126103cd57610433610e1e565b61043b610e71565b600380546001600160a01b039283166001600160a01b0319821681179092559091167ffcd87bc644e47e1b76226bbb552d1c073359463789907fd7021eb934981183dd8380a380f35b505034610376578160031936011261037657602090516203d0908152f35b50503461037657816003193601126103765760209051620f42408152f35b50346101e357602080600319360112610349576104db610e1e565b926104e4610f41565b6104ec610f88565b60018060a01b0391826002541693838351966323b872dd60e01b88521695868282015230602482015282816064818b6229f6309a8b60448401525af190811561033f57906105409189916103225750610f04565b8360025416936003541683519163a9059cbb60e01b835282015281816044818a62043238988960248401525af180156103185760a09492600080516020610fdf8339815191529694926060926105c4575b508251948552840152600f60608401526e756e6c696d697465645f6461696c7960881b6080840152820152a26001805580f35b6105da90823d8411610311576103028183610e39565b5038610591565b50503461037657816003193601126103765760209051624c4b408152f35b505034610376578160031936011261037657905490516001600160a01b039091168152602090f35b50503461037657816003193601126103765760207f62e78cea01bee320cd4e420270b5ea74000d11b0c9f74754ebdbfc544b05a25891610665610e71565b61066d610f41565b835460ff60a01b1916600160a01b17845551338152a180f35b50346101e35760603660031901126101e3576106a0610e1e565b60249283359267ffffffffffffffff92916044358481116108b557366023820112156108b557808301359485116108a35781519388602092601f19976106ed858a601f8401160189610e39565b808852368b82840101116101e357808b869301838a013787010152610710610f41565b610718610f88565b600a8702878104600a14881517156108915760649004936107398589610ec9565b5060025484516323b872dd60e01b81526001600160a01b03938416838201819052309b82019b909b52604481018a905290849082908516818e5a92606493f1908b8215610886579261079888936107d3969388969161086f5750610f04565b8c826002541692600354169188519687958694859363a9059cbb60e01b8552840160209093929193604081019460018060a01b031681520152565b03925af1801561086557610848575b508151958652606081870152835193846060880152885b858110610834578989600080516020610fdf8339815191528a6080818c601f8d8d8d8a87848801015285015201168101030190a26001805580f35b8181018301518882016080015282016107f9565b61085e90823d8411610311576103028183610e39565b50386107e2565b83513d8b823e3d90fd5b6103399150863d8811610311576103028183610e39565b8651903d90823e3d90fd5b634e487b7160e01b8a5260118552888afd5b634e487b7160e01b8852604183528688fd5b8780fd5b505034610376578160031936011261037657602090516229f6308152f35b83346103cd57806003193601126103cd576108f0610e71565b80546001600160a01b03198116825581906001600160a01b03167f8be0079c531659141344cd1fd0a4f28419497f9722a3daafe3b4186f6b6457e08280a380f35b5090346101e357826003193601126101e35760025481516370a0823160e01b81523093810193909352602090839060249082906001600160a01b03165afa9182156109be578392610987575b6020838351908152f35b9091506020813d82116109b6575b816109a260209383610e39565b810103126101e3576020925051903861097d565b3d9150610995565b81513d85823e3d90fd5b50503461037657816003193601126103765760ff6020925460a01c1690519015158152f35b50503461037657816003193601126103765760209051600a8152f35b50346101e35760208060031936011261034957610a24610e1e565b92610a2d610f41565b610a35610f88565b60018060a01b0391826002541693838351966323b872dd60e01b88521695868282015230602482015282816064818b620f42409a8b60448401525af190811561033f5790610a899189916103225750610f04565b8360025416936003541683519163a9059cbb60e01b835282015281816044818a620186a0988960248401525af180156103185760a09492600080516020610fdf833981519152969492606092610b0d575b508251948552840152600f60608401526e717569636b5f6368616c6c656e676560881b6080840152820152a26001805580f35b610b2390823d8411610311576103028183610e39565b5038610ada565b82818534610376578160031936011261037657610b45610e71565b60025481516370a0823160e01b8152308186015260209490916001600160a01b0390811691908684602481865afa938415610c2f579087949392918794610bf6575b508654865163a9059cbb60e01b815291166001600160a01b031691810191825260208201939093529194859283919082906040015b03925af1908115610bed5750610bd0578280f35b81610be692903d10610311576103028183610e39565b5081808280f35b513d85823e3d90fd5b8581969295503d8311610c28575b610c0e8183610e39565b81010312610c2457925186939092610bbc610b87565b8580fd5b503d610c04565b85513d88823e3d90fd5b50346101e357826003193601126101e357610c52610e71565b82549060ff8260a01c1615610c98575060ff60a01b19168255513381527f5db9ee0a495bf2e6ff9c91a7834c1ba4fdd244a5e8aa4e537bd38aeae4b073aa90602090a180f35b606490602084519162461bcd60e51b8352820152601460248201527314185d5cd8589b194e881b9bdd081c185d5cd95960621b6044820152fd5b50346101e35760208060031936011261034957610ced610e1e565b92610cf6610f41565b610cfe610f88565b60018060a01b0391826002541693838351966323b872dd60e01b88521695868282015230602482015282816064818b624c4b409a8b60448401525af190811561033f5790610d529189916103225750610f04565b8360025416936003541683519163a9059cbb60e01b835282015281816044818a6207a120988960248401525af180156103185760a09492600080516020610fdf833981519152969492606092610ddc575b5082519485528401526015606084015274686967685f726f6c6c65725f6368616c6c656e676560581b6080840152820152a26001805580f35b610df290823d8411610311576103028183610e39565b5038610da3565b8490346103765781600319360112610376576002546001600160a01b03168152602090f35b600435906001600160a01b0382168203610e3457565b600080fd5b90601f8019910116810190811067ffffffffffffffff821117610e5b57604052565b634e487b7160e01b600052604160045260246000fd5b6000546001600160a01b03163303610e8557565b606460405162461bcd60e51b815260206004820152602060248201527f4f776e61626c653a2063616c6c6572206973206e6f7420746865206f776e65726044820152fd5b91908203918211610ed657565b634e487b7160e01b600052601160045260246000fd5b90816020910312610e3457518015158103610e345790565b15610f0b57565b60405162461bcd60e51b815260206004820152600e60248201526d14185e5b595b9d0819985a5b195960921b6044820152606490fd5b60ff60005460a01c16610f5057565b60405162461bcd60e51b815260206004820152601060248201526f14185d5cd8589b194e881c185d5cd95960821b6044820152606490fd5b600260015414610f99576002600155565b60405162461bcd60e51b815260206004820152601f60248201527f5265656e7472616e637947756172643a207265656e7472616e742063616c6c006044820152606490fdfe42c1e8fed3e41135f8f29f39181cfe6c261b387c3eef8d4febad93a2190c3634a2646970667358221220e5c87a11e1dfe43747f4a6a81af42fb94a6ffc1964173d357d4fc4b86286f7f964736f6c63430008130033","opcodes":"PUSH1 0x80 CALLVALUE PUSH2 0xD6 JUMPI PUSH1 0x1F PUSH2 0x113A CODESIZE DUP2 SWAP1 SUB SWAP2 DUP3 ADD PUSH1 0x1F NOT AND DUP4 ADD SWAP2 PUSH1 0x1 PUSH1 0x1 PUSH1 0x40 SHL SUB DUP4 GT DUP5 DUP5 LT OR PUSH2 0xDB JUMPI DUP1 DUP5 SWAP3 PUSH1 0x40 SWAP5 DUP6 MSTORE DUP4 CODECOPY DUP2 ADD SUB SLT PUSH2 0xD6 JUMPI PUSH2 0x52 PUSH1 0x20 PUSH2 0x4B DUP4 PUSH2 0xF1 JUMP JUMPDEST SWAP3 ADD PUSH2 0xF1 JUMP JUMPDEST SWAP1 PUSH1 0x0 SLOAD PUSH1 0x40 MLOAD SWAP3 PUSH1 0x1 DUP1 PUSH1 0xA0 SHL SUB SWAP2 CALLER DUP4 DUP3 AND PUSH32 0x8BE0079C531659141344CD1FD0A4F28419497F9722A3DAAFE3B4186F6B6457E0 PUSH1 0x0 DUP1 LOG3 PUSH1 0x1 PUSH1 0x1 PUSH1 0xA8 SHL SUB NOT AND CALLER PUSH1 0xFF PUSH1 0xA0 SHL NOT AND OR PUSH1 0x0 SSTORE PUSH1 0x1 DUP1 SSTORE PUSH1 0x2 DUP1 SLOAD PUSH1 0x1 PUSH1 0x1 PUSH1 0xA0 SHL SUB NOT SWAP1 DUP2 AND SWAP5 DUP5 AND SWAP5 SWAP1 SWAP5 OR SWAP1 SSTORE PUSH1 0x3 DUP1 SLOAD SWAP1 SWAP4 AND SWAP2 AND OR SWAP1 SSTORE PUSH2 0x1034 SWAP1 DUP2 PUSH2 0x106 DUP3 CODECOPY RETURN JUMPDEST PUSH1 0x0 DUP1 REVERT JUMPDEST PUSH4 0x4E487B71 PUSH1 0xE0 SHL PUSH1 0x0 MSTORE PUSH1 0x41 PUSH1 0x4 MSTORE PUSH1 0x24 PUSH1 0x0 REVERT JUMPDEST MLOAD SWAP1 PUSH1 0x1 PUSH1 0x1 PUSH1 0xA0 SHL SUB DUP3 AND DUP3 SUB PUSH2 0xD6 JUMPI JUMP INVALID PUSH1 0x80 PUSH1 0x40 DUP2 DUP2 MSTORE PUSH1 0x4 DUP1 CALLDATASIZE LT ISZERO PUSH2 0x15 JUMPI PUSH1 0x0 DUP1 REVERT JUMPDEST PUSH1 0x0 SWAP3 DUP4 CALLDATALOAD PUSH1 0xE0 SHR SWAP1 DUP2 PUSH4 0x11EAC855 EQ PUSH2 0xDF9 JUMPI POP DUP1 PUSH4 0x229C5DFF EQ PUSH2 0xCD2 JUMPI DUP1 PUSH4 0x3F4BA83A EQ PUSH2 0xC39 JUMPI DUP4 DUP2 PUSH4 0x4FEF1488 EQ PUSH2 0xB2A JUMPI POP DUP1 PUSH4 0x53B614D4 EQ PUSH2 0xA09 JUMPI DUP1 PUSH4 0x560D52D4 EQ PUSH2 0x9ED JUMPI DUP1 PUSH4 0x5C975ABB EQ PUSH2 0x9C8 JUMPI DUP1 PUSH4 0x6F9FB98A EQ PUSH2 0x931 JUMPI DUP1 PUSH4 0x715018A6 EQ PUSH2 0x8D7 JUMPI DUP1 PUSH4 0x7220FC1C EQ PUSH2 0x8B9 JUMPI DUP1 PUSH4 0x81807E33 EQ PUSH2 0x686 JUMPI DUP1 PUSH4 0x8456CB59 EQ PUSH2 0x627 JUMPI DUP1 PUSH4 0x8DA5CB5B EQ PUSH2 0x5FF JUMPI DUP1 PUSH4 0x96B2A315 EQ PUSH2 0x5E1 JUMPI DUP1 PUSH4 0xA0F2E966 EQ PUSH2 0x4C0 JUMPI DUP1 PUSH4 0xD421562F EQ PUSH2 0x4A2 JUMPI DUP1 PUSH4 0xD5BCD221 EQ PUSH2 0x484 JUMPI DUP1 PUSH4 0xD96D98CA EQ PUSH2 0x419 JUMPI DUP1 PUSH4 0xD97939EB EQ PUSH2 0x3D0 JUMPI DUP1 PUSH4 0xDCA78388 EQ PUSH2 0x37A JUMPI DUP1 PUSH4 0xE20FC118 EQ PUSH2 0x34D JUMPI DUP1 PUSH4 0xF212CE7A EQ PUSH2 0x1E7 JUMPI PUSH4 0xF2FDE38B EQ PUSH2 0x122 JUMPI PUSH1 0x0 DUP1 REVERT JUMPDEST CALLVALUE PUSH2 0x1E3 JUMPI PUSH1 0x20 CALLDATASIZE PUSH1 0x3 NOT ADD SLT PUSH2 0x1E3 JUMPI PUSH2 0x13B PUSH2 0xE1E JUMP JUMPDEST SWAP1 PUSH2 0x144 PUSH2 0xE71 JUMP JUMPDEST PUSH1 0x1 PUSH1 0x1 PUSH1 0xA0 SHL SUB SWAP2 DUP3 AND SWAP3 DUP4 ISZERO PUSH2 0x191 JUMPI POP POP DUP3 SLOAD PUSH1 0x1 PUSH1 0x1 PUSH1 0xA0 SHL SUB NOT DUP2 AND DUP4 OR DUP5 SSTORE AND PUSH32 0x8BE0079C531659141344CD1FD0A4F28419497F9722A3DAAFE3B4186F6B6457E0 DUP4 DUP1 LOG3 DUP1 RETURN JUMPDEST SWAP1 PUSH1 0x20 PUSH1 0x84 SWAP3 MLOAD SWAP2 PUSH3 0x461BCD PUSH1 0xE5 SHL DUP4 MSTORE DUP3 ADD MSTORE PUSH1 0x26 PUSH1 0x24 DUP3 ADD MSTORE PUSH32 0x4F776E61626C653A206E6577206F776E657220697320746865207A65726F2061 PUSH1 0x44 DUP3 ADD MSTORE PUSH6 0x646472657373 PUSH1 0xD0 SHL PUSH1 0x64 DUP3 ADD MSTORE REVERT JUMPDEST DUP3 DUP1 REVERT JUMPDEST POP CALLVALUE PUSH2 0x1E3 JUMPI PUSH1 0x20 DUP1 PUSH1 0x3 NOT CALLDATASIZE ADD SLT PUSH2 0x349 JUMPI PUSH2 0x202 PUSH2 0xE1E JUMP JUMPDEST SWAP3 PUSH2 0x20B PUSH2 0xF41 JUMP JUMPDEST PUSH2 0x213 PUSH2 0xF88 JUMP JUMPDEST PUSH1 0x1 DUP1 PUSH1 0xA0 SHL SUB SWAP2 DUP3 PUSH1 0x2 SLOAD AND SWAP4 DUP4 DUP4 MLOAD SWAP7 PUSH4 0x23B872DD PUSH1 0xE0 SHL DUP9 MSTORE AND SWAP6 DUP7 DUP3 DUP3 ADD MSTORE ADDRESS PUSH1 0x24 DUP3 ADD MSTORE DUP3 DUP2 PUSH1 0x64 DUP2 DUP12 PUSH3 0x3D090 SWAP11 DUP12 PUSH1 0x44 DUP5 ADD MSTORE GAS CALL SWAP1 DUP2 ISZERO PUSH2 0x33F JUMPI SWAP1 PUSH2 0x268 SWAP2 DUP10 SWAP2 PUSH2 0x322 JUMPI JUMPDEST POP PUSH2 0xF04 JUMP JUMPDEST DUP4 PUSH1 0x2 SLOAD AND SWAP4 PUSH1 0x3 SLOAD AND DUP4 MLOAD SWAP2 PUSH4 0xA9059CBB PUSH1 0xE0 SHL DUP4 MSTORE DUP3 ADD MSTORE DUP2 DUP2 PUSH1 0x44 DUP2 DUP11 PUSH2 0x61A8 SWAP9 DUP10 PUSH1 0x24 DUP5 ADD MSTORE GAS CALL DUP1 ISZERO PUSH2 0x318 JUMPI PUSH1 0xA0 SWAP5 SWAP3 PUSH1 0x0 DUP1 MLOAD PUSH1 0x20 PUSH2 0xFDF DUP4 CODECOPY DUP2 MLOAD SWAP2 MSTORE SWAP7 SWAP5 SWAP3 PUSH1 0x60 SWAP3 PUSH2 0x2EB JUMPI JUMPDEST POP DUP3 MLOAD SWAP5 DUP6 MSTORE DUP5 ADD MSTORE PUSH1 0xF PUSH1 0x60 DUP5 ADD MSTORE PUSH15 0x696E646976696475616C5F67616D65 PUSH1 0x88 SHL PUSH1 0x80 DUP5 ADD MSTORE DUP3 ADD MSTORE LOG2 PUSH1 0x1 DUP1 SSTORE DUP1 RETURN JUMPDEST PUSH2 0x30A SWAP1 DUP3 RETURNDATASIZE DUP5 GT PUSH2 0x311 JUMPI JUMPDEST PUSH2 0x302 DUP2 DUP4 PUSH2 0xE39 JUMP JUMPDEST DUP2 ADD SWAP1 PUSH2 0xEEC JUMP JUMPDEST POP CODESIZE PUSH2 0x2B8 JUMP JUMPDEST POP RETURNDATASIZE PUSH2 0x2F8 JUMP JUMPDEST DUP4 MLOAD RETURNDATASIZE DUP10 DUP3 RETURNDATACOPY RETURNDATASIZE SWAP1 REVERT JUMPDEST PUSH2 0x339 SWAP2 POP DUP5 RETURNDATASIZE DUP7 GT PUSH2 0x311 JUMPI PUSH2 0x302 DUP2 DUP4 PUSH2 0xE39 JUMP JUMPDEST CODESIZE PUSH2 0x262 JUMP JUMPDEST DUP5 MLOAD RETURNDATASIZE DUP11 DUP3 RETURNDATACOPY RETURNDATASIZE SWAP1 REVERT JUMPDEST DUP4 DUP1 REVERT JUMPDEST POP POP CALLVALUE PUSH2 0x376 JUMPI DUP2 PUSH1 0x3 NOT CALLDATASIZE ADD SLT PUSH2 0x376 JUMPI PUSH1 0x3 SLOAD SWAP1 MLOAD PUSH1 0x1 PUSH1 0x1 PUSH1 0xA0 SHL SUB SWAP1 SWAP2 AND DUP2 MSTORE PUSH1 0x20 SWAP1 RETURN JUMPDEST POP DUP1 REVERT JUMPDEST POP SWAP2 CALLVALUE PUSH2 0x3CD JUMPI PUSH1 0x20 CALLDATASIZE PUSH1 0x3 NOT ADD SLT PUSH2 0x3CD JUMPI DUP3 CALLDATALOAD SWAP1 PUSH1 0xA DUP3 MUL SWAP1 DUP3 DUP3 DIV PUSH1 0xA EQ DUP4 ISZERO OR ISZERO PUSH2 0x3BA JUMPI PUSH1 0x20 DUP5 PUSH2 0x3B3 PUSH1 0x64 DUP6 DIV DUP7 PUSH2 0xEC9 JUMP JUMPDEST SWAP1 MLOAD SWAP1 DUP2 MSTORE RETURN JUMPDEST PUSH4 0x4E487B71 PUSH1 0xE0 SHL DUP2 MSTORE PUSH1 0x11 DUP6 MSTORE PUSH1 0x24 SWAP1 REVERT JUMPDEST DUP1 REVERT JUMPDEST POP DUP3 CALLVALUE PUSH2 0x3CD JUMPI PUSH1 0x20 CALLDATASIZE PUSH1 0x3 NOT ADD SLT PUSH2 0x3CD JUMPI DUP2 CALLDATALOAD SWAP2 PUSH1 0xA DUP4 MUL SWAP3 DUP1 DUP5 DIV PUSH1 0xA EQ SWAP1 ISZERO OR ISZERO PUSH2 0x406 JUMPI PUSH1 0x20 DUP4 PUSH1 0x64 DUP7 MLOAD SWAP2 DIV DUP2 MSTORE RETURN JUMPDEST PUSH4 0x4E487B71 PUSH1 0xE0 SHL DUP3 MSTORE PUSH1 0x11 SWAP1 MSTORE PUSH1 0x24 SWAP1 REVERT JUMPDEST DUP4 CALLVALUE PUSH2 0x3CD JUMPI PUSH1 0x20 CALLDATASIZE PUSH1 0x3 NOT ADD SLT PUSH2 0x3CD JUMPI PUSH2 0x433 PUSH2 0xE1E JUMP JUMPDEST PUSH2 0x43B PUSH2 0xE71 JUMP JUMPDEST PUSH1 0x3 DUP1 SLOAD PUSH1 0x1 PUSH1 0x1 PUSH1 0xA0 SHL SUB SWAP3 DUP4 AND PUSH1 0x1 PUSH1 0x1 PUSH1 0xA0 SHL SUB NOT DUP3 AND DUP2 OR SWAP1 SWAP3 SSTORE SWAP1 SWAP2 AND PUSH32 0xFCD87BC644E47E1B76226BBB552D1C073359463789907FD7021EB934981183DD DUP4 DUP1 LOG3 DUP1 RETURN JUMPDEST POP POP CALLVALUE PUSH2 0x376 JUMPI DUP2 PUSH1 0x3 NOT CALLDATASIZE ADD SLT PUSH2 0x376 JUMPI PUSH1 0x20 SWAP1 MLOAD PUSH3 0x3D090 DUP2 MSTORE RETURN JUMPDEST POP POP CALLVALUE PUSH2 0x376 JUMPI DUP2 PUSH1 0x3 NOT CALLDATASIZE ADD SLT PUSH2 0x376 JUMPI PUSH1 0x20 SWAP1 MLOAD PUSH3 0xF4240 DUP2 MSTORE RETURN JUMPDEST POP CALLVALUE PUSH2 0x1E3 JUMPI PUSH1 0x20 DUP1 PUSH1 0x3 NOT CALLDATASIZE ADD SLT PUSH2 0x349 JUMPI PUSH2 0x4DB PUSH2 0xE1E JUMP JUMPDEST SWAP3 PUSH2 0x4E4 PUSH2 0xF41 JUMP JUMPDEST PUSH2 0x4EC PUSH2 0xF88 JUMP JUMPDEST PUSH1 0x1 DUP1 PUSH1 0xA0 SHL SUB SWAP2 DUP3 PUSH1 0x2 SLOAD AND SWAP4 DUP4 DUP4 MLOAD SWAP7 PUSH4 0x23B872DD PUSH1 0xE0 SHL DUP9 MSTORE AND SWAP6 DUP7 DUP3 DUP3 ADD MSTORE ADDRESS PUSH1 0x24 DUP3 ADD MSTORE DUP3 DUP2 PUSH1 0x64 DUP2 DUP12 PUSH3 0x29F630 SWAP11 DUP12 PUSH1 0x44 DUP5 ADD MSTORE GAS CALL SWAP1 DUP2 ISZERO PUSH2 0x33F JUMPI SWAP1 PUSH2 0x540 SWAP2 DUP10 SWAP2 PUSH2 0x322 JUMPI POP PUSH2 0xF04 JUMP JUMPDEST DUP4 PUSH1 0x2 SLOAD AND SWAP4 PUSH1 0x3 SLOAD AND DUP4 MLOAD SWAP2 PUSH4 0xA9059CBB PUSH1 0xE0 SHL DUP4 MSTORE DUP3 ADD MSTORE DUP2 DUP2 PUSH1 0x44 DUP2 DUP11 PUSH3 0x43238 SWAP9 DUP10 PUSH1 0x24 DUP5 ADD MSTORE GAS CALL DUP1 ISZERO PUSH2 0x318 JUMPI PUSH1 0xA0 SWAP5 SWAP3 PUSH1 0x0 DUP1 MLOAD PUSH1 0x20 PUSH2 0xFDF DUP4 CODECOPY DUP2 MLOAD SWAP2 MSTORE SWAP7 SWAP5 SWAP3 PUSH1 0x60 SWAP3 PUSH2 0x5C4 JUMPI JUMPDEST POP DUP3 MLOAD SWAP5 DUP6 MSTORE DUP5 ADD MSTORE PUSH1 0xF PUSH1 0x60 DUP5 ADD MSTORE PUSH15 0x756E6C696D697465645F6461696C79 PUSH1 0x88 SHL PUSH1 0x80 DUP5 ADD MSTORE DUP3 ADD MSTORE LOG2 PUSH1 0x1 DUP1 SSTORE DUP1 RETURN JUMPDEST PUSH2 0x5DA SWAP1 DUP3 RETURNDATASIZE DUP5 GT PUSH2 0x311 JUMPI PUSH2 0x302 DUP2 DUP4 PUSH2 0xE39 JUMP JUMPDEST POP CODESIZE PUSH2 0x591 JUMP JUMPDEST POP POP CALLVALUE PUSH2 0x376 JUMPI DUP2 PUSH1 0x3 NOT CALLDATASIZE ADD SLT PUSH2 0x376 JUMPI PUSH1 0x20 SWAP1 MLOAD PUSH3 0x4C4B40 DUP2 MSTORE RETURN JUMPDEST POP POP CALLVALUE PUSH2 0x376 JUMPI DUP2 PUSH1 0x3 NOT CALLDATASIZE ADD SLT PUSH2 0x376 JUMPI SWAP1 SLOAD SWAP1 MLOAD PUSH1 0x1 PUSH1 0x1 PUSH1 0xA0 SHL SUB SWAP1 SWAP2 AND DUP2 MSTORE PUSH1 0x20 SWAP1 RETURN JUMPDEST POP POP CALLVALUE PUSH2 0x376 JUMPI DUP2 PUSH1 0x3 NOT CALLDATASIZE ADD SLT PUSH2 0x376 JUMPI PUSH1 0x20 PUSH32 0x62E78CEA01BEE320CD4E420270B5EA74000D11B0C9F74754EBDBFC544B05A258 SWAP2 PUSH2 0x665 PUSH2 0xE71 JUMP JUMPDEST PUSH2 0x66D PUSH2 0xF41 JUMP JUMPDEST DUP4 SLOAD PUSH1 0xFF PUSH1 0xA0 SHL NOT AND PUSH1 0x1 PUSH1 0xA0 SHL OR DUP5 SSTORE MLOAD CALLER DUP2 MSTORE LOG1 DUP1 RETURN JUMPDEST POP CALLVALUE PUSH2 0x1E3 JUMPI PUSH1 0x60 CALLDATASIZE PUSH1 0x3 NOT ADD SLT PUSH2 0x1E3 JUMPI PUSH2 0x6A0 PUSH2 0xE1E JUMP JUMPDEST PUSH1 0x24 SWAP3 DUP4 CALLDATALOAD SWAP3 PUSH8 0xFFFFFFFFFFFFFFFF SWAP3 SWAP2 PUSH1 0x44 CALLDATALOAD DUP5 DUP2 GT PUSH2 0x8B5 JUMPI CALLDATASIZE PUSH1 0x23 DUP3 ADD SLT ISZERO PUSH2 0x8B5 JUMPI DUP1 DUP4 ADD CALLDATALOAD SWAP5 DUP6 GT PUSH2 0x8A3 JUMPI DUP2 MLOAD SWAP4 DUP9 PUSH1 0x20 SWAP3 PUSH1 0x1F NOT SWAP8 PUSH2 0x6ED DUP6 DUP11 PUSH1 0x1F DUP5 ADD AND ADD DUP10 PUSH2 0xE39 JUMP JUMPDEST DUP1 DUP9 MSTORE CALLDATASIZE DUP12 DUP3 DUP5 ADD ADD GT PUSH2 0x1E3 JUMPI DUP1 DUP12 DUP7 SWAP4 ADD DUP4 DUP11 ADD CALLDATACOPY DUP8 ADD ADD MSTORE PUSH2 0x710 PUSH2 0xF41 JUMP JUMPDEST PUSH2 0x718 PUSH2 0xF88 JUMP JUMPDEST PUSH1 0xA DUP8 MUL DUP8 DUP2 DIV PUSH1 0xA EQ DUP9 ISZERO OR ISZERO PUSH2 0x891 JUMPI PUSH1 0x64 SWAP1 DIV SWAP4 PUSH2 0x739 DUP6 DUP10 PUSH2 0xEC9 JUMP JUMPDEST POP PUSH1 0x2 SLOAD DUP5 MLOAD PUSH4 0x23B872DD PUSH1 0xE0 SHL DUP2 MSTORE PUSH1 0x1 PUSH1 0x1 PUSH1 0xA0 SHL SUB SWAP4 DUP5 AND DUP4 DUP3 ADD DUP2 SWAP1 MSTORE ADDRESS SWAP12 DUP3 ADD SWAP12 SWAP1 SWAP12 MSTORE PUSH1 0x44 DUP2 ADD DUP11 SWAP1 MSTORE SWAP1 DUP5 SWAP1 DUP3 SWAP1 DUP6 AND DUP2 DUP15 GAS SWAP3 PUSH1 0x64 SWAP4 CALL SWAP1 DUP12 DUP3 ISZERO PUSH2 0x886 JUMPI SWAP3 PUSH2 0x798 DUP9 SWAP4 PUSH2 0x7D3 SWAP7 SWAP4 DUP9 SWAP7 SWAP2 PUSH2 0x86F JUMPI POP PUSH2 0xF04 JUMP JUMPDEST DUP13 DUP3 PUSH1 0x2 SLOAD AND SWAP3 PUSH1 0x3 SLOAD AND SWAP2 DUP9 MLOAD SWAP7 DUP8 SWAP6 DUP7 SWAP5 DUP6 SWAP4 PUSH4 0xA9059CBB PUSH1 0xE0 SHL DUP6 MSTORE DUP5 ADD PUSH1 0x20 SWAP1 SWAP4 SWAP3 SWAP2 SWAP4 PUSH1 0x40 DUP2 ADD SWAP5 PUSH1 0x1 DUP1 PUSH1 0xA0 SHL SUB AND DUP2 MSTORE ADD MSTORE JUMP JUMPDEST SUB SWAP3 GAS CALL DUP1 ISZERO PUSH2 0x865 JUMPI PUSH2 0x848 JUMPI JUMPDEST POP DUP2 MLOAD SWAP6 DUP7 MSTORE PUSH1 0x60 DUP2 DUP8 ADD MSTORE DUP4 MLOAD SWAP4 DUP5 PUSH1 0x60 DUP9 ADD MSTORE DUP9 JUMPDEST DUP6 DUP2 LT PUSH2 0x834 JUMPI DUP10 DUP10 PUSH1 0x0 DUP1 MLOAD PUSH1 0x20 PUSH2 0xFDF DUP4 CODECOPY DUP2 MLOAD SWAP2 MSTORE DUP11 PUSH1 0x80 DUP2 DUP13 PUSH1 0x1F DUP14 DUP14 DUP14 DUP11 DUP8 DUP5 DUP9 ADD ADD MSTORE DUP6 ADD MSTORE ADD AND DUP2 ADD SUB ADD SWAP1 LOG2 PUSH1 0x1 DUP1 SSTORE DUP1 RETURN JUMPDEST DUP2 DUP2 ADD DUP4 ADD MLOAD DUP9 DUP3 ADD PUSH1 0x80 ADD MSTORE DUP3 ADD PUSH2 0x7F9 JUMP JUMPDEST PUSH2 0x85E SWAP1 DUP3 RETURNDATASIZE DUP5 GT PUSH2 0x311 JUMPI PUSH2 0x302 DUP2 DUP4 PUSH2 0xE39 JUMP JUMPDEST POP CODESIZE PUSH2 0x7E2 JUMP JUMPDEST DUP4 MLOAD RETURNDATASIZE DUP12 DUP3 RETURNDATACOPY RETURNDATASIZE SWAP1 REVERT JUMPDEST PUSH2 0x339 SWAP2 POP DUP7 RETURNDATASIZE DUP9 GT PUSH2 0x311 JUMPI PUSH2 0x302 DUP2 DUP4 PUSH2 0xE39 JUMP JUMPDEST DUP7 MLOAD SWAP1 RETURNDATASIZE SWAP1 DUP3 RETURNDATACOPY RETURNDATASIZE SWAP1 REVERT JUMPDEST PUSH4 0x4E487B71 PUSH1 0xE0 SHL DUP11 MSTORE PUSH1 0x11 DUP6 MSTORE DUP9 DUP11 REVERT JUMPDEST PUSH4 0x4E487B71 PUSH1 0xE0 SHL DUP9 MSTORE PUSH1 0x41 DUP4 MSTORE DUP7 DUP9 REVERT JUMPDEST DUP8 DUP1 REVERT JUMPDEST POP POP CALLVALUE PUSH2 0x376 JUMPI DUP2 PUSH1 0x3 NOT CALLDATASIZE ADD SLT PUSH2 0x376 JUMPI PUSH1 0x20 SWAP1 MLOAD PUSH3 0x29F630 DUP2 MSTORE RETURN JUMPDEST DUP4 CALLVALUE PUSH2 0x3CD JUMPI DUP1 PUSH1 0x3 NOT CALLDATASIZE ADD SLT PUSH2 0x3CD JUMPI PUSH2 0x8F0 PUSH2 0xE71 JUMP JUMPDEST DUP1 SLOAD PUSH1 0x1 PUSH1 0x1 PUSH1 0xA0 SHL SUB NOT DUP2 AND DUP3 SSTORE DUP2 SWAP1 PUSH1 0x1 PUSH1 0x1 PUSH1 0xA0 SHL SUB AND PUSH32 0x8BE0079C531659141344CD1FD0A4F28419497F9722A3DAAFE3B4186F6B6457E0 DUP3 DUP1 LOG3 DUP1 RETURN JUMPDEST POP SWAP1 CALLVALUE PUSH2 0x1E3 JUMPI DUP3 PUSH1 0x3 NOT CALLDATASIZE ADD SLT PUSH2 0x1E3 JUMPI PUSH1 0x2 SLOAD DUP2 MLOAD PUSH4 0x70A08231 PUSH1 0xE0 SHL DUP2 MSTORE ADDRESS SWAP4 DUP2 ADD SWAP4 SWAP1 SWAP4 MSTORE PUSH1 0x20 SWAP1 DUP4 SWAP1 PUSH1 0x24 SWAP1 DUP3 SWAP1 PUSH1 0x1 PUSH1 0x1 PUSH1 0xA0 SHL SUB AND GAS STATICCALL SWAP2 DUP3 ISZERO PUSH2 0x9BE JUMPI DUP4 SWAP3 PUSH2 0x987 JUMPI JUMPDEST PUSH1 0x20 DUP4 DUP4 MLOAD SWAP1 DUP2 MSTORE RETURN JUMPDEST SWAP1 SWAP2 POP PUSH1 0x20 DUP2 RETURNDATASIZE DUP3 GT PUSH2 0x9B6 JUMPI JUMPDEST DUP2 PUSH2 0x9A2 PUSH1 0x20 SWAP4 DUP4 PUSH2 0xE39 JUMP JUMPDEST DUP2 ADD SUB SLT PUSH2 0x1E3 JUMPI PUSH1 0x20 SWAP3 POP MLOAD SWAP1 CODESIZE PUSH2 0x97D JUMP JUMPDEST RETURNDATASIZE SWAP2 POP PUSH2 0x995 JUMP JUMPDEST DUP2 MLOAD RETURNDATASIZE DUP6 DUP3 RETURNDATACOPY RETURNDATASIZE SWAP1 REVERT JUMPDEST POP POP CALLVALUE PUSH2 0x376 JUMPI DUP2 PUSH1 0x3 NOT CALLDATASIZE ADD SLT PUSH2 0x376 JUMPI PUSH1 0xFF PUSH1 0x20 SWAP3 SLOAD PUSH1 0xA0 SHR AND SWAP1 MLOAD SWAP1 ISZERO ISZERO DUP2 MSTORE RETURN JUMPDEST POP POP CALLVALUE PUSH2 0x376 JUMPI DUP2 PUSH1 0x3 NOT CALLDATASIZE ADD SLT PUSH2 0x376 JUMPI PUSH1 0x20 SWAP1 MLOAD PUSH1 0xA DUP2 MSTORE RETURN JUMPDEST POP CALLVALUE PUSH2 0x1E3 JUMPI PUSH1 0x20 DUP1 PUSH1 0x3 NOT CALLDATASIZE ADD SLT PUSH2 0x349 JUMPI PUSH2 0xA24 PUSH2 0xE1E JUMP JUMPDEST SWAP3 PUSH2 0xA2D PUSH2 0xF41 JUMP JUMPDEST PUSH2 0xA35 PUSH2 0xF88 JUMP JUMPDEST PUSH1 0x1 DUP1 PUSH1 0xA0 SHL SUB SWAP2 DUP3 PUSH1 0x2 SLOAD AND SWAP4 DUP4 DUP4 MLOAD SWAP7 PUSH4 0x23B872DD PUSH1 0xE0 SHL DUP9 MSTORE AND SWAP6 DUP7 DUP3 DUP3 ADD MSTORE ADDRESS PUSH1 0x24 DUP3 ADD MSTORE DUP3 DUP2 PUSH1 0x64 DUP2 DUP12 PUSH3 0xF4240 SWAP11 DUP12 PUSH1 0x44 DUP5 ADD MSTORE GAS CALL SWAP1 DUP2 ISZERO PUSH2 0x33F JUMPI SWAP1 PUSH2 0xA89 SWAP2 DUP10 SWAP2 PUSH2 0x322 JUMPI POP PUSH2 0xF04 JUMP JUMPDEST DUP4 PUSH1 0x2 SLOAD AND SWAP4 PUSH1 0x3 SLOAD AND DUP4 MLOAD SWAP2 PUSH4 0xA9059CBB PUSH1 0xE0 SHL DUP4 MSTORE DUP3 ADD MSTORE DUP2 DUP2 PUSH1 0x44 DUP2 DUP11 PUSH3 0x186A0 SWAP9 DUP10 PUSH1 0x24 DUP5 ADD MSTORE GAS CALL DUP1 ISZERO PUSH2 0x318 JUMPI PUSH1 0xA0 SWAP5 SWAP3 PUSH1 0x0 DUP1 MLOAD PUSH1 0x20 PUSH2 0xFDF DUP4 CODECOPY DUP2 MLOAD SWAP2 MSTORE SWAP7 SWAP5 SWAP3 PUSH1 0x60 SWAP3 PUSH2 0xB0D JUMPI JUMPDEST POP DUP3 MLOAD SWAP5 DUP6 MSTORE DUP5 ADD MSTORE PUSH1 0xF PUSH1 0x60 DUP5 ADD MSTORE PUSH15 0x717569636B5F6368616C6C656E6765 PUSH1 0x88 SHL PUSH1 0x80 DUP5 ADD MSTORE DUP3 ADD MSTORE LOG2 PUSH1 0x1 DUP1 SSTORE DUP1 RETURN JUMPDEST PUSH2 0xB23 SWAP1 DUP3 RETURNDATASIZE DUP5 GT PUSH2 0x311 JUMPI PUSH2 0x302 DUP2 DUP4 PUSH2 0xE39 JUMP JUMPDEST POP CODESIZE PUSH2 0xADA JUMP JUMPDEST DUP3 DUP2 DUP6 CALLVALUE PUSH2 0x376 JUMPI DUP2 PUSH1 0x3 NOT CALLDATASIZE ADD SLT PUSH2 0x376 JUMPI PUSH2 0xB45 PUSH2 0xE71 JUMP JUMPDEST PUSH1 0x2 SLOAD DUP2 MLOAD PUSH4 0x70A08231 PUSH1 0xE0 SHL DUP2 MSTORE ADDRESS DUP2 DUP7 ADD MSTORE PUSH1 0x20 SWAP5 SWAP1 SWAP2 PUSH1 0x1 PUSH1 0x1 PUSH1 0xA0 SHL SUB SWAP1 DUP2 AND SWAP2 SWAP1 DUP7 DUP5 PUSH1 0x24 DUP2 DUP7 GAS STATICCALL SWAP4 DUP5 ISZERO PUSH2 0xC2F JUMPI SWAP1 DUP8 SWAP5 SWAP4 SWAP3 SWAP2 DUP8 SWAP5 PUSH2 0xBF6 JUMPI JUMPDEST POP DUP7 SLOAD DUP7 MLOAD PUSH4 0xA9059CBB PUSH1 0xE0 SHL DUP2 MSTORE SWAP2 AND PUSH1 0x1 PUSH1 0x1 PUSH1 0xA0 SHL SUB AND SWAP2 DUP2 ADD SWAP2 DUP3 MSTORE PUSH1 0x20 DUP3 ADD SWAP4 SWAP1 SWAP4 MSTORE SWAP2 SWAP5 DUP6 SWAP3 DUP4 SWAP2 SWAP1 DUP3 SWAP1 PUSH1 0x40 ADD JUMPDEST SUB SWAP3 GAS CALL SWAP1 DUP2 ISZERO PUSH2 0xBED JUMPI POP PUSH2 0xBD0 JUMPI DUP3 DUP1 RETURN JUMPDEST DUP2 PUSH2 0xBE6 SWAP3 SWAP1 RETURNDATASIZE LT PUSH2 0x311 JUMPI PUSH2 0x302 DUP2 DUP4 PUSH2 0xE39 JUMP JUMPDEST POP DUP2 DUP1 DUP3 DUP1 RETURN JUMPDEST MLOAD RETURNDATASIZE DUP6 DUP3 RETURNDATACOPY RETURNDATASIZE SWAP1 REVERT JUMPDEST DUP6 DUP2 SWAP7 SWAP3 SWAP6 POP RETURNDATASIZE DUP4 GT PUSH2 0xC28 JUMPI JUMPDEST PUSH2 0xC0E DUP2 DUP4 PUSH2 0xE39 JUMP JUMPDEST DUP2 ADD SUB SLT PUSH2 0xC24 JUMPI SWAP3 MLOAD DUP7 SWAP4 SWAP1 SWAP3 PUSH2 0xBBC PUSH2 0xB87 JUMP JUMPDEST DUP6 DUP1 REVERT JUMPDEST POP RETURNDATASIZE PUSH2 0xC04 JUMP JUMPDEST DUP6 MLOAD RETURNDATASIZE DUP9 DUP3 RETURNDATACOPY RETURNDATASIZE SWAP1 REVERT JUMPDEST POP CALLVALUE PUSH2 0x1E3 JUMPI DUP3 PUSH1 0x3 NOT CALLDATASIZE ADD SLT PUSH2 0x1E3 JUMPI PUSH2 0xC52 PUSH2 0xE71 JUMP JUMPDEST DUP3 SLOAD SWAP1 PUSH1 0xFF DUP3 PUSH1 0xA0 SHR AND ISZERO PUSH2 0xC98 JUMPI POP PUSH1 0xFF PUSH1 0xA0 SHL NOT AND DUP3 SSTORE MLOAD CALLER DUP2 MSTORE PUSH32 0x5DB9EE0A495BF2E6FF9C91A7834C1BA4FDD244A5E8AA4E537BD38AEAE4B073AA SWAP1 PUSH1 0x20 SWAP1 LOG1 DUP1 RETURN JUMPDEST PUSH1 0x64 SWAP1 PUSH1 0x20 DUP5 MLOAD SWAP2 PUSH3 0x461BCD PUSH1 0xE5 SHL DUP4 MSTORE DUP3 ADD MSTORE PUSH1 0x14 PUSH1 0x24 DUP3 ADD MSTORE PUSH20 0x14185D5CD8589B194E881B9BDD081C185D5CD959 PUSH1 0x62 SHL PUSH1 0x44 DUP3 ADD MSTORE REVERT JUMPDEST POP CALLVALUE PUSH2 0x1E3 JUMPI PUSH1 0x20 DUP1 PUSH1 0x3 NOT CALLDATASIZE ADD SLT PUSH2 0x349 JUMPI PUSH2 0xCED PUSH2 0xE1E JUMP JUMPDEST SWAP3 PUSH2 0xCF6 PUSH2 0xF41 JUMP JUMPDEST PUSH2 0xCFE PUSH2 0xF88 JUMP JUMPDEST PUSH1 0x1 DUP1 PUSH1 0xA0 SHL SUB SWAP2 DUP3 PUSH1 0x2 SLOAD AND SWAP4 DUP4 DUP4 MLOAD SWAP7 PUSH4 0x23B872DD PUSH1 0xE0 SHL DUP9 MSTORE AND SWAP6 DUP7 DUP3 DUP3 ADD MSTORE ADDRESS PUSH1 0x24 DUP3 ADD MSTORE DUP3 DUP2 PUSH1 0x64 DUP2 DUP12 PUSH3 0x4C4B40 SWAP11 DUP12 PUSH1 0x44 DUP5 ADD MSTORE GAS CALL SWAP1 DUP2 ISZERO PUSH2 0x33F JUMPI SWAP1 PUSH2 0xD52 SWAP2 DUP10 SWAP2 PUSH2 0x322 JUMPI POP PUSH2 0xF04 JUMP JUMPDEST DUP4 PUSH1 0x2 SLOAD AND SWAP4 PUSH1 0x3 SLOAD AND DUP4 MLOAD SWAP2 PUSH4 0xA9059CBB PUSH1 0xE0 SHL DUP4 MSTORE DUP3 ADD MSTORE DUP2 DUP2 PUSH1 0x44 DUP2 DUP11 PUSH3 0x7A120 SWAP9 DUP10 PUSH1 0x24 DUP5 ADD MSTORE GAS CALL DUP1 ISZERO PUSH2 0x318 JUMPI PUSH1 0xA0 SWAP5 SWAP3 PUSH1 0x0 DUP1 MLOAD PUSH1 0x20 PUSH2 0xFDF DUP4 CODECOPY DUP2 MLOAD SWAP2 MSTORE SWAP7 SWAP5 SWAP3 PUSH1 0x60 SWAP3 PUSH2 0xDDC JUMPI JUMPDEST POP DUP3 MLOAD SWAP5 DUP6 MSTORE DUP5 ADD MSTORE PUSH1 0x15 PUSH1 0x60 DUP5 ADD MSTORE PUSH21 0x686967685F726F6C6C65725F6368616C6C656E6765 PUSH1 0x58 SHL PUSH1 0x80 DUP5 ADD MSTORE DUP3 ADD MSTORE LOG2 PUSH1 0x1 DUP1 SSTORE DUP1 RETURN JUMPDEST PUSH2 0xDF2 SWAP1 DUP3 RETURNDATASIZE DUP5 GT PUSH2 0x311 JUMPI PUSH2 0x302 DUP2 DUP4 PUSH2 0xE39 JUMP JUMPDEST POP CODESIZE PUSH2 0xDA3 JUMP JUMPDEST DUP5 SWAP1 CALLVALUE PUSH2 0x376 JUMPI DUP2 PUSH1 0x3 NOT CALLDATASIZE ADD SLT PUSH2 0x376 JUMPI PUSH1 0x2 SLOAD PUSH1 0x1 PUSH1 0x1 PUSH1 0xA0 SHL SUB AND DUP2 MSTORE PUSH1 0x20 SWAP1 RETURN JUMPDEST PUSH1 0x4 CALLDATALOAD SWAP1 PUSH1 0x1 PUSH1 0x1 PUSH1 0xA0 SHL SUB DUP3 AND DUP3 SUB PUSH2 0xE34 JUMPI JUMP JUMPDEST PUSH1 0x0 DUP1 REVERT JUMPDEST SWAP1 PUSH1 0x1F DUP1 NOT SWAP2 ADD AND DUP2 ADD SWAP1 DUP2 LT PUSH8 0xFFFFFFFFFFFFFFFF DUP3 GT OR PUSH2 0xE5B JUMPI PUSH1 0x40 MSTORE JUMP JUMPDEST PUSH4 0x4E487B71 PUSH1 0xE0 SHL PUSH1 0x0 MSTORE PUSH1 0x41 PUSH1 0x4 MSTORE PUSH1 0x24 PUSH1 0x0 REVERT JUMPDEST PUSH1 0x0 SLOAD PUSH1 0x1 PUSH1 0x1 PUSH1 0xA0 SHL SUB AND CALLER SUB PUSH2 0xE85 JUMPI JUMP JUMPDEST PUSH1 0x64 PUSH1 0x40 MLOAD PUSH3 0x461BCD PUSH1 0xE5 SHL DUP2 MSTORE PUSH1 0x20 PUSH1 0x4 DUP3 ADD MSTORE PUSH1 0x20 PUSH1 0x24 DUP3 ADD MSTORE PUSH32 0x4F776E61626C653A2063616C6C6572206973206E6F7420746865206F776E6572 PUSH1 0x44 DUP3 ADD MSTORE REVERT JUMPDEST SWAP2 SWAP1 DUP3 SUB SWAP2 DUP3 GT PUSH2 0xED6 JUMPI JUMP JUMPDEST PUSH4 0x4E487B71 PUSH1 0xE0 SHL PUSH1 0x0 MSTORE PUSH1 0x11 PUSH1 0x4 MSTORE PUSH1 0x24 PUSH1 0x0 REVERT JUMPDEST SWAP1 DUP2 PUSH1 0x20 SWAP2 SUB SLT PUSH2 0xE34 JUMPI MLOAD DUP1 ISZERO ISZERO DUP2 SUB PUSH2 0xE34 JUMPI SWAP1 JUMP JUMPDEST ISZERO PUSH2 0xF0B JUMPI JUMP JUMPDEST PUSH1 0x40 MLOAD PUSH3 0x461BCD PUSH1 0xE5 SHL DUP2 MSTORE PUSH1 0x20 PUSH1 0x4 DUP3 ADD MSTORE PUSH1 0xE PUSH1 0x24 DUP3 ADD MSTORE PUSH14 0x14185E5B595B9D0819985A5B1959 PUSH1 0x92 SHL PUSH1 0x44 DUP3 ADD MSTORE PUSH1 0x64 SWAP1 REVERT JUMPDEST PUSH1 0xFF PUSH1 0x0 SLOAD PUSH1 0xA0 SHR AND PUSH2 0xF50 JUMPI JUMP JUMPDEST PUSH1 0x40 MLOAD PUSH3 0x461BCD PUSH1 0xE5 SHL DUP2 MSTORE PUSH1 0x20 PUSH1 0x4 DUP3 ADD MSTORE PUSH1 0x10 PUSH1 0x24 DUP3 ADD MSTORE PUSH16 0x14185D5CD8589B194E881C185D5CD959 PUSH1 0x82 SHL PUSH1 0x44 DUP3 ADD MSTORE PUSH1 0x64 SWAP1 REVERT JUMPDEST PUSH1 0x2 PUSH1 0x1 SLOAD EQ PUSH2 0xF99 JUMPI PUSH1 0x2 PUSH1 0x1 SSTORE JUMP JUMPDEST PUSH1 0x40 MLOAD PUSH3 0x461BCD PUSH1 0xE5 SHL DUP2 MSTORE PUSH1 0x20 PUSH1 0x4 DUP3 ADD MSTORE PUSH1 0x1F PUSH1 0x24 DUP3 ADD MSTORE PUSH32 0x5265656E7472616E637947756172643A207265656E7472616E742063616C6C00 PUSH1 0x44 DUP3 ADD MSTORE PUSH1 0x64 SWAP1 REVERT INVALID TIMESTAMP 0xC1 0xE8 INVALID 0xD3 0xE4 GT CALLDATALOAD 0xF8 CALLCODE SWAP16 CODECOPY XOR SHR INVALID PUSH13 0x261B387C3EEF8D4FEBAD93A219 0xC CALLDATASIZE CALLVALUE LOG2 PUSH5 0x6970667358 0x22 SLT KECCAK256 0xE5 0xC8 PUSH27 0x11E1DFE43747F4A6A81AF42FB94A6FFC1964173D357D4FC4B86286 0xF7 0xF9 PUSH5 0x736F6C6343 STOP ADDMOD SGT STOP CALLER "},"methodIdentifiers":{"HIGH_ROLLER_CHALLENGE_AMOUNT()":"96b2a315","INDIVIDUAL_GAME_AMOUNT()":"d5bcd221","PLATFORM_FEE_PERCENT()":"560d52d4","QUICK_CHALLENGE_AMOUNT()":"d421562f","UNLIMITED_DAILY_AMOUNT()":"7220fc1c","emergencyWithdrawUSDC()":"4fef1488","getContractBalance()":"6f9fb98a","getNetAmount(uint256)":"dca78388","getPlatformFee(uint256)":"d97939eb","owner()":"8da5cb5b","pause()":"8456cb59","paused()":"5c975abb","platformFeeWallet()":"e20fc118","processCustomPayment(address,uint256,string)":"81807e33","processHighRollerChallengePayment(address)":"229c5dff","processIndividualGamePayment(address)":"f212ce7a","processQuickChallengePayment(address)":"53b614d4","processUnlimitedDailyPayment(address)":"a0f2e966","renounceOwnership()":"715018a6","setPlatformFeeWallet(address)":"d96d98ca","transferOwnership(address)":"f2fde38b","unpause()":"3f4ba83a","usdcToken()":"11eac855"}}}}}