{
  "_format": "hh-sol-artifact-1",
  "contractName": "PaymentProcessor",
  "sourceName": "src/PaymentProcessor.sol",
  "abi": [
    {
      "inputs": [
        {
          "internalType": "address",
          "name": "_usdcToken",
          "type": "address"
        },
        {
          "internalType": "address",
          "name": "_platformFeeWallet",
          "type": "address"
        }
      ],
      "stateMutability": "nonpayable",
      "type": "constructor"
    },
    {
      "anonymous": false,
      "inputs": [
        {
          "indexed": true,
          "internalType": "address",
          "name": "previousOwner",
          "type": "address"
        },
        {
          "indexed": true,
          "internalType": "address",
          "name": "newOwner",
          "type": "address"
        }
      ],
      "name": "OwnershipTransferred",
      "type": "event"
    },
    {
      "anonymous": false,
      "inputs": [
        {
          "indexed": false,
          "internalType": "address",
          "name": "account",
          "type": "address"
        }
      ],
      "name": "Paused",
      "type": "event"
    },
    {
      "anonymous": false,
      "inputs": [
        {
          "indexed": true,
          "internalType": "address",
          "name": "payer",
          "type": "address"
        },
        {
          "indexed": false,
          "internalType": "uint256",
          "name": "amount",
          "type": "uint256"
        },
        {
          "indexed": false,
          "internalType": "string",
          "name": "paymentType",
          "type": "string"
        },
        {
          "indexed": false,
          "internalType": "uint256",
          "name": "platformFee",
          "type": "uint256"
        }
      ],
      "name": "PaymentProcessed",
      "type": "event"
    },
    {
      "anonymous": false,
      "inputs": [
        {
          "indexed": true,
          "internalType": "address",
          "name": "oldWallet",
          "type": "address"
        },
        {
          "indexed": true,
          "internalType": "address",
          "name": "newWallet",
          "type": "address"
        }
      ],
      "name": "PlatformFeeWalletUpdated",
      "type": "event"
    },
    {
      "anonymous": false,
      "inputs": [
        {
          "indexed": false,
          "internalType": "address",
          "name": "account",
          "type": "address"
        }
      ],
      "name": "Unpaused",
      "type": "event"
    },
    {
      "inputs": [],
      "name": "HIGH_ROLLER_CHALLENGE_AMOUNT",
      "outputs": [
        {
          "internalType": "uint256",
          "name": "",
          "type": "uint256"
        }
      ],
      "stateMutability": "view",
      "type": "function"
    },
    {
      "inputs": [],
      "name": "INDIVIDUAL_GAME_AMOUNT",
      "outputs": [
        {
          "internalType": "uint256",
          "name": "",
          "type": "uint256"
        }
      ],
      "stateMutability": "view",
      "type": "function"
    },
    {
      "inputs": [],
      "name": "PLATFORM_FEE_PERCENT",
      "outputs": [
        {
          "internalType": "uint256",
          "name": "",
          "type": "uint256"
        }
      ],
      "stateMutability": "view",
      "type": "function"
    },
    {
      "inputs": [],
      "name": "QUICK_CHALLENGE_AMOUNT",
      "outputs": [
        {
          "internalType": "uint256",
          "name": "",
          "type": "uint256"
        }
      ],
      "stateMutability": "view",
      "type": "function"
    },
    {
      "inputs": [],
      "name": "UNLIMITED_DAILY_AMOUNT",
      "outputs": [
        {
          "internalType": "uint256",
          "name": "",
          "type": "uint256"
        }
      ],
      "stateMutability": "view",
      "type": "function"
    },
    {
      "inputs": [],
      "name": "emergencyWithdrawUSDC",
      "outputs": [],
      "stateMutability": "nonpayable",
      "type": "function"
    },
    {
      "inputs": [],
      "name": "getContractBalance",
      "outputs": [
        {
          "internalType": "uint256",
          "name": "",
          "type": "uint256"
        }
      ],
      "stateMutability": "view",
      "type": "function"
    },
    {
      "inputs": [
        {
          "internalType": "uint256",
          "name": "amount",
          "type": "uint256"
        }
      ],
      "name": "getNetAmount",
      "outputs": [
        {
          "internalType": "uint256",
          "name": "",
          "type": "uint256"
        }
      ],
      "stateMutability": "pure",
      "type": "function"
    },
    {
      "inputs": [
        {
          "internalType": "uint256",
          "name": "amount",
          "type": "uint256"
        }
      ],
      "name": "getPlatformFee",
      "outputs": [
        {
          "internalType": "uint256",
          "name": "",
          "type": "uint256"
        }
      ],
      "stateMutability": "pure",
      "type": "function"
    },
    {
      "inputs": [],
      "name": "owner",
      "outputs": [
        {
          "internalType": "address",
          "name": "",
          "type": "address"
        }
      ],
      "stateMutability": "view",
      "type": "function"
    },
    {
      "inputs": [],
      "name": "pause",
      "outputs": [],
      "stateMutability": "nonpayable",
      "type": "function"
    },
    {
      "inputs": [],
      "name": "paused",
      "outputs": [
        {
          "internalType": "bool",
          "name": "",
          "type": "bool"
        }
      ],
      "stateMutability": "view",
      "type": "function"
    },
    {
      "inputs": [],
      "name": "platformFeeWallet",
      "outputs": [
        {
          "internalType": "address",
          "name": "",
          "type": "address"
        }
      ],
      "stateMutability": "view",
      "type": "function"
    },
    {
      "inputs": [
        {
          "internalType": "address",
          "name": "payer",
          "type": "address"
        },
        {
          "internalType": "uint256",
          "name": "amount",
          "type": "uint256"
        },
        {
          "internalType": "string",
          "name": "paymentType",
          "type": "string"
        }
      ],
      "name": "processCustomPayment",
      "outputs": [],
      "stateMutability": "nonpayable",
      "type": "function"
    },
    {
      "inputs": [
        {
          "internalType": "address",
          "name": "payer",
          "type": "address"
        }
      ],
      "name": "processHighRollerChallengePayment",
      "outputs": [],
      "stateMutability": "nonpayable",
      "type": "function"
    },
    {
      "inputs": [
        {
          "internalType": "address",
          "name": "payer",
          "type": "address"
        }
      ],
      "name": "processIndividualGamePayment",
      "outputs": [],
      "stateMutability": "nonpayable",
      "type": "function"
    },
    {
      "inputs": [
        {
          "internalType": "address",
          "name": "payer",
          "type": "address"
        }
      ],
      "name": "processQuickChallengePayment",
      "outputs": [],
      "stateMutability": "nonpayable",
      "type": "function"
    },
    {
      "inputs": [
        {
          "internalType": "address",
          "name": "payer",
          "type": "address"
        }
      ],
      "name": "processUnlimitedDailyPayment",
      "outputs": [],
      "stateMutability": "nonpayable",
      "type": "function"
    },
    {
      "inputs": [],
      "name": "renounceOwnership",
      "outputs": [],
      "stateMutability": "nonpayable",
      "type": "function"
    },
    {
      "inputs": [
        {
          "internalType": "address",
          "name": "_newWallet",
          "type": "address"
        }
      ],
      "name": "setPlatformFeeWallet",
      "outputs": [],
      "stateMutability": "nonpayable",
      "type": "function"
    },
    {
      "inputs": [
        {
          "internalType": "address",
          "name": "newOwner",
          "type": "address"
        }
      ],
      "name": "transferOwnership",
      "outputs": [],
      "stateMutability": "nonpayable",
      "type": "function"
    },
    {
      "inputs": [],
      "name": "unpause",
      "outputs": [],
      "stateMutability": "nonpayable",
      "type": "function"
    },
    {
      "inputs": [],
      "name": "usdcToken",
      "outputs": [
        {
          "internalType": "contract IERC20",
          "name": "",
          "type": "address"
        }
      ],
      "stateMutability": "view",
      "type": "function"
    }
  ],
  "bytecode": "0x6080346100d657601f61113a38819003918201601f19168301916001600160401b038311848410176100db5780849260409485528339810103126100d657610052602061004b836100f1565b92016100f1565b906000546040519260018060a01b0391338382167f8be0079c531659141344cd1fd0a4f28419497f9722a3daafe3b4186f6b6457e0600080a36001600160a81b0319163360ff60a01b19161760005560018055600280546001600160a01b031990811694841694909417905560038054909316911617905561103490816101068239f35b600080fd5b634e487b7160e01b600052604160045260246000fd5b51906001600160a01b03821682036100d65756fe6080604081815260048036101561001557600080fd5b600092833560e01c90816311eac85514610df957508063229c5dff14610cd25780633f4ba83a14610c39578381634fef148814610b2a5750806353b614d414610a09578063560d52d4146109ed5780635c975abb146109c85780636f9fb98a14610931578063715018a6146108d75780637220fc1c146108b957806381807e33146106865780638456cb59146106275780638da5cb5b146105ff57806396b2a315146105e1578063a0f2e966146104c0578063d421562f146104a2578063d5bcd22114610484578063d96d98ca14610419578063d97939eb146103d0578063dca783881461037a578063e20fc1181461034d578063f212ce7a146101e75763f2fde38b1461012257600080fd5b346101e35760203660031901126101e35761013b610e1e565b90610144610e71565b6001600160a01b0391821692831561019157505082546001600160a01b0319811683178455167f8be0079c531659141344cd1fd0a4f28419497f9722a3daafe3b4186f6b6457e08380a380f35b906020608492519162461bcd60e51b8352820152602660248201527f4f776e61626c653a206e6577206f776e657220697320746865207a65726f206160448201526564647265737360d01b6064820152fd5b8280fd5b50346101e35760208060031936011261034957610202610e1e565b9261020b610f41565b610213610f88565b60018060a01b0391826002541693838351966323b872dd60e01b88521695868282015230602482015282816064818b6203d0909a8b60448401525af190811561033f5790610268918991610322575b50610f04565b8360025416936003541683519163a9059cbb60e01b835282015281816044818a6161a8988960248401525af180156103185760a09492600080516020610fdf8339815191529694926060926102eb575b508251948552840152600f60608401526e696e646976696475616c5f67616d6560881b6080840152820152a26001805580f35b61030a90823d8411610311575b6103028183610e39565b810190610eec565b50386102b8565b503d6102f8565b83513d89823e3d90fd5b6103399150843d8611610311576103028183610e39565b38610262565b84513d8a823e3d90fd5b8380fd5b50503461037657816003193601126103765760035490516001600160a01b039091168152602090f35b5080fd5b5091346103cd5760203660031901126103cd57823590600a820290828204600a14831517156103ba576020846103b36064850486610ec9565b9051908152f35b634e487b7160e01b815260118552602490fd5b80fd5b5082346103cd5760203660031901126103cd57813591600a830292808404600a1490151715610406576020836064865191048152f35b634e487b7160e01b825260119052602490fd5b83346103cd5760203660031901126103cd57610433610e1e565b61043b610e71565b600380546001600160a01b039283166001600160a01b0319821681179092559091167ffcd87bc644e47e1b76226bbb552d1c073359463789907fd7021eb934981183dd8380a380f35b505034610376578160031936011261037657602090516203d0908152f35b50503461037657816003193601126103765760209051620f42408152f35b50346101e357602080600319360112610349576104db610e1e565b926104e4610f41565b6104ec610f88565b60018060a01b0391826002541693838351966323b872dd60e01b88521695868282015230602482015282816064818b6229f6309a8b60448401525af190811561033f57906105409189916103225750610f04565b8360025416936003541683519163a9059cbb60e01b835282015281816044818a62043238988960248401525af180156103185760a09492600080516020610fdf8339815191529694926060926105c4575b508251948552840152600f60608401526e756e6c696d697465645f6461696c7960881b6080840152820152a26001805580f35b6105da90823d8411610311576103028183610e39565b5038610591565b50503461037657816003193601126103765760209051624c4b408152f35b505034610376578160031936011261037657905490516001600160a01b039091168152602090f35b50503461037657816003193601126103765760207f62e78cea01bee320cd4e420270b5ea74000d11b0c9f74754ebdbfc544b05a25891610665610e71565b61066d610f41565b835460ff60a01b1916600160a01b17845551338152a180f35b50346101e35760603660031901126101e3576106a0610e1e565b60249283359267ffffffffffffffff92916044358481116108b557366023820112156108b557808301359485116108a35781519388602092601f19976106ed858a601f8401160189610e39565b808852368b82840101116101e357808b869301838a013787010152610710610f41565b610718610f88565b600a8702878104600a14881517156108915760649004936107398589610ec9565b5060025484516323b872dd60e01b81526001600160a01b03938416838201819052309b82019b909b52604481018a905290849082908516818e5a92606493f1908b8215610886579261079888936107d3969388969161086f5750610f04565b8c826002541692600354169188519687958694859363a9059cbb60e01b8552840160209093929193604081019460018060a01b031681520152565b03925af1801561086557610848575b508151958652606081870152835193846060880152885b858110610834578989600080516020610fdf8339815191528a6080818c601f8d8d8d8a87848801015285015201168101030190a26001805580f35b8181018301518882016080015282016107f9565b61085e90823d8411610311576103028183610e39565b50386107e2565b83513d8b823e3d90fd5b6103399150863d8811610311576103028183610e39565b8651903d90823e3d90fd5b634e487b7160e01b8a5260118552888afd5b634e487b7160e01b8852604183528688fd5b8780fd5b505034610376578160031936011261037657602090516229f6308152f35b83346103cd57806003193601126103cd576108f0610e71565b80546001600160a01b03198116825581906001600160a01b03167f8be0079c531659141344cd1fd0a4f28419497f9722a3daafe3b4186f6b6457e08280a380f35b5090346101e357826003193601126101e35760025481516370a0823160e01b81523093810193909352602090839060249082906001600160a01b03165afa9182156109be578392610987575b6020838351908152f35b9091506020813d82116109b6575b816109a260209383610e39565b810103126101e3576020925051903861097d565b3d9150610995565b81513d85823e3d90fd5b50503461037657816003193601126103765760ff6020925460a01c1690519015158152f35b50503461037657816003193601126103765760209051600a8152f35b50346101e35760208060031936011261034957610a24610e1e565b92610a2d610f41565b610a35610f88565b60018060a01b0391826002541693838351966323b872dd60e01b88521695868282015230602482015282816064818b620f42409a8b60448401525af190811561033f5790610a899189916103225750610f04565b8360025416936003541683519163a9059cbb60e01b835282015281816044818a620186a0988960248401525af180156103185760a09492600080516020610fdf833981519152969492606092610b0d575b508251948552840152600f60608401526e717569636b5f6368616c6c656e676560881b6080840152820152a26001805580f35b610b2390823d8411610311576103028183610e39565b5038610ada565b82818534610376578160031936011261037657610b45610e71565b60025481516370a0823160e01b8152308186015260209490916001600160a01b0390811691908684602481865afa938415610c2f579087949392918794610bf6575b508654865163a9059cbb60e01b815291166001600160a01b031691810191825260208201939093529194859283919082906040015b03925af1908115610bed5750610bd0578280f35b81610be692903d10610311576103028183610e39565b5081808280f35b513d85823e3d90fd5b8581969295503d8311610c28575b610c0e8183610e39565b81010312610c2457925186939092610bbc610b87565b8580fd5b503d610c04565b85513d88823e3d90fd5b50346101e357826003193601126101e357610c52610e71565b82549060ff8260a01c1615610c98575060ff60a01b19168255513381527f5db9ee0a495bf2e6ff9c91a7834c1ba4fdd244a5e8aa4e537bd38aeae4b073aa90602090a180f35b606490602084519162461bcd60e51b8352820152601460248201527314185d5cd8589b194e881b9bdd081c185d5cd95960621b6044820152fd5b50346101e35760208060031936011261034957610ced610e1e565b92610cf6610f41565b610cfe610f88565b60018060a01b0391826002541693838351966323b872dd60e01b88521695868282015230602482015282816064818b624c4b409a8b60448401525af190811561033f5790610d529189916103225750610f04565b8360025416936003541683519163a9059cbb60e01b835282015281816044818a6207a120988960248401525af180156103185760a09492600080516020610fdf833981519152969492606092610ddc575b5082519485528401526015606084015274686967685f726f6c6c65725f6368616c6c656e676560581b6080840152820152a26001805580f35b610df290823d8411610311576103028183610e39565b5038610da3565b8490346103765781600319360112610376576002546001600160a01b03168152602090f35b600435906001600160a01b0382168203610e3457565b600080fd5b90601f8019910116810190811067ffffffffffffffff821117610e5b57604052565b634e487b7160e01b600052604160045260246000fd5b6000546001600160a01b03163303610e8557565b606460405162461bcd60e51b815260206004820152602060248201527f4f776e61626c653a2063616c6c6572206973206e6f7420746865206f776e65726044820152fd5b91908203918211610ed657565b634e487b7160e01b600052601160045260246000fd5b90816020910312610e3457518015158103610e345790565b15610f0b57565b60405162461bcd60e51b815260206004820152600e60248201526d14185e5b595b9d0819985a5b195960921b6044820152606490fd5b60ff60005460a01c16610f5057565b60405162461bcd60e51b815260206004820152601060248201526f14185d5cd8589b194e881c185d5cd95960821b6044820152606490fd5b600260015414610f99576002600155565b60405162461bcd60e51b815260206004820152601f60248201527f5265656e7472616e637947756172643a207265656e7472616e742063616c6c006044820152606490fdfe42c1e8fed3e41135f8f29f39181cfe6c261b387c3eef8d4febad93a2190c3634a2646970667358221220e5c87a11e1dfe43747f4a6a81af42fb94a6ffc1964173d357d4fc4b86286f7f964736f6c63430008130033",
  "linkReferences": {},
  "deployedLinkReferences": {}
}