{
  "_format": "hh-sol-artifact-1",
  "contractName": "BlockzoneGame",
  "sourceName": "src/BlockzoneGame.sol",
  "abi": [
    {
      "inputs": [
        {
          "internalType": "address",
          "name": "_usdcToken",
          "type": "address"
        },
        {
          "internalType": "address",
          "name": "_dailyLeaderboardAddress",
          "type": "address"
        },
        {
          "internalType": "address",
          "name": "_challengeManagerAddress",
          "type": "address"
        },
        {
          "internalType": "address",
          "name": "_platformFeeWallet",
          "type": "address"
        }
      ],
      "stateMutability": "nonpayable",
      "type": "constructor"
    },
    {
      "anonymous": false,
      "inputs": [
        {
          "indexed": true,
          "internalType": "address",
          "name": "challenger",
          "type": "address"
        },
        {
          "indexed": false,
          "internalType": "uint256",
          "name": "challengeId",
          "type": "uint256"
        }
      ],
      "name": "ChallengeAccepted",
      "type": "event"
    },
    {
      "anonymous": false,
      "inputs": [
        {
          "indexed": true,
          "internalType": "address",
          "name": "creator",
          "type": "address"
        },
        {
          "indexed": false,
          "internalType": "uint256",
          "name": "challengeId",
          "type": "uint256"
        }
      ],
      "name": "ChallengeCreated",
      "type": "event"
    },
    {
      "anonymous": false,
      "inputs": [
        {
          "indexed": true,
          "internalType": "address",
          "name": "player",
          "type": "address"
        },
        {
          "indexed": false,
          "internalType": "uint256",
          "name": "score",
          "type": "uint256"
        },
        {
          "indexed": false,
          "internalType": "string",
          "name": "gameType",
          "type": "string"
        }
      ],
      "name": "GamePlayed",
      "type": "event"
    },
    {
      "inputs": [
        {
          "internalType": "uint256",
          "name": "challengeId",
          "type": "uint256"
        }
      ],
      "name": "acceptChallenge",
      "outputs": [],
      "stateMutability": "nonpayable",
      "type": "function"
    },
    {
      "inputs": [
        {
          "internalType": "address",
          "name": "player",
          "type": "address"
        }
      ],
      "name": "canPlay",
      "outputs": [
        {
          "internalType": "bool",
          "name": "",
          "type": "bool"
        }
      ],
      "stateMutability": "view",
      "type": "function"
    },
    {
      "inputs": [],
      "name": "challengeManager",
      "outputs": [
        {
          "internalType": "contract ChallengeManager",
          "name": "",
          "type": "address"
        }
      ],
      "stateMutability": "view",
      "type": "function"
    },
    {
      "inputs": [
        {
          "internalType": "uint256",
          "name": "challengeId",
          "type": "uint256"
        },
        {
          "internalType": "uint256",
          "name": "challengerScore",
          "type": "uint256"
        }
      ],
      "name": "completeChallenge",
      "outputs": [],
      "stateMutability": "nonpayable",
      "type": "function"
    },
    {
      "inputs": [
        {
          "internalType": "uint256",
          "name": "creatorScore",
          "type": "uint256"
        },
        {
          "internalType": "string",
          "name": "gamePattern",
          "type": "string"
        },
        {
          "internalType": "string",
          "name": "message",
          "type": "string"
        }
      ],
      "name": "createHighRollerChallenge",
      "outputs": [
        {
          "internalType": "uint256",
          "name": "",
          "type": "uint256"
        }
      ],
      "stateMutability": "nonpayable",
      "type": "function"
    },
    {
      "inputs": [
        {
          "internalType": "uint256",
          "name": "creatorScore",
          "type": "uint256"
        },
        {
          "internalType": "string",
          "name": "gamePattern",
          "type": "string"
        },
        {
          "internalType": "string",
          "name": "message",
          "type": "string"
        }
      ],
      "name": "createQuickChallenge",
      "outputs": [
        {
          "internalType": "uint256",
          "name": "",
          "type": "uint256"
        }
      ],
      "stateMutability": "nonpayable",
      "type": "function"
    },
    {
      "inputs": [],
      "name": "dailyLeaderboard",
      "outputs": [
        {
          "internalType": "contract DailyLeaderboard",
          "name": "",
          "type": "address"
        }
      ],
      "stateMutability": "view",
      "type": "function"
    },
    {
      "inputs": [],
      "name": "getContractBalance",
      "outputs": [
        {
          "internalType": "uint256",
          "name": "",
          "type": "uint256"
        }
      ],
      "stateMutability": "view",
      "type": "function"
    },
    {
      "inputs": [],
      "name": "getCurrentLeaderboard",
      "outputs": [
        {
          "components": [
            {
              "internalType": "address",
              "name": "player",
              "type": "address"
            },
            {
              "internalType": "uint256",
              "name": "score",
              "type": "uint256"
            },
            {
              "internalType": "uint256",
              "name": "timestamp",
              "type": "uint256"
            },
            {
              "internalType": "string",
              "name": "displayName",
              "type": "string"
            }
          ],
          "internalType": "struct DailyLeaderboard.LeaderboardEntry[]",
          "name": "",
          "type": "tuple[]"
        }
      ],
      "stateMutability": "view",
      "type": "function"
    },
    {
      "inputs": [
        {
          "internalType": "address",
          "name": "player",
          "type": "address"
        }
      ],
      "name": "getPlayerState",
      "outputs": [
        {
          "components": [
            {
              "internalType": "uint256",
              "name": "lastFreeGameDay",
              "type": "uint256"
            },
            {
              "internalType": "uint256",
              "name": "unlimitedPassExpiry",
              "type": "uint256"
            },
            {
              "internalType": "uint256",
              "name": "totalGamesPlayed",
              "type": "uint256"
            },
            {
              "internalType": "uint256",
              "name": "totalScore",
              "type": "uint256"
            },
            {
              "internalType": "bool",
              "name": "hasUnlimitedPass",
              "type": "bool"
            }
          ],
          "internalType": "struct DailyLeaderboard.PlayerState",
          "name": "",
          "type": "tuple"
        }
      ],
      "stateMutability": "view",
      "type": "function"
    },
    {
      "inputs": [],
      "name": "platformFeeWallet",
      "outputs": [
        {
          "internalType": "address",
          "name": "",
          "type": "address"
        }
      ],
      "stateMutability": "view",
      "type": "function"
    },
    {
      "inputs": [],
      "name": "playFreeGame",
      "outputs": [],
      "stateMutability": "nonpayable",
      "type": "function"
    },
    {
      "inputs": [],
      "name": "purchaseIndividualGame",
      "outputs": [],
      "stateMutability": "nonpayable",
      "type": "function"
    },
    {
      "inputs": [],
      "name": "purchaseUnlimitedDailyPass",
      "outputs": [],
      "stateMutability": "nonpayable",
      "type": "function"
    },
    {
      "inputs": [
        {
          "internalType": "uint256",
          "name": "score",
          "type": "uint256"
        },
        {
          "internalType": "string",
          "name": "displayName",
          "type": "string"
        }
      ],
      "name": "submitScore",
      "outputs": [],
      "stateMutability": "nonpayable",
      "type": "function"
    },
    {
      "inputs": [],
      "name": "usdcToken",
      "outputs": [
        {
          "internalType": "contract IERC20",
          "name": "",
          "type": "address"
        }
      ],
      "stateMutability": "view",
      "type": "function"
    }
  ],
  "bytecode": "0x6080346100b957601f610e9e38819003918201601f19168301916001600160401b038311848410176100be578084926080946040528339810103126100b957610047816100d4565b90610054602082016100d4565b61006c6060610065604085016100d4565b93016100d4565b9060018060a01b03928380928160018060a01b03199716876000541617600055168560015416176001551683600254161760025516906003541617600355604051610db590816100e98239f35b600080fd5b634e487b7160e01b600052604160045260246000fd5b51906001600160a01b03821682036100b95756fe6080604081815260048036101561001557600080fd5b600092833560e01c908163023a96fe14610bd0575080630569b3a114610aef5780630823d5f314610a4e57806311eac85514610a265783816313b7a45a146109ad575080631b0fc10614610917578063491db668146106b15780634e04f697146106885780636f9fb98a146105f4578063b978c97d14610508578063bc2256dc1461042057838163bfc2edfd1461038257508063c01ca43f1461024e578063e20fc1181461022557838163ed250f871461018c575063f1259329146100d957600080fd5b8290346101775781600319360112610177576001546001600160a01b031690813b1561018857835163f125932960e01b81529183918391829084905af1801561017b57610163575b5050600f8151918383528060208401528201526e696e646976696475616c5f67616d6560881b6060820152600080516020610d6083398151915260803392a280f35b61016c90610bf5565b610177578138610121565b5080fd5b50505051903d90823e3d90fd5b8280fd5b919050346101775781600319360112610177576001546001600160a01b031690813b1561018857835163014f004960e01b81529183918391829084905af1801561017b57610211575b5050600981519183835280602084015282015268667265655f67616d6560b81b6060820152600080516020610d6083398151915260803392a280f35b61021a90610bf5565b6101775781386101d5565b50503461017757816003193601126101775760035490516001600160a01b039091168152602090f35b50823461036857602091826003193601126101775780356001600160a01b038181169182900361037e5790602460a092856080895161028c81610c1f565b828152828a820152828b820152826060820152015260015416938751948593849263c01ca43f60e01b84528301525afa9182156103735780926102fd575b60a08460808588805193825185528083015190850152808201519084015260608101516060840152015115156080820152f35b90915060a0823d821161036b575b8161031860a09383610c3b565b8101031261036857508260809161035b8360a096519261033784610c1f565b80518452868101518785015284810151858501526060810151606085015201610d52565b83820152918194506102ca565b80fd5b3d915061030b565b8451903d90823e3d90fd5b8380fd5b919050346101775781600319360112610177576001546001600160a01b031690813b156101885783516398f79dcd60e01b81529183918391829084905af1801561017b5761040c575b5050600e8151918383528060208401528201526d756e6c696d697465645f7061737360901b6060820152600080516020610d6083398151915260803392a280f35b61041590610bf5565b6101775781386103cb565b5090346101885780600319360112610188578282359260243567ffffffffffffffff8111610188576104559036908301610c79565b6001546001600160a01b03169190823b1561037e576104989286858094885196879586948593632f0895b760e21b85528401528a60248401526044830190610d2d565b03925af180156104fe576104ea575b505080601091519283528060208401528201526f39b1b7b932afb9bab136b4b9b9b4b7b760811b6060820152600080516020610d6083398151915260803392a280f35b6104f390610bf5565b6101885782386104a7565b83513d84823e3d90fd5b509190346101775760016105569361051f36610cc0565b92919690848060a01b03600254169786519586946317e3c05160e01b86528501526024840152608060448401526084830190610d2d565b9560031982880301606483015281868161057360209a8b97610d2d565b03925af19283156105e957926105b5575b5080518281527f9f85484cc8fb25030d222fdcd51eb22a0f9b61069192af1dbfb3ff32b78b6d67843392a251908152f35b9091508281813d83116105e2575b6105cd8183610c3b565b810103126105dd57519038610584565b600080fd5b503d6105c3565b8251903d90823e3d90fd5b50919034610177578160031936011261017757815481516370a0823160e01b81523094810194909452602090849060249082906001600160a01b03165afa91821561067d5791610649575b6020925051908152f35b90506020823d8211610675575b8161066360209383610c3b565b810103126105dd57602091519061063f565b3d9150610656565b9051903d90823e3d90fd5b50503461017757816003193601126101775760015490516001600160a01b039091168152602090f35b503461018857826003193601126101885760018060a01b03600193828183875416865195868092630923b6cd60e31b82525afa93841561090d578294610780575b5050908394929451936020908186019282875287518094528187019083838660051b8a0101990195925b85841061072957888a0389f35b90919293949596858061076d839c603f198d82030188528b518781511682528381015184830152868101518783015260608091015191608080928201520190610d2d565b9b9901979695919091019301919061071c565b909193503d8085833e6107938183610c3b565b810191602091828185031261090957805167ffffffffffffffff9182821161090557019184601f84011215610901578251948286116108ee578560051b928951966107e087860189610c3b565b87528580880194860101948286116108ea57868101945b86861061080e5750505050505050509138806106f2565b85518381116108e657820160809081601f1982880301126108c9578d5191808301838110878211176108d1578f528a8201518d811681036108c5578f908452808301518c850152606083015190840152810151908582116108cd570185603f820112156108c957898101518e918761088583610c5d565b9361089281519586610c3b565b83855283830101116108c557918f8c9593928695936108b5928785019101610d0a565b60608201528152019501946107f7565b8e80fd5b8c80fd5b8d80fd5b604189634e487b7160e01b6000525260246000fd5b8b80fd5b8980fd5b634e487b7160e01b885260418252602488fd5b8680fd5b8780fd5b8580fd5b85513d84823e3d90fd5b5090346101885760203660031901126101885760025482359284916001600160a01b031690813b156101885784602484928387519586948593630d87e08360e11b85528401525af180156104fe57610999575b5050519081527f198848172490c9cede6f00b7d3d59d018f0bc4715a37f81b8ce39cc7807369ad60203392a280f35b6109a290610bf5565b61018857823861096a565b80848434610a225781600319360112610a22576002546001600160a01b0316803b15610a1d5760448492845195869384926309dbd22d60e11b845280359084015260243560248401525af1908115610a145750610a08575080f35b610a1190610bf5565b80f35b513d84823e3d90fd5b505050fd5b5050fd5b505034610177578160031936011261017757905490516001600160a01b039091168152602090f35b5091903461017757602092836003193601126101885780356001600160a01b0381811691829003610aeb579060248692600154169385519485938492630823d5f360e01b84528301525afa9283156105e9578093610ab1575b5050519015158152f35b909192508382813d8311610ae4575b610aca8183610c3b565b810103126103685750610adc90610d52565b903880610aa7565b503d610ac0565b8480fd5b509190346101775781610b3d93610b0536610cc0565b9291969060018060a01b03600254169786519586946317e3c05160e01b86528501526024840152608060448401526084830190610d2d565b95600319828803016064830152818681610b5a60209a8b97610d2d565b03925af19283156105e9578093610b9e575b505080518281527f9f85484cc8fb25030d222fdcd51eb22a0f9b61069192af1dbfb3ff32b78b6d67843392a251908152f35b909192508382813d8311610bc9575b610bb78183610c3b565b81010312610368575051903880610b6c565b503d610bad565b8490346101775781600319360112610177576002546001600160a01b03168152602090f35b67ffffffffffffffff8111610c0957604052565b634e487b7160e01b600052604160045260246000fd5b60a0810190811067ffffffffffffffff821117610c0957604052565b90601f8019910116810190811067ffffffffffffffff821117610c0957604052565b67ffffffffffffffff8111610c0957601f01601f191660200190565b81601f820112156105dd57803590610c9082610c5d565b92610c9e6040519485610c3b565b828452602083830101116105dd57816000926020809301838601378301015290565b60606003198201126105dd576004359167ffffffffffffffff6024358181116105dd5783610cf091600401610c79565b926044359182116105dd57610d0791600401610c79565b90565b60005b838110610d1d5750506000910152565b8181015183820152602001610d0d565b90602091610d4681518092818552858086019101610d0a565b601f01601f1916010190565b519081151582036105dd5756fe570ca89d15dea96a90cc65e78214b4f234f53b0c882b5b39aa0fb846f29881fea26469706673582212201c60e78a3270a51dc370d4ef995643a59ffc74070a92291e42f543242e1b562064736f6c63430008130033",
  "linkReferences": {},
  "deployedLinkReferences": {}
}